:100000000C9460030C94EE0C0C947D030C947D0313
:100010000C947D030C947D030C947D030C947D0360
:100020000C947D030C947D030C947D030C947D0350
:100030000C947D030C947D030C947D030C947D0340
:100040000C947D030C947D030C947D030C947D0330
:100050000C947D030C947D030C947D030C947D0320
:100060000C947D030C947D030C947D030C947D0310
:1000700000000000005C00000C000C007C287C28C4
:1000800058DC68002410480028542840000C000068
:10009000007884008478000054385400107C1000EC
:1000A00080400000101010000040000060100C00A4
:1000B00038543800487C40004864580044542C00B0
:1000C0001C107C005C5424003854240064140C0080
:1000D00068542C0048543800004800008048000054
:1000E0001028440028282800442810000454080040
:1000F00038445C00781478007C5428003844280088
:100100007C4438007C5444007C140400384474005F
:100110007C107C00447C440020403C007C106C003F
:100120007C4040007C187C0078103C00384438004B
:100130007C1408003844B8007C146800485424003B
:10014000047C04007C407C003C603C007C307C00F3
:100150006C106C000C700C0064544C00007C44006B
:100160000C106000447C00000804080080808000BF
:1001700000040800304878007C48300030484800CF
:1001800030487C00306850001078140090A8780047
:100190007C08700050744000808074007C106800FF
:1001A000447C4000781078007808700030483000B7
:1001B000F82810003048F80078100800505828003F
:1001C000083C4800384078003840380078207800F3
:1001D0004830480098A0780048685800107884009B
:1001E000007C00008478100008040804000000006F
:1001F0000000005F00000007000700147F147F1458
:10020000242A7F2A1223130864623649552250009B
:1002100005030000001C2241000041221C00082AA6
:100220001C2A0808083E080800503000000808088A
:100230000808006060000020100804023E51494593
:100240003E00427F400042615149462141454B31C9
:100250001814127F1027454545393C4A4949300159
:10026000710905033649494936064949291E0036B0
:100270003600000056360000000814224114141401
:10028000141441221408000201510906324979412F
:100290003E7E1111117E7F494949363E414141223E
:1002A0007F4141221C7F494949417F090901013EA3
:1002B000414151327F0808087F00417F41002040C2
:1002C000413F017F081422417F404040407F0204AB
:1002D000027F7F0408107F3E4141413E7F090909AA
:1002E000063E4151215E7F09192946464949493157
:1002F00001017F01013F4040403F1F2040201F7F00
:100300002018207F631408146303047804036151E8
:1003100049454300007F4141020408102041417FCC
:100320000000040201020440404040400001020479
:100330000020545454787F4844443838444444207E
:10034000384444487F3854545418087E0901020840
:100350001454543C7F0804047800447D400020403D
:10036000443D00007F10284400417F40007C041879
:1003700004787C0804047838444444387C14141409
:1003800008081414187C7C080404084854545420A9
:10039000043F4440203C4040207C1C2040201C3C2A
:1003A0004030403C44281028440C5050503C446499
:1003B000544C44000836410000007F0000004136E4
:1003C000080002010302010000000000000000001C
:1003D000065F5F060000000007070007070000181F
:1003E00024448888442418242E6B6B3A120000465B
:1003F0006630180C666200307A4F5D377A48000428
:1004000007030000000000001C3E634100000000E4
:1004100041633E1C000000082A3E1C1C3E2A0808BE
:10042000083E3E0808000000A0E060000000000850
:100430000808080808000000006060000000006074
:1004400030180C060301003E7F594D7F3E000042EC
:10045000427F7F40400000627359496F660000226E
:100460006349497F360000181C16137F7F10002750
:100470006745457D3900003C7E4B497930000003DB
:100480006371190F070000367F49497F3600000667
:100490004F49693F1E000000006C6C000000000026
:1004A000A0EC6C00000000081C3663410000001442
:1004B00014141414140000004163361C08000002D8
:1004C0000351590F0600003C42818199A542007CEE
:1004D0007E13137E7C0000417F7F49497F36001CDC
:1004E0003E634141632200417F7F41637F1C0041A5
:1004F0007F7F495D416300417F7F491D0103001CEF
:100500003E6341517372007F7F08087F7F000000C7
:10051000417F7F41000000307040417F3F0100413A
:100520007F7F081C776300417F7F41406070007FC0
:100530007F060C067F7F007F7F060C187F7F001CE4
:100540003E6341633E1C00417F7F49090F06001E48
:100550003F21717F5E0000417F7F19396F46002681
:10056000674D597B32000003417F7F410300007FCC
:100570007F40407F7F00001F3F60603F1F00007F83
:100580007F3018307F7F0063771C081C776300077B
:100590004F78784F0700006773594D47637100002B
:1005A0007F7F41410000000103060C18306000000D
:1005B00041417F7F000000080C0603060C08008004
:1005C000808080808080800000030704000000207D
:1005D0007454543C784000413F7F44447C38003898
:1005E0007C44446C280000307848493F7F40003804
:1005F0007C54545C180000487E7F49030200009838
:10060000BCA4A4F87C0400417F7F08047C7800002F
:10061000447D7D4000000040C484FD7D0000004119
:100620007F7F10386C440000417F7F400000007CD9
:100630007C0C180C7C78007C7C04047C78000038EE
:100640007C44447C38000084FCF8A4243C18001846
:100650003C24A4F8FC8400447C78441C1800004826
:100660005C54547424000000043E7F442400003C89
:100670007C40403C7C40001C3C60603C1C00003CDA
:100680007C6030607C3C00446C3810386C44009CCA
:10069000BCA0A0FC7C00004C64745C4C64000008AE
:1006A000083E7741410000000000777700000041DC
:1006B00041773E0808000002030103020301000025
:1006C00011241FBECFEFD4E0DEBFCDBF13E0A0E00A
:1006D000B1E0ECEEF7E202C005900D92A835B1074B
:1006E000D9F723E0A8E5B3E001C01D92AD3CB20705
:1006F000E1F70E947F030C94F4130C940000CF9355
:10070000DF9300D0CDB7DEB78FE190E00E941504F3
:1007100085B7806885BF80B7806280BF8BB78064F3
:100720008BBF85B7826085BF85B78E7F85BF0E94EE
:10073000D8040E943B040E9445062FEF8FEF9DE1F5
:10074000215080409040E1F700C000000E949307D4
:100750007C010E94F7041A8219820E941C0C789472
:100760000E945104CC24C394D12C0E9482054B01D9
:100770005C0100E010E023E030E0AE014F5F5F4F2E
:10078000B501C7010E9436087C010E946807F70185
:10079000808191818E509140C1F469E171E0C50181
:1007A0000E94F80E892B71F5F701C2840C2C000C05
:1007B000DD0823E030E0AE014F5F5F4FB501C701B8
:1007C0000E9436087C010E946807F70180819181B0
:1007D0008F519140B9F400E010E023E030E0AE0129
:1007E0004F5F5F4FB501C7010E9436087C010E9430
:1007F00068079601AE014F5F5F4FB501C7010E94C8
:10080000310D7C018FEF9FE20197F1F700C00000EE
:10081000ACCF5D9BFECF8CB908955F9BFECF8CB1B2
:1008200090E00E94620F8CB1089590BD89B988E173
:100830008AB98EE880BD6DE074E089E094E00E94A2
:10084000010F90935E0380935D030895CF93DF9330
:10085000EC018881882351F0219660915D037091AD
:100860005E030E94090489918111F7CF80E090E036
:10087000DF91CF91089585B7806885BF80B780628A
:1008800080BF80E090E00895FC01F85E608380E026
:1008900090E00895FC01F85E8081082E000C990B11
:1008A0000895CF92DF92EF92FF920F931F93CF9311
:1008B000DF9384E291E09F938F930E944C0F0E94FC
:1008C000E80E7C010E94ED0E0F900F90C12CD12CF0
:1008D000C0E0D0E00EE311E00E94E80EF601F85E01
:1008E000808320812817A1F099279F938F931F92CF
:1008F0002F93DF92CF921F930F930E944C0F21965C
:100900008DB79EB708960FB6F8949EBF0FBE8DBFE9
:100910009FEFC91AD90AC11488E0D806E9F6C701C1
:100920000E94ED0E00E010E0E12CF12C0F2EF8E714
:10093000CF2EF1E0DF2EF02D0E94E80EF801F85ED8
:1009400020812817B1F099279F938F931F922F939F
:100950001F930F93DF92CF920E944C0F9FEFE91AE3
:10096000F90A8DB79EB708960FB6F8949EBF0FBED2
:100970008DBF0F5F1F4F011598E01907E9F6FF9231
:10098000EF92DF93CF9386EB91E09F938F930E943A
:100990004C0F0F900F900F900F900F900F90DF91D2
:1009A000CF911F910F91FF90EF90DF90CF9008951E
:1009B000BA9880E090E00895843050F48460E0E0DC
:1009C000F4E1808382E68A95F1F700008081089542
:1009D00080E0089581E00E94DC0480935B0380E066
:1009E0000E94DC048093590380E090E008950E9407
:1009F000D80487B3887F87BB88B3876088BB0E9491
:100A0000EA0480E090E008958130910549F0823059
:100A1000910559F0892B71F486B3817090E00895A7
:100A200086B38695817090E00895B29B06C083E0FE
:100A300090E0089580E090E0089580E090E00895CF
:100A4000CF9381E00E94DC04C82F80E00E94DC0488
:100A5000E82F40915B034C1798F450E02C2F30E0C6
:100A6000241B350B64E6629FC001639F900D112427
:100A700060E071E0641B750B0E94740EF62F13C0CA
:100A8000C41780F4642F70E02C2F30E0261B370B46
:100A900044E6429FC001439F900D11240E94740EB2
:100AA000F62F01C0F0E0209159032E1798F430E0A2
:100AB0004E2F50E0421B530B64E6649FC001659FBC
:100AC000900D112460E071E0621B730B0E94740EA4
:100AD000762F13C0E21780F430E04E2F50E0421B17
:100AE000530B64E6649FC001659F900D1124B9010A
:100AF0000E94740E762F01C070E06F2F80E090E0AE
:100B0000CF9108950E942005E72F282F392F683DA7
:100B10002CF069322CF029E131E002C022E132E010
:100B2000E83D2CF0E9322CF02CE132E002C027E164
:100B300032E08AE0860F853130F48AE0870F853114
:100B400010F42FE132E0822F932F0895CF9382E0AB
:100B50000E94DC04C82F83E00E94DC0424E6829F0C
:100B6000C0011124892F94E6C99F90011124932F6D
:100B7000CF910895E0910201F091030180830895DF
:100B800010925C0310925A03E0910201F09103016C
:100B900081E28083E0910201F09103011082E091F3
:100BA0000201F09103018FE78083E0910201F0914F
:100BB000030182E28083E0910201F091030110823F
:100BC000E0910201F091030187E0808380E090E0F2
:100BD0000895CF93C82F0E94C005C83098F4C093E1
:100BE0005C03E0910201F09103011082E0910201A7
:100BF000F091030180E18083E0910201F091030113
:100C0000C06BC08380E090E0CF910895803198F46C
:100C1000982F990F990F990F90935A03E091020121
:100C2000F091030198709083E0910201F09103012B
:100C30008695805F808380E090E00895CF93C62FF3
:100C40000E94E9058C2F0E94060680E090E0CF917B
:100C500008950E94E90580E890E0E0910001F0919C
:100C6000010110820197C9F70E94C00580E090E061
:100C70000895CF93C0E08C2F0E942906CF5FC83023
:100C8000D1F780E090E0CF910895E0910201F091DA
:100C900003018EEA8083E0910201F091030181EA71
:100CA0008083E0910201F09103018AED8083E0915D
:100CB0000201F091030182E18083E0910201F09151
:100CC000030188EC8083E0910201F091030188EA3E
:100CD0008083E0910201F09103018FE38083E09132
:100CE0000201F091030185ED8083E0910201F09112
:100CF000030180E88083E0910201F091030181E823
:100D00008083E0910201F091030180E58083E0910E
:100D10000201F091030189ED8083E0910201F091DD
:100D2000030181E28083E0910201F091030180E2FE
:100D30008083E0910201F091030182E08083E091E1
:100D40000201F09103018BED8083E0910201F091AB
:100D5000030180E38083E0910201F09103018DEAB9
:100D60008083E0910201F09103011082E091020181
:100D7000F091030184EA8083E0910201F091030184
:100D800086EA8083E0910201F09103018FEA80837B
:100D90000E9439060E94C00580E090E00895082E68
:100DA000000C990B8097880F991F880F991F880F47
:100DB000991FFC01E953FC4F81539C4FA091000106
:100DC000B091010124912C933196E817F907B1F7FE
:100DD00080E090E00895CF93DF93EC018881882331
:100DE00031F021960E94CF0689918111FBCF80E0DE
:100DF00090E0DF91CF910895CF93DF930E94E905B2
:100E0000C0E0D0E080915C0360E070E09E0140E8CB
:100E1000849F200D311D1124C9010E944404219694
:100E2000C038D10579F70E94C00580E090E0DF91DD
:100E3000CF910895CF93C0E08C2F0E94FC06CF5F26
:100E4000C830D1F780E090E0CF9108950F931F93C1
:100E5000CF93DF9328E08202C0011124C0E0D0E0EC
:100E60008C011A95F801EC0FFD1FE953FC4F6491BA
:100E700070E020915C0380915A0390E030E8239F5A
:100E8000800D911D11248C0F9D1F0E9444042196FA
:100E9000C830D10539F780915A03885F80935A038F
:100EA00080E090E0DF91CF911F910F910895CF9353
:100EB000DF93EC018881882331F021960E94260778
:100EC00089918111FBCF80E090E0DF91CF9108956F
:100ED000DF92EF92FF920F931F93CF93DF93C0E0C7
:100EE000D0E0D12C8D2D0E94E9057E0180E8E80E2E
:100EF000F11C0091000110910101CE010E944A04F1
:100F0000F80180832196CE15DF0599F7D394E70188
:100F1000F8E0DF12E7CFDF91CF911F910F91FF90A3
:100F2000EF90DF900895EF92FF920F931F93CF936E
:100F3000DF93E6E9F3E087E292E091838083138216
:100F400012820F2EF5E7EF2EF3E0FF2EF02DF58243
:100F5000E482AAE6B3E0B783A6831186108681E017
:100F600082872FE131E0E70139832883FB83EA831D
:100F70006BE873E07D836C831F821E82198618865E
:100F80008A872CE232E011963C932E931396FC93C1
:100F9000EE93129740E853E015965C934E931497A6
:100FA00021EA33E017963C932E93169719961C92DC
:100FB0001E9218971A968C931A9704E312E0EB018D
:100FC00019830883FB82EA821D821C821F821E8293
:100FD000198618868A876FE372E0EA01798368834D
:100FE000BB83AA831D821C821F821E8219861886DB
:100FF0008A874EE051E0E90159834883BB83AA8385
:10100000CCEAD3E0D9011596DC93CE9314974FE543
:1010100053E017965C934E93169719961C921E9266
:1010200018971A968C932AE432E039832883FB833D
:10103000EA831D821C821F821E82198618868A8777
:1010400026E532E0EA0139832883FB83EA831D82A7
:101050001C821F821E82198618868A87CF01DF9123
:10106000CF911F910F91FF90EF9008956F927F9213
:101070008F929F92AF92BF92CF92DF92EF92FF92A8
:101080000F931F93CF93DF93CDB7DEB7E2970FB6E1
:10109000F894DEBF0FBECDBF7C015B016A01390150
:1010A0006F51724019F4DA011D921C9281E090E0B8
:1010B0000E940405892BD9F0F60180819181892B4A
:1010C000B1F46FE171E0D7018D919C910E94F80E0F
:1010D000892B69F481E090E0F60191838083D70148
:1010E00014968D919C911597009709F07C0181E0F1
:1010F00090E00E940405892BD9F0F601808191814E
:10110000892BB1F464E372E0D7018D919C910E9428
:10111000F80E892B69F481E090E0F60191838083D9
:10112000D70112968D919C911397009709F07C013D
:1011300080E090E00E940405892BF9F0F60180819F
:101140009181892BD1F464E372E0D7018D919C9158
:101150000E94F80E892B89F481E090E0F6019183DA
:101160008083D7011296ED91FC911397309729F067
:10117000E280F38082E0F7018287D7018D909C9016
:1011800067E272E0C4010E94F80E892B09F056C094
:101190000E941A0760E080E00E941E0680E692E04E
:1011A0000E94570762E081E00E941E0681E792E0FC
:1011B0000E94570762E082E00E941E068BE792E0E1
:1011C0000E9457076CE172E0C5010E94F80E892B5E
:1011D00099F4F60180819181892B39F581E090E0C5
:1011E00091838083D7011A968C911A978230ECF004
:1011F00081501A968C9319C067E172E0C5010E9474
:10120000F80E892B91F4F60180819181892B69F484
:1012100081E090E091838083D7011A968C911A9790
:1012200082301CF48F5F1A968C9360E0F701828500
:101230000E941E0680E40E942607EFC16FE171E064
:10124000C4010E94F80E892B09F064C00E941A079D
:1012500060E080E00E941E0684E892E00E9457074A
:1012600061E087E00E941E0661E082E00E941E06A7
:10127000F3E06F16710429F485E992E00E945707A4
:1012800044C022E06216710429F480EA92E00E94D0
:1012900057073BC081E06816710429F48AEA92E09E
:1012A0000E94570732C0672881F50E941A0763E041
:1012B00083E00E941E0683EB92E00E94570764E0E1
:1012C00085E00E941E068DEB92E00E9457071F9357
:1012D0000F9384EC92E09F938F938E010F5F1F4FCB
:1012E0001F930F930E94690FC8010E94570760E087
:1012F00087E00E941E0687EC92E00E9457070F903D
:101300000F900F900F900F900F908FEFD7011A96BC
:101310008C9383C164E372E0C4010E94F80E892BB0
:10132000F1F40E941A0763E083E00E941E068AEC33
:1013300092E00E94570760E087E00E941E0685ED5C
:1013400092E00E9457076EE087E00E941E0689ED3A
:1013500092E00E9457078FEFF70182875EC16CE22F
:1013600072E0C4010E94F80E892B09F053C00E945C
:101370001A0760E080E00E941E068CED92E00E9459
:10138000570762E081E00E941E068DEE92E00E9407
:10139000570762E082E00E941E0683EF92E00E94FF
:1013A00057076CE172E0C5010E94F80E892B89F4A1
:1013B000D6018D919C911197892B11F581E090E0D8
:1013C0008D939C93F70182858230D4F0815082877F
:1013D00017C067E172E0C5010E94F80E892B81F405
:1013E000D6018D919C911197892B51F481E090E069
:1013F0008D939C93F7018285823014F48F5F8287EE
:1014000060E0D7011A968C910E941E0680E40E942B
:10141000260703C16FE372E0C4010E94F80E892B16
:1014200009F076C00E941A0760E080E00E941E0664
:101430008EEF92E00E94570762E081E00E941E0654
:101440008EE093E00E94570762E082E00E941E0651
:1014500089E193E00E9457076CE172E0C5010E94A8
:10146000F80E892B99F4F60180819181892B39F549
:1014700081E090E091838083D7011A968C911A972E
:101480008230ECF081501A968C9319C067E172E0BB
:10149000C5010E94F80E892B91F4F601808191819B
:1014A000892B69F481E090E091838083D7011A96BB
:1014B0008C911A9782301CF48F5F1A968C9360E09F
:1014C000F70182850E941E0680E40E94260769E1DA
:1014D00071E0C5010E94F80E892B09F0CBC0D6013E
:1014E0008D919C911197892B09F0E6C081E090E0E5
:1014F0008D939C9325E030E03C872B879A878987E2
:10150000F70182858983CE0101960E94360C85C041
:101510006EE071E0C4010E94F80E892B09F053C0FF
:101520000E941A0760E080E00E941E0685E293E0B8
:101530000E94570762E081E00E941E0686E393E066
:101540000E94570762E082E00E941E068DE393E04E
:101550000E9457076CE172E0C5010E94F80E892BCA
:1015600089F4D6018D919C911197892B11F581E019
:1015700090E08D939C93F70182858230D4F0815066
:10158000828717C067E172E0C5010E94F80E892BBF
:1015900081F4D6018D919C911197892B51F481E0B2
:1015A00090E08D939C93F7018285823014F48F5FD5
:1015B000828760E0D7011A968C910E941E0680E413
:1015C0000E9426072AC06AE472E0C4010E94F80E55
:1015D000892B71F40E941A0763E083E00E941E06C3
:1015E00082E493E00E9457078FEFF701828715C0CE
:1015F00066E572E0C4010E94F80E892B71F40E9426
:101600001A0763E083E00E941E068EE493E00E94C6
:1016100057078FEFD7011A968C9369E171E0C501E6
:101620000E94F80E892B31F5F60180819181892B7A
:1016300009F042C0D7018D919C91B2E08A349B079A
:1016400019F08F51914099F181E090E0D6018D938E
:101650009C93D7011A96EC910E2E000CFF0B31963D
:10166000EE0FFF1FEE0DFF1D80819181009721F18C
:101670007C0122C062E172E0C5010E94F80E892B54
:10168000D9F4F60180819181892BB1F4D7018D9134
:101690009C918F51914081F081E090E09183808313
:1016A000F70182819381009739F07C0105C062E1E6
:1016B00072E0C5010E94F80EC701E2960FB6F894D9
:1016C000DEBF0FBECDBFDF91CF911F910F91FF9075
:1016D000EF90DF90CF90BF90AF909F908F907F90D2
:1016E0006F900895CF93DF93EC0181E090E00E942A
:1016F0000405029729F48A85082E000C990B02C074
:1017000080E090E0DF91CF91089587B3806B87BB35
:10171000BE9881E58DB980E090E008958FB9779B00
:10172000FECF80E090E0089580E00E948E0B8FB1A4
:101730000895C49880E090E00895C49A80E090E015
:1017400008950E94990B80EC0E948E0B0E949D0BC5
:101750008FE493EC0197F1F700C0000080E090E087
:1017600008950E94850B0E94A10B80E090E00895EF
:10177000CF93C82F0E94990B83E00E948E0B8C2F71
:101780000E948E0B0E94940BC82F0E949D0B8C2FE1
:10179000CF910895CF93DF93D82FC62F0E94990B36
:1017A00082E00E948E0B8D2F0E948E0B8C2F0E9448
:1017B0008E0B0E949D0B80E090E0DF91CF91089509
:1017C000CF93883018F4C82FC06801C0C0E80E94C9
:1017D000990B8C2F0E948E0B0E949D0B80E090E055
:1017E000CF910895CF930E94990B80EA0E948E0BAF
:1017F0000E94940BC82F0E949D0B8C2FCF910895AF
:101800001F93CF93DF93182FD62FC42F0E94990BCD
:1018100085E00E948E0B812F0E948E0B8D2F0E94DF
:101820008E0B8C2F0E948E0B0E949D0B80E090E00F
:10183000DF91CF911F9108950E94B10B4FEF60E6A9
:1018400080E60E94000C40E060EE8FE00E94000CF9
:1018500041E061E08BE20E94000C80E090E008959E
:1018600080E30E94B80B8FEF9FEF08950F931F93B3
:10187000CF938C01FC01628573857595679575958D
:1018800067957595679581E30E94CA0BF80162859B
:101890007385660F771F62957295707F7627607FDC
:1018A000762782E30E94CA0BF80160856F7085E39A
:1018B0000E94CA0BF8018085918518161906A4F4B8
:1018C00020E030E0C0E0F801E20FF31F608186E322
:1018D0008C0F0E94CA0BCF5F2C2F30E0F80180855F
:1018E0009185281739077CF389EF90E00197F1F78C
:1018F00000C0000081E00E94E00B80E090E0CF910A
:101900001F910F91089581E090E00895AF92BF92EA
:10191000CF92DF92EF92FF921F93CF93DF937C01E0
:1019200080915803813071F581E60E94B80BA82E92
:1019300082E60E94B80B829586958770B12CAA0C1E
:10194000BB1CAA0CBB1CAA0CBB1CA82A85E60E94C7
:10195000B80B8F70C82ED12C1C141D0484F4C0E069
:10196000D0E010E086E6810F0E94B80BCE0DDF1D9F
:1019700088831F5FC12FD0E0CC15DD059CF310924A
:10198000580303C0AA24AA94BA2CF701D186C086B2
:10199000B386A286C701DF91CF911F91FF90EF9090
:1019A000DF90CF90BF90AF9008952CE0E7EBF3E08D
:1019B000DC0101900D922A95E1F7089540E060E086
:1019C0008CE20E94000C40E061E08CE20E94000C7E
:1019D00081E08093580380E090E008951F920F9279
:1019E0000FB60F9211242F933F934F935F936F93F2
:1019F0007F938F939F93AF93BF93EF93FF93CF9377
:101A0000DF93CDB7DEB72C97DEBFCDBF0E94DE0CD3
:101A1000CE0101960E94860C8CE0FE013196A7EB68
:101A2000B3E001900D928A95E1F72C960FB6F894E9
:101A3000DEBF0FBECDBFDF91CF91FF91EF91BF9180
:101A4000AF919F918F917F916F915F914F913F9156
:101A50002F910F900FBE0F901F90189580E090E08F
:101A600008952F923F924F925F926F927F928F9242
:101A70009F92AF92BF92CF92DF92EF92FF920F931D
:101A80001F93CF93DF93CDB7DEB7AB970FB6F89424
:101A9000DEBF0FBECDBF5C0181E090E0988F8F8BE1
:101AA00086E090E09E8B8D8B2A8B1EA21DA20E9449
:101AB0006807612C712C0F2EF3E08F2E912CF02DE6
:101AC0001BA61AA6312CC12CD12C222423945524D8
:101AD0005394412C1CC00E94680781149104B9F4EE
:101AE0000E94680780E090E00E940405892BD1F3F2
:101AF0002FE38DE093E0215080409040E1F700C05B
:101B00000000F501A280B380C52CD42C212C0E94AA
:101B10008205062F172FE82EF92E0E94A6050D87A5
:101B20001E87988B3F86298ACE010D960E94360C1F
:101B30001F8680E090E00E940405892B39F0352C47
:101B4000F1E0CF16D10419F4312C01C0312C852DD0
:101B5000942D0E940405892B09F460C0830194012F
:101B6000AE014B5D5F4F6E2D7F2DC5010E94360883
:101B70005C012FE78AE196E0215080409040E1F738
:101B800000C000000E9468070E948205E82EF92E1E
:101B9000852D942D0E940405892BE9F08301940181
:101BA000AE014B5D5F4F6E2D7F2DC5010E94360843
:101BB0005C01EFE7FAE126E0E150F0402040E1F778
:101BC00000C000000E94680780E090E00E940405C9
:101BD000892B21F109C080E090E00E940405892B47
:101BE00089F26E2D7F2D02C06E2D7F2D8301940111
:101BF000AE014B5D5F4FC5010E9436085C018FE767
:101C00009AE1E6E081509040E040E1F700C000003A
:101C10000E946807198AC52CD42C212CCE0101966C
:101C20000E94860C8B859C85029741F4CE014996D3
:101C30000E94860CF98DFFA36A8C712C8BA19CA14C
:101C4000029701F59FA1892F90E099A788A7881591
:101C50009905C1F0EFA1E430A8F48114910441F199
:101C60008AA59BA5892BE9F0830128A539A5AE019A
:101C70004B5D5F4F6E2D7F2DC5010E9436085C01C4
:101C800088A499A4C114D10409F425CF13C00E94DB
:101C900068070F2EF3E08F2EF02D912C5AA64BA63D
:101CA00036CFC114D10499F305C00E94680718CF3C
:101CB000CD28D9F3C501AB960FB6F894DEBF0FBEA1
:101CC000CDBFDF91CF911F910F91FF90EF90DF90EB
:101CD000CF90BF90AF909F908F907F906F905F90CC
:101CE0004F903F902F90089597FB072E16F4009485
:101CF00007D077FD09D00E94880E07FC05D03EF47E
:101D0000909581959F4F0895709561957F4F0895A7
:101D1000AA1BBB1B51E107C0AA1FBB1FA617B70711
:101D200010F0A61BB70B881F991F5A95A9F780952D
:101D30009095BC01CD0108958F929F92AF92BF9272
:101D4000CF92DF92EF92FF92CF93DF93EC01688105
:101D500079818A819B81611571058105910521F445
:101D600064E279ED8BE597E02DE133EF41E050E05F
:101D70000E945A1349015A019B01AC01A7EAB1E440
:101D80000E9479136B017C01ACEEB4EFA5019401C4
:101D90000E948713DC01CB018C0D9D1DAE1DBF1D64
:101DA000B7FF03C00197A109B04888839983AA832C
:101DB000BB839F77DF91CF91FF90EF90DF90CF9023
:101DC000BF90AF909F908F9008950E949C0E0895B1
:101DD00084E091E00E949C0E0895A0E0B0E0809322
:101DE000040190930501A0930601B09307010895A3
:101DF000FB01DC018D91019080190110D9F3990B41
:101E000008950F931F93CF93DF93009731F46115DB
:101E1000710519F480E090E03AC08B01EC016EE0AE
:101E200070E081E090E00E945E11FC01892B91F34B
:101E300080E883830115110571F01387028781E81B
:101E400083838091C3039091C403892B21F4F09381
:101E5000C403E093C3032097C9F0D187C08783816F
:101E6000826083838091C5039091C603892B71F4AE
:101E7000F093C603E093C5038091C7039091C80314
:101E8000892B21F4F093C803E093C703CF01DF91BE
:101E9000CF911F910F910895A0E0B0E0E2E5FFE03F
:101EA0000C949C13AE014B5F5F4FFA0161917191ED
:101EB000AF018091C5039091C6030E948C0FE2E0B0
:101EC0000C94B8136091C5037091C6030E94C412AC
:101ED0000895AEE0B0E0EFE6FFE00C949A130D89B0
:101EE0001E8986E08C831A8309838FEF9FE79E8388
:101EF0008D83AE01475E5F4F6F89788DCE0101966D
:101F00000E948C0F2F813885F801E20FF31F108299
:101F10002E96E4E00C94B613ACE0B0E0E2E9FFE00A
:101F20000C948C137C016B018A01FC0117821682D0
:101F3000838181FFBDC1CE0101964C01F7019381E0
:101F4000F60193FD859193FF81916F01882309F438
:101F5000ABC1853239F493FD859193FF81916F0177
:101F6000853229F4B70190E00E94C412E7CF512CCA
:101F7000312C20E02032A0F48B3269F030F4803232
:101F800059F0833269F420612CC08D3239F08033EE
:101F900039F4216026C02260246023C0286021C05B
:101FA00027FD27C030ED380F3A3078F426FF06C001
:101FB000FAE05F9E300D1124532E13C08AE0389E44
:101FC000300D1124332E20620CC08E3221F426FDF8
:101FD0006BC1206406C08C3611F4206802C08836BC
:101FE00041F4F60193FD859193FF81916F01811179
:101FF000C1CF982F9F7D9554933028F40C5F1F4FCD
:10200000FFE3F9830DC0833631F0833771F08335F8
:1020100009F05BC022C0F801808189830E5F1F4FE9
:1020200044244394512C540115C03801F2E06F0E42
:10203000711CF801A080B18026FF03C0652D70E0FF
:1020400002C06FEF7FEFC5012C870E94B9122C01EF
:1020500083012C852F77222E17C03801F2E06F0EF6
:10206000711CF801A080B18026FF03C0652D70E0CF
:1020700002C06FEF7FEFC5012C870E94A7122C01D1
:102080002C852068222E830123FC1BC0832D90E029
:1020900048165906B0F4B70180E290E00E94C412DD
:1020A0003A94F4CFF50127FC859127FE81915F01D9
:1020B000B70190E00E94C41231103A94F1E04F1A37
:1020C00051084114510471F7E5C0843611F0893686
:1020D00039F5F80127FF07C0608171818281938102
:1020E0000C5F1F4F08C060817181072E000C880BA8
:1020F000990B0E5F1F4F2F76722E97FF09C0909598
:102100008095709561957F4F8F4F9F4F2068722EFD
:102110002AE030E0A4010E94FC12A82EA81844C0B6
:10212000853729F42F7EB22E2AE030E025C0F22F29
:10213000F97FBF2E8F36C1F018F4883579F0B4C01E
:10214000803719F0883721F0AFC02F2F2061B22ED1
:10215000B4FE0DC08B2D8460B82E09C024FF0AC0C8
:102160009F2F9660B92E06C028E030E005C020E120
:1021700030E002C020E132E0F801B7FE07C0608124
:102180007181828193810C5F1F4F06C060817181D4
:1021900080E090E00E5F1F4FA4010E94FC12A82E69
:1021A000A818FB2DFF777F2E76FE0BC0372D3E7FC4
:1021B000A51450F474FE0AC072FC08C0372D3E7E90
:1021C00005C0BA2C372D03C0BA2C01C0B52C34FF82
:1021D0000DC0FE01EA0DF11D8081803311F4397EBE
:1021E00009C032FF06C0B394B39404C0832F86782D
:1021F00009F0B39433FD13C030FF06C05A2CB3145A
:1022000018F4530C5B18B32CB31468F4B70180E2D4
:1022100090E03C870E94C412B3943C85F5CFB31480
:1022200010F43B1801C0312C34FF12C0B70180E319
:1022300090E03C870E94C4123C8532FF17C031FDFC
:1022400003C088E790E002C088E590E0B7010CC0C9
:10225000832F867859F031FF02C08BE201C080E203
:1022600037FD8DE2B70190E00E94C412A51438F446
:10227000B70180E390E00E94C4125A94F7CFAA9469
:10228000F401EA0DF11D8081B70190E00E94C412B3
:10229000A110F5CF332009F451CEB70180E290E0D0
:1022A0000E94C4123A94F6CFF7018681978102C04A
:1022B0008FEF9FEF2C96E2E10C94A8130F931F93DE
:1022C000CF93DF93869F8001879F100D969F100DFF
:1022D0001124C8010E947A11EC01009729F0A8018D
:1022E00060E070E00E94B212CE01DF91CF911F91A9
:1022F0000F910895CF93DF938230910510F482E01F
:1023000090E0E091CB03F091CC0320E030E0C0E01E
:10231000D0E0309711F14081518148175907C0F042
:102320004817590761F482819381209719F09B83A4
:102330008A832BC09093CC038093CB0326C02115B6
:10234000310519F04217530718F49A01BE01DF0155
:10235000EF010280F381E02DDCCF2115310509F179
:10236000281B390B2430310590F412968D919C91E5
:1023700013976115710521F0FB019383828304C0DB
:102380009093CC038093CB03FD01329644C0FD01B2
:10239000E20FF31F81939193225031092D933C93C7
:1023A0003AC02091C9033091CA03232B41F42091F4
:1023B0000A0130910B013093CA032093C903209185
:1023C0000801309109012115310541F42DB73EB7BF
:1023D00040910C0150910D01241B350BE091C90374
:1023E000F091CA03E217F307A0F42E1B3F0B281746
:1023F000390778F0AC014E5F5F4F2417350748F07E
:102400004E0F5F1F5093CA034093C903819391936A
:1024100002C0E0E0F0E0CF01DF91CF9108950F938B
:102420001F93CF93DF93009709F48CC0FC01329780
:10243000138212820091CB031091CC030115110578
:1024400081F420813181820F931F2091C903309143
:10245000CA032817390779F5F093CA03E093C90333
:1024600071C0D80140E050E0AE17BF0750F412969B
:102470002D913C911397AD012115310509F1D90139
:10248000F3CF9D01DA013383228360817181860F4E
:10249000971F8217930769F4EC0128813981260F71
:1024A000371F2E5F3F4F318320838A819B81938327
:1024B0008283452B29F4F093CC03E093CB0342C0F5
:1024C0001396FC93EE931297ED01499159919E0159
:1024D000240F351FE217F30771F480819181840F77
:1024E000951F029611969C938E93828193811396E9
:1024F0009C938E931297E0E0F0E0D80112968D91B4
:102500009C911397009719F0F8018C01F6CF8D91EB
:102510009C9198012E5F3F4F820F931F2091C9031A
:102520003091CA032817390769F4309729F41092BB
:10253000CC031092CB0302C0138212821093CA0301
:102540000093C903DF91CF911F910F910895FC0172
:102550000590615070400110D8F7809590958E0FCE
:102560009F1F0895DC0101C06D9341505040E0F77A
:102570000895FC016150704001900110D8F78095DA
:1025800090958E0F9F1F08950F931F93CF93DF9306
:10259000FB01238121FD03C08FEF9FEF28C022FFA5
:1025A00016C046815781248135814217530744F470
:1025B000A081B1819D012F5F3F4F318320838C9398
:1025C000268137812F5F3F4F3783268310C0EB0171
:1025D000092F182F0084F185E02D0995892BE1F64C
:1025E0008E819F8101969F838E83812F902FDF9113
:1025F000CF911F910F910895FA01AA27283051F128
:10260000203181F1E8946F936E7F6E5F7F4F8F4F23
:102610009F4FAF4FB1E03ED0B4E03CD0670F781F82
:10262000891F9A1FA11D680F791F8A1F911DA11D67
:102630006A0F711D811D911DA11D20D009F46894A0
:102640003F912AE0269F11243019305D3193DEF648
:10265000CF010895462F4770405D4193B3E00FD0FE
:10266000C9F7F6CF462F4F70405D4A3318F0495DE9
:1026700031FD4052419302D0A9F7EACFB4E0A695CC
:102680009795879577956795BA95C9F700976105EE
:10269000710508959B01AC010A2E06945795479544
:1026A00037952795BA95C9F7620F731F841F951F39
:1026B000A01D0895052E97FB1EF400940E9471132F
:1026C00057FD07D00E94C31307FC03D04EF40C94AF
:1026D000711350954095309521953F4F4F4F5F4F67
:1026E000089590958095709561957F4F8F4F9F4F7E
:1026F00008950E94E513A59F900DB49F900DA49F8F
:10270000800D911D11240895B7FF0C9479130E9438
:102710007913821B930B08952F923F924F925F92F1
:102720006F927F928F929F92AF92BF92CF92DF92E1
:10273000EF92FF920F931F93CF93DF93CDB7DEB746
:10274000CA1BDB0B0FB6F894DEBF0FBECDBF0994DA
:102750002A88398848885F846E847D848C849B8431
:10276000AA84B984C884DF80EE80FD800C811B813F
:10277000AA81B981CE0FD11D0FB6F894DEBF0FBE6E
:10278000CDBFED010895A1E21A2EAA1BBB1BFD01CE
:102790000DC0AA1FBB1FEE1FFF1FA217B307E40740
:1027A000F50720F0A21BB30BE40BF50B661F771F98
:1027B000881F991F1A9469F7609570958095909578
:1027C0009B01AC01BD01CF010895A29FB001B39F51
:1027D000C001A39F700D811D1124911DB29F700D2A
:0C27E000811D1124911D0895F894FFCF75
:1027EC0000120010010000000000CD0320006469FD
:1027FC0066666963756C7479005249474854006782
:10280C00616D65000A0D5374617274696E672053B3
:10281C0052414D20746573742E2E2E0A0D00577282
:10282C00697465207068617365206572726F723AA5
:10283C00206578745F72616D5B2534645D203D208A
:10284C0025303258202873686F756C6420626520BF
:10285C0025303258290A0D0052657472696576610B
:10286C006C207068617365206572726F723A2065B6
:10287C0078745F72616D5B2534645D203D2025307A
:10288C003258202873686F756C642062652025307F
:10289C003258290A0D005352414D2074657374202F
:1028AC00636F6D706C657465642077697468200A59
:1028BC000D253464206572726F727320696E2077F7
:1028CC007269746520706861736520616E64200A9A
:1028DC000D253464206572726F727320696E2072DC
:1028EC00657472696576616C2070686173650A0A3B
:1028FC000D004C45465400444F574E005550004E69
:10290C0045555452414C006D61696E006F7074698D
:10291C006F6E730070617573655F6D656E75006DBC
:10292C00757369635F6D656E75006E6F726D616C4A
:10293C005F6469666600686172645F6469666600FC
:10294C002D2D2D4D61696E20204D656E752D2D2D13
:10295C0000506C61792047616D6500536574746932
:10296C006E6773002D2D506C6179696E672047611D
:10297C006D652D2D004C697665733A202323230059
:10298C004C697665733A202323004C697665733A5B
:10299C00202300596F75206C6F7374210053636F83
:1029AC0072653A002564004F6B005175697420679D
:1029BC00616D653F00596573004E6F002D2D2D2DF7
:1029CC0053657474696E67732D2D2D2D004D7573C1
:1029DC00696300446966666963756C7479002D2DB2
:1029EC002D2D2D4D757369632D2D2D2D2D004D61C4
:1029FC0072696F2074756E6500546574726973200A
:102A0C0074756E65002D2D2D446966666963756C51
:102A1C0074792D2D2D004E6F726D616C00486172B2
:102A2C0064004E6F726D616C206D6F64650048615F
:082A3C007264206D6F646500F7
:00000001FF
