:100000000C9460030C94E2090C947D030C947D0322
:100010000C947D030C947D030C947D030C947D0360
:100020000C947D030C947D030C947D030C947D0350
:100030000C947D030C947D030C947D030C947D0340
:100040000C947D030C947D030C947D030C947D0330
:100050000C947D030C947D030C947D030C947D0320
:100060000C947D030C947D030C947D030C947D0310
:1000700000000000005C00000C000C007C287C28C4
:1000800058DC68002410480028542840000C000068
:10009000007884008478000054385400107C1000EC
:1000A00080400000101010000040000060100C00A4
:1000B00038543800487C40004864580044542C00B0
:1000C0001C107C005C5424003854240064140C0080
:1000D00068542C0048543800004800008048000054
:1000E0001028440028282800442810000454080040
:1000F00038445C00781478007C5428003844280088
:100100007C4438007C5444007C140400384474005F
:100110007C107C00447C440020403C007C106C003F
:100120007C4040007C187C0078103C00384438004B
:100130007C1408003844B8007C146800485424003B
:10014000047C04007C407C003C603C007C307C00F3
:100150006C106C000C700C0064544C00007C44006B
:100160000C106000447C00000804080080808000BF
:1001700000040800304878007C48300030484800CF
:1001800030487C00306850001078140090A8780047
:100190007C08700050744000808074007C106800FF
:1001A000447C4000781078007808700030483000B7
:1001B000F82810003048F80078100800505828003F
:1001C000083C4800384078003840380078207800F3
:1001D0004830480098A0780048685800107884009B
:1001E000007C00008478100008040804000000006F
:1001F0000000005F00000007000700147F147F1458
:10020000242A7F2A1223130864623649552250009B
:1002100005030000001C2241000041221C00082AA6
:100220001C2A0808083E080800503000000808088A
:100230000808006060000020100804023E51494593
:100240003E00427F400042615149462141454B31C9
:100250001814127F1027454545393C4A4949300159
:10026000710905033649494936064949291E0036B0
:100270003600000056360000000814224114141401
:10028000141441221408000201510906324979412F
:100290003E7E1111117E7F494949363E414141223E
:1002A0007F4141221C7F494949417F090901013EA3
:1002B000414151327F0808087F00417F41002040C2
:1002C000413F017F081422417F404040407F0204AB
:1002D000027F7F0408107F3E4141413E7F090909AA
:1002E000063E4151215E7F09192946464949493157
:1002F00001017F01013F4040403F1F2040201F7F00
:100300002018207F631408146303047804036151E8
:1003100049454300007F4141020408102041417FCC
:100320000000040201020440404040400001020479
:100330000020545454787F4844443838444444207E
:10034000384444487F3854545418087E0901020840
:100350001454543C7F0804047800447D400020403D
:10036000443D00007F10284400417F40007C041879
:1003700004787C0804047838444444387C14141409
:1003800008081414187C7C080404084854545420A9
:10039000043F4440203C4040207C1C2040201C3C2A
:1003A0004030403C44281028440C5050503C446499
:1003B000544C44000836410000007F0000004136E4
:1003C000080002010302010000000000000000001C
:1003D000065F5F0600000000070700070700001423
:1003E0007F7F147F7F1400242E6B6B3A120000462F
:1003F0006630180C666200307A4F5D377A48000428
:1004000007030000000000001C3E634100000000E4
:1004100041633E1C000000082A3E1C1C3E2A0808BE
:10042000083E3E0808000000A0E060000000000850
:100430000808080808000000006060000000006074
:1004400030180C060301003E7F594D7F3E000042EC
:10045000427F7F40400000627359496F660000226E
:100460006349497F360000181C16137F7F10002750
:100470006745457D3900003C7E4B497930000003DB
:100480006371190F070000367F49497F3600000667
:100490004F49693F1E000000006C6C000000000026
:1004A000A0EC6C00000000081C3663410000001442
:1004B00014141414140000004163361C08000002D8
:1004C0000351590F0600003E7F415D5D1F1E007CF9
:1004D0007E13137E7C0000417F7F49497F36001CDC
:1004E0003E634141632200417F7F41637F1C0041A5
:1004F0007F7F495D416300417F7F491D0103001CEF
:100500003E6341517372007F7F08087F7F000000C7
:10051000417F7F41000000307040417F3F0100413A
:100520007F7F081C776300417F7F41406070007FC0
:100530007F060C067F7F007F7F060C187F7F001CE4
:100540003E6341633E1C00417F7F49090F06001E48
:100550003F21717F5E0000417F7F19396F46002681
:10056000674D597B32000003417F7F410300007FCC
:100570007F40407F7F00001F3F60603F1F00007F83
:100580007F3018307F7F0063771C081C776300077B
:100590004F78784F0700006773594D47637100002B
:1005A0007F7F41410000000103060C18306000000D
:1005B00041417F7F000000080C0603060C08008004
:1005C000808080808080800000030704000000207D
:1005D0007454543C784000413F7F44447C38003898
:1005E0007C44446C280000307848493F7F40003804
:1005F0007C54545C180000487E7F49030200009838
:10060000BCA4A4F87C0400417F7F08047C7800002F
:10061000447D7D4000000040C484FD7D0000004119
:100620007F7F10386C440000417F7F400000007CD9
:100630007C0C180C7C78007C7C04047C78000038EE
:100640007C44447C38000084FCF8A4243C18001846
:100650003C24A4F8FC8400447C78441C1800004826
:100660005C54547424000000043E7F442400003C89
:100670007C40403C7C40001C3C60603C1C00003CDA
:100680007C6030607C3C00446C3810386C44009CCA
:10069000BCA0A0FC7C00004C64745C4C64000008AE
:1006A000083E7741410000000000777700000041DC
:1006B00041773E0808000002030103020301000025
:1006C00011241FBECFEFD4E0DEBFCDBF13E0A0E00A
:1006D000B1E0EAEDFEE102C005900D92A833B1074A
:1006E000D9F723E0A8E3B3E001C01D92A435B20717
:1006F000E1F70E947F030C946B0F0C9400008FE1D4
:1007000090E00E94B80385B7806885BF80B780629B
:1007100080BF78948BB780648BBF85B7826085BFBC
:1007200085B78E7F85BF0E94EB052FEF8FEF9DE190
:10073000215080409040E1F700C000000E9439073E
:100740000E949D082FEF8FE797E021508040904056
:10075000E1F700C00000F6CF5D9BFECF8CB9089595
:100760005F9BFECF8CB190E00E94FC0A8CB1089593
:1007700090BD89B988E18AB98EE880BD60EB73E0ED
:100780008CEA93E00E949B0A90933E0380933D0382
:100790000895CF93DF93EC018881882351F021964F
:1007A00060913D0370913E030E94AC0389918111D9
:1007B000F7CF80E090E0DF91CF91089585B7806812
:1007C00085BF80B7806280BF80E090E00895FC0123
:1007D000F85E608380E090E00895FC01F85E80811F
:1007E000082E000C990B0895CF92DF92EF92FF92A2
:1007F0000F931F93CF93DF938EE091E09F938F939E
:100800000E94E60A0E94820A7C010E94870A0F90D9
:100810000F90C12CD12CC0E0D0E008E211E00E9482
:10082000820AF601F85E808320812817A1F09927BB
:100830009F938F931F922F93DF92CF921F930F93CB
:100840000E94E60A21968DB79EB708960FB6F894D7
:100850009EBF0FBE8DBF9FEFC91AD90AC11488E091
:10086000D806E9F6C7010E94870A00E010E0E12CF3
:10087000F12C0F2EF2E6CF2EF1E0DF2EF02D0E94AC
:10088000820AF801F85E20812817B1F099279F931A
:100890008F931F922F931F930F93DF92CF920E94FB
:1008A000E60A9FEFE91AF90A8DB79EB708960FB6C8
:1008B000F8949EBF0FBE8DBF0F5F1F4F011598E0CC
:1008C0001907E9F6FF92EF92DF93CF9380EA91E068
:1008D0009F938F930E94E60A0F900F900F900F90B6
:1008E0000F900F90DF91CF911F910F91FF90EF909C
:1008F000DF90CF900895BA9880E090E0089584301A
:1009000050F48460E0E0F4E1808382E68A95F1F7B8
:1009100000008081089580E0089581E00E947F04B6
:1009200080933B0380E00E947F048093390380E042
:1009300090E008950E947B0487B3887F87BB88B3CB
:10094000876088BB0E948D0480E090E0089581302C
:10095000910549F08230910559F0892B71F486B3E5
:10096000817090E00895B19B0BC082E090E0089503
:10097000B29B09C083E090E0089580E090E0089584
:1009800080E090E0089580E090E00895CF9381E0CA
:100990000E947F04C82F80E00E947F04E82F4091CE
:1009A0003B034C1798F450E02C2F30E0241B350B00
:1009B00064E6629FC001639F900D112460E071E0C6
:1009C000641B750B0E940E0AF62F13C0C41780F427
:1009D000642F70E02C2F30E0261B370B44E6429F3B
:1009E000C001439F900D11240E940E0AF62F01C0F2
:1009F000F0E0209139032E1798F430E04E2F50E0AC
:100A0000421B530B64E6649FC001659F900D112447
:100A100060E071E0621B730B0E940E0A762F13C018
:100A2000E21780F430E04E2F50E0421B530B64E697
:100A3000649FC001659F900D1124B9010E940E0AA8
:100A4000762F01C070E06F2F80E090E0CF91089585
:100A50000E94C604E72F282F392F6D322CF06833FF
:100A60002CF021E032E002C02CEF31E0EE312CF02E
:100A7000E7342CF02CE032E002C027E032E083EDD6
:100A8000860F8B3030F483ED870F8B3010F42FE01E
:100A900032E0822F932F0895CF9382E00E947F044B
:100AA000C82F83E00E947F0424E6829FC0011124A6
:100AB000892F94E6C99F90011124932FCF91089517
:100AC000E0910201F09103018083089510923C03AC
:100AD00010923A03E0910201F091030181E28083D8
:100AE000E0910201F09103011082E0910201F09186
:100AF00003018FE78083E0910201F091030182E21C
:100B00008083E0910201F09103011082E0910201E3
:100B1000F091030187E0808380E090E00895CF9317
:100B2000C82F0E946605C83098F4C0933C03E0913A
:100B30000201F09103011082E0910201F0910301A2
:100B400080E18083E0910201F0910301C06BC083DA
:100B500080E090E0CF910895803198F4982F990F1C
:100B6000990F990F90933A03E0910201F0910301DC
:100B700098709083E0910201F09103018695805F67
:100B8000808380E090E00895CF93C62F0E948F0568
:100B90008C2F0E94AC0580E090E0CF9108950E94D8
:100BA0008F0580E890E0E0910001F0910101108252
:100BB0000197C9F70E94660580E090E00895CF9301
:100BC000C0E08C2F0E94CF05CF5FC830D1F780E006
:100BD00090E0CF910895E0910201F09103018EEA37
:100BE0008083E0910201F091030181EA8083E0912A
:100BF0000201F09103018AED8083E0910201F091FE
:100C0000030182E18083E0910201F091030188EC0D
:100C10008083E0910201F091030188EA8083E091F2
:100C20000201F09103018FE38083E0910201F091D2
:100C3000030185ED8083E0910201F091030180E8DA
:100C40008083E0910201F091030181E88083E091CB
:100C50000201F091030180E58083E0910201F091AF
:100C6000030189ED8083E0910201F091030181E2AB
:100C70008083E0910201F091030180E28083E091A2
:100C80000201F091030182E08083E0910201F09182
:100C900003018BED8083E0910201F091030180E379
:100CA0008083E0910201F09103018DEA8083E0915D
:100CB0000201F09103011082E0910201F091030121
:100CC00084EA8083E0910201F091030186EA808347
:100CD000E0910201F09103018FEA80830E94DF0519
:100CE0000E94660580E090E00895082E000C990BA4
:100CF0008097880F991F880F991F880F991FFC01F3
:100D0000E953FC4F81539C4FA0910001B091010128
:100D100024912C933196E817F907B1F780E090E021
:100D20000895CF93DF93EC018881882331F02196D9
:100D30000E94750689918111FBCF80E090E0DF91E0
:100D4000CF910895CF93DF930E948F05C0E0D0E04C
:100D500080913C0360E070E09E0140E8849F200D9C
:100D6000311D1124C9010E94E7032196C038D10525
:100D700079F70E94660580E090E0DF91CF910895B9
:100D8000CF93C0E08C2F0E94A206CF5FC830D1F76E
:100D900080E090E0CF9108950F931F93CF93DF935E
:100DA00028E08202C0011124C0E0D0E08C011A9535
:100DB000F801EC0FFD1FE953FC4F649170E02091A6
:100DC0003C0380913A0390E030E8239F800D911D11
:100DD00011248C0F9D1F0E94E7032196C830D10576
:100DE00039F780913A03885F80933A0380E090E07E
:100DF000DF91CF911F910F910895CF93DF93EC0175
:100E00008881882331F021960E94CC068991811136
:100E1000FBCF80E090E0DF91CF910895DF92EF92D9
:100E2000FF920F931F93CF93DF93C0E0D0E0D12CBC
:100E30008D2D0E948F057E0180E8E80EF11C009147
:100E4000000110910101CE010E94ED03F8018083A1
:100E50002196CE15DF0599F7D394E701F8E0DF126C
:100E6000E7CFDF91CF911F910F91FF90EF90DF902F
:100E70000895EFE3F3E087E192E0918380831382AA
:100E8000128215821482178216821186108681E0E2
:100E90008287CF010895EF92FF920F931F93CF9314
:100EA000DF937C018B01EA016F50724099F5198242
:100EB00018821F921F9288E292E09F938F930E9464
:100EC000E60A0E94C00660E080E00E94C4058091AE
:100ED0003F03909140030E94FD0662E081E00E9482
:100EE000C40585E392E00E94FD0662E082E00E9474
:100EF000C4058DE392E00E94FD0662E083E00E945B
:100F0000C40585E492E00E94FD060F900F900F90BB
:100F10000F905DC089818F9388818F9388E292E0E2
:100F20009F938F930E94E60A0E94C00660E080E0D3
:100F30000E94C40580913F03909140030E94FD06EA
:100F400062E081E00E94C40585E392E00E94FD0614
:100F500062E082E00E94C4058DE392E00E94FD06FB
:100F600062E083E00E94C40585E492E00E94FD06F1
:100F70006CE072E0C8010E94920A0F900F900F90EF
:100F80000F90892B79F488819981892B01F581E073
:100F900090E099838883F70182858230C4F0815084
:100FA000828715C067E072E0C8010E94920A892B0F
:100FB00071F488819981892B51F481E090E09983C3
:100FC0008883F7018285833014F48F5F828760E025
:100FD000F70182850E94C40588E50E94CC06DF9156
:100FE000CF911F910F91FF90EF900895CF93DF93D2
:100FF000EC0181E090E00E94A704009721F08A852F
:10100000082E000C990BDF91CF91089587B3806B68
:1010100087BBBE9881E58DB980E090E008958FB9D7
:10102000779BFECF80E090E0089580E00E940F085B
:101030008FB10895C49880E090E00895C49A80E04C
:1010400090E008950E941A0880EC0E940F080E9408
:101050001E088FE493EC0197F1F700C0000080E0D8
:1010600090E008950E9406080E94220880E090E027
:101070000895CF93C82F0E941A0883E00E940F089A
:101080008C2F0E940F080E941508C82F0E941E086E
:101090008C2FCF910895CF93DF93D82FC62F0E9426
:1010A0001A0882E00E940F088D2F0E940F088C2FD3
:1010B0000E940F080E941E0880E090E0DF91CF910F
:1010C0000895CF93883018F4C82FC06801C0C0E8D5
:1010D0000E941A088C2F0E940F080E941E0880E0B0
:1010E00090E0CF910895CF930E941A0880EA0E9461
:1010F0000F080E941508C82F0E941E088C2FCF9140
:1011000008951F93CF93DF93182FD62FC42F0E94DB
:101110001A0885E00E940F08812F0E940F088D2F6A
:101120000E940F088C2F0E940F080E941E0880E06A
:1011300090E0DF91CF911F9108950E9432084FEF08
:1011400060E680E60E94810840E060EE8FE00E9449
:10115000810841E061E08BE20E94810880E090E03C
:10116000089580E30E9439088FEF9FEF08950F9351
:101170001F93CF938C018DE492E09F938F930E94F5
:10118000E60AF8016285738575956795759567958B
:101190007595679581E30E944B08F8016285738518
:1011A000660F771F62957295707F7627607F76272E
:1011B00082E30E944B08F80160856F7085E30E940E
:1011C0004B080F900F90F80180859185181619062D
:1011D000A4F420E030E0C0E0F801E20FF31F6081EA
:1011E00086E38C0F0E944B08CF5F2C2F30E0F80174
:1011F00080859185281739077CF381E00E9461087A
:1012000081E30E9439081F928F9380E692E09F93BA
:101210008F930E94E60A82E30E9439081F928F93FF
:1012200086E792E09F938F930E94E60A85E30E94EF
:1012300039081F928F938CE892E09F938F930E94BE
:10124000E60A86E30E9439081F928F9381EA92E0B2
:101250009F938F930E94E60A8DB79EB740960FB674
:10126000F8949EBF0FBE8DBF80E090E0CF911F919C
:101270000F91089581E090E00895AF92BF92CF92D0
:10128000DF92EF92FF921F93CF93DF937C018091C7
:1012900038031F928F9388EB92E09F938F930E9465
:1012A000E60A81E60E9439081F928F938DEC92E046
:1012B0009F938F930E94E60A82E60E9439081F924C
:1012C0008F938FED92E09F938F930E94E60A85E6BD
:1012D0000E9439081F928F9381EF92E09F938F9322
:1012E0000E94E60A86E60E9439081F928F9382E0E8
:1012F00093E09F938F930E94E60A8DB79EB7449622
:101300000FB6F8949EBF0FBE8DBF80913803813019
:10131000B1F581E60E943908A82E82E60E943908BC
:10132000829586958770B12CAA0CBB1CAA0CBB1C9D
:10133000AA0CBB1CA82A85E60E9439088F70C82E0B
:10134000D12C1C141D0484F4C0E0D0E010E086E62B
:10135000810F0E943908CE0DDF1D88831F5FC12FCA
:10136000D0E0CC15DD059CF385E193E09F938F934E
:101370000E94E60A109238030F900F9003C0AA242F
:10138000AA94BA2CF701D186C086B386A286C7017B
:10139000DF91CF911F91FF90EF90DF90CF90BF90A2
:1013A000AF90089540E060E08CE20E94810840E048
:1013B00061E08CE20E94810881E08093380380E044
:1013C00090E008951F920F920FB60F9211242F9361
:1013D0003F934F935F936F937F938F939F93AF93BD
:1013E000BF93EF93FF9388E293E09F938F930E94C4
:1013F000E60A0E94D2090F900F90FF91EF91BF91E2
:10140000AF919F918F917F916F915F914F913F919C
:101410002F910F900FBE0F901F90189597FB072EDE
:1014200016F4009407D077FD09D00E94220A07FC29
:1014300005D03EF4909581959F4F089570956195E4
:101440007F4F0895AA1BBB1B51E107C0AA1FBB1FFA
:10145000A617B70710F0A61BB70B881F991F5A9540
:10146000A9F780959095BC01CD0108958F929F9228
:10147000AF92BF92CF92DF92EF92FF92CF93DF9322
:10148000EC01688179818A819B81611571058105F3
:10149000910521F464E279ED8BE597E02DE133EFDE
:1014A00041E050E00E94D10E49015A019B01AC017C
:1014B000A7EAB1E40E94F00E6B017C01ACEEB4EF40
:1014C000A50194010E94FE0EDC01CB018C0D9D1D37
:1014D000AE1DBF1DB7FF03C00197A109B0488883A7
:1014E0009983AA83BB839F77DF91CF91FF90EF9081
:1014F000DF90CF90BF90AF909F908F9008950E9403
:10150000360A089584E091E00E94360A0895A0E02A
:10151000B0E08093040190930501A0930601B0937D
:1015200007010895FB01DC018D91019080190110E4
:10153000D9F3990B08950F931F93CF93DF930097DF
:1015400031F46115710519F480E090E03AC08B0127
:10155000EC016EE070E081E090E00E94D50CFC01AF
:10156000892B91F380E883830115110571F01387AE
:10157000028781E8838380914A0390914B03892BF2
:1015800021F4F0934B03E0934A032097C9F0D187ED
:10159000C08783818260838380914C0390914D0347
:1015A000892B71F4F0934D03E0934C0380914E032B
:1015B00090914F03892B21F4F0934F03E0934E0356
:1015C000CF01DF91CF911F910F910895A0E0B0E07E
:1015D000ECEEFAE00C94130FAE014B5F5F4FFA0193
:1015E00061917191AF0180914C0390914D030E94E4
:1015F000030BE2E00C942F0F60914C0370914D03AC
:101600000E943B0E0895ACE0B0E0E9E0FBE00C94F2
:10161000030F7C016B018A01FC0117821682838112
:1016200081FFBDC1CE0101964C01F7019381F60106
:1016300093FD859193FF81916F01882309F4ABC1DC
:10164000853239F493FD859193FF81916F01853245
:1016500029F4B70190E00E943B0EE7CF512C312CCA
:1016600020E02032A0F48B3269F030F4803259F05F
:10167000833269F420612CC08D3239F0803339F423
:10168000216026C02260246023C0286021C027FD7D
:1016900027C030ED380F3A3078F426FF06C0FAE064
:1016A0005F9E300D1124532E13C08AE0389E300DFA
:1016B0001124332E20620CC08E3221F426FD6BC122
:1016C000206406C08C3611F4206802C0883641F4CC
:1016D000F60193FD859193FF81916F018111C1CF37
:1016E000982F9F7D9554933028F40C5F1F4FFFE394
:1016F000F9830DC0833631F0833771F0833509F0FB
:101700005BC022C0F801808189830E5F1F4F442493
:101710004394512C540115C03801F2E06F0E711C36
:10172000F801A080B18026FF03C0652D70E002C0E3
:101730006FEF7FEFC5012C870E94300E2C018301D3
:101740002C852F77222E17C03801F2E06F0E711C06
:10175000F801A080B18026FF03C0652D70E002C0B3
:101760006FEF7FEFC5012C870E941E0E2C012C8588
:101770002068222E830123FC1BC0832D90E0481695
:101780005906B0F4B70180E290E00E943B0E3A9413
:10179000F4CFF50127FC859127FE81915F01B70108
:1017A00090E00E943B0E31103A94F1E04F1A51083C
:1017B0004114510471F7E5C0843611F0893639F5CA
:1017C000F80127FF07C060817181828193810C5FDE
:1017D0001F4F08C060817181072E000C880B990B88
:1017E0000E5F1F4F2F76722E97FF09C09095809540
:1017F000709561957F4F8F4F9F4F2068722E2AE022
:1018000030E0A4010E94730EA82EA81844C08537AA
:1018100029F42F7EB22E2AE030E025C0F22FF97F86
:10182000BF2E8F36C1F018F4883579F0B4C08037F8
:1018300019F0883721F0AFC02F2F2061B22EB4FEEF
:101840000DC08B2D8460B82E09C024FF0AC09F2FC5
:101850009660B92E06C028E030E005C020E130E0F7
:1018600002C020E132E0F801B7FE07C0608171815B
:10187000828193810C5F1F4F06C06081718180E07F
:1018800090E00E5F1F4FA4010E94730EA82EA818AF
:10189000FB2DFF777F2E76FE0BC0372D3E7FA514E4
:1018A00050F474FE0AC072FC08C0372D3E7E05C09D
:1018B000BA2C372D03C0BA2C01C0B52C34FF0DC093
:1018C000FE01EA0DF11D8081803311F4397E09C0DB
:1018D00032FF06C0B394B39404C0832F867809F016
:1018E000B39433FD13C030FF06C05A2CB31418F460
:1018F000530C5B18B32CB31468F4B70180E290E08A
:101900003C870E943B0EB3943C85F5CFB31410F492
:101910003B1801C0312C34FF12C0B70180E390E0C6
:101920003C870E943B0E3C8532FF17C031FD03C04F
:1019300088E790E002C088E590E0B7010CC0832FF3
:10194000867859F031FF02C08BE201C080E237FD9A
:101950008DE2B70190E00E943B0EA51438F4B70168
:1019600080E390E00E943B0E5A94F7CFAA94F401D2
:10197000EA0DF11D8081B70190E00E943B0EA1109D
:10198000F5CF332009F451CEB70180E290E00E94F8
:101990003B0E3A94F6CFF7018681978102C08FEF14
:1019A0009FEF2C96E2E10C941F0F0F931F93CF93A0
:1019B000DF93869F8001879F100D969F100D112445
:1019C000C8010E94F10CEC01009729F0A80160E029
:1019D00070E00E94290ECE01DF91CF911F910F91EF
:1019E0000895CF93DF938230910510F482E090E068
:1019F000E0915203F091530320E030E0C0E0D0E0EA
:101A0000309711F14081518148175907C0F04817AC
:101A1000590761F482819381209719F09B838A830F
:101A20002BC0909353038093520326C02115310598
:101A300019F04217530718F49A01BE01DF01EF01B4
:101A40000280F381E02DDCCF2115310509F1281B3F
:101A5000390B2430310590F412968D919C91139797
:101A60006115710521F0FB019383828304C090937B
:101A7000530380935203FD01329644C0FD01E20FEF
:101A8000F31F81939193225031092D933C933AC0D7
:101A90002091500330915103232B41F420910A01EE
:101AA00030910B0130935103209350032091080192
:101AB000309109012115310541F42DB73EB7409110
:101AC0000C0150910D01241B350BE0915003F09156
:101AD0005103E217F307A0F42E1B3F0B2817390719
:101AE00078F0AC014E5F5F4F2417350748F04E0F7A
:101AF0005F1F50935103409350038193919302C011
:101B0000E0E0F0E0CF01DF91CF9108950F931F93B4
:101B1000CF93DF93009709F48CC0FC0132971382B6
:101B2000128200915203109153030115110581F4A3
:101B300020813181820F931F2091500330915103F6
:101B40002817390779F5F0935103E093500371C0DA
:101B5000D80140E050E0AE17BF0750F412962D9127
:101B60003C911397AD012115310509F1D901F3CF4E
:101B70009D01DA013383228360817181860F971F73
:101B80008217930769F4EC0128813981260F371FEA
:101B90002E5F3F4F318320838A819B819383828391
:101BA000452B29F4F0935303E093520342C013965C
:101BB000FC93EE931297ED01499159919E01240FE8
:101BC000351FE217F30771F480819181840F951F0F
:101BD000029611969C938E938281938113969C9387
:101BE0008E931297E0E0F0E0D80112968D919C91CF
:101BF0001397009719F0F8018C01F6CF8D919C9105
:101C000098012E5F3F4F820F931F20915003309118
:101C100051032817390769F4309729F410925303B8
:101C20001092520302C01382128210935103009348
:101C30005003DF91CF911F910F910895FC01059002
:101C4000615070400110D8F7809590958E0F9F1FBE
:101C50000895DC0101C06D9341505040E0F70895B4
:101C6000FC016150704001900110D8F7809590956B
:101C70008E0F9F1F08950F931F93CF93DF93FB0148
:101C8000238121FD03C08FEF9FEF28C022FF16C0E4
:101C900046815781248135814217530744F4A0813E
:101CA000B1819D012F5F3F4F318320838C9326812B
:101CB00037812F5F3F4F3783268310C0EB01092FF9
:101CC000182F0084F185E02D0995892BE1F68E818E
:101CD0009F8101969F838E83812F902FDF91CF91DB
:101CE0001F910F910895FA01AA27283051F1203150
:101CF00081F1E8946F936E7F6E5F7F4F8F4F9F4FA0
:101D0000AF4FB1E03ED0B4E03CD0670F781F891FE1
:101D10009A1FA11D680F791F8A1F911DA11D6A0FAF
:101D2000711D811D911DA11D20D009F468943F9162
:101D30002AE0269F11243019305D3193DEF6CF0161
:101D40000895462F4770405D4193B3E00FD0C9F727
:101D5000F6CF462F4F70405D4A3318F0495D31FD94
:101D60004052419302D0A9F7EACFB4E0A6959795E7
:101D7000879577956795BA95C9F7009761057105BD
:101D800008959B01AC010A2E069457954795379507
:101D90002795BA95C9F7620F731F841F951FA01D61
:101DA0000895052E97FB1EF400940E94E80E57FD3F
:101DB00007D00E943A0F07FC03D04EF40C94E80EB3
:101DC00050954095309521953F4F4F4F5F4F089567
:101DD00090958095709561957F4F8F4F9F4F089597
:101DE0000E945C0FA59F900DB49F900DA49F800D45
:101DF000911D11240895B7FF0C94F00E0E94F00E6F
:101E0000821B930B08952F923F924F925F926F9295
:101E10007F928F929F92AF92BF92CF92DF92EF927A
:101E2000FF920F931F93CF93DF93CDB7DEB7CA1BFB
:101E3000DB0B0FB6F894DEBF0FBECDBF09942A8826
:101E4000398848885F846E847D848C849B84AA84CE
:101E5000B984C884DF80EE80FD800C811B81AA815B
:101E6000B981CE0FD11D0FB6F894DEBF0FBECDBF26
:101E7000ED010895A1E21A2EAA1BBB1BFD010DC0A6
:101E8000AA1FBB1FEE1FFF1FA217B307E407F5072A
:101E900020F0A21BB30BE40BF50B661F771F881F06
:101EA000991F1A9469F760957095809590959B019C
:101EB000AC01BD01CF010895A29FB001B39FC00145
:101EC000A39F700D811D1124911DB29F700D811D66
:0A1ED0001124911D0895F894FFCF2E
:101EDA0000120010010000000000540320000A0D47
:101EEA005374617274696E67205352414D20746550
:101EFA0073742E2E2E0A0D0057726974652070684D
:101F0A00617365206572726F723A206578745F72C8
:101F1A00616D5B2534645D203D20253032582028D0
:101F2A0073686F756C642062652025303258290AFF
:101F3A000D0052657472696576616C207068617310
:101F4A0065206572726F723A206578745F72616D8E
:101F5A005B2534645D203D20253032582028736883
:101F6A006F756C642062652025303258290A0D008D
:101F7A005352414D207465737420636F6D706C65A4
:101F8A007465642077697468200A0D2534642065B5
:101F9A0072726F727320696E20777269746520702D
:101FAA006861736520616E64200A0D2534642065BA
:101FBA0072726F727320696E2072657472696576C7
:101FCA00616C2070686173650A0A0D004C454654BD
:101FDA0000524947485400444F574E005550004E4E
:101FEA0045555452414C002D2D2D4D61696E2020CE
:101FFA004D656E752D2D2D000A0D73746174757300
:10200A003A202564006F7074696F6E31006F7074C6
:10201A00696F6E32006F7074696F6E330053656E4C
:10202A0064696E67206D657373616765200A0D00C8
:10203A00436F6E74656E74206F66204944483A2077
:10204A002578200A0D00436F6E74656E74206F66E2
:10205A002049444C3A202578200A0D00436F6E74BB
:10206A00656E74206F6620444C3A202578200A0D4C
:10207A0000436F6E74656E74206F6620445B305D3A
:10208A003A202578200A0D00727846206166746528
:10209A00722073656E643A2025640A0D0052454326
:1020AA00206F66204944483A202578200A0D0052BC
:1020BA004543206F662049444C3A202578200A0D72
:1020CA0000524543206F6620444C3A202578200A66
:1020DA000D00524543206F6620445B305D3A20254F
:1020EA0078200A0D006D65737361676520726563F8
:1020FA0069657665640A0D00496E74657272757059
:08210A00742121210A0D0000DF
:00000001FF
