:100000000C9460030C941E0D0C947D030C947D03E2
:100010000C947D030C947D030C947D030C947D0360
:100020000C947D030C947D030C947D030C947D0350
:100030000C947D030C947D030C947D030C947D0340
:100040000C947D030C947D030C947D030C947D0330
:100050000C947D030C947D030C947D030C947D0320
:100060000C947D030C947D030C947D030C947D0310
:1000700000000000005C00000C000C007C287C28C4
:1000800058DC68002410480028542840000C000068
:10009000007884008478000054385400107C1000EC
:1000A00080400000101010000040000060100C00A4
:1000B00038543800487C40004864580044542C00B0
:1000C0001C107C005C5424003854240064140C0080
:1000D00068542C0048543800004800008048000054
:1000E0001028440028282800442810000454080040
:1000F00038445C00781478007C5428003844280088
:100100007C4438007C5444007C140400384474005F
:100110007C107C00447C440020403C007C106C003F
:100120007C4040007C187C0078103C00384438004B
:100130007C1408003844B8007C146800485424003B
:10014000047C04007C407C003C603C007C307C00F3
:100150006C106C000C700C0064544C00007C44006B
:100160000C106000447C00000804080080808000BF
:1001700000040800304878007C48300030484800CF
:1001800030487C00306850001078140090A8780047
:100190007C08700050744000808074007C106800FF
:1001A000447C4000781078007808700030483000B7
:1001B000F82810003048F80078100800505828003F
:1001C000083C4800384078003840380078207800F3
:1001D0004830480098A0780048685800107884009B
:1001E000007C00008478100008040804000000006F
:1001F0000000005F00000007000700147F147F1458
:10020000242A7F2A1223130864623649552250009B
:1002100005030000001C2241000041221C00082AA6
:100220001C2A0808083E080800503000000808088A
:100230000808006060000020100804023E51494593
:100240003E00427F400042615149462141454B31C9
:100250001814127F1027454545393C4A4949300159
:10026000710905033649494936064949291E0036B0
:100270003600000056360000000814224114141401
:10028000141441221408000201510906324979412F
:100290003E7E1111117E7F494949363E414141223E
:1002A0007F4141221C7F494949417F090901013EA3
:1002B000414151327F0808087F00417F41002040C2
:1002C000413F017F081422417F404040407F0204AB
:1002D000027F7F0408107F3E4141413E7F090909AA
:1002E000063E4151215E7F09192946464949493157
:1002F00001017F01013F4040403F1F2040201F7F00
:100300002018207F631408146303047804036151E8
:1003100049454300007F4141020408102041417FCC
:100320000000040201020440404040400001020479
:100330000020545454787F4844443838444444207E
:10034000384444487F3854545418087E0901020840
:100350001454543C7F0804047800447D400020403D
:10036000443D00007F10284400417F40007C041879
:1003700004787C0804047838444444387C14141409
:1003800008081414187C7C080404084854545420A9
:10039000043F4440203C4040207C1C2040201C3C2A
:1003A0004030403C44281028440C5050503C446499
:1003B000544C44000836410000007F0000004136E4
:1003C000080002010302010000000000000000001C
:1003D000065F5F060000000007070007070000181F
:1003E00024448888442418242E6B6B3A120000465B
:1003F0006630180C666200307A4F5D377A48000428
:1004000007030000000000001C3E634100000000E4
:1004100041633E1C000000082A3E1C1C3E2A0808BE
:10042000083E3E0808000000A0E060000000000850
:100430000808080808000000006060000000006074
:1004400030180C060301003E7F594D7F3E000042EC
:10045000427F7F40400000627359496F660000226E
:100460006349497F360000181C16137F7F10002750
:100470006745457D3900003C7E4B497930000003DB
:100480006371190F070000367F49497F3600000667
:100490004F49693F1E000000006C6C000000000026
:1004A000A0EC6C00000000081C3663410000001442
:1004B00014141414140000004163361C08000002D8
:1004C0000351590F0600003C42818199A542007CEE
:1004D0007E13137E7C0000417F7F49497F36001CDC
:1004E0003E634141632200417F7F41637F1C0041A5
:1004F0007F7F495D416300417F7F491D0103001CEF
:100500003E6341517372007F7F08087F7F000000C7
:10051000417F7F41000000307040417F3F0100413A
:100520007F7F081C776300417F7F41406070007FC0
:100530007F060C067F7F007F7F060C187F7F001CE4
:100540003E6341633E1C00417F7F49090F06001E48
:100550003F21717F5E0000417F7F19396F46002681
:10056000674D597B32000003417F7F410300007FCC
:100570007F40407F7F00001F3F60603F1F00007F83
:100580007F3018307F7F0063771C081C776300077B
:100590004F78784F0700006773594D47637100002B
:1005A0007F7F41410000000103060C18306000000D
:1005B00041417F7F000000080C0603060C08008004
:1005C000808080808080800000030704000000207D
:1005D0007454543C784000413F7F44447C38003898
:1005E0007C44446C280000307848493F7F40003804
:1005F0007C54545C180000487E7F49030200009838
:10060000BCA4A4F87C0400417F7F08047C7800002F
:10061000447D7D4000000040C484FD7D0000004119
:100620007F7F10386C440000417F7F400000007CD9
:100630007C0C180C7C78007C7C04047C78000038EE
:100640007C44447C38000084FCF8A4243C18001846
:100650003C24A4F8FC8400447C78441C1800004826
:100660005C54547424000000043E7F442400003C89
:100670007C40403C7C40001C3C60603C1C00003CDA
:100680007C6030607C3C00446C3810386C44009CCA
:10069000BCA0A0FC7C00004C64745C4C64000008AE
:1006A000083E7741410000000000777700000041DC
:1006B00041773E0808000002030103020301000025
:1006C00011241FBECFEFD4E0DEBFCDBF13E0A0E00A
:1006D000B1E0E0EAF8E202C005900D92A43FB10754
:1006E000D9F724E0A4EFB3E001C01D92A836B20709
:1006F000E1F70E947F030C944E140C940000CF93FA
:10070000DF9300D0CDB7DEB78FE190E00E941D04EB
:1007100085B7806885BF80B7806280BF8BB78064F3
:100720008BBF85B7826085BF85B78E7F85BF0E94EE
:10073000E0040E9443040E944D062FEF8FEF9DE1DD
:10074000215080409040E1F700C000000E949B07CC
:100750007C010E94FF041A8219820E945B0C78942B
:100760000E945904AA24A394B12C0F2EFEE0CF2E90
:10077000F1E0DF2EF02DDF92CF920E94A60F0E94B3
:100780008A052B013C010E94AE0580E090E00E94AA
:100790000C0500E010E023E030E0AE014F5F5F4F5A
:1007A000B301C7010E944E087C010E947007F70147
:1007B000808191810F900F90F1E085319F0769F45E
:1007C00060E271E0C3010E94520F892B01F5F7012D
:1007D000A2840A2C000CBB081AC086529140B9F4BE
:1007E00000E010E023E030E0AE014F5F5F4FB30167
:1007F000C7010E944E087C010E9470079501AE015E
:100800004F5F5F4FB301C7010E94450D7C012FEF81
:100810008FE791E0215080409040E1F700C000C098
:10082000AACF5D9BFECF8CB908955F9BFECF8CB1A4
:1008300090E00E94BC0F8CB1089590BD89B988E109
:100840008AB98EE880BD65E174E081E194E00E94A0
:100850005B0F9093FA038093F9030895CF93DF938E
:10086000EC018881882351F021966091F903709101
:10087000FA030E94110489918111F7CF80E090E082
:10088000DF91CF91089585B7806885BF80B780627A
:1008900080BF80E090E00895FC01F85E608380E016
:1008A00090E00895FC01F85E8081082E000C990B01
:1008B0000895CF92DF92EF92FF920F931F93CF9301
:1008C000DF938BE291E09F938F930E94A60F0E948B
:1008D000420F7C010E94470F0F900F90C12CD12C2A
:1008E000C0E0D0E005E411E00E94420FF601F85E9E
:1008F000808320812817A1F099279F938F931F92BF
:100900002F93DF92CF921F930F930E94A60F2196F1
:100910008DB79EB708960FB6F8949EBF0FBE8DBFD9
:100920009FEFC91AD90AC11488E0D806E9F6C701B1
:100930000E94470F00E010E0E12CF12C0F2EFFE7A2
:10094000CF2EF1E0DF2EF02D0E94420FF801F85E6D
:1009500020812817B1F099279F938F931F922F938F
:100960001F930F93DF92CF920E94A60F9FEFE91A79
:10097000F90A8DB79EB708960FB6F8949EBF0FBEC2
:100980008DBF0F5F1F4F011598E01907E9F6FF9221
:10099000EF92DF93CF938DEB91E09F938F930E9423
:1009A000A60F0F900F900F900F900F900F90DF9168
:1009B000CF911F910F91FF90EF90DF90CF9008950E
:1009C000BA9880E090E00895843050F48460E0E0CC
:1009D000F4E1808382E68A95F1F700008081089532
:1009E00080E0089581E00E94E4048093F70380E0B2
:1009F0000E94E4048093F50380E090E008950E9453
:100A0000E00487B3887F87BB88B3876088BB0E9478
:100A1000F20480E090E008958130910549F0823041
:100A2000910559F0892B71F486B3817090E0089597
:100A300086B38695817090E00895B29B06C083E0EE
:100A400090E0089580E090E0089580E090E00895BF
:100A5000CF9381E00E94E404C82F80E00E94E40468
:100A6000E82F4091F7034C1798F450E02C2F30E01A
:100A7000241B350B64E6629FC001639F900D112417
:100A800060E071E0641B750B0E94CE0EF62F13C060
:100A9000C41780F4642F70E02C2F30E0261B370B36
:100AA00044E6429FC001439F900D11240E94CE0E48
:100AB000F62F01C0F0E02091F5032E1798F430E0F6
:100AC0004E2F50E0421B530B64E6649FC001659FAC
:100AD000900D112460E071E0621B730B0E94CE0E3A
:100AE000762F13C0E21780F430E04E2F50E0421B07
:100AF000530B64E6649FC001659F900D1124B901FA
:100B00000E94CE0E762F01C070E06F2F80E090E043
:100B1000CF9108950E942805E72F282F392F683D8F
:100B20002CF069322CF020E231E002C029E132E001
:100B3000E83D2CF0E9322CF023E232E002C02EE155
:100B400032E08AE0860F853130F48AE0870F853104
:100B500010F426E232E0822F932F0895CF9382E0A3
:100B60000E94E404C82F83E00E94E40424E6829FEC
:100B7000C0011124892F94E6C99F90011124932F5D
:100B8000CF910895E0910201F091030180830895CF
:100B90001092F8031092F603E0910201F091030124
:100BA00081E28083E0910201F09103011082E091E3
:100BB0000201F09103018FE78083E0910201F0913F
:100BC000030182E28083E0910201F091030110822F
:100BD000E0910201F091030187E0808380E090E0E2
:100BE0000895CF93C82F0E94C805C83098F4C093C9
:100BF000F803E0910201F09103011082E0910201FB
:100C0000F091030180E18083E0910201F091030102
:100C1000C06BC08380E090E0CF910895803198F45C
:100C2000982F990F990F990F9093F603E091020175
:100C3000F091030198709083E0910201F09103011B
:100C40008695805F808380E090E00895CF93C62FE3
:100C50000E94F1058C2F0E940E0680E090E0CF915B
:100C600008950E94F10580E890E0E0910001F09184
:100C7000010110820197C9F70E94C80580E090E049
:100C80000895CF93C0E08C2F0E943106CF5FC8300B
:100C9000D1F780E090E0CF910895E0910201F091CA
:100CA00003018EEA8083E0910201F091030181EA61
:100CB0008083E0910201F09103018AED8083E0914D
:100CC0000201F091030182E18083E0910201F09141
:100CD000030188EC8083E0910201F091030188EA2E
:100CE0008083E0910201F09103018FE38083E09122
:100CF0000201F091030185ED8083E0910201F09102
:100D0000030180E88083E0910201F091030181E812
:100D10008083E0910201F091030180E58083E091FE
:100D20000201F091030189ED8083E0910201F091CD
:100D3000030181E28083E0910201F091030180E2EE
:100D40008083E0910201F091030182E08083E091D1
:100D50000201F09103018BED8083E0910201F0919B
:100D6000030180E38083E0910201F09103018DEAA9
:100D70008083E0910201F09103011082E091020171
:100D8000F091030184EA8083E0910201F091030174
:100D900086EA8083E0910201F09103018FEA80836B
:100DA0000E9441060E94C80580E090E00895082E48
:100DB000000C990B8097880F991F880F991F880F37
:100DC000991FFC01E953FC4F81539C4FA0910001F6
:100DD000B091010124912C933196E817F907B1F7EE
:100DE00080E090E00895CF93DF93EC018881882321
:100DF00031F021960E94D70689918111FBCF80E0C6
:100E000090E0DF91CF910895CF93DF930E94F10599
:100E1000C0E0D0E08091F80360E070E09E0140E81F
:100E2000849F200D311D1124C9010E944C0421967C
:100E3000C038D10579F70E94C80580E090E0DF91C5
:100E4000CF910895CF93C0E08C2F0E940407CF5F0D
:100E5000C830D1F780E090E0CF9108950F931F93B1
:100E6000CF93DF9328E08202C0011124C0E0D0E0DC
:100E70008C011A95F801EC0FFD1FE953FC4F6491AA
:100E800070E02091F8038091F60390E030E8239F12
:100E9000800D911D11248C0F9D1F0E944C042196E2
:100EA000C830D10539F78091F603885F8093F60347
:100EB00080E090E0DF91CF911F910F910895CF9343
:100EC000DF93EC018881882331F021960E942E0760
:100ED00089918111FBCF80E090E0DF91CF9108955F
:100EE000DF92EF92FF920F931F93CF93DF93C0E0B7
:100EF000D0E0D12C8D2D0E94F1057E0180E8E80E16
:100F0000F11C0091000110910101CE010E945204D8
:100F1000F80180832196CE15DF0599F7D394E70178
:100F2000F8E0DF12E7CFDF91CF911F910F91FF9093
:100F3000EF90DF900895EF92FF920F931F93CF935E
:100F4000DF93E2E3F4E08EE292E091838083138208
:100F500012820F2EF1E1EF2EF4E0FF2EF02DF5823C
:100F6000E48228E434E037832683A6E0B4E0B18746
:100F7000A08781E0828746E251E0E70159834883F8
:100F8000FB83EA8367E274E07D836C831F821E82A9
:100F9000198618868A8743E352E0E901598348831A
:100FA000FB83EA831D821C821F821E82198618869B
:100FB0008A8726E332E011963C932E931396FC9396
:100FC000EE9312974CE154E015965C934E93149770
:100FD0002DE334E017963C932E93169719961C92A6
:100FE0001E9218971A968C931A970EE312E0EB0153
:100FF00019830883FB82EA821D821C821F821E8263
:10100000198618868A8769E472E0EA017983688321
:10101000BB83AA831D821C821F821E8219861886AA
:101020008A8745E151E0E90159834883BB83AA835C
:10103000C3E5D4E0D9011596DC93CE9314974BEF1A
:1010400053E017965C934E93169719961C921E9236
:1010500018971A968C9324E532E039832883FB8312
:10106000EA831D821C821F821E82198618868A8747
:1010700020E632E0EA0139832883FB83EA831D827C
:101080001C821F821E82198618868A87CF01DF91F3
:10109000CF911F910F91FF90EF9008956F927F92E3
:1010A0008F929F92AF92BF92CF92DF92EF92FF9278
:1010B0000F931F93CF93DF93CDB7DEB7E2970FB6B1
:1010C000F894DEBF0FBECDBF7C015B016A01390120
:1010D0006652724019F4DA011D921C9281E090E090
:1010E0000E940C05892BD9F0F60180819181892B12
:1010F000B1F466E271E0D7018D919C910E94520F8C
:10110000892B69F481E090E0F60191838083D70117
:1011100014968D919C911597009709F07C0181E0C0
:1011200090E00E940C05892BD9F0F6018081918115
:10113000892BB1F46EE372E0D7018D919C910E94EE
:10114000520F892B69F481E090E0F601918380834E
:10115000D70112968D919C911397009709F07C010D
:1011600080E090E00E940C05892BF9F0F601808167
:101170009181892BD1F46EE372E0D7018D919C911E
:101180000E94520F892B89F481E090E0F60191834F
:101190008083D7011296ED91FC911397309729F037
:1011A000E280F38082E0F7018287D7018D909C90E6
:1011B0006EE272E0C4010E94520F892B09F05EC0FA
:1011C0000E94220760E080E00E9426068AE692E004
:1011D0000E945F0762E081E00E9426068BE792E0B2
:1011E0000E945F0762E082E00E94260685E892E0A6
:1011F0000E945F0762E083E00E94260681E992E098
:101200000E945F0763E272E0C5010E94520F892BC2
:1012100099F4F60180819181892B39F581E090E084
:1012200091838083D7011A968C911A978230ECF0C3
:1012300081501A968C9319C06EE172E0C5010E942C
:10124000520F892B91F4F60180819181892B69F4E9
:1012500081E090E091838083D7011A968C911A9750
:1012600083301CF48F5F1A968C9360E0F7018285BF
:101270000E94260680E40E942E0724C266E271E0E6
:10128000C4010E94520F892B09F063C00E942207FB
:1012900060E080E00E9426068AE992E00E945F07F3
:1012A00061E087E00E94260661E082E00E94260657
:1012B000F3E06F16710429F48BEA92E00E945F0755
:1012C00044C082E06816710429F486EB92E00E9423
:1012D0005F073BC0A1E06A16710429F480EC92E03C
:1012E0000E945F0732C0672881F50E94220763E0F1
:1012F00083E00E94260689EC92E00E945F0764E08A
:1013000085E00E94260683ED92E00E945F071F930E
:101310000F938AED92E09F938F938E010F5F1F4F83
:101320001F930F930E94C30FC8010E945F0760E0E4
:1013300087E00E9426068DED92E00E945F070F90E5
:101340000F900F900F900F900F908FEFF701828703
:10135000B9C16EE372E0C4010E94520F892BF9F407
:101360000E94220763E083E00E94260680EE92E05E
:101370000E945F0760E087E00E9426068BEE92E005
:101380000E945F076EE087E00E9426068FEE92E0E3
:101390000E945F078FEFD7011A968C9393C163E386
:1013A00072E0C4010E94520F892B71F50E9422073E
:1013B00060E080E00E94260682EF92E00E945F07D4
:1013C00061E081E00E94260683E093E00E945F07CF
:1013D00061E082E00E94260683E193E00E945F07BD
:1013E00061E087E00E94260683E293E00E945F07A7
:1013F00060E087E00E94260680E490E00E945F079C
:101400008FEFF70182875EC166E372E0C4010E943C
:10141000520F892B09F053C00E94220760E080E040
:101420000E94260688E293E00E945F0762E081E066
:101430000E94260689E393E00E945F0762E082E053
:101440000E9426068FE393E00E945F0763E272E04A
:10145000C5010E94520F892B89F4D6018D919C9170
:101460001197892B11F581E090E08D939C93F70102
:1014700082858230D4F08150828717C06EE172E09D
:10148000C5010E94520F892B81F4D6018D919C9148
:101490001197892B51F481E090E08D939C93F70193
:1014A0008285823014F48F5F828760E0D7011A96BC
:1014B0008C910E94260680E40E942E0703C169E4F5
:1014C00072E0C4010E94520F892B09F076C00E947D
:1014D000220760E080E00E9426068AE493E00E94F2
:1014E0005F0762E081E00E9426068AE593E00E94A1
:1014F0005F0762E082E00E94260685E693E00E9494
:101500005F0763E272E0C5010E94520F892B99F4D4
:10151000F60180819181892B39F581E090E09183FA
:101520008083D7011A968C911A978230ECF0815003
:101530001A968C9319C06EE172E0C5010E94520F99
:10154000892B91F4F60180819181892B69F481E0E6
:1015500090E091838083D7011A968C911A978230FC
:101560001CF48F5F1A968C9360E0F70182850E94CD
:10157000260680E40E942E0760E271E0C5010E9409
:10158000520F892B09F0BFC0D6018D919C91119704
:10159000892B09F0D0C081E090E08D939C9325E0E9
:1015A00030E03C872B879A878987F701828589837A
:1015B000CE0101960E94750C85C065E171E0C40101
:1015C0000E94520F892B09F053C00E94220760E04D
:1015D00080E00E94260681E793E00E945F0762E0B8
:1015E00081E00E94260682E893E00E945F0762E0A5
:1015F00082E00E94260689E893E00E945F0763E28A
:1016000072E0C5010E94520F892B89F4D6018D9199
:101610009C911197892B11F581E090E08D939C931B
:10162000F70182858230D4F08150828717C06EE145
:1016300072E0C5010E94520F892B81F4D6018D9171
:101640009C911197892B51F481E090E08D939C93AC
:10165000F7018285823014F48F5F828760E0D701C2
:101660001A968C910E94260680E40E942E072AC0BA
:1016700064E572E0C4010E94520F892B71F40E944C
:10168000220763E083E00E9426068EE893E00E9432
:101690005F078FEFF701828715C060E672E0C40133
:1016A0000E94520F892B71F40E94220763E083E0AD
:1016B0000E9426068AE993E00E945F078FEFD70118
:1016C0001A968C9360E271E0C5010E94520F892B3B
:1016D000D1F4F60180819181892B69F581E090E058
:1016E00091838083D7011A96EC910E2E000CFF0B8C
:1016F0003196EE0FFF1FEE0DFF1D80819181009747
:10170000D1F07C0118C069E172E0C5010E94520F5E
:10171000892B89F4F60180819181892B61F481E024
:1017200090E091838083D70112968D919C911397BD
:10173000009709F07C01C701E2960FB6F894DEBF6E
:101740000FBECDBFDF91CF911F910F91FF90EF9012
:10175000DF90CF90BF90AF909F908F907F906F90D1
:101760000895CF93DF93EC0181E090E00E940C0597
:10177000029729F48A85082E000C990B02C080E09C
:1017800090E0DF91CF91089587B3806B87BBBE98BF
:1017900081E58DB980E090E008958FB9779BFECF09
:1017A00080E090E0089580E00E94CD0B8FB1089515
:1017B000C49880E090E00895C49A80E090E0089595
:1017C0000E94D80B80EC0E94CD0B0E94DC0B8FE4B2
:1017D00093EC0197F1F700C0000080E090E00895DD
:1017E0000E94C40B0E94E00B80E090E00895CF932C
:1017F000C82F0E94D80B83E00E94CD0B8C2F0E9433
:10180000CD0B0E94D30BC82F0E94DC0B8C2FCF91E5
:101810000895CF93DF93D82FC62F0E94D80B82E074
:101820000E94CD0B8D2F0E94CD0B8C2F0E94CD0BD3
:101830000E94DC0B80E090E0DF91CF910895CF9380
:10184000883018F4C82FC06801C0C0E80E94D80BC7
:101850008C2F0E94CD0B0E94DC0B80E090E0CF919A
:101860000895CF930E94D80B80EA0E94CD0B0E946E
:10187000D30BC82F0E94DC0B8C2FCF9108951F93A0
:10188000CF93DF93182FD62FC42F0E94D80B85E05B
:101890000E94CD0B812F0E94CD0B8D2F0E94CD0B6E
:1018A0008C2F0E94CD0B0E94DC0B80E090E0DF913A
:1018B000CF911F9108950E94F00B4FEF60E680E6F4
:1018C0000E943F0C40E060EE8FE00E943F0C41E040
:1018D00061E08BE20E943F0C80E090E0089580E39D
:1018E0000E94F70B8FEF9FEF08950F931F93CF93F5
:1018F0008C01FC0162857385759567957595679573
:101900007595679581E30E94090CF80162857385DE
:10191000660F771F62957295707F7627607F7627B6
:1019200082E30E94090CF80160856F7085E30E94D4
:10193000090CF8018085918518161906A4F420E099
:1019400030E0C0E0F801E20FF31F608186E38C0F06
:101950000E94090CCF5F2C2F30E0F8018085918523
:10196000281739077CF381E00E941F0C80E090E08B
:10197000CF911F910F91089581E090E00895AF926B
:10198000BF92CF92DF92EF92FF921F93CF93DF939C
:101990007C018091F403813071F581E60E94F70BA0
:1019A000A82E82E60E94F70B829586958770B12C4F
:1019B000AA0CBB1CAA0CBB1CAA0CBB1CA82A85E643
:1019C0000E94F70B8F70C82ED12C1C141D0484F4B8
:1019D000C0E0D0E010E086E6810F0E94F70BCE0D4C
:1019E000DF1D88831F5FC12FD0E0CC15DD059CF380
:1019F0001092F40303C0AA24AA94BA2CF701D1864A
:101A0000C086B386A286C701DF91CF911F91FF9058
:101A1000EF90DF90CF90BF90AF90089540E060E0EE
:101A20008CE20E943F0C40E061E08CE20E943F0C9F
:101A300081E08093F40380E090E008951F920F927C
:101A40000FB60F9211242F933F934F935F936F9391
:101A50007F938F939F93AF93BF93EF93FF930E94D6
:101A60000E0DFF91EF91BF91AF919F918F917F915B
:101A70006F915F914F913F912F910F900FBE0F90FB
:101A80001F90189580E090E008952F923F924F921A
:101A90005F926F927F928F929F92AF92BF92CF92FE
:101AA000DF92EF92FF920F931F93CF93DF93CDB707
:101AB000DEB76E970FB6F894DEBF0FBECDBF6C01D8
:101AC0005A8F498F81E090E09C878B8786E090E079
:101AD0009A87898781E08D832E83CE0101960E94AB
:101AE000750C0E948A05F82E9B8F0E94AE051A8EF7
:101AF000198E0F2EF3E06F2EF02D1E8E1D8E5524A5
:101B00005394412C0F2EF3EC2F2EF3E03F2EF02DAB
:101B1000EB8CCE010D960E94BF0C7D841E85AF8894
:101B2000B88C0E9470071B82812F90E09C8F8B8F56
:101B30001F921F93BF92AF92A4EAB3E0BF93AF93FB
:101B40000E94A60F0F900F900F900F900F900F9084
:101B5000F2E0AF16B104F1F56714D9F123E02715CF
:101B6000C8F16620C9F1A72CB12C1F927F92A7EB78
:101B7000B3E0BF93AF930E94A60F0F900F900F900A
:101B80000F908D8D9E8D892B71F00B8D1C8D950185
:101B9000AE01475E5F4F6F2D7E2DC6010E944E083D
:101BA0006C01672C06C00F2EF3E06F2EF02D5D8EBA
:101BB0004E8ED60111968C9111978F938C918F93A5
:101BC0003F922F920E94A60F0F900F900F900F90B0
:101BD00001C0672C61101BC00E94700780E090E07C
:101BE0000E940C05892BD1F3BFE3EDE0F3E0B15087
:101BF000E040F040E1F700C00000D6011296CD9021
:101C0000DC9013971D82612C852C942C02C0812CB2
:101C1000912C80E090E00E940C05892B39F0752C06
:101C2000B1E08B16910419F4712C01C0712C852D33
:101C3000942D0E940C05892B09F470C0A62CB12CA0
:101C40000B8D1C8D9501AE01475E5F4F6F2D7E2D74
:101C5000C6010E944E086C01EFE7FAE126E0E15070
:101C6000F0402040E1F700C000000E947007D6015C
:101C700011968C9111978F938C918F933F922F9205
:101C80000E94A60F0E948A05E82EF92E852D942D1C
:101C90000E940C050F900F900F900F90892BF1F080
:101CA0000B8D1C8D9501AE01475E5F4F6E2D7F2D14
:101CB000C6010E944E086C01BFE7EAE1F6E0B150B0
:101CC000E040F040E1F700C000000E94700780E0B3
:101CD00090E00E940C05892B09F106C080E090E09D
:101CE0000E940C05892B09F20B8D1C8D9501AE010C
:101CF000475E5F4F6E2D7F2DC6010E944E086C011E
:101D00002FE78AE196E0215080409040E1F700C043
:101D100000000E9470071D82852C942C0E948A0569
:101D2000B62E172FF82EE92E0E94AE05B9821A831F
:101D30009C837B82CE0101960E94750C8C811F9240
:101D40008F938C858F938B858F93AEEDB3E0BF938C
:101D5000AF930E94A60F0F900F900F900F900F90CF
:101D60000F90892809F4D5CEC6016E960FB6F89467
:101D7000DEBF0FBECDBFDF91CF911F910F91FF90BE
:101D8000EF90DF90CF90BF90AF909F908F907F901B
:101D90006F905F904F903F902F90089597FB072E84
:101DA00016F4009407D077FD09D00E94E20E07FCDC
:101DB00005D03EF4909581959F4F0895709561955B
:101DC0007F4F0895AA1BBB1B51E107C0AA1FBB1F71
:101DD000A617B70710F0A61BB70B881F991F5A95B7
:101DE000A9F780959095BC01CD0108958F929F929F
:101DF000AF92BF92CF92DF92EF92FF92CF93DF9399
:101E0000EC01688179818A819B8161157105810569
:101E1000910521F464E279ED8BE597E02DE133EF54
:101E200041E050E00E94B41349015A019B01AC010A
:101E3000A7EAB1E40E94D3136B017C01ACEEB4EFCE
:101E4000A50194010E94E113DC01CB018C0D9D1DC5
:101E5000AE1DBF1DB7FF03C00197A109B04888831D
:101E60009983AA83BB839F77DF91CF91FF90EF90F7
:101E7000DF90CF90BF90AF909F908F9008950E9479
:101E8000F60E089584E091E00E94F60E0895A0E019
:101E9000B0E08093040190930501A0930601B093F4
:101EA00007010895FB01DC018D910190801901105B
:101EB000D9F3990B08950F931F93CF93DF93009756
:101EC00031F46115710519F480E090E03AC08B019E
:101ED000EC016EE070E081E090E00E94B811FC013E
:101EE000892B91F380E883830115110571F0138725
:101EF000028781E8838380915E0490915F04892B3F
:101F000021F4F0935F04E0935E042097C9F0D18739
:101F1000C087838182608383809160049091610493
:101F2000892B71F4F0936104E09360048091620462
:101F300090916304892B21F4F0936304E09362048D
:101F4000CF01DF91CF911F910F910895A0E0B0E0F4
:101F5000ECEAFFE00C94F613AE014B5F5F4FFA0121
:101F600061917191AF0180916004909161040E9430
:101F7000E60FE2E00C941214609160047091610429
:101F80000E941E130895AEE0B0E0E9ECFFE00C946F
:101F9000F4130D891E8986E08C831A8309838FEFE1
:101FA0009FE79E838D83AE01475E5F4F6F89788D7B
:101FB000CE0101960E94E60F2F813885F801E20FCD
:101FC000F31F10822E96E4E00C941014ACE0B0E005
:101FD000ECEEFFE00C94E6137C016B018A01FC013E
:101FE00017821682838181FFBDC1CE0101964C010B
:101FF000F7019381F60193FD859193FF81916F0124
:10200000882309F4ABC1853239F493FD859193FFA0
:1020100081916F01853229F4B70190E00E941E136F
:10202000E7CF512C312C20E02032A0F48B3269F024
:1020300030F4803259F0833269F420612CC08D3243
:1020400039F0803339F4216026C02260246023C037
:10205000286021C027FD27C030ED380F3A3078F4D2
:1020600026FF06C0FAE05F9E300D1124532E13C0E8
:102070008AE0389E300D1124332E20620CC08E323F
:1020800021F426FD6BC1206406C08C3611F4206853
:1020900002C0883641F4F60193FD859193FF81914A
:1020A0006F018111C1CF982F9F7D9554933028F4F3
:1020B0000C5F1F4FFFE3F9830DC0833631F0833788
:1020C00071F0833509F05BC022C0F80180818983FB
:1020D0000E5F1F4F44244394512C540115C0380106
:1020E000F2E06F0E711CF801A080B18026FF03C0E2
:1020F000652D70E002C06FEF7FEFC5012C870E9455
:1021000013132C0183012C852F77222E17C0380141
:10211000F2E06F0E711CF801A080B18026FF03C0B1
:10212000652D70E002C06FEF7FEFC5012C870E9424
:1021300001132C012C852068222E830123FC1BC057
:10214000832D90E048165906B0F4B70180E290E084
:102150000E941E133A94F4CFF50127FC859127FEC7
:1021600081915F01B70190E00E941E1331103A94F3
:10217000F1E04F1A51084114510471F7E5C084365B
:1021800011F0893639F5F80127FF07C060817181A8
:10219000828193810C5F1F4F08C060817181072E7F
:1021A000000C880B990B0E5F1F4F2F76722E97FF36
:1021B00009C090958095709561957F4F8F4F9F4F87
:1021C0002068722E2AE030E0A4010E945613A82E47
:1021D000A81844C0853729F42F7EB22E2AE030E0BB
:1021E00025C0F22FF97FBF2E8F36C1F018F4883545
:1021F00079F0B4C0803719F0883721F0AFC02F2FA5
:102200002061B22EB4FE0DC08B2D8460B82E09C0A3
:1022100024FF0AC09F2F9660B92E06C028E030E048
:1022200005C020E130E002C020E132E0F801B7FE55
:1022300007C060817181828193810C5F1F4F06C04E
:102240006081718180E090E00E5F1F4FA4010E94C9
:102250005613A82EA818FB2DFF777F2E76FE0BC0F5
:10226000372D3E7FA51450F474FE0AC072FC08C0DE
:10227000372D3E7E05C0BA2C372D03C0BA2C01C0C5
:10228000B52C34FF0DC0FE01EA0DF11D80818033B5
:1022900011F4397E09C032FF06C0B394B39404C070
:1022A000832F867809F0B39433FD13C030FF06C046
:1022B0005A2CB31418F4530C5B18B32CB31468F4F1
:1022C000B70180E290E03C870E941E13B3943C85E6
:1022D000F5CFB31410F43B1801C0312C34FF12C0F9
:1022E000B70180E390E03C870E941E133C8532FFDB
:1022F00017C031FD03C088E790E002C088E590E098
:10230000B7010CC0832F867859F031FF02C08BE2F1
:1023100001C080E237FD8DE2B70190E00E941E13FC
:10232000A51438F4B70180E390E00E941E135A947C
:10233000F7CFAA94F401EA0DF11D8081B70190E076
:102340000E941E13A110F5CF332009F451CEB7011E
:1023500080E290E00E941E133A94F6CFF701868146
:10236000978102C08FEF9FEF2C96E2E10C9402144C
:102370000F931F93CF93DF93869F8001879F100D4C
:10238000969F100D1124C8010E94D411EC010097F2
:1023900029F0A80160E070E00E940C13CE01DF91EB
:1023A000CF911F910F910895CF93DF9382309105C4
:1023B00010F482E090E0E0916604F091670420E080
:1023C00030E0C0E0D0E0309711F1408151814817F2
:1023D0005907C0F04817590761F48281938120970B
:1023E00019F09B838A832BC09093670480936604C3
:1023F00026C02115310519F04217530718F49A0128
:10240000BE01DF01EF010280F381E02DDCCF211559
:10241000310509F1281B390B2430310590F412964F
:102420008D919C9113976115710521F0FB019383A8
:10243000828304C09093670480936604FD01329602
:1024400044C0FD01E20FF31F8193919322503109A3
:102450002D933C933AC02091640430916504232B62
:1024600041F420910A0130910B01309365042093CF
:10247000640420910801309109012115310541F4CE
:102480002DB73EB740910C0150910D01241B350B27
:10249000E0916404F0916504E217F307A0F42E1BA9
:1024A0003F0B2817390778F0AC014E5F5F4F2417B8
:1024B000350748F04E0F5F1F509365044093640446
:1024C0008193919302C0E0E0F0E0CF01DF91CF91E2
:1024D00008950F931F93CF93DF93009709F48CC057
:1024E000FC013297138212820091660410916704F6
:1024F0000115110581F420813181820F931F2091F4
:102500006404309165042817390779F5F093650460
:10251000E093640471C0D80140E050E0AE17BF07FB
:1025200050F412962D913C911397AD012115310570
:1025300009F1D901F3CF9D01DA0133832283608150
:102540007181860F971F8217930769F4EC01288128
:102550003981260F371F2E5F3F4F318320838A81B9
:102560009B8193838283452B29F4F0936704E09346
:10257000660442C01396FC93EE931297ED014991C5
:1025800059919E01240F351FE217F30771F48081E2
:102590009181840F951F029611969C938E93828150
:1025A000938113969C938E931297E0E0F0E0D8010C
:1025B00012968D919C911397009719F0F8018C0158
:1025C000F6CF8D919C9198012E5F3F4F820F931F04
:1025D00020916404309165042817390769F4309715
:1025E00029F4109267041092660402C013821282CA
:1025F0001093650400936404DF91CF911F910F91B4
:102600000895FC010590615070400110D8F7809545
:1026100090958E0F9F1F0895DC0101C06D9341506E
:102620005040E0F70895FC016150704001900110A6
:10263000D8F7809590958E0F9F1F08950F931F9345
:10264000CF93DF93FB01238121FD03C08FEF9FEF29
:1026500028C022FF16C04681578124813581421748
:10266000530744F4A081B1819D012F5F3F4F318317
:1026700020838C93268137812F5F3F4F37832683BA
:1026800010C0EB01092F182F0084F185E02D09956A
:10269000892BE1F68E819F8101969F838E83812F06
:1026A000902FDF91CF911F910F910895FA01AA27E2
:1026B000283051F1203181F1E8946F936E7F6E5F85
:1026C0007F4F8F4F9F4FAF4FB1E03ED0B4E03CD033
:1026D000670F781F891F9A1FA11D680F791F8A1F16
:1026E000911DA11D6A0F711D811D911DA11D20D07D
:1026F00009F468943F912AE0269F11243019305D37
:102700003193DEF6CF010895462F4770405D419327
:10271000B3E00FD0C9F7F6CF462F4F70405D4A3374
:1027200018F0495D31FD4052419302D0A9F7EACF3C
:10273000B4E0A6959795879577956795BA95C9F76B
:1027400000976105710508959B01AC010A2E06945E
:102750005795479537952795BA95C9F7620F731F17
:10276000841F951FA01D0895052E97FB1EF400944D
:102770000E94CB1357FD07D00E941D1407FC03D005
:102780004EF40C94CB1350954095309521953F4FC6
:102790004F4F5F4F089590958095709561957F4F4D
:1027A0008F4F9F4F08950E943F14A59F900DB49F97
:1027B000900DA49F800D911D11240895B7FF0C94D6
:1027C000D3130E94D313821B930B08952F923F9231
:1027D0004F925F926F927F928F929F92AF92BF9231
:1027E000CF92DF92EF92FF920F931F93CF93DF93DD
:1027F000CDB7DEB7CA1BDB0B0FB6F894DEBF0FBE3A
:10280000CDBF09942A88398848885F846E847D8486
:102810008C849B84AA84B984C884DF80EE80FD8088
:102820000C811B81AA81B981CE0FD11D0FB6F894FE
:10283000DEBF0FBECDBFED010895A1E21A2EAA1B87
:10284000BB1BFD010DC0AA1FBB1FEE1FFF1FA21760
:10285000B307E407F50720F0A21BB30BE40BF50B5D
:10286000661F771F881F991F1A9469F760957095E6
:10287000809590959B01AC01BD01CF010895A29F69
:10288000B001B39FC001A39F700D811D1124911D44
:10289000B29F700D811D1124911D0895F894FFCFF2
:1028A00000120010010000000000680420006D61AB
:1028B000696E0A0D00646966666963756C747900F7
:1028C00052494748540067616D65000A0D537461B1
:1028D0007274696E67205352414D20746573742E73
:1028E0002E2E0A0D00577269746520706861736539
:1028F000206572726F723A206578745F72616D5BE9
:102900002534645D203D2025303258202873686FBF
:10291000756C642062652025303258290A0D0052FA
:10292000657472696576616C207068617365206595
:1029300072726F723A206578745F72616D5B2534D4
:10294000645D203D2025303258202873686F756CF7
:10295000642062652025303258290A0D0053524107
:102960004D207465737420636F6D706C657465645D
:102970002077697468200A0D253464206572726FAF
:10298000727320696E207772697465207068617354
:102990006520616E64200A0D253464206572726FB3
:1029A000727320696E2072657472696576616C203D
:1029B00070686173650A0A0D004C45465400444F27
:1029C000574E005550004E45555452414C006D61D4
:1029D000696E006873006F7074696F6E7300706168
:1029E0007573655F6D656E75006D757369635F6D99
:1029F000656E75006E6F726D616C5F64696666000E
:102A0000686172645F64696666002D2D2D4D616991
:102A10006E20204D656E752D2D2D00506C61792036
:102A200047616D6500486967682053636F7265731D
:102A30000053657474696E6773002D2D506C617955
:102A4000696E672047616D652D2D004C6976657351
:102A50003A20232323004C697665733A2023230010
:102A60004C697665733A202300596F75206C6F733B
:102A700074210053636F72653A002564004F6B0048
:102A8000517569742067616D653F00596573004E2B
:102A90006F002D2D48696768202053636F7265733E
:102AA0002D2D00312E204F6C612D2D2D2D2D2D2DF6
:102AB000313500322E205065747465722D2D2D2D08
:102AC0003132004261636B002D2D2D2D53657474DE
:102AD000696E67732D2D2D2D004D7573696300444C
:102AE0006966666963756C7479002D2D2D2D2D4DE9
:102AF000757369632D2D2D2D2D004D6172696F2029
:102B000074756E65005465747269732074756E65B2
:102B1000002D2D2D446966666963756C74792D2DC1
:102B20002D004E6F726D616C0048617264004E6FD3
:102B3000726D616C206D6F64650048617264206D18
:102B40006F64650069643A2025642C2064617461B7
:102B50003A2025640A0D006C697665733A20256475
:102B60000A0D006D656E756E616D6520696E736925
:102B700064652067616D653A2025730A0D006964FC
:102B80003A2025642C20736C696465723A202564B0
:042B90000D0A00002A
:00000001FF
