:100000000C9460030C94DA0A0C947D030C947D0329
:100010000C947D030C947D030C947D030C947D0360
:100020000C947D030C947D030C947D030C947D0350
:100030000C947D030C947D030C947D030C947D0340
:100040000C947D030C947D030C947D030C947D0330
:100050000C947D030C947D030C947D030C947D0320
:100060000C947D030C947D030C947D030C947D0310
:1000700000000000005C00000C000C007C287C28C4
:1000800058DC68002410480028542840000C000068
:10009000007884008478000054385400107C1000EC
:1000A00080400000101010000040000060100C00A4
:1000B00038543800487C40004864580044542C00B0
:1000C0001C107C005C5424003854240064140C0080
:1000D00068542C0048543800004800008048000054
:1000E0001028440028282800442810000454080040
:1000F00038445C00781478007C5428003844280088
:100100007C4438007C5444007C140400384474005F
:100110007C107C00447C440020403C007C106C003F
:100120007C4040007C187C0078103C00384438004B
:100130007C1408003844B8007C146800485424003B
:10014000047C04007C407C003C603C007C307C00F3
:100150006C106C000C700C0064544C00007C44006B
:100160000C106000447C00000804080080808000BF
:1001700000040800304878007C48300030484800CF
:1001800030487C00306850001078140090A8780047
:100190007C08700050744000808074007C106800FF
:1001A000447C4000781078007808700030483000B7
:1001B000F82810003048F80078100800505828003F
:1001C000083C4800384078003840380078207800F3
:1001D0004830480098A0780048685800107884009B
:1001E000007C00008478100008040804000000006F
:1001F0000000005F00000007000700147F147F1458
:10020000242A7F2A1223130864623649552250009B
:1002100005030000001C2241000041221C00082AA6
:100220001C2A0808083E080800503000000808088A
:100230000808006060000020100804023E51494593
:100240003E00427F400042615149462141454B31C9
:100250001814127F1027454545393C4A4949300159
:10026000710905033649494936064949291E0036B0
:100270003600000056360000000814224114141401
:10028000141441221408000201510906324979412F
:100290003E7E1111117E7F494949363E414141223E
:1002A0007F4141221C7F494949417F090901013EA3
:1002B000414151327F0808087F00417F41002040C2
:1002C000413F017F081422417F404040407F0204AB
:1002D000027F7F0408107F3E4141413E7F090909AA
:1002E000063E4151215E7F09192946464949493157
:1002F00001017F01013F4040403F1F2040201F7F00
:100300002018207F631408146303047804036151E8
:1003100049454300007F4141020408102041417FCC
:100320000000040201020440404040400001020479
:100330000020545454787F4844443838444444207E
:10034000384444487F3854545418087E0901020840
:100350001454543C7F0804047800447D400020403D
:10036000443D00007F10284400417F40007C041879
:1003700004787C0804047838444444387C14141409
:1003800008081414187C7C080404084854545420A9
:10039000043F4440203C4040207C1C2040201C3C2A
:1003A0004030403C44281028440C5050503C446499
:1003B000544C44000836410000007F0000004136E4
:1003C000080002010302010000000000000000001C
:1003D000065F5F060000000007070007070000181F
:1003E00024448888442418242E6B6B3A120000465B
:1003F0006630180C666200307A4F5D377A48000428
:1004000007030000000000001C3E634100000000E4
:1004100041633E1C000000082A3E1C1C3E2A0808BE
:10042000083E3E0808000000A0E060000000000850
:100430000808080808000000006060000000006074
:1004400030180C060301003E7F594D7F3E000042EC
:10045000427F7F40400000627359496F660000226E
:100460006349497F360000181C16137F7F10002750
:100470006745457D3900003C7E4B497930000003DB
:100480006371190F070000367F49497F3600000667
:100490004F49693F1E000000006C6C000000000026
:1004A000A0EC6C00000000081C3663410000001442
:1004B00014141414140000004163361C08000002D8
:1004C0000351590F0600003C42818199A542007CEE
:1004D0007E13137E7C0000417F7F49497F36001CDC
:1004E0003E634141632200417F7F41637F1C0041A5
:1004F0007F7F495D416300417F7F491D0103001CEF
:100500003E6341517372007F7F08087F7F000000C7
:10051000417F7F41000000307040417F3F0100413A
:100520007F7F081C776300417F7F41406070007FC0
:100530007F060C067F7F007F7F060C187F7F001CE4
:100540003E6341633E1C00417F7F49090F06001E48
:100550003F21717F5E0000417F7F19396F46002681
:10056000674D597B32000003417F7F410300007FCC
:100570007F40407F7F00001F3F60603F1F00007F83
:100580007F3018307F7F0063771C081C776300077B
:100590004F78784F0700006773594D47637100002B
:1005A0007F7F41410000000103060C18306000000D
:1005B00041417F7F000000080C0603060C08008004
:1005C000808080808080800000030704000000207D
:1005D0007454543C784000413F7F44447C38003898
:1005E0007C44446C280000307848493F7F40003804
:1005F0007C54545C180000487E7F49030200009838
:10060000BCA4A4F87C0400417F7F08047C7800002F
:10061000447D7D4000000040C484FD7D0000004119
:100620007F7F10386C440000417F7F400000007CD9
:100630007C0C180C7C78007C7C04047C78000038EE
:100640007C44447C38000084FCF8A4243C18001846
:100650003C24A4F8FC8400447C78441C1800004826
:100660005C54547424000000043E7F442400003C89
:100670007C40403C7C40001C3C60603C1C00003CDA
:100680007C6030607C3C00446C3810386C44009CCA
:10069000BCA0A0FC7C00004C64745C4C64000008AE
:1006A000083E7741410000000000777700000041DC
:1006B00041773E0808000002030103020301000025
:1006C00011241FBECFEFD4E0DEBFCDBF12E0A0E00B
:1006D000B1E0EAEBF0E202C005900D92AA3FB1074B
:1006E000D9F723E0AAEFB2E001C01D92A733B20709
:1006F000E1F70E947F030C945B100C940000CF93F1
:10070000DF93CDB7DEB72C970FB6F894DEBF0FBEE0
:10071000CDBF8FE190E00E94260485B7806885BF39
:1007200080B7806280BF8BB780648BBF85B78260E3
:1007300085BF85B78E7F85BF0E944C040E945906F5
:100740002FEF8FEF9DE1215080409040E1F700C0F6
:1007500000000E94A7077C01DC01ED91FC918081E3
:10076000882389F000E010E0082E000C990B0E940D
:10077000EC0B0F5F1F4FD701ED91FC91E00FF11FC4
:1007800080818111F1CF0E94080583E090E09C8771
:100790008B8785E090E09A8789870E940F0A78947A
:1007A0000E946204A12C772473940F2EFCE18F2EFB
:1007B000F1E09F2EF02D0F2EFEE0EF2EF1E0FF2E48
:1007C000F02D0E949605B62EC72E0E94BA05D82E8F
:1007D000192F80E090E00E941505892B61F01F928F
:1007E0007F929F928F920E94D60B0F900F900F9046
:1007F0000F90072D01C00A2D1F921F93FF92EF92B9
:100800000E94D60BB982CA82DB821C830D83CE0183
:1008100001960E94290AAD82BFEF2FE781E0B15017
:1008200020408040E1F700C000C00F900F900F9073
:100830000F90C7CF5D9BFECF8CB908955F9BFECF15
:100840008CB190E00E94EC0B8CB1089590BD89B9F9
:1008500088E18AB98EE880BD6EE174E08AE194E0B7
:100860000E948B0B909300038093FF020895CF9317
:10087000DF93EC018881882351F021966091FF027B
:10088000709100030E941A0489918111F7CF80E0D2
:1008900090E0DF91CF91089585B7806885BF80B7DC
:1008A000806280BF80E090E00895FC01F85E608384
:1008B00080E090E00895FC01F85E8081082E000C35
:1008C000990B0895CF92DF92EF92FF920F931F93AF
:1008D000CF93DF9381E291E09F938F930E94D60B99
:1008E0000E94720B7C010E94770B0F900F90C12C1D
:1008F000D12CC0E0D0E00BE311E00E94720BF601B6
:10090000F85E808320812817A1F099279F938F9309
:100910001F922F93DF92CF921F930F930E94D60BBB
:1009200021968DB79EB708960FB6F8949EBF0FBE5E
:100930008DBF9FEFC91AD90AC11488E0D806E9F61D
:10094000C7010E94770B00E010E0E12CF12C0F2E84
:10095000F5E7CF2EF1E0DF2EF02D0E94720BF801AB
:10096000F85E20812817B1F099279F938F931F92EB
:100970002F931F930F93DF92CF920E94D60B9FEF7E
:10098000E91AF90A8DB79EB708960FB6F8949EBF7C
:100990000FBE8DBF0F5F1F4F011598E01907E9F6D5
:1009A000FF92EF92DF93CF9383EB91E09F938F932E
:1009B0000E94D60B0F900F900F900F900F900F90FA
:1009C000DF91CF911F910F91FF90EF90DF90CF902B
:1009D0000895BA9880E090E00895843050F48460DF
:1009E000E0E0F4E1808382E68A95F1F700008081FF
:1009F000089580E0089581E00E94ED048093FD0257
:100A000080E00E94ED048093FB0280E090E0089576
:100A10000E94E90487B3887F87BB88B3876088BB5F
:100A20000E94FB0480E090E008958130910549F038
:100A30008230910559F0892B71F486B3817090E072
:100A40000895B19B0BC082E090E00895B29B09C06D
:100A500083E090E0089580E090E0089580E090E0E9
:100A6000089580E090E00895CF9381E00E94ED0426
:100A7000C82F80E00E94ED04E82F4091FD024C1742
:100A800098F450E02C2F30E0241B350B64E6629F75
:100A9000C001639F900D112460E071E0641B750B31
:100AA0000E94FE0AF62F13C0C41780F4642F70E072
:100AB0002C2F30E0261B370B44E6429FC001439F9A
:100AC000900D11240E94FE0AF62F01C0F0E0209143
:100AD000FB022E1798F430E04E2F50E0421B530BD0
:100AE00064E6649FC001659F900D112460E071E091
:100AF000621B730B0E94FE0A762F13C0E21780F46C
:100B000030E04E2F50E0421B530B64E6649FC0015F
:100B1000659F900D1124B9010E94FE0A762F01C035
:100B200070E06F2F80E090E0CF9108950E9434052F
:100B3000E72F282F392F683D2CF069322CF024E163
:100B400032E002C02FE032E0E83D2CF0E9322CF038
:100B50002FE132E002C02AE132E08AE0860F8531DF
:100B600030F48AE0870F853110F422E232E0822FE0
:100B7000932F0895CF9382E00E94ED04C82F83E065
:100B80000E94ED0424E6829FC0011124892F94E67F
:100B9000C99F90011124932FCF910895E0910201F4
:100BA000F0910301808308951092FE021092FC02DE
:100BB000E0910201F091030181E28083E091020162
:100BC000F09103011082E0910201F09103018FE79F
:100BD0008083E0910201F091030182E28083E09141
:100BE0000201F09103011082E0910201F0910301F2
:100BF00087E0808380E090E00895CF93C82F0E9423
:100C0000D405C83098F4C093FE02E0910201F0913F
:100C100003011082E0910201F091030180E18083E1
:100C2000E0910201F0910301C06BC08380E090E08D
:100C3000CF910895803198F4982F990F990F990FBB
:100C40009093FC02E0910201F0910301987090836F
:100C5000E0910201F09103018695805F808380E03E
:100C600090E00895CF93C62F0E94FD058C2F0E941F
:100C70001A0680E090E0CF9108950E94FD0580E87B
:100C800090E0E0910001F091010110820197C9F715
:100C90000E94D40580E090E00895CF93C0E08C2FAF
:100CA0000E943D06CF5FC830D1F780E090E0CF9141
:100CB0000895E0910201F09103018EEA8083E091B2
:100CC0000201F091030181EA8083E0910201F09139
:100CD00003018AED8083E0910201F091030182E13A
:100CE0008083E0910201F091030188EC8083E09120
:100CF0000201F091030188EA8083E0910201F09102
:100D000003018FE38083E0910201F091030185EDFF
:100D10008083E0910201F091030180E88083E091FB
:100D20000201F091030181E88083E0910201F091DA
:100D3000030180E58083E0910201F091030189EDD8
:100D40008083E0910201F091030181E28083E091D0
:100D50000201F091030180E28083E0910201F091B1
:100D6000030182E08083E0910201F09103018BEDA9
:100D70008083E0910201F091030180E38083E091A0
:100D80000201F09103018DEA8083E0910201F0916C
:100D900003011082E0910201F091030184EA808353
:100DA000E0910201F091030186EA8083E091020163
:100DB000F09103018FEA80830E944D060E94D405C2
:100DC00080E090E00895082E000C990B8097880F22
:100DD000991F880F991F880F991FFC01E953FC4F39
:100DE00081539C4FA0910001B091010124912C935B
:100DF0003196E817F907B1F780E090E00895CF93B6
:100E0000DF93EC018881882331F021960E94E3066C
:100E100089918111FBCF80E090E0DF91CF9108951F
:100E2000CF93DF930E94FD05C0E0D0E08091FE02E9
:100E300060E070E09E0140E8849F200D311D112488
:100E4000C9010E9455042196C038D10579F70E9446
:100E5000D40580E090E0DF91CF910895CF93C0E07A
:100E60008C2F0E941007CF5FC830D1F780E090E050
:100E7000CF9108950F931F93CF93DF9328E08202C1
:100E8000C0011124C0E0D0E08C011A95F801EC0FEC
:100E9000FD1FE953FC4F649170E02091FE028091A8
:100EA000FC0290E030E8239F800D911D11248C0FEF
:100EB0009D1F0E9455042196C830D10539F78091B5
:100EC000FC02885F8093FC0280E090E0DF91CF918C
:100ED0001F910F910895CF93DF93EC0188818823B0
:100EE00031F021960E943A0789918111FBCF80E071
:100EF00090E0DF91CF910895DF92EF92FF920F93F0
:100F00001F93CF93DF93C0E0D0E0D12C8D2D0E94B2
:100F1000FD057E0180E8E80EF11C009100011091B2
:100F20000101CE010E945B04F80180832196CE1559
:100F3000DF0599F7D394E701F8E0DF12E7CFDF91FF
:100F4000CF911F910F91FF90EF90DF900895CF9375
:100F5000DF93E7E1F3E08AE292E0918380831382FA
:100F600012828CE093E095838483C2E2D3E0D7833E
:100F7000C68361E073E07187608721E022874FE2DA
:100F800052E0DC0111965C934E931396FC93EE9322
:100F9000129715961C921E92149717961C921E92E9
:100FA000169719961C921E9218971A962C9384E302
:100FB00092E099838883FB83EA831D821C821F82CF
:100FC0001E82198618862A8787E392E0DB01119634
:100FD0009C938E931396FC93EE93129715961C9206
:100FE0001E92149717961C921E92169719961C9291
:100FF0001E9218971A962C93CF01DF91CF910895E6
:10100000CF92DF92EF92FF920F931F93CF93DF93D4
:101010008C017B016A016252724079F4FA011182FB
:101020001082F801C081D1816AE272E0CE010E9493
:10103000820B892B09F064C01CC1F801C081D181E9
:101040006AE272E0CE010E94820B892B09F058C03F
:101050000E942E0760E080E00E9432068FE392E05B
:101060000E946B0762E081E00E94320680E592E018
:101070000E946B0762E082E00E9432068AE592E0FD
:101080000E946B0762E083E00E94320686E692E0EF
:101090000E946B076FE172E0C7010E94820B892BEF
:1010A00081F4F60180819181892B09F581E090E03E
:1010B00091838083F80182858230CCF081508287D1
:1010C00016C06AE172E0C7010E94820B892B79F495
:1010D000F60180819181892B51F481E090E0918328
:1010E0008083F8018285833014F48F5F828760E00B
:1010F000F80182850E94320680E40E943A07DCC033
:101100006FE272E0CE010E94820B892BF1F40E9403
:101110002E0760E080E00E9432068FE692E00E9497
:101120006B0761E082E00E94320680E892E00E9454
:101130006B0761E087E00E9432068BE892E00E9434
:101140006B078FEFF8018287B7C064E372E0CE01CE
:101150000E94820B892B69F50E942E0760E080E0D7
:101160000E94320684E992E00E946B0761E081E010
:101170000E94320685EA92E00E94FF0661E082E06A
:101180000E94320685EB92E00E94FF0661E087E054
:101190000E94320685EC92E00E94FF0660E087E044
:1011A0000E94320680E40E94E3068FEFF8018287F6
:1011B00083C067E372E0CE010E94820B892B09F0A5
:1011C0007BC00E942E0760E080E00E9432068AEC1D
:1011D00092E00E946B0762E081E00E9432068BED94
:1011E00092E00E946B0762E082E00E94320681EE8C
:1011F00092E00E946B0762E083E00E94320685EC79
:1012000092E00E946B076FE172E0C7010E94820BBF
:10121000892B81F4F60180819181892B09F581E088
:1012200090E091838083F80182858230CCF08150F8
:10123000828716C06AE172E0C7010E94820B892B87
:1012400079F4F60180819181892B51F481E090E05D
:1012500091838083F8018285833014F48F5F8287C5
:1012600060E0F80182850E94320680E40E943A071D
:1012700023C00E942E0760E080E00E9432068FE3C8
:1012800092E00E946B0762E081E00E94320680E5F6
:1012900092E00E946B0762E082E00E9432068AE5DB
:1012A00092E00E946B0762E083E00E94320686E6CD
:1012B00092E00E946B071BCFDF91CF911F910F919E
:1012C000FF90EF90DF90CF900895CF93DF93EC01E4
:1012D00081E090E00E941505029729F48A85082E86
:1012E000000C990B02C080E090E0DF91CF9108954F
:1012F00087B3806B87BBBE9881E58DB980E090E0B5
:1013000008958FB9779BFECF80E090E0089580E04C
:101310000E9481098FB10895C49880E090E00895FB
:10132000C49A80E090E008950E948C0980EC0E94AD
:1013300081090E9490098FE493EC0197F1F700C0B6
:10134000000080E090E008950E9478090E949409CE
:1013500080E090E00895CF93C82F0E948C0983E02D
:101360000E9481098C2F0E9481090E948709C82F41
:101370000E9490098C2FCF910895CF93DF93D82F9F
:10138000C62F0E948C0982E00E9481098D2F0E9445
:1013900081098C2F0E9481090E94900980E090E0D1
:1013A000DF91CF910895CF93883018F4C82FC0688B
:1013B00001C0C0E80E948C098C2F0E9481090E9404
:1013C000900980E090E0CF910895CF930E948C091E
:1013D00080EA0E9481090E948709C82F0E94900913
:1013E0008C2FCF9108951F93CF93DF93182FD62F73
:1013F000C42F0E948C0985E00E948109812F0E94E0
:1014000081098D2F0E9481098C2F0E9481090E94E1
:10141000900980E090E0DF91CF911F9108950E94A4
:10142000A4094FEF60E680E60E94F30940E060EE19
:101430008FE00E94F30941E061E08BE20E94F30932
:1014400080E090E0089580E30E94AB098FEF9FEF6A
:1014500008950F931F93CF938C01FC0162857385D0
:1014600075956795759567957595679581E30E9464
:10147000BD09F80162857385660F771F62957295C5
:10148000707F7627607F762782E30E94BD09F8018E
:1014900060856F7085E30E94BD09F80180859185A4
:1014A00018161906A4F420E030E0C0E0F801E20FBD
:1014B000F31F608186E38C0F0E94BD09CF5F2C2F44
:1014C00030E0F80180859185281739077CF381E0A9
:1014D0000E94D30980E090E0CF911F910F91089571
:1014E00081E090E00895AF92BF92CF92DF92EF92A9
:1014F000FF921F93CF93DF937C018091FA0281309A
:10150000B1F581E60E94AB09A82E82E60E94AB09E4
:10151000829586958770B12CAA0CBB1CAA0CBB1CAB
:10152000AA0CBB1CA82A85E60E94AB098F70C82EA6
:10153000D12C1C141D0484F4C0E0D0E010E086E639
:10154000810F0E94AB09CE0DDF1D88831F5FC12F65
:10155000D0E0CC15DD059CF386EE92E09F938F934F
:101560000E94D60B1092FA020F900F9003C0AA248B
:10157000AA94BA2CF701D186C086B386A286C70189
:10158000DF91CF911F91FF90EF90DF90CF90BF90B0
:10159000AF90089540E060E08CE20E94F30940E0E3
:1015A00061E08CE20E94F30981E08093FA0280E01E
:1015B00090E008951F920F920FB60F9211242F936F
:1015C0003F934F935F936F937F938F939F93AF93CB
:1015D000BF93EF93FF930E94CA0AFF91EF91BF91CF
:1015E000AF919F918F917F916F915F914F913F91BB
:1015F0002F910F900FBE0F901F90189597FB072EFD
:1016000016F4009407D077FD09D00E94120B07FC56
:1016100005D03EF4909581959F4F08957095619502
:101620007F4F0895AA1BBB1B51E107C0AA1FBB1F18
:10163000A617B70710F0A61BB70B881F991F5A955E
:10164000A9F780959095BC01CD0108958F929F9246
:10165000AF92BF92CF92DF92EF92FF92CF93DF9340
:10166000EC01688179818A819B8161157105810511
:10167000910521F464E279ED8BE597E02DE133EFFC
:1016800041E050E00E94C10F49015A019B01AC01A9
:10169000A7EAB1E40E94E00F6B017C01ACEEB4EF6D
:1016A000A50194010E94EE0FDC01CB018C0D9D1D64
:1016B000AE1DBF1DB7FF03C00197A109B0488883C5
:1016C0009983AA83BB839F77DF91CF91FF90EF909F
:1016D000DF90CF90BF90AF909F908F9008950E9421
:1016E000260B089584E091E00E94260B0895A0E067
:1016F000B0E08093040190930501A0930601B0939C
:1017000007010895FB01DC018D9101908019011002
:10171000D9F3990B08950F931F93CF93DF930097FD
:1017200031F46115710519F480E090E03AC08B0145
:10173000EC016EE070E081E090E00E94C50DFC01DC
:10174000892B91F380E883830115110571F01387CC
:10175000028781E8838380912D0390912E03892B4A
:1017600021F4F0932E03E0932D032097C9F0D18745
:10177000C08783818260838380912F03909130039F
:10178000892B71F4F0933003E0932F0380913103A0
:1017900090913203892B21F4F0933203E0933103CB
:1017A000CF01DF91CF911F910F910895A0E0B0E09C
:1017B000ECEDFBE00C940310AE014B5F5F4FFA01C0
:1017C00061917191AF0180912F03909130030E943C
:1017D000F30BE2E00C941F1060912F037091300323
:1017E0000E942B0F0895ACE0B0E0E9EFFBE00C9411
:1017F000F30F7C016B018A01FC0117821682838141
:1018000081FFBDC1CE0101964C01F7019381F60124
:1018100093FD859193FF81916F01882309F4ABC1FA
:10182000853239F493FD859193FF81916F01853263
:1018300029F4B70190E00E942B0FE7CF512C312CF7
:1018400020E02032A0F48B3269F030F4803259F07D
:10185000833269F420612CC08D3239F0803339F441
:10186000216026C02260246023C0286021C027FD9B
:1018700027C030ED380F3A3078F426FF06C0FAE082
:101880005F9E300D1124532E13C08AE0389E300D18
:101890001124332E20620CC08E3221F426FD6BC140
:1018A000206406C08C3611F4206802C0883641F4EA
:1018B000F60193FD859193FF81916F018111C1CF55
:1018C000982F9F7D9554933028F40C5F1F4FFFE3B2
:1018D000F9830DC0833631F0833771F0833509F019
:1018E0005BC022C0F801808189830E5F1F4F4424B2
:1018F0004394512C540115C03801F2E06F0E711C55
:10190000F801A080B18026FF03C0652D70E002C001
:101910006FEF7FEFC5012C870E94200F2C01830100
:101920002C852F77222E17C03801F2E06F0E711C24
:10193000F801A080B18026FF03C0652D70E002C0D1
:101940006FEF7FEFC5012C870E940E0F2C012C85B5
:101950002068222E830123FC1BC0832D90E04816B3
:101960005906B0F4B70180E290E00E942B0F3A9440
:10197000F4CFF50127FC859127FE81915F01B70126
:1019800090E00E942B0F31103A94F1E04F1A510869
:101990004114510471F7E5C0843611F0893639F5E8
:1019A000F80127FF07C060817181828193810C5FFC
:1019B0001F4F08C060817181072E000C880B990BA6
:1019C0000E5F1F4F2F76722E97FF09C0909580955E
:1019D000709561957F4F8F4F9F4F2068722E2AE040
:1019E00030E0A4010E94630FA82EA81844C08537D8
:1019F00029F42F7EB22E2AE030E025C0F22FF97FA5
:101A0000BF2E8F36C1F018F4883579F0B4C0803716
:101A100019F0883721F0AFC02F2F2061B22EB4FE0D
:101A20000DC08B2D8460B82E09C024FF0AC09F2FE3
:101A30009660B92E06C028E030E005C020E130E015
:101A400002C020E132E0F801B7FE07C06081718179
:101A5000828193810C5F1F4F06C06081718180E09D
:101A600090E00E5F1F4FA4010E94630FA82EA818DC
:101A7000FB2DFF777F2E76FE0BC0372D3E7FA51402
:101A800050F474FE0AC072FC08C0372D3E7E05C0BB
:101A9000BA2C372D03C0BA2C01C0B52C34FF0DC0B1
:101AA000FE01EA0DF11D8081803311F4397E09C0F9
:101AB00032FF06C0B394B39404C0832F867809F034
:101AC000B39433FD13C030FF06C05A2CB31418F47E
:101AD000530C5B18B32CB31468F4B70180E290E0A8
:101AE0003C870E942B0FB3943C85F5CFB31410F4C0
:101AF0003B1801C0312C34FF12C0B70180E390E0E5
:101B00003C870E942B0F3C8532FF17C031FD03C07C
:101B100088E790E002C088E590E0B7010CC0832F11
:101B2000867859F031FF02C08BE201C080E237FDB8
:101B30008DE2B70190E00E942B0FA51438F4B70195
:101B400080E390E00E942B0F5A94F7CFAA94F401FF
:101B5000EA0DF11D8081B70190E00E942B0FA110CA
:101B6000F5CF332009F451CEB70180E290E00E9416
:101B70002B0F3A94F6CFF7018681978102C08FEF41
:101B80009FEF2C96E2E10C940F100F931F93CF93CD
:101B9000DF93869F8001879F100D969F100D112463
:101BA000C8010E94E10DEC01009729F0A80160E056
:101BB00070E00E94190FCE01DF91CF911F910F911C
:101BC0000895CF93DF938230910510F482E090E086
:101BD000E0913503F091360320E030E0C0E0D0E042
:101BE000309711F14081518148175907C0F04817CB
:101BF000590761F482819381209719F09B838A832E
:101C00002BC0909336038093350326C021153105F0
:101C100019F04217530718F49A01BE01DF01EF01D2
:101C20000280F381E02DDCCF2115310509F1281B5D
:101C3000390B2430310590F412968D919C911397B5
:101C40006115710521F0FB019383828304C0909399
:101C5000360380933503FD01329644C0FD01E20F47
:101C6000F31F81939193225031092D933C933AC0F5
:101C70002091330330913403232B41F420910A0146
:101C800030910B01309334032093330320910801EA
:101C9000309109012115310541F42DB73EB740912E
:101CA0000C0150910D01241B350BE0913303F09191
:101CB0003403E217F307A0F42E1B3F0B2817390754
:101CC00078F0AC014E5F5F4F2417350748F04E0F98
:101CD0005F1F50933403409333038193919302C069
:101CE000E0E0F0E0CF01DF91CF9108950F931F93D3
:101CF000CF93DF93009709F48CC0FC0132971382D5
:101D0000128200913503109136030115110581F4FB
:101D100020813181820F931F20913303309134034E
:101D20002817390779F5F0933403E093330371C032
:101D3000D80140E050E0AE17BF0750F412962D9145
:101D40003C911397AD012115310509F1D901F3CF6C
:101D50009D01DA013383228360817181860F971F91
:101D60008217930769F4EC0128813981260F371F08
:101D70002E5F3F4F318320838A819B8193838283AF
:101D8000452B29F4F0933603E093350342C01396B4
:101D9000FC93EE931297ED01499159919E01240F06
:101DA000351FE217F30771F480819181840F951F2D
:101DB000029611969C938E938281938113969C93A5
:101DC0008E931297E0E0F0E0D80112968D919C91ED
:101DD0001397009719F0F8018C01F6CF8D919C9123
:101DE00098012E5F3F4F820F931F20913303309154
:101DF00034032817390769F4309729F41092360311
:101E00001092350302C013821282109334030093A0
:101E10003303DF91CF911F910F910895FC0105903D
:101E2000615070400110D8F7809590958E0F9F1FDC
:101E30000895DC0101C06D9341505040E0F70895D2
:101E4000FC016150704001900110D8F78095909589
:101E50008E0F9F1F08950F931F93CF93DF93FB0166
:101E6000238121FD03C08FEF9FEF28C022FF16C002
:101E700046815781248135814217530744F4A0815C
:101E8000B1819D012F5F3F4F318320838C93268149
:101E900037812F5F3F4F3783268310C0EB01092F17
:101EA000182F0084F185E02D0995892BE1F68E81AC
:101EB0009F8101969F838E83812F902FDF91CF91F9
:101EC0001F910F910895FA01AA27283051F120316E
:101ED00081F1E8946F936E7F6E5F7F4F8F4F9F4FBE
:101EE000AF4FB1E03ED0B4E03CD0670F781F891F00
:101EF0009A1FA11D680F791F8A1F911DA11D6A0FCE
:101F0000711D811D911DA11D20D009F468943F9180
:101F10002AE0269F11243019305D3193DEF6CF017F
:101F20000895462F4770405D4193B3E00FD0C9F745
:101F3000F6CF462F4F70405D4A3318F0495D31FDB2
:101F40004052419302D0A9F7EACFB4E0A695979505
:101F5000879577956795BA95C9F7009761057105DB
:101F600008959B01AC010A2E069457954795379525
:101F70002795BA95C9F7620F731F841F951FA01D7F
:101F80000895052E97FB1EF400940E94D80F57FD6C
:101F900007D00E942A1007FC03D04EF40C94D80FEF
:101FA00050954095309521953F4F4F4F5F4F089585
:101FB00090958095709561957F4F8F4F9F4F0895B5
:101FC0000E944C10A59F900DB49F900DA49F800D72
:101FD000911D11240895B7FF0C94E00F0E94E00FAB
:101FE000821B930B08952F923F924F925F926F92B4
:101FF0007F928F929F92AF92BF92CF92DF92EF9299
:10200000FF920F931F93CF93DF93CDB7DEB7CA1B19
:10201000DB0B0FB6F894DEBF0FBECDBF09942A8844
:10202000398848885F846E847D848C849B84AA84EC
:10203000B984C884DF80EE80FD800C811B81AA8179
:10204000B981CE0FD11D0FB6F894DEBF0FBECDBF44
:10205000ED010895A1E21A2EAA1BBB1BFD010DC0C4
:10206000AA1FBB1FEE1FFF1FA217B307E407F50748
:1020700020F0A21BB30BE40BF50B661F771F881F24
:10208000991F1A9469F760957095809590959B01BA
:10209000AC01BD01CF010895A29FB001B39FC00163
:1020A000A39F700D811D1124911DB29F700D811D84
:0A20B0001124911D0895F894FFCF4C
:1020BA000012001001000000000037032000536CDA
:1020CA00696465722072696768743A2025640D0A2A
:1020DA00000A0D5374617274696E67205352414D40
:1020EA0020746573742E2E2E0A0D0057726974655A
:1020FA00207068617365206572726F723A20657824
:10210A00745F72616D5B2534645D203D2025303239
:10211A0058202873686F756C6420626520253032F8
:10212A0058290A0D0052657472696576616C2070CF
:10213A0068617365206572726F723A206578745FA0
:10214A0072616D5B2534645D203D20253032582054
:10215A002873686F756C64206265202530325829AF
:10216A000A0D005352414D207465737420636F6DDC
:10217A00706C657465642077697468200A0D25346B
:10218A0064206572726F727320696E207772697447
:10219A006520706861736520616E64200A0D2534BC
:1021AA0064206572726F727320696E207265747230
:1021BA00696576616C2070686173650A0A0D004C66
:1021CA0045465400524947485400444F574E00551B
:1021DA0050004E45555452414C006D61696E00677E
:1021EA00616D65006873006F7074696F6E73002D9E
:1021FA002D2D4D61696E20204D656E752D2D2D009A
:10220A00506C61792047616D6500486967682053A1
:10221A00636F7265730053657474696E6773002D1A
:10222A002D506C6179696E672047616D652D2D00AF
:10223A004C697665733A202323230053636F7265D2
:10224A003A2030002D2D48696768202053636F7249
:10225A0065732D2D00312E204F6C612D2D2D2D2DC6
:10226A002D2D313500322E205065747465722D2D56
:10227A002D2D3132004261636B002D2D2D2D5365BA
:10228A007474696E67732D2D2D2D004D75736963F6
:10229A0000466F6E74006D657373616765207265C1
:0A22AA006369657665640A0D0000A3
:00000001FF
