:100000000C9460030C94350B0C947D030C947D03CD
:100010000C947D030C947D030C947D030C947D0360
:100020000C947D030C947D030C947D030C947D0350
:100030000C947D030C947D030C947D030C947D0340
:100040000C947D030C947D030C947D030C947D0330
:100050000C947D030C947D030C947D030C947D0320
:100060000C947D030C947D030C947D030C947D0310
:1000700000000000005C00000C000C007C287C28C4
:1000800058DC68002410480028542840000C000068
:10009000007884008478000054385400107C1000EC
:1000A00080400000101010000040000060100C00A4
:1000B00038543800487C40004864580044542C00B0
:1000C0001C107C005C5424003854240064140C0080
:1000D00068542C0048543800004800008048000054
:1000E0001028440028282800442810000454080040
:1000F00038445C00781478007C5428003844280088
:100100007C4438007C5444007C140400384474005F
:100110007C107C00447C440020403C007C106C003F
:100120007C4040007C187C0078103C00384438004B
:100130007C1408003844B8007C146800485424003B
:10014000047C04007C407C003C603C007C307C00F3
:100150006C106C000C700C0064544C00007C44006B
:100160000C106000447C00000804080080808000BF
:1001700000040800304878007C48300030484800CF
:1001800030487C00306850001078140090A8780047
:100190007C08700050744000808074007C106800FF
:1001A000447C4000781078007808700030483000B7
:1001B000F82810003048F80078100800505828003F
:1001C000083C4800384078003840380078207800F3
:1001D0004830480098A0780048685800107884009B
:1001E000007C00008478100008040804000000006F
:1001F0000000005F00000007000700147F147F1458
:10020000242A7F2A1223130864623649552250009B
:1002100005030000001C2241000041221C00082AA6
:100220001C2A0808083E080800503000000808088A
:100230000808006060000020100804023E51494593
:100240003E00427F400042615149462141454B31C9
:100250001814127F1027454545393C4A4949300159
:10026000710905033649494936064949291E0036B0
:100270003600000056360000000814224114141401
:10028000141441221408000201510906324979412F
:100290003E7E1111117E7F494949363E414141223E
:1002A0007F4141221C7F494949417F090901013EA3
:1002B000414151327F0808087F00417F41002040C2
:1002C000413F017F081422417F404040407F0204AB
:1002D000027F7F0408107F3E4141413E7F090909AA
:1002E000063E4151215E7F09192946464949493157
:1002F00001017F01013F4040403F1F2040201F7F00
:100300002018207F631408146303047804036151E8
:1003100049454300007F4141020408102041417FCC
:100320000000040201020440404040400001020479
:100330000020545454787F4844443838444444207E
:10034000384444487F3854545418087E0901020840
:100350001454543C7F0804047800447D400020403D
:10036000443D00007F10284400417F40007C041879
:1003700004787C0804047838444444387C14141409
:1003800008081414187C7C080404084854545420A9
:10039000043F4440203C4040207C1C2040201C3C2A
:1003A0004030403C44281028440C5050503C446499
:1003B000544C44000836410000007F0000004136E4
:1003C000080002010302010000000000000000001C
:1003D000065F5F060000000007070007070000181F
:1003E00024448888442418242E6B6B3A120000465B
:1003F0006630180C666200307A4F5D377A48000428
:1004000007030000000000001C3E634100000000E4
:1004100041633E1C000000082A3E1C1C3E2A0808BE
:10042000083E3E0808000000A0E060000000000850
:100430000808080808000000006060000000006074
:1004400030180C060301003E7F594D7F3E000042EC
:10045000427F7F40400000627359496F660000226E
:100460006349497F360000181C16137F7F10002750
:100470006745457D3900003C7E4B497930000003DB
:100480006371190F070000367F49497F3600000667
:100490004F49693F1E000000006C6C000000000026
:1004A000A0EC6C00000000081C3663410000001442
:1004B00014141414140000004163361C08000002D8
:1004C0000351590F0600003C42818199A542007CEE
:1004D0007E13137E7C0000417F7F49497F36001CDC
:1004E0003E634141632200417F7F41637F1C0041A5
:1004F0007F7F495D416300417F7F491D0103001CEF
:100500003E6341517372007F7F08087F7F000000C7
:10051000417F7F41000000307040417F3F0100413A
:100520007F7F081C776300417F7F41406070007FC0
:100530007F060C067F7F007F7F060C187F7F001CE4
:100540003E6341633E1C00417F7F49090F06001E48
:100550003F21717F5E0000417F7F19396F46002681
:10056000674D597B32000003417F7F410300007FCC
:100570007F40407F7F00001F3F60603F1F00007F83
:100580007F3018307F7F0063771C081C776300077B
:100590004F78784F0700006773594D47637100002B
:1005A0007F7F41410000000103060C18306000000D
:1005B00041417F7F000000080C0603060C08008004
:1005C000808080808080800000030704000000207D
:1005D0007454543C784000413F7F44447C38003898
:1005E0007C44446C280000307848493F7F40003804
:1005F0007C54545C180000487E7F49030200009838
:10060000BCA4A4F87C0400417F7F08047C7800002F
:10061000447D7D4000000040C484FD7D0000004119
:100620007F7F10386C440000417F7F400000007CD9
:100630007C0C180C7C78007C7C04047C78000038EE
:100640007C44447C38000084FCF8A4243C18001846
:100650003C24A4F8FC8400447C78441C1800004826
:100660005C54547424000000043E7F442400003C89
:100670007C40403C7C40001C3C60603C1C00003CDA
:100680007C6030607C3C00446C3810386C44009CCA
:10069000BCA0A0FC7C00004C64745C4C64000008AE
:1006A000083E7741410000000000777700000041DC
:1006B00041773E0808000002030103020301000025
:1006C00011241FBECFEFD4E0DEBFCDBF13E0A0E00A
:1006D000B1E0E6E4F3E202C005900D92A230B1076A
:1006E000D9F723E0A2E0B3E001C01D92AA34B2071B
:1006F000E1F70E947F030C94A1110C940000CF93AA
:10070000DF9300D0CDB7DEB78FE190E00E94080400
:1007100085B7806885BF80B7806280BF8BB78064F3
:100720008BBF85B7826085BF85B78E7F85BF0E94EE
:10073000CB040E942E040E9438062FEF8FEF9DE11C
:10074000215080409040E1F700C000000E948607E1
:100750008C010E94EA041A8219820E94720A78941B
:100760000E944404992493940F2EFEE0AF2EF1E0F2
:10077000BF2EF02D0E9475056B017C010E9499052A
:1007800080E090E00E94F704892B51F01F929F9225
:10079000BF92AF920E941C0D0F900F900F900F9080
:1007A000AE014F5F5F4FB701C8010E94EB078C019C
:1007B0000E945B07F801808191818351914091F4FF
:1007C000AE014F5F5F4FB701C8010E94EB078C017C
:1007D0000E945B07AE014F5F5F4FB701C8010E94E7
:1007E0005C0B8C012FEF8FE791E02150804090400F
:1007F000E1F700C000C0BECF5D9BFECF8CB908956D
:100800005F9BFECF8CB190E00E94320D8CB10895B9
:1008100090BD89B988E18AB98EE880BD60E074E056
:100820008CEF93E00E94D10C909308038093070310
:100830000895CF93DF93EC018881882351F02196AE
:1008400060910703709108030E94FC038991811154
:10085000F7CF80E090E0DF91CF91089585B7806871
:1008600085BF80B7806280BF80E090E00895FC0182
:10087000F85E608380E090E00895FC01F85E80817E
:10088000082E000C990B0895CF92DF92EF92FF9201
:100890000F931F93CF93DF9388E191E09F938F9302
:1008A0000E941C0D0E94B80C7C010E94BD0C0F9090
:1008B0000F90C12CD12CC0E0D0E002E311E00E94E7
:1008C000B80CF601F85E808320812817A1F09927E3
:1008D0009F938F931F922F93DF92CF921F930F932B
:1008E0000E941C0D21968DB79EB708960FB6F894FE
:1008F0009EBF0FBE8DBF9FEFC91AD90AC11488E0F1
:10090000D806E9F6C7010E94BD0C00E010E0E12C1A
:10091000F12C0F2EFCE6CF2EF1E0DF2EF02D0E9401
:10092000B80CF801F85E20812817B1F099279F9341
:100930008F931F922F931F930F93DF92CF920E945A
:100940001C0D9FEFE91AF90A8DB79EB708960FB6EE
:10095000F8949EBF0FBE8DBF0F5F1F4F011598E02B
:100960001907E9F6FF92EF92DF93CF938AEA91E0BD
:100970009F938F930E941C0D0F900F900F900F90DC
:100980000F900F90DF91CF911F910F91FF90EF90FB
:10099000DF90CF900895BA9880E090E00895843079
:1009A00050F48460E0E0F4E1808382E68A95F1F718
:1009B00000008081089580E0089581E00E94CF04C6
:1009C0008093050380E00E94CF048093030380E0BE
:1009D00090E008950E94CB0487B3887F87BB88B3DB
:1009E000876088BB0E94DD0480E090E0089581303C
:1009F000910549F08230910559F0892B71F486B345
:100A0000817090E0089586B38695817090E0089596
:100A1000B29B06C083E090E0089580E090E00895E6
:100A200080E090E00895CF9381E00E94CF04C82F2A
:100A300080E00E94CF04E82F409105034C1798F402
:100A400050E02C2F30E0241B350B64E6629FC00180
:100A5000639F900D112460E071E0641B750B0E9490
:100A6000440CF62F13C0C41780F4642F70E02C2FB1
:100A700030E0261B370B44E6429FC001439F900D98
:100A800011240E94440CF62F01C0F0E020910303D2
:100A90002E1798F430E04E2F50E0421B530B64E6C3
:100AA000649FC001659F900D112460E071E0621B9E
:100AB000730B0E94440C762F13C0E21780F430E0D1
:100AC0004E2F50E0421B530B64E6649FC001659FAC
:100AD000900D1124B9010E94440C762F01C070E0E2
:100AE0006F2F80E090E0CF9108950E941305E72FCB
:100AF000282F392F683D2CF069322CF02BE032E0A2
:100B000002C026E032E0E83D2CF0E9322CF026E18C
:100B100032E002C021E132E08AE0860F853130F414
:100B20008AE0870F853110F429E132E0822F932F7C
:100B30000895CF9382E00E94CF04C82F83E00E94E3
:100B4000CF0424E6829FC0011124892F94E6C99F17
:100B500090011124932FCF910895E0910201F0911B
:100B60000301808308951092060310920403E0911C
:100B70000201F091030181E28083E0910201F09192
:100B800003011082E0910201F09103018FE780835D
:100B9000E0910201F091030182E28083E091020181
:100BA000F09103011082E0910201F091030187E0CE
:100BB000808380E090E00895CF93C82F0E94B30512
:100BC000C83098F4C0930603E0910201F09103014C
:100BD0001082E0910201F091030180E18083E091B5
:100BE0000201F0910301C06BC08380E090E0CF91DF
:100BF0000895803198F4982F990F990F990F909339
:100C00000403E0910201F091030198709083E09158
:100C10000201F09103018695805F808380E090E07F
:100C20000895CF93C62F0E94DC058C2F0E94F905F2
:100C300080E090E0CF9108950E94DC0580E890E08C
:100C4000E0910001F091010110820197C9F70E9423
:100C5000B30580E090E00895CF93C0E08C2F0E9410
:100C60001C06CF5FC830D1F780E090E0CF910895A7
:100C7000E0910201F09103018EEA8083E09102018C
:100C8000F091030181EA8083E0910201F091030178
:100C90008AED8083E0910201F091030182E180837B
:100CA000E0910201F091030188EC8083E091020160
:100CB000F091030188EA8083E0910201F091030141
:100CC0008FE38083E0910201F091030185ED808341
:100CD000E0910201F091030180E88083E09102013C
:100CE000F091030181E88083E0910201F09103011A
:100CF00080E58083E0910201F091030189ED80831A
:100D0000E0910201F091030181E28083E091020110
:100D1000F091030180E28083E0910201F0910301F0
:100D200082E08083E0910201F09103018BED8083EA
:100D3000E0910201F091030180E38083E0910201E0
:100D4000F09103018DEA8083E0910201F0910301AB
:100D50001082E0910201F091030184EA8083E09126
:100D60000201F091030186EA8083E0910201F09193
:100D700003018FEA80830E942C060E94B30580E065
:100D800090E00895082E000C990B8097880F991F0A
:100D9000880F991F880F991FFC01E953FC4F81535D
:100DA0009C4FA0910001B091010124912C933196A8
:100DB000E817F907B1F780E090E00895CF93DF934B
:100DC000EC018881882331F021960E94C206899126
:100DD0008111FBCF80E090E0DF91CF910895CF9318
:100DE000DF930E94DC05C0E0D0E08091060360E064
:100DF00070E09E0140E8849F200D311D1124C9013F
:100E00000E9437042196C038D10579F70E94B305B6
:100E100080E090E0DF91CF910895CF93C0E08C2FD8
:100E20000E94EF06CF5FC830D1F780E090E0CF910D
:100E300008950F931F93CF93DF9328E08202C001A0
:100E40001124C0E0D0E08C011A95F801EC0FFD1FD1
:100E5000E953FC4F649170E02091060380910403F4
:100E600090E030E8239F800D911D11248C0F9D1F71
:100E70000E9437042196C830D10539F780910403C8
:100E8000885F8093040380E090E0DF91CF911F9111
:100E90000F910895CF93DF93EC018881882331F07F
:100EA00021960E94190789918111FBCF80E090E083
:100EB000DF91CF910895DF92EF92FF920F931F93EE
:100EC000CF93DF93C0E0D0E0D12C8D2D0E94DC05C4
:100ED0007E0180E8E80EF11C0091000110910101F3
:100EE000CE010E943D04F80180832196CE15DF05D6
:100EF00099F7D394E701F8E0DF12E7CFDF91CF91C4
:100F00001F910F91FF90EF90DF9008950F931F9323
:100F1000CF93DF93EAE2F3E081E292E09183808372
:100F200013821282A4E1B3E0B583A48325E333E006
:100F30003783268389E093E09187808741E0428769
:100F400063E171E011967C936E931396FC93EE939C
:100F500012970FE113E015961C930E9314971796B2
:100F60001C921E92169719961C921E9218971A960A
:100F70004C931A9766E272E0E90179836883FB83F8
:100F8000EA831D821C821F821E82198618864A8768
:100F900029E232E0EC0139832883FB83EA831D8256
:100FA0001C821F821E82198618864A8781E392E07E
:100FB000F80191838083B383A28315821482178200
:100FC00016821186108642878AE293E0DF91CF91E4
:100FD0001F910F910895CF92DF92EF92FF920F939E
:100FE0001F93CF93DF93EC017B018A01695172401B
:100FF00019F4FA011182108281E090E00E94F70456
:10100000892BB9F0F80180819181892B91F463E1FA
:1010100071E0888199810E94C80C892B51F481E08C
:1010200090E0F801918380838C819D81009709F085
:10103000EC0181E090E00E94F704892BB9F0F801FF
:1010400080819181892B91F461E372E0888199819B
:101050000E94C80C892B51F481E090E0F801918343
:1010600080838A819B81009709F0EC0180E090E009
:101070000E94F704892BD1F0F80180819181892B9E
:10108000A9F461E372E0888199810E94C80C892BE0
:1010900069F481E090E0F80191838083EA81FB812B
:1010A000309721F0C281D38182E08A87C880D980BD
:1010B00061E272E0C6010E94C80C892B09F055C09C
:1010C0000E940D0760E080E00E9411068CE392E030
:1010D0000E944A0762E081E00E9411068DE492E0DE
:1010E0000E944A0762E082E00E94110687E592E0D2
:1010F0000E944A0762E083E00E94110683E692E0C4
:101100000E944A0766E172E0C7010E94C80C892B61
:1011100079F4F80180819181892BF9F481E090E0E4
:10112000918380838A858230C4F081508A8715C07C
:1011300061E172E0C7010E94C80C892B71F4F801CB
:1011400080819181892B49F481E090E091838083B3
:101150008A85833014F48F5F8A8760E08A850E94D5
:10116000110680E40E941907D8C063E171E0C6014E
:101170000E94C80C892BE9F40E940D0760E080E012
:101180000E9411068CE692E00E944A0761E082E02C
:101190000E9411068DE792E00E944A0761E087E015
:1011A0000E94110688E892E00E944A078FEF8A8722
:1011B000B4C061E372E0C6010E94C80C892BE9F457
:1011C0000E940D0763E083E00E94110681E992E02E
:1011D0000E944A0760E087E00E9411068CE992E0D5
:1011E0000E944A076EE087E00E94110680EA92E0C2
:1011F0000E944A078FEF8A8790C066E272E0C601BC
:101200000E94C80C892B69F50E940D0760E080E000
:101210000E94110683EA92E00E944A0761E081E0A1
:101220000E94110684EB92E00E944A0761E082E08E
:101230000E94110684EC92E00E944A0761E087E078
:101240000E94110684ED92E00E944A0760E087E068
:101250000E94110680E490E00E944A078FEF8A877F
:101260005CC069E272E0C6010E94C80C892B09F0DB
:1012700054C00E940D0760E080E00E94110689EDD5
:1012800092E00E944A0762E081E00E9411068AEE25
:1012900092E00E944A0762E082E00E94110680EF1D
:1012A00092E00E944A0762E083E00E94110684ED0A
:1012B00092E00E944A0766E172E0C7010E94C80CF2
:1012C000892B79F4F80180819181892BF9F481E0EF
:1012D00090E0918380838A858230C4F081508A8730
:1012E00015C061E172E0C7010E94C80C892B71F43E
:1012F000F80180819181892B49F481E090E091830C
:1013000080838A85833014F48F5F8A8760E08A85C2
:101310000E94110680E40E9419076BE072E0C70189
:101320000E94C80C892BA9F4F80180819181892B36
:1013300029F581E090E091838083EA85EE0FFF0B31
:10134000EC0FFD1F84819581892BC1F0C281D3816F
:1013500015C066E072E0C7010E94C80C892B71F4C9
:10136000F80180819181892B49F481E090E091839B
:1013700080838A819B81009709F0EC01CE01DF9187
:10138000CF911F910F91FF90EF90DF90CF90089534
:10139000CF93DF93EC0181E090E00E94F704029785
:1013A00029F48A85082E000C990B02C080E090E099
:1013B000DF91CF91089587B3806B87BBBE9881E59D
:1013C0008DB980E090E008958FB9779BFECF80E0E3
:1013D00090E0089580E00E94E4098FB10895C498D8
:1013E00080E090E00895C49A80E090E008950E9423
:1013F000EF0980EC0E94E4090E94F3098FE493EC6A
:101400000197F1F700C0000080E090E008950E948D
:10141000DB090E94F70980E090E00895CF93C82F80
:101420000E94EF0983E00E94E4098C2F0E94E409E6
:101430000E94EA09C82F0E94F3098C2FCF910895CA
:10144000CF93DF93D82FC62F0E94EF0982E00E942E
:10145000E4098D2F0E94E4098C2F0E94E4090E9468
:10146000F30980E090E0DF91CF910895CF93883029
:1014700018F4C82FC06801C0C0E80E94EF098C2F83
:101480000E94E4090E94F30980E090E0CF91089562
:10149000CF930E94EF0980EA0E94E4090E94EA09C2
:1014A000C82F0E94F3098C2FCF9108951F93CF93DB
:1014B000DF93182FD62FC42F0E94EF0985E00E94DA
:1014C000E409812F0E94E4098D2F0E94E4098C2FEA
:1014D0000E94E4090E94F30980E090E0DF91CF913F
:1014E0001F9108950E94070A4FEF60E680E60E9470
:1014F000560A40E060EE8FE00E94560A41E061E04B
:101500008BE20E94560A80E090E0089580E30E94FA
:101510000E0A8FEF9FEF08950F931F93CF938C01C7
:10152000FC016285738575956795759567957595C9
:10153000679581E30E94200AF80162857385660F32
:10154000771F62957295707F7627607F762782E39A
:101550000E94200AF80160856F7085E30E94200ACE
:10156000F8018085918518161906A4F420E030E072
:10157000C0E0F801E20FF31F608186E38C0F0E9448
:10158000200ACF5F2C2F30E0F80180859185281745
:1015900039077CF381E00E94360A80E090E0CF9129
:1015A0001F910F91089581E090E00895AF92BF924E
:1015B000CF92DF92EF92FF921F93CF93DF937C0144
:1015C00080910203813071F581E60E940E0AA82EF7
:1015D00082E60E940E0A829586958770B12CAA0C2D
:1015E000BB1CAA0CBB1CAA0CBB1CA82A85E60E942B
:1015F0000E0A8F70C82ED12C1C141D0484F4C0E078
:10160000D0E010E086E6810F0E940E0ACE0DDF1DAD
:1016100088831F5FC12FD0E0CC15DD059CF31092AD
:10162000020303C0AA24AA94BA2CF701D186C0866B
:10163000B386A286C701DF91CF911F91FF90EF90F3
:10164000DF90CF90BF90AF90089540E060E08CE2D3
:101650000E94560A40E061E08CE20E94560A81E056
:101660008093020380E090E008951F920F920FB6DE
:101670000F9211242F933F934F935F936F937F9318
:101680008F939F93AF93BF93EF93FF930E94250B8C
:10169000FF91EF91BF91AF919F918F917F916F914A
:1016A0005F914F913F912F910F900FBE0F901F9020
:1016B000189580E090E008956F927F928F929F92AC
:1016C000AF92BF92CF92DF92EF92FF920F931F9350
:1016D000CF93DF93CDB7DEB76A970FB6F894DEBF2E
:1016E0000FBECDBF6C015A8F498F81E090E09C877F
:1016F0008B8785E090E09A87898781E08D830E94BF
:1017000075050E949905CE010D960E94D60A1A8E83
:10171000198E0F2EF5EFAF2EF2E0BF2EF02D88249C
:101720008394912CCE010D960E94D60A8D851F922E
:101730008F93BF92AF920E941C0D0E945B070E9484
:101740007505E62EF72E082F192F0E949905692E90
:1017500080E090E00E94F704782C0F900F900F909B
:101760000F90892B09F4792C81E090E00E94F70416
:10177000892B09F44CC0AE01475E5F4F602F712F7B
:10178000C6010E94EB076C012FE78AE196E0215029
:1017900080409040E1F700C000000E945B070E947B
:1017A0007505E62EF72E082F192F81E090E00E9494
:1017B000F704892BD9F0AE01475E5F4F602F712F80
:1017C000C6010E94EB076C012FE78AE196E02150E9
:1017D00080409040E1F700C000000E945B0780E07D
:1017E00090E00E94F704892B41F01BC080E090E05C
:1017F0000E94F704892B89F214C0E982FA826C8274
:101800007B82CE0101960E948C0A9B828BCFE9825B
:10181000FA826C827B82CE0101960E948C0A9B82A6
:1018200081CFAE01475E5F4F602F712FC6010E94CE
:10183000EB078C012FE78AE196E021508040904031
:10184000E1F700C000000E945B071D82E982FA8276
:101850006C827B82CE0101960E948C0AC8016A9636
:101860000FB6F894DEBF0FBECDBFDF91CF911F91B1
:101870000F91FF90EF90DF90CF90BF90AF909F902F
:101880008F907F906F90089597FB072E16F4009429
:1018900007D077FD09D00E94580C07FC05D03EF414
:1018A000909581959F4F0895709561957F4F08950C
:1018B000AA1BBB1B51E107C0AA1FBB1FA617B70776
:1018C00010F0A61BB70B881F991F5A95A9F7809592
:1018D0009095BC01CD0108958F929F92AF92BF92D7
:1018E000CF92DF92EF92FF92CF93DF93EC0168816A
:1018F00079818A819B81611571058105910521F4AA
:1019000064E279ED8BE597E02DE133EF41E050E0C3
:101910000E94071149015A019B01AC01A7EAB1E4F9
:101920000E9426116B017C01ACEEB4EFA50194017D
:101930000E943411DC01CB018C0D9D1DAE1DBF1D1D
:10194000B7FF03C00197A109B04888839983AA8390
:10195000BB839F77DF91CF91FF90EF90DF90CF9087
:10196000BF90AF909F908F9008950E946C0C089547
:1019700084E091E00E946C0C0895A0E0B0E08093B8
:10198000040190930501A0930601B0930701089507
:10199000FB01DC018D91019080190110D9F3990BA5
:1019A00008950F931F93CF93DF93009731F4611540
:1019B000710519F480E090E03AC08B01EC016EE013
:1019C00070E081E090E00E940B0FFC01892B91F305
:1019D00080E883830115110571F01387028781E880
:1019E00083838091400390914103892B21F4F093EC
:1019F0004103E09340032097C9F0D187C0878381DA
:101A0000826083838091420390914303892B71F418
:101A1000F0934303E0934203809144039091450384
:101A2000892B21F4F0934503E0934403CF01DF9128
:101A3000CF911F910F910895A0E0B0E0E2E2FDE0A8
:101A40000C944911AE014B5F5F4FFA0161917191A6
:101A5000AF0180914203909143030E94390DE2E06F
:101A60000C94651160914203709143030E947110C0
:101A70000895ACE0B0E0EFE3FDE00C9439117C0197
:101A80006B018A01FC0117821682838181FFBDC12F
:101A9000CE0101964C01F7019381F60193FD8591EA
:101AA00093FF81916F01882309F4ABC1853239F42A
:101AB00093FD859193FF81916F01853229F4B701E0
:101AC00090E00E947110E7CF512C312C20E02032A1
:101AD000A0F48B3269F030F4803259F0833269F42B
:101AE00020612CC08D3239F0803339F4216026C05A
:101AF0002260246023C0286021C027FD27C030ED6C
:101B0000380F3A3078F426FF06C0FAE05F9E300DB9
:101B10001124532E13C08AE0389E300D1124332E29
:101B200020620CC08E3221F426FD6BC1206406C0F9
:101B30008C3611F4206802C0883641F4F60193FD1A
:101B4000859193FF81916F018111C1CF982F9F7D66
:101B50009554933028F40C5F1F4FFFE3F9830DC0B9
:101B6000833631F0833771F0833509F05BC022C0D2
:101B7000F801808189830E5F1F4F44244394512CC8
:101B8000540115C03801F2E06F0E711CF801A080FD
:101B9000B18026FF03C0652D70E002C06FEF7FEFBC
:101BA000C5012C870E9466102C0183012C852F779C
:101BB000222E17C03801F2E06F0E711CF801A080D0
:101BC000B18026FF03C0652D70E002C06FEF7FEF8C
:101BD000C5012C870E9454102C012C852068222ED0
:101BE000830123FC1BC0832D90E048165906B0F4F6
:101BF000B70180E290E00E9471103A94F4CFF501B1
:101C000027FC859127FE81915F01B70190E00E943A
:101C1000711031103A94F1E04F1A510841145104F7
:101C200071F7E5C0843611F0893639F5F80127FFE0
:101C300007C060817181828193810C5F1F4F08C052
:101C400060817181072E000C880B990B0E5F1F4F6E
:101C50002F76722E97FF09C09095809570956195AB
:101C60007F4F8F4F9F4F2068722E2AE030E0A401F3
:101C70000E94A910A82EA81844C0853729F42F7EE9
:101C8000B22E2AE030E025C0F22FF97FBF2E8F362A
:101C9000C1F018F4883579F0B4C0803719F088376E
:101CA00021F0AFC02F2F2061B22EB4FE0DC08B2DBE
:101CB0008460B82E09C024FF0AC09F2F9660B92EF9
:101CC00006C028E030E005C020E130E002C020E19D
:101CD00032E0F801B7FE07C0608171818281938193
:101CE0000C5F1F4F06C06081718180E090E00E5F45
:101CF0001F4FA4010E94A910A82EA818FB2DFF7742
:101D00007F2E76FE0BC0372D3E7FA51450F474FE57
:101D10000AC072FC08C0372D3E7E05C0BA2C372D94
:101D200003C0BA2C01C0B52C34FF0DC0FE01EA0D72
:101D3000F11D8081803311F4397E09C032FF06C065
:101D4000B394B39404C0832F867809F0B39433FD21
:101D500013C030FF06C05A2CB31418F4530C5B1890
:101D6000B32CB31468F4B70180E290E03C870E9482
:101D70007110B3943C85F5CFB31410F43B1801C037
:101D8000312C34FF12C0B70180E390E03C870E9401
:101D900071103C8532FF17C031FD03C088E790E029
:101DA00002C088E590E0B7010CC0832F867859F017
:101DB00031FF02C08BE201C080E237FD8DE2B70146
:101DC00090E00E947110A51438F4B70180E390E010
:101DD0000E9471105A94F7CFAA94F401EA0DF11DF4
:101DE0008081B70190E00E947110A110F5CF3320DF
:101DF00009F451CEB70180E290E00E9471103A944C
:101E0000F6CFF7018681978102C08FEF9FEF2C9666
:101E1000E2E10C9455110F931F93CF93DF93869FAC
:101E20008001879F100D969F100D1124C8010E94FC
:101E3000270FEC01009729F0A80160E070E00E94F4
:101E40005F10CE01DF91CF911F910F910895CF9335
:101E5000DF938230910510F482E090E0E091480336
:101E6000F091490320E030E0C0E0D0E0309711F17C
:101E70004081518148175907C0F04817590761F44C
:101E800082819381209719F09B838A832BC0909342
:101E900049038093480326C02115310519F04217E4
:101EA000530718F49A01BE01DF01EF010280F381AC
:101EB000E02DDCCF2115310509F1281B390B243029
:101EC000310590F412968D919C91139761157105CF
:101ED00021F0FB019383828304C090934903809394
:101EE0004803FD01329644C0FD01E20FF31F8193C8
:101EF0009193225031092D933C933AC0209146038F
:101F000030914703232B41F420910A0130910B01BA
:101F10003093470320934603209108013091090133
:101F20002115310541F42DB73EB740910C01509178
:101F30000D01241B350BE0914603F0914703E21796
:101F4000F307A0F42E1B3F0B2817390778F0AC01DC
:101F50004E5F5F4F2417350748F04E0F5F1F5093B9
:101F60004703409346038193919302C0E0E0F0E081
:101F7000CF01DF91CF9108950F931F93CF93DF93FC
:101F8000009709F48CC0FC013297138212820091F1
:101F90004803109149030115110581F42081318115
:101FA000820F931F2091460330914703281739076A
:101FB00079F5F0934703E093460371C0D80140E000
:101FC00050E0AE17BF0750F412962D913C91139735
:101FD000AD012115310509F1D901F3CF9D01DA01D8
:101FE0003383228360817181860F971F8217930745
:101FF00069F4EC0128813981260F371F2E5F3F4F8E
:10200000318320838A819B8193838283452B29F4AA
:10201000F0934903E093480342C01396FC93EE9378
:102020001297ED01499159919E01240F351FE21736
:10203000F30771F480819181840F951F02961196A8
:102040009C938E938281938113969C938E93129787
:10205000E0E0F0E0D80112968D919C9113970097E3
:1020600019F0F8018C01F6CF8D919C9198012E5FAB
:102070003F4F820F931F209146033091470328174B
:10208000390769F4309729F41092490310924803F4
:1020900002C0138212821093470300934603DF911C
:1020A000CF911F910F910895FC01059061507040F0
:1020B0000110D8F7809590958E0F9F1F0895DC0131
:1020C00001C06D9341505040E0F70895FC0161500C
:1020D000704001900110D8F7809590958E0F9F1F4A
:1020E00008950F931F93CF93DF93FB01238121FD6D
:1020F00003C08FEF9FEF28C022FF16C04681578193
:10210000248135814217530744F4A081B1819D0198
:102110002F5F3F4F318320838C93268137812F5F40
:102120003F4F3783268310C0EB01092F182F0084FF
:10213000F185E02D0995892BE1F68E819F8101962D
:102140009F838E83812F902FDF91CF911F910F91CD
:102150000895FA01AA27283051F1203181F1E8943D
:102160006F936E7F6E5F7F4F8F4F9F4FAF4FB1E08A
:102170003ED0B4E03CD0670F781F891F9A1FA11D85
:10218000680F791F8A1F911DA11D6A0F711D811D86
:10219000911DA11D20D009F468943F912AE0269F4B
:1021A00011243019305D3193DEF6CF010895462FAA
:1021B0004770405D4193B3E00FD0C9F7F6CF462F8B
:1021C0004F70405D4A3318F0495D31FD40524193F4
:1021D00002D0A9F7EACFB4E0A695979587957795B1
:1021E0006795BA95C9F700976105710508959B0138
:1021F000AC010A2E06945795479537952795BA95C1
:10220000C9F7620F731F841F951FA01D0895052E27
:1022100097FB1EF400940E941E1157FD07D00E94E8
:10222000701107FC03D04EF40C941E11509540958C
:10223000309521953F4F4F4F5F4F08959095809572
:10224000709561957F4F8F4F9F4F08950E94921117
:10225000A59F900DB49F900DA49F800D911D1124FA
:102260000895B7FF0C9426110E942611821B930B30
:1022700008952F923F924F925F926F927F928F922A
:102280009F92AF92BF92CF92DF92EF92FF920F9305
:102290001F93CF93DF93CDB7DEB7CA1BDB0B0FB60F
:1022A000F894DEBF0FBECDBF09942A8839884888CC
:1022B0005F846E847D848C849B84AA84B984C88462
:1022C000DF80EE80FD800C811B81AA81B981CE0F59
:1022D000D11D0FB6F894DEBF0FBECDBFED0108953E
:1022E000A1E21A2EAA1BBB1BFD010DC0AA1FBB1F1A
:1022F000EE1FFF1FA217B307E407F50720F0A21B8C
:10230000B30BE40BF50B661F771F881F991F1A94F8
:1023100069F760957095809590959B01AC01BD0122
:10232000CF010895A29FB001B39FC001A39F700D7C
:10233000811D1124911DB29F700D811D1124911DCD
:062340000895F894FFCFA0
:10234600001200100100000000004A03200025646E
:102356000D0A0067616D65000A0D53746172746938
:102366006E67205352414D20746573742E2E2E0ACB
:102376000D00577269746520706861736520657217
:10238600726F723A206578745F72616D5B25346492
:102396005D203D2025303258202873686F756C64A7
:1023A6002062652025303258290A0D005265747264
:1023B600696576616C207068617365206572726FFD
:1023C600723A206578745F72616D5B2534645D20B6
:1023D6003D2025303258202873686F756C64206262
:1023E600652025303258290A0D005352414D20747C
:1023F60065737420636F6D706C65746564207769AE
:102406007468200A0D253464206572726F72732019
:10241600696E2077726974652070686173652061E2
:102426006E64200A0D253464206572726F72732003
:10243600696E2072657472696576616C2070686178
:1024460073650A0A0D004C454654005249474854E4
:1024560000444F574E005550004E45555452414C7E
:10246600006D61696E006873006F7074696F6E73DA
:102476000070617573655F6D656E75002D2D2D4D50
:1024860061696E20204D656E752D2D2D00506C6195
:10249600792047616D6500486967682053636F72EC
:1024A60065730053657474696E6773002D2D506CE7
:1024B6006179696E672047616D652D2D004C6976DF
:1024C60065733A202323230053636F72653A2030E5
:1024D60000517569742067616D653F005965730029
:1024E6004E6F002D2D48696768202053636F726513
:1024F600732D2D00312E204F6C612D2D2D2D2D2D60
:102506002D313500322E205065747465722D2D2DB7
:102516002D3132004261636B002D2D2D2D536574D4
:1025260074696E67732D2D2D2D004D7573696300CB
:10253600466F6E74006C697665733A2025640A0DE1
:02254600000093
:00000001FF
