:100000000C9460030C947D030C947D030C947D038D
:100010000C947D030C947D030C947D030C947D0360
:100020000C947D030C947D030C947D030C947D0350
:100030000C947D030C947D030C947D030C947D0340
:100040000C947D030C947D030C947D030C947D0330
:100050000C947D030C947D030C947D030C947D0320
:100060000C947D030C947D030C947D030C947D0310
:1000700000000000005C00000C000C007C287C28C4
:1000800058DC68002410480028542840000C000068
:10009000007884008478000054385400107C1000EC
:1000A00080400000101010000040000060100C00A4
:1000B00038543800487C40004864580044542C00B0
:1000C0001C107C005C5424003854240064140C0080
:1000D00068542C0048543800004800008048000054
:1000E0001028440028282800442810000454080040
:1000F00038445C00781478007C5428003844280088
:100100007C4438007C5444007C140400384474005F
:100110007C107C00447C440020403C007C106C003F
:100120007C4040007C187C0078103C00384438004B
:100130007C1408003844B8007C146800485424003B
:10014000047C04007C407C003C603C007C307C00F3
:100150006C106C000C700C0064544C00007C44006B
:100160000C106000447C00000804080080808000BF
:1001700000040800304878007C48300030484800CF
:1001800030487C00306850001078140090A8780047
:100190007C08700050744000808074007C106800FF
:1001A000447C4000781078007808700030483000B7
:1001B000F82810003048F80078100800505828003F
:1001C000083C4800384078003840380078207800F3
:1001D0004830480098A0780048685800107884009B
:1001E000007C00008478100008040804000000006F
:1001F0000000005F00000007000700147F147F1458
:10020000242A7F2A1223130864623649552250009B
:1002100005030000001C2241000041221C00082AA6
:100220001C2A0808083E080800503000000808088A
:100230000808006060000020100804023E51494593
:100240003E00427F400042615149462141454B31C9
:100250001814127F1027454545393C4A4949300159
:10026000710905033649494936064949291E0036B0
:100270003600000056360000000814224114141401
:10028000141441221408000201510906324979412F
:100290003E7E1111117E7F494949363E414141223E
:1002A0007F4141221C7F494949417F090901013EA3
:1002B000414151327F0808087F00417F41002040C2
:1002C000413F017F081422417F404040407F0204AB
:1002D000027F7F0408107F3E4141413E7F090909AA
:1002E000063E4151215E7F09192946464949493157
:1002F00001017F01013F4040403F1F2040201F7F00
:100300002018207F631408146303047804036151E8
:1003100049454300007F4141020408102041417FCC
:100320000000040201020440404040400001020479
:100330000020545454787F4844443838444444207E
:10034000384444487F3854545418087E0901020840
:100350001454543C7F0804047800447D400020403D
:10036000443D00007F10284400417F40007C041879
:1003700004787C0804047838444444387C14141409
:1003800008081414187C7C080404084854545420A9
:10039000043F4440203C4040207C1C2040201C3C2A
:1003A0004030403C44281028440C5050503C446499
:1003B000544C44000836410000007F0000004136E4
:1003C000080002010302010000000000000000001C
:1003D000065F5F0600000000070700070700001423
:1003E0007F7F147F7F1400242E6B6B3A120000462F
:1003F0006630180C666200307A4F5D377A48000428
:1004000007030000000000001C3E634100000000E4
:1004100041633E1C000000082A3E1C1C3E2A0808BE
:10042000083E3E0808000000A0E060000000000850
:100430000808080808000000006060000000006074
:1004400030180C060301003E7F594D7F3E000042EC
:10045000427F7F40400000627359496F660000226E
:100460006349497F360000181C16137F7F10002750
:100470006745457D3900003C7E4B497930000003DB
:100480006371190F070000367F49497F3600000667
:100490004F49693F1E000000006C6C000000000026
:1004A000A0EC6C00000000081C3663410000001442
:1004B00014141414140000004163361C08000002D8
:1004C0000351590F0600003E7F415D5D1F1E007CF9
:1004D0007E13137E7C0000417F7F49497F36001CDC
:1004E0003E634141632200417F7F41637F1C0041A5
:1004F0007F7F495D416300417F7F491D0103001CEF
:100500003E6341517372007F7F08087F7F000000C7
:10051000417F7F41000000307040417F3F0100413A
:100520007F7F081C776300417F7F41406070007FC0
:100530007F060C067F7F007F7F060C187F7F001CE4
:100540003E6341633E1C00417F7F49090F06001E48
:100550003F21717F5E0000417F7F19396F46002681
:10056000674D597B32000003417F7F410300007FCC
:100570007F40407F7F00001F3F60603F1F00007F83
:100580007F3018307F7F0063771C081C776300077B
:100590004F78784F0700006773594D47637100002B
:1005A0007F7F41410000000103060C18306000000D
:1005B00041417F7F000000080C0603060C08008004
:1005C000808080808080800000030704000000207D
:1005D0007454543C784000413F7F44447C38003898
:1005E0007C44446C280000307848493F7F40003804
:1005F0007C54545C180000487E7F49030200009838
:10060000BCA4A4F87C0400417F7F08047C7800002F
:10061000447D7D4000000040C484FD7D0000004119
:100620007F7F10386C440000417F7F400000007CD9
:100630007C0C180C7C78007C7C04047C78000038EE
:100640007C44447C38000084FCF8A4243C18001846
:100650003C24A4F8FC8400447C78441C1800004826
:100660005C54547424000000043E7F442400003C89
:100670007C40403C7C40001C3C60603C1C00003CDA
:100680007C6030607C3C00446C3810386C44009CCA
:10069000BCA0A0FC7C00004C64745C4C64000008AE
:1006A000083E7741410000000000777700000041DC
:1006B00041773E0808000002030103020301000025
:1006C00011241FBECFEFD4E0DEBFCDBF12E0A0E00B
:1006D000B1E0EAE2FBE102C005900D92A835B10756
:1006E000D9F722E0A8E5B2E001C01D92A537B20714
:1006F000E1F70E947F030C94930D0C9400008FE1AE
:1007000090E00E94C50385B7806885BF80B780628E
:1007100080BF0E94F8052FEF8FEF9DE121508040B0
:100720009040E1F700C000000E9446070E941708B1
:100730000EE011E0C3E1D1E01F930F930E940E0978
:100740000E942E0881E60E9420080E9432082FEFA6
:100750008FE797E0215080409040E1F700C0000013
:100760000F900F90DF93CF930E940E090F900F9080
:10077000E3CF5D9BFECF8CB908955F9BFECF8CB11C
:1007800090E00E9424098CB1089590BD89B988E158
:100790008AB98EE880BD6DEB73E089EB93E00E942F
:1007A000C30890935F0280935E020895CF93DF9316
:1007B000EC018881882351F0219660915E0270914E
:1007C0005F020E94B90389918111F7CF80E090E028
:1007D000DF91CF91089585B7806885BF80B780622B
:1007E00080BF80E090E00895FC01F85E608380E0C7
:1007F00090E00895FC01F85E8081082E000C990BB2
:100800000895CF92DF92EF92FF920F931F93CF93B1
:10081000DF9389E191E09F938F930E940E090E94DC
:10082000AA087C010E94AF080F900F90C12CD12C18
:10083000C0E0D0E003E311E00E94AA08F601F85EF0
:10084000808320812817A1F099279F938F931F926F
:100850002F93DF92CF921F930F930E940E09219640
:100860008DB79EB708960FB6F8949EBF0FBE8DBF8A
:100870009FEFC91AD90AC11488E0D806E9F6C70162
:100880000E94AF0800E010E0E12CF12C0F2EFDE6F5
:10089000CF2EF1E0DF2EF02D0E94AA08F801F85EBD
:1008A00020812817B1F099279F938F931F922F9340
:1008B0001F930F93DF92CF920E940E099FEFE91AC8
:1008C000F90A8DB79EB708960FB6F8949EBF0FBE73
:1008D0008DBF0F5F1F4F011598E01907E9F6FF92D2
:1008E000EF92DF93CF938BEA91E09F938F930E94D7
:1008F0000E090F900F900F900F900F900F90DF91B7
:10090000CF911F910F91FF90EF90DF90CF900895BE
:10091000BA9880E090E00895843050F48460E0E07C
:10092000F4E1808382E68A95F1F7000080810895E2
:1009300080E0089581E00E948C0480935C0280E056
:100940000E948C0480935A0280E090E008950E94F7
:10095000880487B3887F87BB88B3876088BB0E9481
:100960009A0480E090E008958130910549F082304A
:10097000910559F0892B71F486B3817090E0089548
:10098000B19B0BC082E090E00895B29B09C083E068
:1009900090E0089580E090E0089580E090E0089570
:1009A00080E090E00895CF9381E00E948C04C82FEE
:1009B00080E00E948C04E82F40915C024C1798F470
:1009C00050E02C2F30E0241B350B64E6629FC00101
:1009D000639F900D112460E071E0641B750B0E9411
:1009E0003608F62F13C0C41780F4642F70E02C2F44
:1009F00030E0261B370B44E6429FC001439F900D19
:100A000011240E943608F62F01C0F0E020915A020E
:100A10002E1798F430E04E2F50E0421B530B64E643
:100A2000649FC001659F900D112460E071E0621B1E
:100A3000730B0E943608762F13C0E21780F430E063
:100A40004E2F50E0421B530B64E6649FC001659F2C
:100A5000900D1124B9010E943608762F01C070E074
:100A60006F2F80E090E0CF9108950E94D304E72F8C
:100A7000282F392F6D322CF068332CF02CE032E027
:100A800002C027E032E0EE312CF0E7342CF027E111
:100A900032E002C022E132E083ED860F8B3030F489
:100AA00083ED870F8B3010F42AE132E0822F932FF1
:100AB0000895CF9382E00E948C04C82F83E00E94A7
:100AC0008C0424E6829FC0011124892F94E6C99FDB
:100AD00090011124932FCF910895E0910201F0919C
:100AE00003018083089510925D0210925B02E091F1
:100AF0000201F091030181E28083E0910201F09113
:100B000003011082E0910201F09103018FE78083DD
:100B1000E0910201F091030182E28083E091020101
:100B2000F09103011082E0910201F091030187E04E
:100B3000808380E090E00895CF93C82F0E947305D2
:100B4000C83098F4C0935D02E0910201F091030176
:100B50001082E0910201F091030180E18083E09135
:100B60000201F0910301C06BC08380E090E0CF915F
:100B70000895803198F4982F990F990F990F9093B9
:100B80005B02E0910201F091030198709083E09183
:100B90000201F09103018695805F808380E090E000
:100BA0000895CF93C62F0E949C058C2F0E94B905F3
:100BB00080E090E0CF9108950E949C0580E890E04D
:100BC000E0910001F091010110820197C9F70E94A4
:100BD000730580E090E00895CF93C0E08C2F0E94D1
:100BE000DC05CF5FC830D1F780E090E0CF91089569
:100BF000E0910201F09103018EEA8083E09102010D
:100C0000F091030181EA8083E0910201F0910301F8
:100C10008AED8083E0910201F091030182E18083FB
:100C2000E0910201F091030188EC8083E0910201E0
:100C3000F091030188EA8083E0910201F0910301C1
:100C40008FE38083E0910201F091030185ED8083C1
:100C5000E0910201F091030180E88083E0910201BC
:100C6000F091030181E88083E0910201F09103019A
:100C700080E58083E0910201F091030189ED80839A
:100C8000E0910201F091030181E28083E091020191
:100C9000F091030180E28083E0910201F091030171
:100CA00082E08083E0910201F09103018BED80836B
:100CB000E0910201F091030180E38083E091020161
:100CC000F09103018DEA8083E0910201F09103012C
:100CD0001082E0910201F091030184EA8083E091A7
:100CE0000201F091030186EA8083E0910201F09114
:100CF00003018FEA80830E94EC050E94730580E067
:100D000090E00895082E000C990B8097880F991F8A
:100D1000880F991F880F991FFC01E953FC4F8153DD
:100D20009C4FA0910001B091010124912C93319628
:100D3000E817F907B1F780E090E00895CF93DF93CB
:100D4000EC018881882331F021960E9482068991E6
:100D50008111FBCF80E090E0DF91CF910895CF9398
:100D6000DF930E949C05C0E0D0E080915D0260E0CE
:100D700070E09E0140E8849F200D311D1124C901BF
:100D80000E94F4032196C038D10579F70E947305BB
:100D900080E090E0DF91CF910895CF93C0E08C2F59
:100DA0000E94AF06CF5FC830D1F780E090E0CF91CE
:100DB00008950F931F93CF93DF9328E08202C00121
:100DC0001124C0E0D0E08C011A95F801EC0FFD1F52
:100DD000E953FC4F649170E020915D0280915B02C9
:100DE00090E030E8239F800D911D11248C0F9D1FF2
:100DF0000E94F4032196C830D10539F780915B0237
:100E0000885F80935B0280E090E0DF91CF911F913B
:100E10000F910895CF93DF93EC018881882331F0FF
:100E200021960E94D90689918111FBCF80E090E044
:100E3000DF91CF910895DF92EF92FF920F931F936E
:100E4000CF93DF93C0E0D0E0D12C8D2D0E949C0584
:100E50007E0180E8E80EF11C009100011091010173
:100E6000CE010E94FA03F80180832196CE15DF059A
:100E700099F7D394E701F8E0DF12E7CFDF91CF9144
:100E80001F910F91FF90EF90DF90089510925902FB
:100E900010925802E0E6F2E082E292E091838083D1
:100EA000138212821582148217821682118610868E
:100EB00081E08287CF010895EF92FF920F931F93F5
:100EC000CF93DF937C018B01EA016A51724099F55F
:100ED000198218821F921F9283E392E09F938F934F
:100EE0000E940E090E94CD0660E080E00E94D105BC
:100EF00080916002909161020E940A0762E081E0A5
:100F00000E94D10580E492E00E940A0762E082E03C
:100F10000E94D10588E492E00E940A0762E083E023
:100F20000E94D10580E592E00E940A070F900F9081
:100F30000F900F905DC089818F9388818F9383E399
:100F400092E09F938F930E940E090E94CD0660E06D
:100F500080E00E94D10580916002909161020E9420
:100F60000A0762E081E00E94D10580E492E00E94DD
:100F70000A0762E082E00E94D10588E492E00E94C4
:100F80000A0762E083E00E94D10580E592E00E94BA
:100F90000A0767E172E0C8010E94BA080F900F903B
:100FA0000F900F90892B79F488819981892B01F515
:100FB00081E090E099838883F70182858230C4F0D4
:100FC0008150828715C062E172E0C8010E94BA08B0
:100FD000892B71F488819981892B51F481E090E00B
:100FE00099838883F7018285833014F48F5F828729
:100FF00060E0F70182850E94D10588E50E94D9064C
:10100000DF91CF911F910F91FF90EF900895CF93B3
:10101000DF93EC0181E090E00E94B404009721F09E
:101020008A85082E000C990BDF91CF91089587B324
:10103000806B87BBBE9881E58DB980E090E0089514
:101040008FB9779903C080E090E00895089580E01B
:101050000E942008779BFECF8FB10895C49880E04E
:1010600090E00895C49A80E090E0089597FB072EE1
:1010700016F4009407D077FD09D00E944A0807FCB7
:1010800005D03EF4909581959F4F08957095619598
:101090007F4F0895AA1BBB1B51E107C0AA1FBB1FAE
:1010A000A617B70710F0A61BB70B881F991F5A95F4
:1010B000A9F780959095BC01CD0108958F929F92DC
:1010C000AF92BF92CF92DF92EF92FF92CF93DF93D6
:1010D000EC01688179818A819B81611571058105A7
:1010E000910521F464E279ED8BE597E02DE133EF92
:1010F00041E050E00E94F90C49015A019B01AC010A
:10110000A7EAB1E40E94180D6B017C01ACEEB4EFCC
:10111000A50194010E94260DDC01CB018C0D9D1DC3
:10112000AE1DBF1DB7FF03C00197A109B04888835A
:101130009983AA83BB839F77DF91CF91FF90EF9034
:10114000DF90CF90BF90AF909F908F9008950E94B6
:101150005E08089584E091E00E945E080895A0E092
:10116000B0E08093040190930501A0930601B09331
:1011700007010895FB01DC018D9101908019011098
:10118000D9F3990B08950F931F93CF93DF93009793
:1011900031F46115710519F480E090E03AC08B01DB
:1011A000EC016EE070E081E090E00E94FD0AFC013D
:1011B000892B91F380E883830115110571F0138762
:1011C000028781E8838380916B0290916C02892B66
:1011D00021F4F0936C02E0936B022097C9F0D18761
:1011E000C08783818260838380916D0290916E02BB
:1011F000892B71F4F0936E02E0936D0280916F027F
:1012000090917002892B21F4F0937002E0936F02A9
:10121000CF01DF91CF911F910F910895A0E0B0E031
:10122000E4E1F9E00C943B0DAE014B5F5F4FFA0136
:1012300061917191AF0180916D0290916E020E9457
:101240002B09E2E00C94570D60916D0270916E02D3
:101250000E94630C0895ACE0B0E0E1E3F9E00C9487
:101260002B0D7C016B018A01FC01178216828381A0
:1012700081FFBDC1CE0101964C01F7019381F601BA
:1012800093FD859193FF81916F01882309F4ABC190
:10129000853239F493FD859193FF81916F018532F9
:1012A00029F4B70190E00E94630CE7CF512C312C58
:1012B00020E02032A0F48B3269F030F4803259F013
:1012C000833269F420612CC08D3239F0803339F4D7
:1012D000216026C02260246023C0286021C027FD31
:1012E00027C030ED380F3A3078F426FF06C0FAE018
:1012F0005F9E300D1124532E13C08AE0389E300DAE
:101300001124332E20620CC08E3221F426FD6BC1D5
:10131000206406C08C3611F4206802C0883641F47F
:10132000F60193FD859193FF81916F018111C1CFEA
:10133000982F9F7D9554933028F40C5F1F4FFFE347
:10134000F9830DC0833631F0833771F0833509F0AE
:101350005BC022C0F801808189830E5F1F4F442447
:101360004394512C540115C03801F2E06F0E711CEA
:10137000F801A080B18026FF03C0652D70E002C097
:101380006FEF7FEFC5012C870E94580C2C01830161
:101390002C852F77222E17C03801F2E06F0E711CBA
:1013A000F801A080B18026FF03C0652D70E002C067
:1013B0006FEF7FEFC5012C870E94460C2C012C8516
:1013C0002068222E830123FC1BC0832D90E0481649
:1013D0005906B0F4B70180E290E00E94630C3A94A1
:1013E000F4CFF50127FC859127FE81915F01B701BC
:1013F00090E00E94630C31103A94F1E04F1A5108CA
:101400004114510471F7E5C0843611F0893639F57D
:10141000F80127FF07C060817181828193810C5F91
:101420001F4F08C060817181072E000C880B990B3B
:101430000E5F1F4F2F76722E97FF09C090958095F3
:10144000709561957F4F8F4F9F4F2068722E2AE0D5
:1014500030E0A4010E949B0CA82EA81844C0853738
:1014600029F42F7EB22E2AE030E025C0F22FF97F3A
:10147000BF2E8F36C1F018F4883579F0B4C08037AC
:1014800019F0883721F0AFC02F2F2061B22EB4FEA3
:101490000DC08B2D8460B82E09C024FF0AC09F2F79
:1014A0009660B92E06C028E030E005C020E130E0AB
:1014B00002C020E132E0F801B7FE07C0608171810F
:1014C000828193810C5F1F4F06C06081718180E033
:1014D00090E00E5F1F4FA4010E949B0CA82EA8183D
:1014E000FB2DFF777F2E76FE0BC0372D3E7FA51498
:1014F00050F474FE0AC072FC08C0372D3E7E05C051
:10150000BA2C372D03C0BA2C01C0B52C34FF0DC046
:10151000FE01EA0DF11D8081803311F4397E09C08E
:1015200032FF06C0B394B39404C0832F867809F0C9
:10153000B39433FD13C030FF06C05A2CB31418F413
:10154000530C5B18B32CB31468F4B70180E290E03D
:101550003C870E94630CB3943C85F5CFB31410F420
:101560003B1801C0312C34FF12C0B70180E390E07A
:101570003C870E94630C3C8532FF17C031FD03C0DD
:1015800088E790E002C088E590E0B7010CC0832FA7
:10159000867859F031FF02C08BE201C080E237FD4E
:1015A0008DE2B70190E00E94630CA51438F4B701F6
:1015B00080E390E00E94630C5A94F7CFAA94F40160
:1015C000EA0DF11D8081B70190E00E94630CA1102B
:1015D000F5CF332009F451CEB70180E290E00E94AC
:1015E000630C3A94F6CFF7018681978102C08FEFA2
:1015F0009FEF2C96E2E10C94470D0F931F93CF932E
:10160000DF93869F8001879F100D969F100D1124F8
:10161000C8010E94190BEC01009729F0A80160E0B5
:1016200070E00E94510CCE01DF91CF911F910F917C
:101630000895CF93DF938230910510F482E090E01B
:10164000E0917302F091740220E030E0C0E0D0E05D
:10165000309711F14081518148175907C0F0481760
:10166000590761F482819381209719F09B838A83C3
:101670002BC0909374028093730226C0211531050C
:1016800019F04217530718F49A01BE01DF01EF0168
:101690000280F381E02DDCCF2115310509F1281BF3
:1016A000390B2430310590F412968D919C9113974B
:1016B0006115710521F0FB019383828304C090932F
:1016C000740280937302FD01329644C0FD01E20F63
:1016D000F31F81939193225031092D933C933AC08B
:1016E0002091710230917202232B41F420910A0162
:1016F00030910B0130937202209371022091080106
:10170000309109012115310541F42DB73EB74091C3
:101710000C0150910D01241B350BE0917102F091E9
:101720007202E217F307A0F42E1B3F0B28173907AC
:1017300078F0AC014E5F5F4F2417350748F04E0F2D
:101740005F1F50937202409371028193919302C084
:10175000E0E0F0E0CF01DF91CF9108950F931F9368
:10176000CF93DF93009709F48CC0FC01329713826A
:10177000128200917302109174020115110581F417
:1017800020813181820F931F20917102309172026A
:101790002817390779F5F0937202E093710271C04E
:1017A000D80140E050E0AE17BF0750F412962D91DB
:1017B0003C911397AD012115310509F1D901F3CF02
:1017C0009D01DA013383228360817181860F971F27
:1017D0008217930769F4EC0128813981260F371F9E
:1017E0002E5F3F4F318320838A819B819383828345
:1017F000452B29F4F0937402E093730242C01396D0
:10180000FC93EE931297ED01499159919E01240F9B
:10181000351FE217F30771F480819181840F951FC2
:10182000029611969C938E938281938113969C933A
:101830008E931297E0E0F0E0D80112968D919C9182
:101840001397009719F0F8018C01F6CF8D919C91B8
:1018500098012E5F3F4F820F931F209171023091AC
:1018600072022817390769F4309729F4109274022C
:101870001092730202C013821282109372020093BC
:101880007102DF91CF911F910F910895FC01059096
:10189000615070400110D8F7809590958E0F9F1F72
:1018A0000895DC0101C06D9341505040E0F7089568
:1018B000FC016150704001900110D8F7809590951F
:1018C0008E0F9F1F08950F931F93CF93DF93FB01FC
:1018D000238121FD03C08FEF9FEF28C022FF16C098
:1018E00046815781248135814217530744F4A081F2
:1018F000B1819D012F5F3F4F318320838C932681DF
:1019000037812F5F3F4F3783268310C0EB01092FAC
:10191000182F0084F185E02D0995892BE1F68E8141
:101920009F8101969F838E83812F902FDF91CF918E
:101930001F910F910895FA01AA27283051F1203103
:1019400081F1E8946F936E7F6E5F7F4F8F4F9F4F53
:10195000AF4FB1E03ED0B4E03CD0670F781F891F95
:101960009A1FA11D680F791F8A1F911DA11D6A0F63
:10197000711D811D911DA11D20D009F468943F9116
:101980002AE0269F11243019305D3193DEF6CF0115
:101990000895462F4770405D4193B3E00FD0C9F7DB
:1019A000F6CF462F4F70405D4A3318F0495D31FD48
:1019B0004052419302D0A9F7EACFB4E0A69597959B
:1019C000879577956795BA95C9F700976105710571
:1019D00008959B01AC010A2E0694579547953795BB
:1019E0002795BA95C9F7620F731F841F951FA01D15
:1019F0000895052E97FB1EF400940E94100D57FDCC
:101A000007D00E94620D07FC03D04EF40C94100D19
:101A100050954095309521953F4F4F4F5F4F08951A
:101A200090958095709561957F4F8F4F9F4F08954A
:101A30000E94840DA59F900DB49F900DA49F800DD2
:101A4000911D11240895B7FF0C94180D0E94180DD4
:101A5000821B930B08952F923F924F925F926F9249
:101A60007F928F929F92AF92BF92CF92DF92EF922E
:101A7000FF920F931F93CF93DF93CDB7DEB7CA1BAF
:101A8000DB0B0FB6F894DEBF0FBECDBF09942A88DA
:101A9000398848885F846E847D848C849B84AA8482
:101AA000B984C884DF80EE80FD800C811B81AA810F
:101AB000B981CE0FD11D0FB6F894DEBF0FBECDBFDA
:101AC000ED010895A1E21A2EAA1BBB1BFD010DC05A
:101AD000AA1FBB1FEE1FFF1FA217B307E407F507DE
:101AE00020F0A21BB30BE40BF50B661F771F881FBA
:101AF000991F1A9469F760957095809590959B0150
:101B0000AC01BD01CF010895A29FB001B39FC001F8
:101B1000A39F700D811D1124911DB29F700D811D19
:0A1B20001124911D0895F894FFCFE1
:101B2A00001200100100000000007502200066C3C8
:101B3A00B872006574746572000A0D537461727428
:101B4A00696E67205352414D20746573742E2E2E90
:101B5A000A0D0057726974652070686173652065A3
:101B6A0072726F723A206578745F72616D5B2534A8
:101B7A00645D203D2025303258202873686F756CCB
:101B8A00642062652025303258290A0D0052657496
:101B9A0072696576616C207068617365206572721E
:101BAA006F723A206578745F72616D5B2534645D8B
:101BBA00203D2025303258202873686F756C6420C8
:101BCA0062652025303258290A0D005352414D20B2
:101BDA007465737420636F6D706C657465642077C7
:101BEA00697468200A0D253464206572726F7273F5
:101BFA0020696E2077726974652070686173652048
:101C0A00616E64200A0D253464206572726F7273E6
:101C1A0020696E2072657472696576616C207068DD
:101C2A006173650A0A0D004C4546540052494748FB
:101C3A005400444F574E005550004E45555452419A
:101C4A004C002D2D2D4D61696E20204D656E752D30
:101C5A002D2D000A0D7374617475733A2025640082
:101C6A006F7074696F6E31006F7074696F6E3200D5
:081C7A006F7074696F6E330096
:00000001FF
