:100000000C9438000C9455000C9455000C94550039
:100010000C9455000C9455000C9455000C9455000C
:100020000C9455000C9455000C9455000C945500FC
:100030000C9455000C9455000C9455000C945500EC
:100040000C9455000C9455000C9455000C945500DC
:100050000C9455000C9455000C9455000C945500CC
:100060000C9455000C9455000C9455000C945500BC
:1000700011241FBECFEFD4E0DEBFCDBF11E0A0E062
:10008000B1E0E6E9FCE002C005900D92A83FB1079F
:10009000D9F722E0A8EFB1E001C01D92A430B20769
:1000A000E1F70E9457000C9449060C9400008FE180
:1000B00090E00E94700085B7806885BF80B780623D
:1000C00080BF0E949600FFCF5D9BFECF8CB9089544
:1000D0005F9BFECF8CB190E00E94DA018CB1089555
:1000E00090BD89B988E18AB98EE880BD68E670E084
:1000F00084E690E00E9479019093F9018093F801E1
:100100000895CF93DF93EC018881882351F02196E5
:100110006091F8017091F9010E9464008991811148
:10012000F7CF80E090E0DF91CF910895CF92DF92FA
:10013000EF92FF920F931F93CF93DF938AE091E0AA
:100140009F938F930E94C4010E9469017C010E94C9
:100150006E010F900F90C12CD12CC0E0D0E004E2D2
:1001600011E00E946901F601F85E80832081281762
:10017000A1F099279F938F931F922F93DF92CF9295
:100180001F930F930E94C40121968DB79EB70896C6
:100190000FB6F8949EBF0FBE8DBF9FEFC91AD90A44
:1001A000C11488E0D806E9F6C7010E946E0100E09C
:1001B00010E0E12CF12C0F2EFEE5CF2EF1E0DF2E2A
:1001C000F02D0E946901F801F85E20812817B1F036
:1001D00099279F938F931F922F931F930F93DF92D3
:1001E000CF920E94C4019FEFE91AF90A8DB79EB71A
:1001F00008960FB6F8949EBF0FBE8DBF0F5F1F4FBE
:10020000011598E01907E9F6FF92EF92DF93CF937B
:100210008CE991E09F938F930E94C4010F900F90FF
:100220000F900F900F900F90DF91CF911F910F9132
:10023000FF90EF90DF90CF9008958F929F92AF92B2
:10024000BF92CF92DF92EF92FF92CF93DF93EC01B8
:10025000688179818A819B8161157105810591058C
:1002600021F464E279ED8BE597E02DE133EF41E095
:1002700050E00E94AF0549015A019B01AC01A7EA79
:10028000B1E40E94CE056B017C01ACEEB4EFA50198
:1002900094010E94DC05DC01CB018C0D9D1DAE1D7F
:1002A000BF1DB7FF03C00197A109B0488883998398
:1002B000AA83BB839F77DF91CF91FF90EF90DF9070
:1002C000CF90BF90AF909F908F9008950E941D0196
:1002D000089580E091E00E941D010895A0E0B0E043
:1002E0008093000190930101A0930201B093030158
:1002F00008950F931F93CF93DF93009731F4611507
:10030000710519F480E090E03AC08B01EC016EE0D9
:1003100070E081E090E00E94B303FC01892B91F32F
:1003200080E883830115110571F01387028781E846
:1003300083838091FA019091FB01892B21F4F09342
:10034000FB01E093FA012097C9F0D187C087838130
:10035000826083838091FC019091FD01892B71F46F
:10036000F093FD01E093FC018091FE019091FF016B
:10037000892B21F4F093FF01E093FE01CF01DF917F
:10038000CF911F910F910895A0E0B0E0EAECF1E069
:100390000C94F105AE014B5F5F4FFA0161917191D1
:1003A000AF018091FC019091FD010E94E101E2E02A
:1003B0000C940D066091FC017091FD010E941905DD
:1003C0000895ACE0B0E0E7EEF1E00C94E1057C01CB
:1003D0006B018A01FC0117821682838181FFBDC1F6
:1003E000CE0101964C01F7019381F60193FD8591B1
:1003F00093FF81916F01882309F4ABC1853239F4F1
:1004000093FD859193FF81916F01853229F4B701A6
:1004100090E00E941905E7CF512C312C20E02032CA
:10042000A0F48B3269F030F4803259F0833269F4F1
:1004300020612CC08D3239F0803339F4216026C020
:100440002260246023C0286021C027FD27C030ED32
:10045000380F3A3078F426FF06C0FAE05F9E300D80
:100460001124532E13C08AE0389E300D1124332EF0
:1004700020620CC08E3221F426FD6BC1206406C0C0
:100480008C3611F4206802C0883641F4F60193FDE1
:10049000859193FF81916F018111C1CF982F9F7D2D
:1004A0009554933028F40C5F1F4FFFE3F9830DC080
:1004B000833631F0833771F0833509F05BC022C099
:1004C000F801808189830E5F1F4F44244394512C8F
:1004D000540115C03801F2E06F0E711CF801A080C4
:1004E000B18026FF03C0652D70E002C06FEF7FEF83
:1004F000C5012C870E940E052C0183012C852F77C6
:10050000222E17C03801F2E06F0E711CF801A08096
:10051000B18026FF03C0652D70E002C06FEF7FEF52
:10052000C5012C870E94FC042C012C852068222EFA
:10053000830123FC1BC0832D90E048165906B0F4BC
:10054000B70180E290E00E9419053A94F4CFF501DA
:1005500027FC859127FE81915F01B70190E00E9401
:10056000190531103A94F1E04F1A51084114510421
:1005700071F7E5C0843611F0893639F5F80127FFA7
:1005800007C060817181828193810C5F1F4F08C019
:1005900060817181072E000C880B990B0E5F1F4F35
:1005A0002F76722E97FF09C0909580957095619572
:1005B0007F4F8F4F9F4F2068722E2AE030E0A401BA
:1005C0000E945105A82EA81844C0853729F42F7E13
:1005D000B22E2AE030E025C0F22FF97FBF2E8F36F1
:1005E000C1F018F4883579F0B4C0803719F0883735
:1005F00021F0AFC02F2F2061B22EB4FE0DC08B2D85
:100600008460B82E09C024FF0AC09F2F9660B92EBF
:1006100006C028E030E005C020E130E002C020E163
:1006200032E0F801B7FE07C0608171818281938159
:100630000C5F1F4F06C06081718180E090E00E5F0B
:100640001F4FA4010E945105A82EA818FB2DFF776B
:100650007F2E76FE0BC0372D3E7FA51450F474FE1E
:100660000AC072FC08C0372D3E7E05C0BA2C372D5B
:1006700003C0BA2C01C0B52C34FF0DC0FE01EA0D39
:10068000F11D8081803311F4397E09C032FF06C02C
:10069000B394B39404C0832F867809F0B39433FDE8
:1006A00013C030FF06C05A2CB31418F4530C5B1857
:1006B000B32CB31468F4B70180E290E03C870E9449
:1006C0001905B3943C85F5CFB31410F43B1801C061
:1006D000312C34FF12C0B70180E390E03C870E94C8
:1006E00019053C8532FF17C031FD03C088E790E053
:1006F00002C088E590E0B7010CC0832F867859F0DE
:1007000031FF02C08BE201C080E237FD8DE2B7010C
:1007100090E00E941905A51438F4B70180E390E039
:100720000E9419055A94F7CFAA94F401EA0DF11D1D
:100730008081B70190E00E941905A110F5CF332008
:1007400009F451CEB70180E290E00E9419053A9475
:10075000F6CFF7018681978102C08FEF9FEF2C962D
:10076000E2E10C94FD050F931F93CF93DF93869FD7
:100770008001879F100D969F100D1124C8010E94C3
:10078000CF03EC01009729F0A80160E070E00E941F
:100790000705CE01DF91CF911F910F910895CF935F
:1007A000DF938230910510F482E090E0E091020244
:1007B000F091030220E030E0C0E0D0E0309711F18A
:1007C0004081518148175907C0F04817590761F413
:1007D00082819381209719F09B838A832BC0909309
:1007E00003028093020226C02115310519F0421739
:1007F000530718F49A01BE01DF01EF010280F38173
:10080000E02DDCCF2115310509F1281B390B2430EF
:10081000310590F412968D919C9113976115710595
:1008200021F0FB019383828304C0909303028093A1
:100830000202FD01329644C0FD01E20FF31F8193D5
:100840009193225031092D933C933AC0209100029C
:1008500030910102232B41F42091060130910701D0
:100860003093010220930002209104013091050190
:100870002115310541F42DB73EB740910801509143
:100880000901241B350BE0910002F0910102E217EF
:10089000F307A0F42E1B3F0B2817390778F0AC01A3
:1008A0004E5F5F4F2417350748F04E0F5F1F509380
:1008B0000102409300028193919302C0E0E0F0E0D6
:1008C000CF01DF91CF9108950F931F93CF93DF93C3
:1008D000009709F48CC0FC013297138212820091B8
:1008E0000202109103020115110581F4208131816A
:1008F000820F931F209100023091010228173907BF
:1009000079F5F0930102E093000271C0D80140E054
:1009100050E0AE17BF0750F412962D913C911397FB
:10092000AD012115310509F1D901F3CF9D01DA019E
:100930003383228360817181860F971F821793070B
:1009400069F4EC0128813981260F371F2E5F3F4F54
:10095000318320838A819B8193838283452B29F471
:10096000F0930302E093020242C01396FC93EE93CD
:100970001297ED01499159919E01240F351FE217FD
:10098000F30771F480819181840F951F029611966F
:100990009C938E938281938113969C938E9312974E
:1009A000E0E0F0E0D80112968D919C9113970097AA
:1009B00019F0F8018C01F6CF8D919C9198012E5F72
:1009C0003F4F820F931F20910002309101022817A0
:1009D000390769F4309729F4109203021092020249
:1009E00002C0138212821093010200930002DF9171
:1009F000CF911F910F910895FC01059061507040B7
:100A00000110D8F7809590958E0F9F1F0895DC01F7
:100A100001C06D9341505040E0F70895FC016150D2
:100A2000704001900110D8F7809590958E0F9F1F10
:100A300008950F931F93CF93DF93FB01238121FD33
:100A400003C08FEF9FEF28C022FF16C04681578159
:100A5000248135814217530744F4A081B1819D015F
:100A60002F5F3F4F318320838C93268137812F5F07
:100A70003F4F3783268310C0EB01092F182F0084C6
:100A8000F185E02D0995892BE1F68E819F810196F4
:100A90009F838E83812F902FDF91CF911F910F9194
:100AA0000895FA01AA27283051F1203181F1E89404
:100AB0006F936E7F6E5F7F4F8F4F9F4FAF4FB1E051
:100AC0003ED0B4E03CD0670F781F891F9A1FA11D4C
:100AD000680F791F8A1F911DA11D6A0F711D811D4D
:100AE000911DA11D20D009F468943F912AE0269F12
:100AF00011243019305D3193DEF6CF010895462F71
:100B00004770405D4193B3E00FD0C9F7F6CF462F51
:100B10004F70405D4A3318F0495D31FD40524193BA
:100B200002D0A9F7EACFB4E0A69597958795779577
:100B30006795BA95C9F700976105710508959B01FE
:100B4000AC010A2E06945795479537952795BA9587
:100B5000C9F7620F731F841F951FA01D0895052EEE
:100B600097FB1EF400940E94C60557FD07D00E9413
:100B7000180607FC03D04EF40C94C605509540951A
:100B8000309521953F4F4F4F5F4F08959095809539
:100B9000709561957F4F8F4F9F4F08950E943A0641
:100BA000A59F900DB49F900DA49F800D911D1124C1
:100BB0000895B7FF0C94CE050E94CE05821B930BBF
:100BC00008952F923F924F925F926F927F928F92F1
:100BD0009F92AF92BF92CF92DF92EF92FF920F93CC
:100BE0001F93CF93DF93CDB7DEB7CA1BDB0B0FB6D6
:100BF000F894DEBF0FBECDBF09942A883988488893
:100C00005F846E847D848C849B84AA84B984C88428
:100C1000DF80EE80FD800C811B81AA81B981CE0F1F
:100C2000D11D0FB6F894DEBF0FBECDBFED01089504
:100C3000A1E21A2EAA1BBB1BFD010DC0AA1FBB1FE0
:100C4000EE1FFF1FA217B307E407F50720F0A21B52
:100C5000B30BE40BF50B661F771F881F991F1A94BF
:100C600069F760957095809590959B01AC01BD01E9
:100C7000CF010895A29FB001B39FC001A39F700D43
:100C8000811D1124911DB29F700D811D1124911D94
:060C90000895F894FFCF67
:100C9600010000000000040220000A0D5374617276
:100CA60074696E67205352414D20746573742E2EFD
:100CB6002E0A0D005772697465207068617365208D
:100CC6006572726F723A206578745F72616D5B252A
:100CD60034645D203D2025303258202873686F75B6
:100CE6006C642062652025303258290A0D00526551
:100CF6007472696576616C207068617365206572CF
:100D0600726F723A206578745F72616D5B25346428
:100D16005D203D2025303258202873686F756C643D
:100D26002062652025303258290A0D005352414D64
:100D3600207465737420636F6D706C6574656420D0
:100D460077697468200A0D253464206572726F72A3
:100D56007320696E207772697465207068617365A7
:100D660020616E64200A0D253464206572726F72EC
:100D76007320696E2072657472696576616C207085
:080D8600686173650A0A0D00A3
:00000001FF
