:100000000C9438000C9442000C9442000C94420072
:100010000C9442000C9442000C9442000C94420058
:100020000C9442000C9442000C9442000C94420048
:100030000C9442000C9442000C9442000C94420038
:100040000C9442000C9442000C9442000C94420028
:100050000C9442000C9442000C9442000C94420018
:100060000C9442000C9442000C9442000C94420008
:1000700011241FBECFEFD4E0DEBFCDBF0E944400ED
:100080000C946A000C9400008FE190E00E945B00E9
:1000900080E70E94620081E087BB91E088B38927F6
:1000A00088BB2FEF3FE787E0215030408040E1F7E9
:1000B00000C00000F3CF90BD89B988E18BB98EE80C
:1000C00080BD08955D9BFECF8CB908955F9BFECFE8
:0800D0008CB10895F894FFCFF4
:00000001FF
