:100000000C94D5000C94F6000C94F6000C9420038C
:100010000C94F6000C94F6000C94F6000C94F60088
:100020000C94F6000C94F6000C94F6000C94F60078
:100030000C94F6000C94F6000C94F6000C94F60068
:100040000C94F6000C94F6000C94F6000C94F60058
:100050000C94F6000C94F6000C94F6000C94F60048
:100060000C94F6000C94F6000C94F6000C94F60038
:100070000C94F6000C94F6000C94F6000C94F60028
:100080000C94F6000C94F6000C94F6000C94F60018
:100090000C94F6000C94F6000C94F6000C94A60553
:1000A0000C94F6000C94F6000C94F6000C94F600F8
:1000B0000C94F6000C94F6000C94F6000C94F600E8
:1000C0000C94F6000C94F6000C94F6000C94F600D8
:1000D0000C94F6000C94F6000C94F6000C94F600C8
:1000E0000C94F600C505170617061706170617061F
:1000F00017061706C505170617061706170617066B
:1001000017061706C7051706170617061706170658
:1001100017061706170617061706170617061706F7
:1001200017061706C7051706170617061706170638
:1001300017061706170617061706170617061706D7
:1001400017061706130617061706170617061706CB
:1001500017061706F00517061706170617061706DF
:1001600017061706170617061706170617061706A7
:1001700017061706E40517061706170617061706CB
:100180001706170602060C94C7050C94E4050C9498
:1001900002060C9462010C945A010C9417060C94FC
:1001A000F0050C9413060C94C50511241FBECFEF67
:1001B000D1E2DEBFCDBF00E00CBF18E0A0E0B2E0AE
:1001C000E2EBF1E200E00BBF02C007900D92A8380D
:1001D000B107D9F728E0A8E8B8E001C01D92A13C1A
:1001E000B207E1F70E94F8000C94D7100C940000BD
:1001F000CF93DF93CDB7DEB72C970FB6F894DEBF61
:100200000FBECDBFF89487E690E00E947301EA9A92
:10021000E9E6F0E080818260808380818E7F808348
:100220000E945D020E945D02892B49F48BE198E0F7
:100230009F938F930E94C30D0F900F9008C089E287
:1002400098E09F938F930E94C30D0F900F900E9490
:1002500048030E9484010E9420050E942D060E94EE
:10026000BA060E94A90878941CE0CE0101960E946B
:10027000C102FE013196A5EAB8E0812F01900D92EE
:100280008A95E1F78091AF089091B008059729F41D
:100290008091A50890E00E9413098091AF08909189
:1002A000B008019711F78091A9088130F1F60E94FA
:1002B000E503DBCFE0ECF0E0908195FFFDCF80938C
:1002C000C6000895CF93DF93E0ECF0E080818823AF
:1002D000ECF7C6ECD0E0888190E00E94D70D8881D1
:1002E000DF91CF9108959093C5008093C40088E179
:1002F0008093C1008EE08093C20062E671E08AE5DF
:1003000091E00E94780D08958098ECE7F0E08081FC
:100310008064808380818F778083EAE7F0E080814A
:1003200080688083789480E090E00895EAE7F0E0C8
:1003300080818064808380918C08882391F0808103
:100340008064808310928C0885E398E09F938F935C
:100350000E94C30D80917800909179000F900F90CA
:100360000895809178009091790008951F920F92DE
:100370000FB60F9211248F9381E080938C088F9198
:100380000F900FBE0F901F90189584B1876884B9A5
:10039000239881E58CBD80E090E008958EBD0DB47A
:1003A00007FEFDCF80E090E0089580E00E94CE013E
:1003B0008EB508952F9880E090E008952F9A80E000
:1003C00090E008950E94DA0180EC0E94CE010E9424
:1003D000DE018FE493EC0197F1F700C0000080E0AC
:1003E00090E008950E94C5010E94E20180E090E043
:1003F0000895CF93C82F0E94DA0183E00E94CE01B6
:100400008C2F0E94CE010E94D501C82F0E94DE01D0
:100410008C2FCF910895CF93DF93D82FC62F0E94B2
:10042000DA0182E00E94CE018D2F0E94CE018C2F36
:100430000E94CE010E94DE0180E090E0DF91CF912A
:100440000895CF93883018F4C82FC06801C0C0E861
:100450000E94DA018C2F0E94CE010E94DE0180E012
:1004600090E0CF910895CF930E94DA0180EA0E9434
:10047000CE010E94D501C82F0E94DE018C2FCF91A2
:1004800008951F93CF93DF93182FD62FC42F0E9468
:10049000DA0185E00E94CE01812F0E94CE018D2FCE
:1004A0000E94CE018C2F0E94CE010E94DE0180E0CE
:1004B00090E0DF91CF911F9108950E94F2014FEFDC
:1004C00060E680E60E94410240E060EE8FE00E941C
:1004D000410241E061E08BE20E94410280E090E055
:1004E000089580E30E94F9018FEF9FEF08950F9325
:1004F0001F93CF938C01FC01628573857595679579
:10050000759567957595679581E30E940B02F801D3
:1005100062857385660F771F62957295707F762767
:10052000607F762782E30E940B02F80160856F707E
:1005300085E30E940B02F801808591851816190643
:10054000A4F420E030E0C0E0F801E20FF31F608186
:1005500086E38C0F0E940B02CF5F2C2F30E0F80156
:1005600080859185281739077CF381E00E9421025C
:1005700080E090E0CF911F910F91089581E090E08D
:100580000895AF92BF92CF92DF92EF92FF921F93A6
:10059000CF93DF937C0180918D08813071F581E6E6
:1005A0000E94F901A82E82E60E94F90182958695A3
:1005B0008770B12CAA0CBB1CAA0CBB1CAA0CBB1CC0
:1005C000A82A85E60E94F9018F70C82ED12C1C1430
:1005D0001D0484F4C0E0D0E010E086E6810F0E94A4
:1005E000F901CE0DDF1D88831F5FC12FD0E0CC1530
:1005F000DD059CF310928D0803C0AA24AA94BA2C9E
:10060000F701D186C086B386A286C701DF91CF915C
:100610001F91FF90EF90DF90CF90BF90AF90089523
:1006200040E060E08CE20E94410240E061E08CE248
:100630000E94410281E080938D0880E090E008955F
:100640001F920F920FB60F9211240BB60F922F9399
:100650003F934F935F936F937F938F939F93AF934A
:10066000BF93EF93FF930E941003FF91EF91BF910F
:10067000AF919F918F917F916F915F914F913F913A
:100680002F910F900BBE0F900FBE0F901F901895DB
:10069000E0E8F0E08081826C8083E1E8F0E0808136
:1006A00088618083808184608083259A82EE94E0D3
:1006B000909387008093860085E894E0909389006A
:1006C0008093880080E090E00895CF92DF92EF92CF
:1006D000FF920F931F93CF93DF93CDB7DEB72C9785
:1006E0000FB6F894DEBF0FBECDBF80EF8C0D853501
:1006F00048F48BEAC89E812D1124869590E082589B
:100700009B4F12C089E68C0D8935A8F420EF30E0AC
:10071000A9014C195109CA0163E070E00E94CA099D
:1007200083E894E0861B970B9C012F5534402334BB
:10073000310538F402C083E894E0909389008093F7
:1007400088002C960FB6F894DEBF0FBECDBFDF91A8
:10075000CF911F910F91FF90EF90DF90CF90089570
:10076000FB013197E336F105D8F4DA01ED91FC9104
:10077000EF2BB1F4DC01ED91FC9111973196ED93E3
:10078000FC9381E090E0FA0191838083D9018D91FF
:100790009C911197181619067CF401978D939C93E0
:1007A0006C3D710564F0FA0180819181019739F403
:1007B000DA011D921C9203C06C3D7105CCF780E0FC
:1007C00090E0089580E090E008952F923F924F923C
:1007D0005F926F927F928F929F92AF92BF92CF92D1
:1007E000DF92EF92FF920F931F93CF93DF93CDB7DA
:1007F000DEB7A0970FB6F894DEBF0FBECDBF1A824A
:1008000019821C821B8203E010E01E830D83CE013F
:1008100007960E94C10282E090E09E8F8D8F1C8F10
:100820000B8F8D818B8BCE0143960E9477020E94A5
:10083000BA068B85813009F4B4C088248394912C46
:10084000A12CB12C412C512C0AC0AF8EB8A28FEF35
:10085000881A980A8DE3881691040CF071C0CE01B5
:1008600007960E94C102EF80F88409851A852B85BE
:100870003C854D855E856F85788989899A890E9436
:100880000507CF80D884E984FA840B851C852D85E3
:100890003E854F85588969897A89809100029091B7
:1008A00001020E94650390930102809300028985F2
:1008B0008130C1F441145104A9F402C0A12CB12C1F
:1008C0008AE398E09F938F930E94C30D0E94AE0825
:1008D0008FEFA81AB80A0F900F90812C912C442406
:1008E0004394512C0F2EF2E46F2EF8E07F2EF02D62
:1008F000212C312C0E949601082F192F9F938F9342
:100900007F926F920E94C30D9E012B5F3F4FAE01FD
:100910004D5F5F4F602F712FCE0101960E94B00393
:100920008D818B8BAC8ACE0143960E9477020F900B
:100930000F900F900F908B85813009F486CF65C0A2
:10094000CE0107960E94C102EF80F88409851A85BE
:100950002B853C854D855E856F85788989899A8947
:100960000E940507CF80D884E984FA840B851C8512
:100970002D853E854F85588969897A898091000245
:10098000909101020E9465039093010280930002FE
:10099000422C532C8985813009F492CFAF8CB8A0BA
:1009A000A9CFCE0107960E94C102EF80F884098585
:1009B0001A852B853C854D855E856F85788989896B
:1009C0009A890E940507CF80D884E984FA840B8530
:1009D0001C852D853E854F85588969897A89809146
:1009E0000002909101020E9465039093010280939E
:1009F00000028985813009F461CFA12CB12C8824B3
:100A00008394912C412C512C6DCF80E090E0A096E6
:100A10000FB6F894DEBF0FBECDBFDF91CF911F910F
:100A20000F91FF90EF90DF90CF90BF90AF909F908D
:100A30008F907F906F905F904F903F902F90089590
:100A40000E943B058AB183608AB980E090E00895F6
:100A5000CF93C82F83E090E00E944B0CFC0180E50F
:100A600080831182C28363E0CF010E94510580E040
:100A700090E0CF9108958CE08093B8008FEF809341
:100A8000BB0084E08093BC0008958091BC0081701D
:100A90000895ECEBF0E0808180FDFDCF80910202B3
:100AA0000895CF93DF93EC01ECEBF0E0908190FDA3
:100AB000FDCF6093900898819093910890FD13C0AA
:100AC000623088F0FE013196A2E9B8E06250262F2C
:100AD00030E02E5F3F4FCE01820F931F21912D9367
:100AE000E817F907D9F710928E0888EF8093020271
:100AF00085EA8093BC00DF91CF910895ECEBF0E0A4
:100B0000808180FDFDCF10928E0888EF80930202D5
:100B100085EA8093BC000895ECEBF0E0208120FD95
:100B2000FDCF20918E0820FF0DC0662359F021E9EA
:100B300038E0A82FB92FF90181918D938E2F821B58
:100B40008617D0F380918E08817008951F920F92BE
:100B50000FB60F9211240BB60F922F933F938F93E2
:100B60009F93AF93BF93EF93FF93E091B9008E2FC4
:100B700090E0FC013897E135F10508F058C088276E
:100B8000EE58FF4F8F4F0C94FD0910928F08E091A3
:100B90008F0880919008E81770F481E08E0F8093A1
:100BA0008F08F0E0EF56F74F80818093BB0085E817
:100BB0008093BC0043C080918E08816080938E0832
:100BC00084E98093BC003AC0E0918F0881E08E0FE9
:100BD00080938F088091BB00F0E0EF56F74F808341
:100BE00020918F0830E08091900890E001972817BD
:100BF000390724F485EC8093BC0020C085E88093FD
:100C0000BC001CC08091BB00E0918F08F0E0EF5663
:100C1000F74F808380918E08816080938E0884E9ED
:100C20008093BC000BC085EA8093BC0007C0809114
:100C3000B9008093020284E08093BC00FF91EF91A1
:100C4000BF91AF919F918F913F912F910F900BBECC
:100C50000F900FBE0F901F901895E1E0F1E080819A
:100C600080618083808182608083808188668083C8
:100C7000E2E0F1E080818061808384E598E00E9479
:100C8000DD0D80E090E00895882314F090E0089551
:100C9000819590E091958195910908950E9444066F
:100CA0008B30910544F0E2E0F1E090819260908316
:100CB0000E9428050895863F2FEF92074CF4E2E04A
:100CC000F1E090819D7F908381950E942805089591
:100CD00080E00E94280508951816190644F4E2E001
:100CE000F1E09081926090830E94280508959923F5
:100CF0004CF4E2E0F1E090819D7F908381950E9429
:100D00002805089580E00E9428050895CF93DF9379
:100D1000F89410920701E2E0F1E080818F7D8083FA
:100D20008081877F808387E893E10197F1F700C096
:100D30000000A6E0B1E08C9190E0982F88272081F8
:100D400028602083C7E8D3E12197F1F700C00000B5
:100D50003C91A7E8B3E11197F1F700C000002081B2
:100D6000206420832081206220837894832BDF916C
:100D7000CF910895CF93DF93E2E0F1E080818D7F02
:100D80008083C0E1D7E284E60E9428052197D9F745
:100D90000E9486069195819591099093A008809371
:100DA0009F08E2E0F1E0808182608083C0E1D7E2C9
:100DB00084E60E9428052197D9F70E94860691951E
:100DC000819591099093A2088093A10890939E0821
:100DD00080939D089F938F939F938F938091A008FA
:100DE0008F9380919F088F938CE698E09F938F93C9
:100DF0000E94C30D8DB79EB708960FB6F8949EBF9C
:100E00000FBE8DBFDF91CF9108954F925F926F9289
:100E10007F928F929F92AF92BF92EF92FF920F9329
:100E20001F93CF93DF93CDB7DEB760970FB6F894DB
:100E3000DEBF0FBECDBFE982FA820B831C832D83F8
:100E4000F32E3E834F83588769877A878B879C87E9
:100E5000012F10E060919D0870919E08072E000CF4
:100E6000880B990B0E94520B4B015C016091A10809
:100E70007091A208072E000C880B990B0E94520B50
:100E80002B013C0180919F089091A008BC01990F13
:100E9000880B990B0E94520B9B01AC01C301B2015C
:100EA0000E943B0A9B01AC01C501B4010E94A80A43
:100EB00020E030E048EC52E40E94DE0B0E941A0B66
:100EC000061B170B82E0F81229C080E090E0A0E931
:100ED000B0E480930F0290931002A0931102B0939C
:100EE000120210920B0210920C0210920D0210923C
:100EF0000E028AE097EDA3E2BCE380930702909391
:100F00000802A0930902B0930A0210920302109201
:100F10000402109205021092060230C080E090E0B8
:100F2000A0ECBFE380930F0290931002A0931102F4
:100F3000B093120280E090E0A0E6B0E480930B0250
:100F400090930C02A0930D02B0930E028AE097EDED
:100F5000A3E2BCE38093070290930802A0930902E6
:100F6000B0930A028FE692E1A3E8BAE3809303020A
:100F700090930402A0930502B0930602112364F437
:100F80008091990890919A08181619062CF41092DD
:100F90009A08109299080DC01016110654F4809109
:100FA000990890919A08992324F410929A08109223
:100FB0009908E0909908F0909A08E00EF11EF092DE
:100FC0009A08E09299088090070290900802A090F9
:100FD0000902B0900A02A501940160910302709188
:100FE000040280910502909106020E94A80A2B013A
:100FF0003C0180919B0890919C08B801681B790B7B
:10100000072E000C880B990B0E94520B9B01AC0120
:10101000C301B2010E94DE0B2B013C0110939C081E
:1010200000939B08B801110F880B990B0E94520B7B
:1010300020910F0230911002409111025091120242
:101040000E94DE0B6D877E878F87988BB701FF0C20
:10105000880B990B0E94520B20910B0230910C02CD
:1010600040910D0250910E020E94DE0B9B01AC01DB
:10107000C501B4010E94DE0B9B01AC016D857E852C
:101080008F8598890E943C0AA30192010E943C0A24
:101090000E941A0BCB010E946C060E948606919555
:1010A0008195910990939E0880939D082091A108B5
:1010B0003091A208281739072CF430939E0820930A
:1010C0009D080BC020919F083091A00882179307BC
:1010D00024F430939E0820939D0880919508909168
:1010E0009608019690939608809395088D8181309B
:1010F000A9F481E090E090939808809397088091FC
:101100009508909196088436910544F010929608BF
:1011100010929508109298081092970883EC99E025
:101120000197F1F700C0000060960FB6F894DEBF9B
:101130000FBECDBFDF91CF911F910F91FF90EF9028
:10114000BF90AF909F908F907F906F905F904F90E7
:101150000895269A2E9A80E090E008952E982FED1B
:1011600082E292E0215080409040E1F700C0000010
:101170002E9A80E090E008956B9AE0E9F0E080819B
:101180008064808380818C778083E1E9F0E08081D6
:101190008860808380818F7E80838081816080836E
:1011A0008081897F80830895009731F4E1E9F0E040
:1011B00080818E7F808308959C01220F331F40E041
:1011C00050E060E074E284EF90E00E94DE0921507C
:1011D00031093093990020939800E1E9F0E0808193
:1011E000816080830895009731F4E1EBF0E0808125
:1011F0008D7F808308959C0122953295307F322720
:10120000207F322740E050E060E074E284EF90E01D
:101210000E94DE0921502093B300E1EBF0E08081D1
:101220008260808308959F92AF92BF92CF92DF92A7
:10123000EF92FF920F931F93CF93DF93813091052D
:1012400021F0029709F453C091C08EE490E090938E
:10125000B4088093B3080F2EFDEDEF2EF6E0FF2EBD
:10126000F02D09E717E0C12CD12C0F2EFAEF9F2E9D
:10127000F02DA12CB12CF701819191917F01989EC5
:10128000E001999ED00D1124F801819191918F0177
:101290000E94D4081C161D06FCF42A2D3B2D89EF54
:1012A00090E00197F1F700C000008091A3089091B1
:1012B000A4080196803EEEE29E0729F09093A408D0
:1012C0008093A30804C0A092A308B092A4082F5F43
:1012D0003F4F2C173D0719F7FFEFCF1ADF0A809118
:1012E000B3089091B408C816D9062CF23FC080E329
:1012F00090E09093B6088093B508C0E8D4E0AA24A3
:10130000AA94BA2C00E010E00F2EF0E3CF2ED12CDF
:10131000F02DEC2EFD2E0115110591F42FEFA21AE0
:10132000B20A8501000F111FF801E750FA4F8081C2
:1013300091810E94D408F801EB5EFA4F008111817F
:101340008E2D9F2DB6010E94CA09892B11F40E948F
:10135000AE08015011094FE986E891E04150804004
:101360009040E1F700C00000219799F680E090E0FE
:101370000E94D40880E090E00E94F308DF91CF91B2
:101380001F910F91FF90EF90DF90CF90BF90AF90A3
:101390009F90089597FB072E16F4009407D077FDD1
:1013A00009D00E94050A07FC05D03EF4909581956E
:1013B0009F4F0895709561957F4F0895052E97FB77
:1013C0001EF400940E94F50957FD07D00E94190AE7
:1013D00007FC03D04EF40C94F509509540953095D8
:1013E00021953F4F4F4F5F4F089590958095709591
:1013F00061957F4F8F4F9F4F0895EE0FFF1F881FFE
:101400008BBF0790F691E02D1994AA1BBB1B51E1ED
:1014100007C0AA1FBB1FA617B70710F0A61BB70B64
:10142000881F991F5A95A9F780959095BC01CD0109
:101430000895A1E21A2EAA1BBB1BFD010DC0AA1F15
:10144000BB1FEE1FFF1FA217B307E407F50720F02D
:10145000A21BB30BE40BF50B661F771F881F991FA8
:101460001A9469F760957095809590959B01AC01F1
:10147000BD01CF0108955058BB27AA270E94530AE7
:101480000C94A40B0E94960B38F00E949D0B20F048
:1014900039F49F3F19F426F40C94930B0EF4E09565
:1014A000E7FB0C948D0BE92F0E94B50B58F3BA178C
:1014B000620773078407950720F079F4A6F50C946A
:1014C000D70B0EF4E0950B2EBA2FA02D0B01B9010E
:1014D00090010C01CA01A0011124FF27591B99F0AA
:1014E000593F50F4503E68F11A16F040A22F232FB6
:1014F000342F4427585FF3CF469537952795A79506
:10150000F0405395C9F77EF41F16BA0B620B730BAC
:10151000840BBAF09150A1F0FF0FBB1F661F771F1D
:10152000881FC2F70EC0BA0F621F731F841F48F4D2
:10153000879577956795B795F7959E3F08F0B0CF5B
:101540009395880F08F09927EE0F97958795089542
:101550000E94BC0A0C94A40B0E949D0B58F00E94A0
:10156000960B40F029F45F3F29F00C948D0B51113C
:101570000C94D80B0C94930B0E94B50B68F3992331
:10158000B1F3552391F3951B550BBB27AA2762177F
:101590007307840738F09F5F5F4F220F331F441F8C
:1015A000AA1FA9F335D00E2E3AF0E0E832D09150C0
:1015B0005040E695001CCAF72BD0FE2F29D0660FAD
:1015C000771F881FBB1F261737074807AB07B0E8F0
:1015D00009F0BB0B802DBF01FF2793585F4F3AF0F6
:1015E0009E3F510578F00C948D0B0C94D80B5F3F07
:1015F000E4F3983ED4F3869577956795B795F7957C
:101600009F5FC9F7880F911D9695879597F9089563
:10161000E1E0660F771F881FBB1F621773078407FF
:10162000BA0720F0621B730B840BBA0BEE1F88F70E
:10163000E09508950E94210B6894B1110C94D80B89
:1016400008950E94BD0B88F09F5798F0B92F9927F5
:10165000B751B0F0E1F0660F771F881F991F1AF09D
:10166000BA95C9F714C0B13091F00E94D70BB1E020
:1016700008950C94D70B672F782F8827B85F39F01F
:10168000B93FCCF3869577956795B395D9F73EF436
:1016900090958095709561957F4F8F4F9F4F0895DE
:1016A000E89409C097FB3EF49095809570956195FC
:1016B0007F4F8F4F9F4F9923A9F0F92F96E9BB27B2
:1016C0009395F695879577956795B795F111F8CF2E
:1016D000FAF4BB0F11F460FF1BC06F5F7F4F8F4F99
:1016E0009F4F16C0882311F096E911C0772321F08F
:1016F0009EE8872F762F05C0662371F096E8862F27
:1017000070E060E02AF09A95660F771F881FDAF77D
:10171000880F9695879597F9089597F99F6780E8C0
:1017200070E060E008959FEF80EC089500240A9433
:101730001616170618060906089500240A941216AC
:101740001306140605060895092E0394000C11F4DF
:10175000882352F0BB0F40F4BF2B11F460FF04C08C
:101760006F5F7F4F8F4F9F4F089557FD9058440FE5
:10177000551F59F05F3F71F04795880F97FB991FF0
:1017800061F09F3F79F087950895121613061406AD
:10179000551FF2CF4695F1DF08C01616170618063A
:1017A000991FF1CF86957105610508940895E89415
:1017B000BB2766277727CB0197F908950E94F10B85
:1017C0000C94A40B0E94960B38F00E949D0B20F005
:1017D000952311F00C948D0B0C94930B11240C9405
:1017E000D80B0E94B50B70F3959FC1F3950F50E095
:1017F000551F629FF001729FBB27F00DB11D639FC3
:10180000AA27F00DB11DAA1F649F6627B00DA11D68
:10181000661F829F2227B00DA11D621F739FB00D0E
:10182000A11D621F839FA00D611D221F749F33277E
:10183000A00D611D231F849F600D211D822F762F17
:101840006A2F11249F5750409AF0F1F088234AF0F4
:10185000EE0FFF1FBB1F661F771F881F9150504060
:10186000A9F79E3F510580F00C948D0B0C94D80B7A
:101870005F3FE4F3983ED4F3869577956795B795E7
:10188000F795E7959F5FC1F7FE2B880F911D969501
:10189000879597F90895CF93DF938230910510F4DF
:1018A00082E090E0E091B908F091BA0820E030E0E1
:1018B000C0E0D0E0309711F14081518148175907BD
:1018C000C0F04817590761F482819381209719F07D
:1018D0009B838A832BC09093BA088093B90826C053
:1018E0002115310519F04217530718F49A01BE016A
:1018F000DF01EF010280F381E02DDCCF21153105FE
:1019000009F1281B390B2430310590F412968D9182
:101910009C9113976115710521F0FB0193838283DC
:1019200004C09093BA088093B908FD01329644C070
:10193000FD01E20FF31F81939193225031092D9302
:101940003C933AC02091B7083091B808232B41F45A
:1019500020911708309118083093B8082093B708E1
:1019600020911508309116082115310541F42DB745
:101970003EB74091190850911A08241B350BE0918D
:10198000B708F091B808E217F307A0F42E1B3F0B3D
:101990002817390778F0AC014E5F5F4F24173507E1
:1019A00048F04E0F5F1F5093B8084093B7088193DB
:1019B000919302C0E0E0F0E0CF01DF91CF91089574
:1019C0000F931F93CF93DF93009709F48CC0FC0112
:1019D0003297138212820091B9081091BA0801154A
:1019E000110581F420813181820F931F2091B70866
:1019F0003091B8082817390779F5F093B808E093C3
:101A0000B70871C0D80140E050E0AE17BF0750F4EE
:101A100012962D913C911397AD012115310509F1D5
:101A2000D901F3CF9D01DA01338322836081718173
:101A3000860F971F8217930769F4EC01288139817B
:101A4000260F371F2E5F3F4F318320838A819B8172
:101A500093838283452B29F4F093BA08E093B90865
:101A600042C01396FC93EE931297ED014991599160
:101A70009E01240F351FE217F30771F480819181D5
:101A8000840F951F029611969C938E938281938169
:101A900013969C938E931297E0E0F0E0D801129693
:101AA0008D919C911397009719F0F8018C01F6CF56
:101AB0008D919C9198012E5F3F4F820F931F209133
:101AC000B7083091B8082817390769F4309729F416
:101AD0001092BA081092B90802C0138212821093B1
:101AE000B8080093B708DF91CF911F910F91089527
:101AF0000F931F93CF93DF93009731F46115710516
:101B000019F480E090E03AC08B01EC016EE070E0E7
:101B100081E090E00E940810FC01892B91F380E89D
:101B200083830115110571F01387028781E8838390
:101B30008091BB089091BC08892B21F4F093BC08DC
:101B4000E093BB082097C9F0D187C087838182606A
:101B500083838091BD089091BE08892B71F4F09326
:101B6000BE08E093BD088091BF089091C008892B02
:101B700021F4F093C008E093BF08CF01DF91CF912B
:101B80001F910F910895CF93DF93CDB7DEB7AE01CC
:101B90004A5F5F4FFA0161917191AF018091BD0879
:101BA0009091BE080E940D0EDF91CF910895609133
:101BB000BD087091BE080C9441100F931F93CF93F2
:101BC000DF93E091BD08F091BE08238121FF1BC087
:101BD0008C01D0E0C0E0F80181918F016091BD08D7
:101BE0007091BE08DB011896ED91FC91199788233E
:101BF00031F01995892B79F3DFEFCFEFECCF8AE045
:101C00001995892B19F08FEF9FEF02C08D2F9C2F14
:101C1000DF91CF911F910F9108952F923F924F9294
:101C20005F926F927F928F929F92AF92BF92CF926C
:101C3000DF92EF92FF920F931F93CF93DF93CDB775
:101C4000DEB72C970FB6F894DEBF0FBECDBF7C0178
:101C50006B018A01FC0117821682838181FFBDC15D
:101C6000CE0101964C01F7019381F60193FD859118
:101C700093FF81916F01882309F4ABC1853239F458
:101C800093FD859193FF81916F01853229F4B7010E
:101C900090E00E944110E7CF512C312C20E02032FF
:101CA000A0F48B3269F030F4803259F0833269F459
:101CB00020612CC08D3239F0803339F4216026C088
:101CC0002260246023C0286021C027FD27C030ED9A
:101CD000380F3A3078F426FF06C0FAE05F9E300DE8
:101CE0001124532E13C08AE0389E300D1124332E58
:101CF00020620CC08E3221F426FD6BC1206406C028
:101D00008C3611F4206802C0883641F4F60193FD48
:101D1000859193FF81916F018111C1CF982F9F7D94
:101D20009554933028F40C5F1F4FFFE3F9830DC0E7
:101D3000833631F0833771F0833509F05BC022C000
:101D4000F801808189830E5F1F4F44244394512CF6
:101D5000540115C03801F2E06F0E711CF801A0802B
:101D6000B18026FF03C0652D70E002C06FEF7FEFEA
:101D7000C5012C870E9436102C0183012C852F77FA
:101D8000222E17C03801F2E06F0E711CF801A080FE
:101D9000B18026FF03C0652D70E002C06FEF7FEFBA
:101DA000C5012C870E9424102C012C852068222E2E
:101DB000830123FC1BC0832D90E048165906B0F424
:101DC000B70180E290E00E9441103A94F4CFF5010F
:101DD00027FC859127FE81915F01B70190E00E9469
:101DE000411031103A94F1E04F1A51084114510456
:101DF00071F7E5C0843611F0893639F5F80127FF0F
:101E000007C060817181828193810C5F1F4F08C080
:101E100060817181072E000C880B990B0E5F1F4F9C
:101E20002F76722E97FF09C09095809570956195D9
:101E30007F4F8F4F9F4F2068722E2AE030E0A40121
:101E40000E947910A82EA81844C0853729F42F7E47
:101E5000B22E2AE030E025C0F22FF97FBF2E8F3658
:101E6000C1F018F4883579F0B4C0803719F088379C
:101E700021F0AFC02F2F2061B22EB4FE0DC08B2DEC
:101E80008460B82E09C024FF0AC09F2F9660B92E27
:101E900006C028E030E005C020E130E002C020E1CB
:101EA00032E0F801B7FE07C06081718182819381C1
:101EB0000C5F1F4F06C06081718180E090E00E5F73
:101EC0001F4FA4010E947910A82EA818FB2DFF77A0
:101ED0007F2E76FE0BC0372D3E7FA51450F474FE86
:101EE0000AC072FC08C0372D3E7E05C0BA2C372DC3
:101EF00003C0BA2C01C0B52C34FF0DC0FE01EA0DA1
:101F0000F11D8081803311F4397E09C032FF06C093
:101F1000B394B39404C0832F867809F0B39433FD4F
:101F200013C030FF06C05A2CB31418F4530C5B18BE
:101F3000B32CB31468F4B70180E290E03C870E94B0
:101F40004110B3943C85F5CFB31410F43B1801C095
:101F5000312C34FF12C0B70180E390E03C870E942F
:101F600041103C8532FF17C031FD03C088E790E087
:101F700002C088E590E0B7010CC0832F867859F045
:101F800031FF02C08BE201C080E237FD8DE2B70174
:101F900090E00E944110A51438F4B70180E390E06E
:101FA0000E9441105A94F7CFAA94F401EA0DF11D52
:101FB0008081B70190E00E944110A110F5CF33203D
:101FC00009F451CEB70180E290E00E9441103A94AA
:101FD000F6CFF7018681978102C08FEF9FEF2C9695
:101FE0000FB6F894DEBF0FBECDBFDF91CF911F912A
:101FF0000F91FF90EF90DF90CF90BF90AF909F90A8
:102000008F907F906F905F904F903F902F900895AA
:102010000F931F93CF93DF93869F8001879F100DAF
:10202000969F100D1124C8010E944B0CEC010097E3
:1020300029F0A80160E070E00E942F10CE01DF912E
:10204000CF911F910F910895FC0105906150704050
:102050000110D8F7809590958E0F9F1F0895DC0191
:1020600001C06D9341505040E0F70895FC0161506C
:10207000704001900110D8F7809590958E0F9F1FAA
:1020800008950F931F93CF93DF93FB01238121FDCD
:1020900003C08FEF9FEF28C022FF16C046815781F3
:1020A000248135814217530744F4A081B1819D01F9
:1020B0002F5F3F4F318320838C93268137812F5FA1
:1020C0003F4F3783268310C0EB01092F182F008460
:1020D000F185E02D1995892BE1F68E819F8101967E
:1020E0009F838E83812F902FDF91CF911F910F912E
:1020F0000895FA01AA27283051F1203181F1E8949E
:102100006F936E7F6E5F7F4F8F4F9F4FAF4FB1E0EA
:102110003ED0B4E03CD0670F781F891F9A1FA11DE5
:10212000680F791F8A1F911DA11D6A0F711D811DE6
:10213000911DA11D20D009F468943F912AE0269FAB
:1021400011243019305D3193DEF6CF010895462F0A
:102150004770405D4193B3E00FD0C9F7F6CF462FEB
:102160004F70405D4A3318F0495D31FD4052419354
:1021700002D0A9F7EACFB4E0A69597958795779511
:102180006795BA95C9F700976105710508959B0198
:10219000AC010A2E06945795479537952795BA9521
:1021A000C9F7620F731F841F951FA01D0895F8942F
:0221B000FFCF5F
:1021B2008304F86F12833A0AD7233C000060400080
:1021C20000C03F30000600060006000600060006BA
:1021D20000060006000600060006000600060006CD
:1021E20000060006000600060006000600060006BD
:1021F20000060006000600060006000600060006AD
:10220200000600060006000600060006000600069C
:10221200000600060006000600060006000600068C
:10222200000600060006000600060006000600067C
:10223200000600060006000600060006000600066C
:10224200000600060006000600060006000600065C
:10225200000600060006000600060006000600064C
:10226200000600060006000600060006000600063C
:10227200000600060006000600060006000600062C
:10228200000600060006000600060006000600061C
:10229200000600060006000600060006000600060C
:1022A20000060006000600060006000600060006FC
:1022B20000060006000600060006000600060006EC
:1022C20000060006000600060006000600060006DC
:1022D20000060006000600060006000600060006CC
:1022E20000060006000600060006000600060006BC
:1022F20000060006000600060006000600060006AC
:10230200000600060006000600060006000600069B
:10231200000600060006000600060006000600068B
:10232200000600060006000600060006000600067B
:10233200000600060006000600060006000600066B
:1023420000060006005200A5005200A5005200A59A
:10235200005200A50037006E0037006E0037006E95
:102362000037006E003400680034006800340068F2
:10237200003400680037006E0037006E0037006ED0
:10238200007B0083004900930049009300490093B9
:102392000049009300410083004100830041008313
:1023A20000410083003E007B003E007B003E007B3C
:1023B200003E007B0037006E0037006E0037006E73
:1023C2000037006E005200A5005200A5005200A581
:1023D200005200A50037006E0037006E0037006E15
:1023E2000037006E00340068003400680034006872
:1023F200003400680037006E0037006E0037006E50
:10240200007B008300490093004900930049009338
:102412000049009300410083004100830041008392
:1024220000410083003E007B003E007B003E007BBB
:10243200003E007B0037006E0037006E0037006EF2
:102442000037006E006E00A5006E00A5006E00A5AC
:10245200006E00A5006800A5006800A5006800A540
:10246200006800A5006E00A5006E00A5006E00A524
:10247200006E00A5006800A5006800A5006800A520
:10248200006800A5006E00A5006E00A5006E00A504
:10249200006E00A5006800A5006800A5006800A500
:1024A200006800A5006E00A5006E00DC006E00DC76
:1024B200006E00DC005200A5005200A5005200A5EB
:1024C200005200A5000C00060006000600030003EF
:1024D20000060006000B000100060006000C0006C4
:1024E2000006000B000100060006000C000C000CA8
:1024F200000B0001000C000C0006000C0006000C92
:102502000006000600120006000C00060006000B82
:10251200000100060006000C000C000C000B00017C
:10252200000C000C000C000600060006000300036D
:1025320000060006000B000100060006000C000663
:102542000006000B000100060006000C000C000C47
:10255200000B0001000C000C0006000C0006000C31
:102562000006000600120006000C00060006000B22
:10257200000100060006000C000C000C000B00011C
:10258200000C000C001800180018001800180018A1
:10259200001800180018001800180018000C000C91
:1025A200000B0001000C0030009302EE010B024B05
:1025B2000293024B020B02EE01B8010000B8010BBC
:1025C2000293024B020B02EE010000EE010B024BE2
:1025D2000293020B02B8010000B801000093004B05
:1025E20002BA0270031003BA0293020B0293024B67
:1025F200020B02EE010000EE010B024B0293020BF2
:1026020002B8010000B80100009302EE010B024B78
:102612000293024B020B02EE01B8010000B8010B5B
:102622000293024B020B02EE010000EE010B024B81
:102632000293020B02B8010000B801000093004BA4
:1026420002BA0270031003BA0293020B0293024B06
:10265200020B02EE010000EE010B024B0293020B91
:1026620002B8010000B80100004A0106012601F784
:10267200000601DC00D000F7004A0106012601F73E
:102682000006014A01B8010000B8019F010C000CCC
:10269200000C000C000C000C000C000C000C000CD8
:1026A200000C000C000C000C000C000C000C000CC8
:1026B200000C000C000C000C000C000C000C000CB8
:1026C200000C000C000C000C000C000C00100010A0
:1026D2000010000C000C000C000C000C000C000C94
:1026E200000C000C000C000C000C000C000C000C88
:1026F200000C000C000C000C000C000C000C000C78
:10270200000C000C000C000C000C0010001000105B
:10271200000C000C000C000C000C000C000C000C57
:10272200000C000C000C000C004D0A4D0A00004D7C
:102732000A00002D084D0A0000400C0000000000B5
:102742000020060000000000002D0800000000200C
:102752000600000000270500000000E0060000B8A7
:102762000700004907E006000020064D0A400CC0A1
:102772000D0000EA0A400C00004D0A00002D082D51
:1027820009B807000000002D080000000020060024
:10279200000000270500000000E0060000B8070066
:1027A200004907E006000020064D0A400CC00D005B
:1027B20000EA0A400C00004D0A00002D082D09B85D
:1027C20007000000000000C108200043414E2077AE
:1027D2006F726B696E670A0D0043414E206572721B
:1027E2006F720A0D00546573740053484F4F540AB8
:1027F2000D00676F616C207369676E616C3A20250A
:10280200640A0D00436F6E74726F6C6C657220699E
:102812006E697469616C697A65640D006D696E3AFE
:102822002025642C206D61783A2025642C20706F5D
:08283200733A2025640D0A0031
:00000001FF
