:100000000C94D5000C94F6000C94F6000C94230389
:100010000C94F6000C94F6000C94F6000C94F60088
:100020000C94F6000C94F6000C94F6000C94F60078
:100030000C94F6000C94F6000C94F6000C94F60068
:100040000C94F6000C94F6000C94F6000C94F60058
:100050000C94F6000C94F6000C94F6000C94F60048
:100060000C94F6000C94F6000C94F6000C94F60038
:100070000C94F6000C94F6000C94F6000C94F60028
:100080000C9484050C94F6000C94F6000C94F60085
:100090000C94F6000C94F6000C94F6000C946A0490
:1000A0000C94F6000C94F6000C94F6000C94F600F8
:1000B0000C94F6000C94F6000C94F6000C94F600E8
:1000C0000C94F6000C94F6000C94F6000C94F600D8
:1000D0000C94F6000C94F6000C94F6000C94F600C8
:1000E0000C94F6008904DB04DB04DB04DB04DB0492
:1000F000DB04DB048904DB04DB04DB04DB04DB045A
:10010000DB04DB048B04DB04DB04DB04DB04DB0447
:10011000DB04DB04DB04DB04DB04DB04DB04DB04E7
:10012000DB04DB048B04DB04DB04DB04DB04DB0427
:10013000DB04DB04DB04DB04DB04DB04DB04DB04C7
:10014000DB04DB04D704DB04DB04DB04DB04DB04BB
:10015000DB04DB04B404DB04DB04DB04DB04DB04CE
:10016000DB04DB04DB04DB04DB04DB04DB04DB0497
:10017000DB04DB04A804DB04DB04DB04DB04DB04BA
:10018000DB04DB04C6040C94A8040C948B040C94CC
:10019000D7040C94DB040C94B4040C9489040C94E0
:1001A00055010C94C6040C944D0111241FBECFEFD1
:1001B000D1E2DEBFCDBF00E00CBF12E0A0E0B2E0B4
:1001C000E8E4F4E100E00BBF02C007900D92A6370F
:1001D000B107D9F722E0A6E7B2E001C01D92AD3821
:1001E000B207E1F70E94F8000C94220A0C94000078
:1001F000CF93DF93CDB7DEB72C970FB6F894DEBF61
:100200000FBECDBF87E690E00E946601EA9AE9E65C
:10021000F0E080818260808380818E7F80830E9475
:1002200050020E945002892B49F489E092E09F938A
:100230008F930E940E070F900F9008C087E192E005
:100240009F938F930E940E070F900F900E944B0375
:100250000E9477010E94E4030E94F1047894CE0189
:1002600001960E94BC02C980DA80EB80FC800D817F
:100270001E812F81388549855A856B857C858091C3
:100280000002909101020E94680390930102809302
:10029000000289810E942205E2CFE0ECF0E090812B
:1002A00095FFFDCF8093C6000895CF93DF93E0ECD8
:1002B000F0E080818823ECF7C6ECD0E0888190E004
:1002C0000E9422078881DF91CF9108959093C50005
:1002D0008093C40088E18093C1008EE08093C200C7
:1002E00065E571E08DE491E00E94C3060895809871
:1002F000ECE7F0E080818064808380818F77808369
:10030000EAE7F0E0808180688083789480E090E084
:100310000895EAE7F0E080818064808380917A022A
:10032000882391F080818064808310927A0283E236
:1003300092E09F938F930E940E0780917800909196
:1003400079000F900F900895809178009091790036
:1003500008951F920F920FB60F9211248F9381E090
:1003600080937A028F910F900FBE0F901F90189577
:1003700084B1876884B9239881E58CBD80E090E0E2
:1003800008958EBD0DB407FEFDCF80E090E0089586
:1003900080E00E94C1018EB508952F9880E090E022
:1003A00008952F9A80E090E008950E94CD0180EC9E
:1003B0000E94C1010E94D1018FE493EC0197F1F7F3
:1003C00000C0000080E090E008950E94B8010E9403
:1003D000D50180E090E00895CF93C82F0E94CD0111
:1003E00083E00E94C1018C2F0E94C1010E94C801BC
:1003F000C82F0E94D1018C2FCF910895CF93DF9306
:10040000D82FC62F0E94CD0182E00E94C1018D2FFE
:100410000E94C1018C2F0E94C1010E94D10180E085
:1004200090E0DF91CF910895CF93883018F4C82FD2
:10043000C06801C0C0E80E94CD018C2F0E94C1019C
:100440000E94D10180E090E0CF910895CF930E9467
:10045000CD0180EA0E94C1010E94C801C82F0E94FC
:10046000D1018C2FCF9108951F93CF93DF93182F35
:10047000D62FC42F0E94CD0185E00E94C101812F9B
:100480000E94C1018D2F0E94C1018C2F0E94C101C9
:100490000E94D10180E090E0DF91CF911F910895FB
:1004A0000E94E5014FEF60E680E60E94340240E0E2
:1004B00060EE8FE00E94340241E061E08BE20E9436
:1004C000340280E090E0089580E30E94EC018FEF19
:1004D0009FEF08950F931F93CF938C0188E292E0D2
:1004E0009F938F930E940E07F8016285738575951F
:1004F0006795759567957595679581E30E94FE01EF
:10050000F80162857385660F771F62957295707F1B
:100510007627607F762782E30E94FE01F8016085DE
:100520006F7085E30E94FE010F900F90F8018085A7
:10053000918518161906A4F420E030E0C0E0F80117
:10054000E20FF31F608186E38C0F0E94FE01CF5FF4
:100550002C2F30E0F80180859185281739077CF32E
:1005600081E00E94140280E090E0CF911F910F91F2
:10057000089581E090E00895AF92BF92CF92DF920C
:10058000EF92FF921F93CF93DF937C0180917B02C8
:100590008130B1F58BE392E09F938F930E940E0719
:1005A00081E60E94EC01A82E82E60E94EC01829571
:1005B00086958770B12CAA0CBB1CAA0CBB1CAA0C7C
:1005C000BB1CA82A85E60E94EC018F70C82ED12C96
:1005D0000F900F901C141D0484F4C0E0D0E010E0D4
:1005E00086E6810F0E94EC01CE0DDF1D88831F5F20
:1005F000C12FD0E0CC15DD059CF310927B0203C027
:10060000AA24AA94BA2CF701D186C086B386A28602
:10061000C701DF91CF911F91FF90EF90DF90CF90B6
:10062000BF90AF90089540E060E08CE20E943402F9
:1006300040E061E08CE20E94340281E080937B0222
:1006400080E090E008951F920F920FB60F92112450
:100650000BB60F922F933F934F935F936F937F93BC
:100660008F939F93AF93BF93EF93FF930E941303D6
:10067000FF91EF91BF91AF919F918F917F916F917A
:100680005F914F913F912F910F900BBE0F900FBE36
:100690000F901F901895E0E8F0E08081826C8083D5
:1006A000E1E8F0E0808188618083808184608083DC
:1006B000259A82EE94E0909387008093860085E8E7
:1006C00094E0909389008093880080E090E0089502
:1006D000CF92DF92EF92FF920F931F93CF93DF930E
:1006E000CDB7DEB72C970FB6F894DEBF0FBECDBFE7
:1006F0009C019C2D8AEF8C0D8F3540F4A901465644
:1007000054404833510510F42F5F3F4F9C599E359C
:1007100038F4C9018A569440C89710F42150310921
:10072000C90186569440CC9720F4309389002093D9
:100730008800C9012C960FB6F894DEBF0FBECDBF5E
:10074000DF91CF911F910F91FF90EF90DF90CF90AD
:100750000895EF92FF920F931F93CF93DF937C0145
:10076000EB018A019B012150310925393105C0F483
:10077000FA0180819181892B99F485E592E00E94AC
:100780002807F7018081918101969183808381E020
:1007900090E0F80191838083CC3DD1054CF40BC0EF
:1007A000CC3DD10544F0F80180819181019719F485
:1007B000F8011182108280E090E0DF91CF911F91CB
:1007C0000F91FF90EF9008950E94FF038AB183601C
:1007D0008AB980E090E00895CF93C82F83E090E03D
:1007E0000E949605FC0180E580831182C28363E04C
:1007F000CF010E94150480E090E0CF9108958CE035
:100800008093B8008FEF8093BB0084E08093BC009E
:1008100008958091BC0081700895ECEBF0E0808138
:1008200080FDFDCF809102020895CF93DF93EC010C
:10083000ECEBF0E0908190FDFDCF60937E0298811B
:1008400090937F0290FD13C0623088F0FE013196D4
:10085000A0E8B2E06250262F30E02E5F3F4FCE017D
:10086000820F931F21912D93E817F907D9F7109262
:100870007C0288EF8093020285EA8093BC00DF91BE
:10088000CF910895ECEBF0E0808180FDFDCF1092D8
:100890007C0288EF8093020285EA8093BC00089571
:1008A000ECEBF0E0208120FDFDCF20917C0220FFC9
:1008B0000DC0662359F02FE732E0A82FB92FF901B8
:1008C00081918D938E2F821B8617D0F380917C02AD
:1008D000817008951F920F920FB60F9211240BB6DC
:1008E0000F922F933F938F939F93AF93BF93EF9369
:1008F000FF93E091B9008E2F90E0FC013897E1352D
:10090000F10508F058C08827EE58FF4F8F4F0C9420
:100910008E0510927D02E0917D0280917E02E817A3
:1009200070F481E08E0F80937D02F0E0E158FD4F7E
:1009300080818093BB0085E88093BC0043C0809198
:100940007C02816080937C0284E98093BC003AC081
:10095000E0917D0281E08E0F80937D028091BB004B
:10096000F0E0E158FD4F808320917D0230E08091DE
:100970007E0290E001972817390724F485EC8093D4
:10098000BC0020C085E88093BC001CC08091BB00E7
:10099000E0917D02F0E0E158FD4F808380917C0280
:1009A000816080937C0284E98093BC000BC085EA5F
:1009B0008093BC0007C08091B9008093020284E05C
:1009C0008093BC00FF91EF91BF91AF919F918F9168
:1009D0003F912F910F900BBE0F900FBE0F901F9065
:1009E0001895CF93DF93E1E0F1E08081806180830F
:1009F00080818D7F8083808188668083E2E0F1E062
:100A0000808180618083C0E1D7E284E60E94EC03AC
:100A10002197D9F7E1E0F1E08081826080838EE563
:100A200092E00E94280780E090E0DF91CF91089546
:100A3000882314F090E00895819590E09195819538
:100A4000910908950E9418058B30910544F0E2E069
:100A5000F1E09081926090830E94EC030895863FBC
:100A60002FEF92074CF4E2E0F1E090819D7F9083BC
:100A700081950E94EC03089580E00E94EC030895A4
:100A8000CF93DF93F89410920701E2E0F1E08081C8
:100A90008F7D80838081877F808387E893E10197C2
:100AA000F1F700C00000A6E0B1E08C9190E0982F33
:100AB0008827208128602083C7E8D3E12197F1F7B8
:100AC00000C000003C91A7E8B3E11197F1F700C026
:100AD000000020812064208320812062208378947C
:100AE000832BDF91CF91089580EA98E2909399004B
:100AF00080939800E0E9F0E08081806480838AE060
:100B000080939100E99A08951F920F920FB60F9269
:100B100011240F900FBE0F901F901895EE0FFF1F1E
:100B2000881F8BBF0790F691E02D1994CF93DF9328
:100B30008230910510F482E090E0E0918502F0911E
:100B4000860220E030E0C0E0D0E0309711F1408133
:100B5000518148175907C0F04817590761F482813D
:100B60009381209719F09B838A832BC090938602F0
:100B70008093850226C02115310519F042175307CD
:100B800018F49A01BE01DF01EF010280F381E02D2C
:100B9000DCCF2115310509F1281B390B2430310533
:100BA00090F412968D919C9113976115710521F027
:100BB000FB019383828304C0909386028093850215
:100BC000FD01329644C0FD01E20FF31F8193919322
:100BD000225031092D933C933AC0209183023091E9
:100BE0008402232B41F420910502309106023093B8
:100BF0008402209383022091030230910402211584
:100C0000310541F42DB73EB74091070250910802DB
:100C1000241B350BE0918302F0918402E217F30765
:100C2000A0F42E1B3F0B2817390778F0AC014E5F5C
:100C30005F4F2417350748F04E0F5F1F5093840213
:100C4000409383028193919302C0E0E0F0E0CF01F2
:100C5000DF91CF9108950F931F93CF93DF93009768
:100C600009F48CC0FC013297138212820091850234
:100C7000109186020115110581F420813181820FC6
:100C8000931F20918302309184022817390779F548
:100C9000F0938402E093830271C0D80140E050E0F9
:100CA000AE17BF0750F412962D913C911397AD01EA
:100CB0002115310509F1D901F3CF9D01DA01338303
:100CC000228360817181860F971F8217930769F4D1
:100CD000EC0128813981260F371F2E5F3F4F31836A
:100CE00020838A819B8193838283452B29F4F0930F
:100CF0008602E093850242C01396FC93EE9312970E
:100D0000ED01499159919E01240F351FE217F30718
:100D100071F480819181840F951F029611969C93A6
:100D20008E938281938113969C938E931297E0E029
:100D3000F0E0D80112968D919C911397009719F0CD
:100D4000F8018C01F6CF8D919C9198012E5F3F4F59
:100D5000820F931F20918302309184022817390754
:100D600069F4309729F4109286021092850202C02D
:100D7000138212821093840200938302DF91CF9139
:100D80001F910F9108950F931F93CF93DF930097B7
:100D900031F46115710519F480E090E03AC08B01DF
:100DA000EC016EE070E081E090E00E945309FC01EC
:100DB000892B91F380E883830115110571F0138766
:100DC000028781E883838091870290918802892B32
:100DD00021F4F0938802E09387022097C9F0D1872D
:100DE000C0878381826083838091890290918A0287
:100DF000892B71F4F0938A02E093890280918B022F
:100E000090918C02892B21F4F0938C02E0938B0259
:100E1000CF01DF91CF911F910F910895CF93DF9371
:100E2000CDB7DEB7AE014A5F5F4FFA0161917191B4
:100E3000AF018091890290918A020E945807DF9148
:100E4000CF9108956091890270918A020C948C0967
:100E50000F931F93CF93DF93E0918902F0918A0261
:100E6000238121FF1BC08C01D0E0C0E0F8018191FB
:100E70008F016091890270918A02DB011896ED91D1
:100E8000FC911997882331F01995892B79F3DFEFBD
:100E9000CFEFECCF8AE01995892B19F08FEF9FEFF8
:100EA00002C08D2F9C2FDF91CF911F910F9108953C
:100EB0002F923F924F925F926F927F928F929F926A
:100EC000AF92BF92CF92DF92EF92FF920F931F9358
:100ED000CF93DF93CDB7DEB72C970FB6F894DEBF74
:100EE0000FBECDBF7C016B018A01FC011782168207
:100EF000838181FFBDC1CE0101964C01F701938131
:100F0000F60193FD859193FF81916F01882309F488
:100F1000ABC1853239F493FD859193FF81916F01C7
:100F2000853229F4B70190E00E948C09E7CF512C5B
:100F3000312C20E02032A0F48B3269F030F4803282
:100F400059F0833269F420612CC08D3239F080333E
:100F500039F4216026C02260246023C0286021C0AB
:100F600027FD27C030ED380F3A3078F426FF06C051
:100F7000FAE05F9E300D1124532E13C08AE0389E94
:100F8000300D1124332E20620CC08E3221F426FD48
:100F90006BC1206406C08C3611F4206802C088360C
:100FA00041F4F60193FD859193FF81916F018111C9
:100FB000C1CF982F9F7D9554933028F40C5F1F4F1D
:100FC000FFE3F9830DC0833631F0833771F0833549
:100FD00009F05BC022C0F801808189830E5F1F4F3A
:100FE00044244394512C540115C03801F2E06F0E93
:100FF000711CF801A080B18026FF03C0652D70E050
:1010000002C06FEF7FEFC5012C870E9481092C0180
:1010100083012C852F77222E17C03801F2E06F0E46
:10102000711CF801A080B18026FF03C0652D70E01F
:1010300002C06FEF7FEFC5012C870E946F092C0162
:101040002C852068222E830123FC1BC0832D90E079
:1010500048165906B0F4B70180E290E00E948C096E
:101060003A94F4CFF50127FC859127FE81915F0129
:10107000B70190E00E948C0931103A94F1E04F1AC8
:1010800051084114510471F7E5C0843611F08936D6
:1010900039F5F80127FF07C0608171818281938152
:1010A0000C5F1F4F08C060817181072E000C880BF8
:1010B000990B0E5F1F4F2F76722E97FF09C09095E8
:1010C0008095709561957F4F8F4F9F4F2068722E4E
:1010D0002AE030E0A4010E94C409A82EA81844C048
:1010E000853729F42F7EB22E2AE030E025C0F22F7A
:1010F000F97FBF2E8F36C1F018F4883579F0B4C06F
:10110000803719F0883721F0AFC02F2F2061B22E21
:10111000B4FE0DC08B2D8460B82E09C024FF0AC018
:101120009F2F9660B92E06C028E030E005C020E170
:1011300030E002C020E132E0F801B7FE07C0608174
:101140007181828193810C5F1F4F06C06081718124
:1011500080E090E00E5F1F4FA4010E94C409A82EFA
:10116000A818FB2DFF777F2E76FE0BC0372D3E7F14
:10117000A51450F474FE0AC072FC08C0372D3E7EE0
:1011800005C0BA2C372D03C0BA2C01C0B52C34FFD2
:101190000DC0FE01EA0DF11D8081803311F4397E0E
:1011A00009C032FF06C0B394B39404C0832F86787D
:1011B00009F0B39433FD13C030FF06C05A2CB314AA
:1011C00018F4530C5B18B32CB31468F4B70180E225
:1011D00090E03C870E948C09B3943C85F5CFB31412
:1011E00010F43B1801C0312C34FF12C0B70180E36A
:1011F00090E03C870E948C093C8532FF17C031FD8E
:1012000003C088E790E002C088E590E0B7010CC019
:10121000832F867859F031FF02C08BE201C080E253
:1012200037FD8DE2B70190E00E948C09A51438F4D7
:10123000B70180E390E00E948C095A94F7CFAA94FA
:10124000F401EA0DF11D8081B70190E00E948C0944
:10125000A110F5CF332009F451CEB70180E290E020
:101260000E948C093A94F6CFF7018681978102C0DB
:101270008FEF9FEF2C960FB6F894DEBF0FBECDBF59
:10128000DF91CF911F910F91FF90EF90DF90CF9062
:10129000BF90AF909F908F907F906F905F904F9096
:1012A0003F902F9008950F931F93CF93DF93869FC6
:1012B0008001879F100D969F100D1124C8010E9478
:1012C0009605EC01009729F0A80160E070E00E940B
:1012D0007A09CE01DF91CF911F910F910895FC0102
:1012E0000590615070400110D8F7809590958E0F51
:1012F0009F1F0895DC0101C06D9341505040E0F7FD
:101300000895FC016150704001900110D8F780955C
:1013100090958E0F9F1F08950F931F93CF93DF9388
:10132000FB01238121FD03C08FEF9FEF28C022FF27
:1013300016C046815781248135814217530744F4F2
:10134000A081B1819D012F5F3F4F318320838C931A
:10135000268137812F5F3F4F3783268310C0EB01F3
:10136000092F182F0084F185E02D1995892BE1F6BE
:101370008E819F8101969F838E83812F902FDF9195
:10138000CF911F910F910895FA01AA27283051F1AA
:10139000203181F1E8946F936E7F6E5F7F4F8F4FA6
:1013A0009F4FAF4FB1E03ED0B4E03CD0670F781F05
:1013B000891F9A1FA11D680F791F8A1F911DA11DEA
:1013C0006A0F711D811D911DA11D20D009F4689423
:1013D0003F912AE0269F11243019305D3193DEF6CB
:1013E000CF010895462F4770405D4193B3E00FD081
:1013F000C9F7F6CF462F4F70405D4A3318F0495D6C
:1014000031FD4052419302D0A9F7EACFB4E0A6954E
:101410009795879577956795BA95C9F70097610570
:10142000710508959B01AC010A2E069457954795C6
:1014300037952795BA95C9F7620F731F841F951FBB
:08144000A01D0895F894FFCFF0
:101448008504F800008D02200043414E20776F721A
:101458006B696E670A0D0043414E206572726F72A8
:101468000A0D00546573740053656E64696E6720D5
:101478006D657373616765200A0D0056616C696458
:10148800206D65737361676520726563656976654C
:1014980064200A0D00474F414C2121210D00436F64
:1014A8006E74726F6C6C657220696E697469616CB8
:0614B800697A65640D0075
:00000001FF
