:100000000C94D5000C94F6000C94F6000C94370375
:100010000C94F6000C94F6000C94F6000C94F60088
:100020000C94F6000C94F6000C94F6000C94F60078
:100030000C94F6000C94F6000C94F6000C94F60068
:100040000C94F6000C94F6000C94F6000C94F60058
:100050000C94F6000C94F6000C94F6000C94F60048
:100060000C94F6000C94F6000C94F6000C94F60038
:100070000C94F6000C94F6000C94F6000C94F60028
:100080000C94F6000C94F6000C94F6000C94F60018
:100090000C94F6000C94F6000C94F6000C940806F0
:1000A0000C94F6000C94F6000C94F6000C94F600F8
:1000B0000C94F6000C94F6000C94F6000C94F600E8
:1000C0000C94F6000C94F6000C94F6000C94F600D8
:1000D0000C94F6000C94F6000C94F6000C94F600C8
:1000E0000C94F600270679067906790679067906D2
:1000F000790679062706790679067906790679065A
:100100007906790629067906790679067906790647
:1001100079067906790679067906790679067906E7
:100120007906790629067906790679067906790627
:1001300079067906790679067906790679067906C7
:1001400079067906750679067906790679067906BB
:1001500079067906520679067906790679067906CE
:100160007906790679067906790679067906790697
:1001700079067906460679067906790679067906BA
:100180007906790664060C9429060C9446060C94AC
:1001900064060C9479010C9471010C9479060C940A
:1001A00052060C9475060C94270611241FBECFEF3F
:1001B000D1E2DEBFCDBF00E00CBF14E0A0E0B2E0B2
:1001C000E8E7F1E200E00BBF02C007900D92A23C0D
:1001D000B107D9F724E0A2ECB4E001C01D92A93F19
:1001E000B207E1F70E94F8000C94BA100C940000DA
:1001F000CF93DF93CDB7DEB72C970FB6F894DEBF61
:100200000FBECDBFF89487E690E00E948A01EA9A7B
:10021000E9E6F0E080818260808380818E7F808348
:100220000E9474020E947402892B49F481E094E0D8
:100230009F938F930E94A60D0F900F9008C08FE0A0
:1002400094E09F938F930E94A60D0F900F900E94B1
:100250005F030E949B010E9482050E948F068BE132
:1002600094E09F938F930E94A60D0E948F0878942C
:100270000F900F900F2EFCE0DF2EF02D0F2EF4E2EA
:10028000EF2EF4E0FF2EF02DCE0101960E94D80251
:10029000FE013196A1EEB4E08D2D01900D928A956C
:1002A000E1F701EE14E0F8012481828593851F9225
:1002B0002F939F938F93FF92EF920E94A60DF801C8
:1002C000828593850F900F900F900F900F900F9055
:1002D0000197D1F68091E5048130B1F60E941D04AA
:1002E000D3CFE0ECF0E0908195FFFDCF8093C60086
:1002F0000895CF93DF93E0ECF0E080818823ECF762
:10030000C6ECD0E0888190E00E94BA0D8881DF9130
:10031000CF9108959093C5008093C40088E18093A5
:10032000C1008EE08093C20069E771E081E791E04F
:100330000E945B0D08958098ECE7F0E08081806476
:10034000808380818F778083EAE7F0E08081806816
:100350008083789480E090E00895EAE7F0E080817F
:10036000806480838091C604882391F080818064BA
:1003700080831092C60486E494E09F938F930E943A
:10038000A60D80917800909179000F900F900895BC
:10039000809178009091790008951F920F920FB686
:1003A0000F9211248F9381E08093C6048F910F9058
:1003B0000FBE0F901F90189584B1876884B9239859
:1003C00081E58CBD80E090E008958EBD0DB407FE00
:1003D000FDCF80E090E0089580E00E94E5018EB5B9
:1003E00008952F9880E090E008952F9A80E090E0A3
:1003F00008950E94F10180EC0E94E5010E94F50140
:100400008FE493EC0197F1F700C0000080E090E0EA
:1004100008950E94DC010E94F90180E090E00895B7
:10042000CF93C82F0E94F10183E00E94E5018C2F39
:100430000E94E5010E94EC01C82F0E94F5018C2F5B
:10044000CF910895CF93DF93D82FC62F0E94F1014B
:1004500082E00E94E5018D2F0E94E5018C2F0E9411
:10046000E5010E94F50180E090E0DF91CF910895D1
:10047000CF93883018F4C82FC06801C0C0E80E942C
:10048000F1018C2F0E94E5010E94F50180E090E0CF
:10049000CF910895CF930E94F10180EA0E94E50177
:1004A0000E94EC01C82F0E94F5018C2FCF91089576
:1004B0001F93CF93DF93182FD62FC42F0E94F101E3
:1004C00085E00E94E501812F0E94E5018D2F0E94A9
:1004D000E5018C2F0E94E5010E94F50180E090E08B
:1004E000DF91CF911F9108950E9409024FEF60E6BE
:1004F00080E60E94580240E060EE8FE00E945802C1
:1005000041E061E08BE20E94580280E090E00895B3
:1005100080E30E9410028FEF9FEF08950F931F93C7
:10052000CF938C01FC0162857385759567957595F0
:1005300067957595679581E30E942202F8016285AF
:100540007385660F771F62957295707F7627607F3F
:10055000762782E30E942202F80160856F7085E3AE
:100560000E942202F8018085918518161906A4F4CC
:1005700020E030E0C0E0F801E20FF31F608186E385
:100580008C0F0E942202CF5F2C2F30E0F801808573
:100590009185281739077CF381E00E94380280E0BA
:1005A00090E0CF911F910F91089581E090E0089520
:1005B000AF92BF92CF92DF92EF92FF921F93CF93B1
:1005C000DF937C018091C704813071F581E60E9440
:1005D0001002A82E82E60E941002829586958770EE
:1005E000B12CAA0CBB1CAA0CBB1CAA0CBB1CA82AB5
:1005F00085E60E9410028F70C82ED12C1C141D0499
:1006000084F4C0E0D0E010E086E6810F0E94100282
:10061000CE0DDF1D88831F5FC12FD0E0CC15DD0517
:100620009CF31092C70403C0AA24AA94BA2CF70121
:10063000D186C086B386A286C701DF91CF911F9174
:10064000FF90EF90DF90CF90BF90AF90089540E083
:1006500060E08CE20E94580240E061E08CE20E947F
:10066000580281E08093C70480E090E008951F92D3
:100670000F920FB60F9211240BB60F922F933F9348
:100680004F935F936F937F938F939F93AF93BF939A
:10069000EF93FF930E942703FF91EF91BF91AF91DA
:1006A0009F918F917F916F915F914F913F912F918A
:1006B0000F900BBE0F900FBE0F901F901895E0E8A3
:1006C000F0E08081826C8083E1E8F0E080818861E5
:1006D0008083808184608083259A82EE94E0909369
:1006E00087008093860085E894E09093890080934A
:1006F000880080E090E00895CF92DF92EF92FF9221
:100700000F931F93CF93DF93CDB7DEB72C970FB620
:10071000F894DEBF0FBECDBF80EF8C0D853548F459
:100720008BEAC89E812D1124869590E082589B4FBC
:1007300012C089E68C0D8935A8F420EF30E0A901BC
:100740004C195109CA0163E070E00E94AD0983E8C9
:1007500094E0861B970B9C012F55344023343105C0
:1007600038F402C083E894E0909389008093880075
:100770002C960FB6F894DEBF0FBECDBFDF91CF91A0
:100780001F910F91FF90EF90DF90CF900895CF923F
:10079000DF92EF92FF920F931F93CF93DF936C0141
:1007A000EB018A017901AB014150510943365105F2
:1007B00060F5F80180819181892B39F58BE494E013
:1007C0000E94C00DF6018081918101969183808302
:1007D00081E090E0F80191838083F701808191812D
:1007E000181619061CF4019791838083F701818103
:1007F0008F9380818F9384E594E09F938F930E94E1
:10080000A60D0F900F900F900F90CC3DD1053CF0AE
:10081000F80180819181019711F41182108280E0AA
:1008200090E0DF91CF911F910F91FF90EF90DF90BB
:10083000CF90089580E090E008952F923F924F92DC
:100840005F926F927F928F929F92AF92BF92CF9260
:10085000DF92EF92FF920F931F93CF93DF93CDB769
:10086000DEB7A0970FB6F894DEBF0FBECDBF1A82D9
:1008700019821C821B8203E010E01E830D83CE01CF
:1008800007960E94D802BB8482E090E09E8F8D8FF5
:100890001C8F0B8F8D818B8BCE0143960E948E0215
:1008A0000E941C0781E0B81609F4CFC08824839405
:1008B000912CA12CB12C412C512C0AC0AF8EB8A286
:1008C0009FEF891A990AADE38A1691040CF07EC055
:1008D000CE0107960E94D8023B841F923F9284E685
:1008E00094E09F938F930E94A60DEF80F884098572
:1008F0001A85232D3C854D855E856F85788989898C
:100900009A890E94670780910002909101023B86BC
:10091000CF80D884E984FA84032D1C852D853E85FB
:100920004F85588969897A890E947C0390930102D6
:10093000809300020F900F900F900F908985813067
:10094000C1F441145104A9F402C0A12CB12C83E7D5
:1009500094E09F938F930E94A60D0E949408BFEF8E
:10096000AB1ABB0A0F900F90812C912C4424439416
:10097000512C0F2EFBE76F2EF4E07F2EF02D212C53
:100980000E94AD01082F192F9F938F937F926F9232
:100990000E94A60D9E012B5F3F4FAE014D5F5F4F42
:1009A000602F712FCE0101960E94C7038D818B8B22
:1009B000AC8ACE0143960E948E020F900F900F904A
:1009C0000F9081E0381609F479CF81C0CE010796E7
:1009D0000E94D8023B841F923F92A4E6B4E0BF93EA
:1009E000AF930E94A60DEF80F88409851A85232D08
:1009F0003C854D855E856F85788989899A890E94B5
:100A0000670780910002909101023B86CF80D884D5
:100A1000E984FA84032D1C852D853E854F855889F0
:100A200069897A890E947C03909301028093000275
:100A3000422C512C0F900F900F900F908985813090
:100A400009F485CFAF8CB8A09BCFCE0107960E944A
:100A5000D8023B841F923F9284E694E09F938F9349
:100A60000E94A60DEF80F88409851A85232D3C8508
:100A70004D855E856F85788989899A890E94670787
:100A800080910002909101023B86CF80D884E98456
:100A9000FA84032D1C852D853E854F8558896989EB
:100AA0007A890E947C0390930102809300020F9048
:100AB0000F900F900F908985813009F446CFA12CBB
:100AC000B12C88248394912C412C512C52CF80E05E
:100AD00090E0A0960FB6F894DEBF0FBECDBFDF91B9
:100AE000CF911F910F91FF90EF90DF90CF90BF902B
:100AF000AF909F908F907F906F905F904F903F90BE
:100B00002F9008950E949D058AB183608AB980E084
:100B100090E00895CF93C82F83E090E00E942E0CC0
:100B2000FC0180E580831182C28363E0CF010E94D3
:100B3000B30580E090E0CF9108958CE08093B800F9
:100B40008FEF8093BB0084E08093BC000895809178
:100B5000BC0081700895ECEBF0E0808180FDFDCF5A
:100B6000809102020895CF93DF93EC01ECEBF0E06B
:100B7000908190FDFDCF6093CA0498819093CB043F
:100B800090FD13C0623088F0FE013196ACECB4E009
:100B90006250262F30E02E5F3F4FCE01820F931F11
:100BA00021912D93E817F907D9F71092C80488EF1F
:100BB0008093020285EA8093BC00DF91CF91089573
:100BC000ECEBF0E0808180FDFDCF1092C80488EF4F
:100BD0008093020285EA8093BC000895ECEBF0E07C
:100BE000208120FDFDCF2091C80420FF0DC0662389
:100BF00059F02BEC34E0A82FB92FF90181918D9396
:100C00008E2F821B8617D0F38091C80481700895BF
:100C10001F920F920FB60F9211240BB60F922F93C3
:100C20003F938F939F93AF93BF93EF93FF93E09185
:100C3000B9008E2F90E0FC013897E135F10508F0FE
:100C400058C08827EE58FF4F8F4F0C94E009109240
:100C5000C904E091C9048091CA04E81770F481E0E6
:100C60008E0F8093C904F0E0E553FB4F80818093A1
:100C7000BB0085E88093BC0043C08091C8048160BC
:100C80008093C80484E98093BC003AC0E091C90411
:100C900081E08E0F8093C9048091BB00F0E0E553A2
:100CA000FB4F80832091C90430E08091CA0490E01A
:100CB00001972817390724F485EC8093BC0020C0E5
:100CC00085E88093BC001CC08091BB00E091C90402
:100CD000F0E0E553FB4F80838091C80481608093EE
:100CE000C80484E98093BC000BC085EA8093BC00F3
:100CF00007C08091B9008093020284E08093BC0019
:100D0000FF91EF91BF91AF919F918F913F912F9163
:100D10000F900BBE0F900FBE0F901F901895E1E043
:100D2000F1E0808180618083808182608083808126
:100D300088668083E2E0F1E08081806180838DE8D5
:100D400094E00E94C00D80E090E00895882314F0A4
:100D500090E00895819590E091958195910908958D
:100D60000E94A6068B30910544F0E2E0F1E090810C
:100D7000926090830E948A050895863F2FEF920724
:100D80004CF4E2E0F1E090819D7F908381950E9498
:100D90008A05089580E00E948A05089518161906AC
:100DA00044F4E2E0F1E09081926090830E948A0531
:100DB000089599234CF4E2E0F1E090819D7F9083C7
:100DC00081950E948A05089580E00E948A05089511
:100DD000CF93DF93F89410920701E2E0F1E0808175
:100DE0008F7D80838081877F808387E893E101976F
:100DF000F1F700C00000A6E0B1E08C9190E0982FE0
:100E00008827208128602083C7E8D3E12197F1F764
:100E100000C000003C91A7E8B3E11197F1F700C0D2
:100E20000000208120642083208120622083789428
:100E3000832BDF91CF910895CF93DF93E2E0F1E030
:100E400080818D7F8083C0E1D7E284E60E948A059D
:100E50002197D9F70E94E806919581959109909381
:100E6000DA048093D904E2E0F1E08081826080833B
:100E7000C0E1D7E284E60E948A052197D9F70E9453
:100E8000E8069195819591099093DC048093DB04A9
:100E90009093D8048093D7049F938F939F938F93BD
:100EA0008091DA048F938091D9048F9385EA94E03E
:100EB0009F938F930E94A60D8DB79EB708960FB68D
:100EC000F8949EBF0FBE8DBFDF91CF9108954F92D2
:100ED0005F926F927F928F929F92AF92BF92CF92CA
:100EE000DF92EF92FF920F931F93CF93DF93CDB7D3
:100EF000DEB72C970FB6F894DEBF0FBECDBFE982E8
:100F0000FA820B831C832D833E834F835887698726
:100F10007A878B879C87012F10E06091D7047091AE
:100F2000D804072E000C880B990B0E94350B4B013F
:100F30005C016091DB047091DC04072E000C880BCF
:100F4000990B0E94350B6B017C018091D904909123
:100F5000DA04BC01990F880B990B0E94350B9B0199
:100F6000AC01C701B6010E941E0A9B01AC01C5017C
:100F7000B4010E948B0A20E030E048EC52E40E9469
:100F8000C10B0E94FD0A061B170B62F48091D3046B
:100F90009091D404181619062CF41092D4041092CF
:100FA000D3040DC01016110654F48091D30490910F
:100FB000D404992324F41092D4041092D304E09022
:100FC000D304F090D404E00EF11EF092D404E09229
:100FD000D3048091D5049091D604B801681B790B95
:100FE000072E000C880B990B0E94350B2EEC3CEC65
:100FF0004CEC5DE30E94C10B4B015C011093D604E5
:101000000093D504B801110F880B990B0E94350B82
:1010100020E030E040EC5FE30E94C10B2B013C017B
:10102000B701FF0C880B990B0E94350B20E030E0D4
:1010300040E650E40E94C10B2AE037ED43E25CE356
:101040000E94C10B9B01AC01C301B2010E941F0AA7
:10105000A50194010E941F0A0E94FD0ACB010E9473
:10106000CE060E94E8069195819591099093D80447
:101070008093D7042091DB043091DC0428173907D2
:101080002CF43093D8042093D7040BC02091D904BA
:101090003091DA048217930724F43093D804209314
:1010A000D7048091CF049091D00401969093D004FE
:1010B0008093CF048D818130A9F481E090E09093FA
:1010C000D2048093D1048091CF049091D0048436CF
:1010D000910544F01092D0041092CF041092D204E3
:1010E0001092D10483EC99E00197F1F700C0000061
:1010F0002C960FB6F894DEBF0FBECDBFDF91CF9117
:101100001F910F91FF90EF90DF90CF90BF90AF9025
:101110009F908F907F906F905F904F900895269A48
:101120002E9A80E090E008952E982FED82E292E0D2
:10113000215080409040E1F700C000002E9A80E0EE
:1011400090E008956B9AE0E9F0E08081806480830C
:1011500080818C778083E1E9F0E080818860808302
:1011600080818F7E80838081816080838081897F80
:1011700080830895009731F4E1E9F0E080818E7F6B
:10118000808308959C01220F331F40E050E060E00F
:1011900074E284EF90E00E94C1092150310930933C
:1011A000990020939800E1E9F0E0808181608083DC
:1011B00008958F929F92AF92BF92CF92DF92EF925B
:1011C000FF920F931F93CF93DF938130910521F00E
:1011D000029709F458C0B0C08CE990E09093DE0407
:1011E0008093DD0400E010E00F2EFAEFDF2EF02DEB
:1011F000E12CF12CC801880F991FFC01ED53FD4F24
:1012000020813181D29EE001D39ED00D1124FC01BA
:10121000E15AFC4F808191810E94BA081C161D067C
:10122000FCF42E2D3F2D89EF90E00197F1F700C0DF
:1012300000008091DF049091E0040196803EEEE290
:101240009E0729F09093E0048093DF0404C0E092AD
:10125000DF04F092E0042F5F3F4F2C173D0719F792
:101260008091DD049091DE049C012150310920170A
:10127000310711F40E2D1F2D0F5F1F4F081719078F
:101280000CF4B8CF59C080E690E09093DE048093D0
:10129000DD040F2EF3E0EF2EF2E0FF2EF02D03E63B
:1012A00012E0C0E0D0E00F2EF4EFCF2EDD24D39477
:1012B000F02D812C912CF701819191917F018C9DD2
:1012C00050018D9DB00C9C9DB00C1124F8018191B2
:1012D00091918F010E94BA081A141B0404F5482D3D
:1012E000592D89EF90E00197F1F700C0000020919F
:1012F000DF043091E0042F5F3F4F203797E139073B
:1013000029F03093E0042093DF0404C08092DF04CE
:101310009092E0044F5F5F4F4A155B0511F7882DEF
:10132000992D0E94BA0821968091DD049091DE04E7
:10133000C817D9070CF4BFCF80E090E00E94BA082C
:10134000DF91CF911F910F91FF90EF90DF90CF90A1
:10135000BF90AF909F908F90089597FB072E16F443
:10136000009407D077FD09D00E94E80907FC05D05A
:101370003EF4909581959F4F0895709561957F4FAC
:101380000895052E97FB1EF400940E94D80957FD7E
:1013900007D00E94FC0907FC03D04EF40C94D80936
:1013A00050954095309521953F4F4F4F5F4F089591
:1013B00090958095709561957F4F8F4F9F4F0895C1
:1013C000EE0FFF1F881F8BBF0790F691E02D199439
:1013D000AA1BBB1B51E107C0AA1FBB1FA617B7075B
:1013E00010F0A61BB70B881F991F5A95A9F7809577
:1013F0009095BC01CD010895A1E21A2EAA1BBB1B3A
:10140000FD010DC0AA1FBB1FEE1FFF1FA217B307D0
:10141000E407F50720F0A21BB30BE40BF50B661FE6
:10142000771F881F991F1A9469F7609570958095AA
:1014300090959B01AC01BD01CF0108955058BB2789
:10144000AA270E94360A0C94870B0E94790B38F069
:101450000E94800B20F039F49F3F19F426F40C947D
:10146000760B0EF4E095E7FB0C94700BE92F0E94CD
:10147000980B58F3BA17620773078407950720F093
:1014800079F4A6F50C94BA0B0EF4E0950B2EBA2F56
:10149000A02D0B01B90190010C01CA01A00111247A
:1014A000FF27591B99F0593F50F4503E68F11A1626
:1014B000F040A22F232F342F4427585FF3CF4695B7
:1014C00037952795A795F0405395C9F77EF41F16D9
:1014D000BA0B620B730B840BBAF09150A1F0FF0FA3
:1014E000BB1F661F771F881FC2F70EC0BA0F621F8F
:1014F000731F841F48F4879577956795B795F7957F
:101500009E3F08F0B0CF9395880F08F09927EE0F13
:101510009795879508950E949F0A0C94870B0E94C7
:10152000800B58F00E94790B40F029F45F3F29F0BE
:101530000C94700B51110C94BB0B0C94760B0E9405
:10154000980B68F39923B1F3552391F3951B550B31
:10155000BB27AA2762177307840738F09F5F5F4F86
:10156000220F331F441FAA1FA9F335D00E2E3AF0C5
:10157000E0E832D091505040E695001CCAF72BD0DD
:10158000FE2F29D0660F771F881FBB1F261737072E
:101590004807AB07B0E809F0BB0B802DBF01FF2760
:1015A00093585F4F3AF09E3F510578F00C94700BC2
:1015B0000C94BB0B5F3FE4F3983ED4F3869577958C
:1015C0006795B795F7959F5FC9F7880F911D969519
:1015D000879597F90895E1E0660F771F881FBB1F75
:1015E000621773078407BA0720F0621B730B840B22
:1015F000BA0BEE1F88F7E09508950E94040B6894DB
:10160000B1110C94BB0B08950E94A00B88F09F575A
:1016100098F0B92F9927B751B0F0E1F0660F771F16
:10162000881F991F1AF0BA95C9F714C0B13091F00C
:101630000E94BA0BB1E008950C94BA0B672F782F73
:101640008827B85F39F0B93FCCF3869577956795D1
:10165000B395D9F73EF490958095709561957F4F3D
:101660008F4F9F4F0895E89409C097FB3EF49095E3
:101670008095709561957F4F8F4F9F4F9923A9F06B
:10168000F92F96E9BB279395F695879577956795FA
:10169000B795F111F8CFFAF4BB0F11F460FF1BC03E
:1016A0006F5F7F4F8F4F9F4F16C0882311F096E9D1
:1016B00011C0772321F09EE8872F762F05C066237F
:1016C00071F096E8862F70E060E02AF09A95660F38
:1016D000771F881FDAF7880F9695879597F90895F1
:1016E00097F99F6780E870E060E008959FEF80ECD5
:1016F000089500240A941616170618060906089578
:1017000000240A9412161306140605060895092EDD
:101710000394000C11F4882352F0BB0F40F4BF2B4C
:1017200011F460FF04C06F5F7F4F8F4F9F4F08958C
:1017300057FD9058440F551F59F05F3F71F0479582
:10174000880F97FB991F61F09F3F79F08795089567
:10175000121613061406551FF2CF4695F1DF08C086
:10176000161617061806991FF1CF869571056105A3
:1017700008940895E894BB2766277727CB0197F94B
:1017800008950E94D40B0C94870B0E94790B38F0BB
:101790000E94800B20F0952311F00C94700B0C9498
:1017A000760B11240C94BB0B0E94980B70F3959F41
:1017B000C1F3950F50E0551F629FF001729FBB2748
:1017C000F00DB11D639FAA27F00DB11DAA1F649FE4
:1017D0006627B00DA11D661F829F2227B00DA11D97
:1017E000621F739FB00DA11D621F839FA00D611D1D
:1017F000221F749F3327A00D611D231F849F600D3E
:10180000211D822F762F6A2F11249F5750409AF066
:10181000F1F088234AF0EE0FFF1FBB1F661F771FF2
:10182000881F91505040A9F79E3F510580F00C94BD
:10183000700B0C94BB0B5F3FE4F3983ED4F386959A
:1018400077956795B795F795E7959F5FC1F7FE2B5D
:10185000880F911D9695879597F90895CF93DF93FB
:101860008230910510F482E090E0E091F104F09173
:10187000F20420E030E0C0E0D0E0309711F1408188
:10188000518148175907C0F04817590761F4828100
:101890009381209719F09B838A832BC09093F20445
:1018A0008093F10426C02115310519F04217530722
:1018B00018F49A01BE01DF01EF010280F381E02DEF
:1018C000DCCF2115310509F1281B390B24303105F6
:1018D00090F412968D919C9113976115710521F0EA
:1018E000FB019383828304C09093F2048093F104FC
:1018F000FD01329644C0FD01E20FF31F81939193E5
:10190000225031092D933C933AC02091EF0430913D
:10191000F004232B41F42091FD033091FE0330931A
:10192000F0042093EF042091FB033091FC03211578
:10193000310541F42DB73EB74091FF0350910004AB
:10194000241B350BE091EF04F091F004E217F3074C
:10195000A0F42E1B3F0B2817390778F0AC014E5F1F
:101960005F4F2417350748F04E0F5F1F5093F00468
:101970004093EF048193919302C0E0E0F0E0CF0147
:10198000DF91CF9108950F931F93CF93DF9300972B
:1019900009F48CC0FC013297138212820091F10489
:1019A0001091F2040115110581F420813181820F1B
:1019B000931F2091EF043091F0042817390779F52F
:1019C000F093F004E093EF0471C0D80140E050E0E0
:1019D000AE17BF0750F412962D913C911397AD01AD
:1019E0002115310509F1D901F3CF9D01DA013383C6
:1019F000228360817181860F971F8217930769F494
:101A0000EC0128813981260F371F2E5F3F4F31832C
:101A100020838A819B8193838283452B29F4F093D1
:101A2000F204E093F10442C01396FC93EE931297F4
:101A3000ED01499159919E01240F351FE217F307DB
:101A400071F480819181840F951F029611969C9369
:101A50008E938281938113969C938E931297E0E0EC
:101A6000F0E0D80112968D919C911397009719F090
:101A7000F8018C01F6CF8D919C9198012E5F3F4F1C
:101A8000820F931F2091EF043091F004281739073B
:101A900069F4309729F41092F2041092F10402C014
:101AA000138212821093F0040093EF04DF91CF9120
:101AB0001F910F9108950F931F93CF93DF9300977A
:101AC00031F46115710519F480E090E03AC08B01A2
:101AD000EC016EE070E081E090E00E94EB0FFC0111
:101AE000892B91F380E883830115110571F0138729
:101AF000028781E883838091F3049091F404892B19
:101B000021F4F093F404E093F3042097C9F0D18713
:101B1000C0878381826083838091F5049091F6046D
:101B2000892B71F4F093F604E093F5048091F704A7
:101B30009091F804892B21F4F093F804E093F704D2
:101B4000CF01DF91CF911F910F910895CF93DF9334
:101B5000CDB7DEB7AE014A5F5F4FFA016191719177
:101B6000AF018091F5049091F6040E94F00DDF9191
:101B7000CF9108956091F5047091F6040C942410AF
:101B80000F931F93CF93DF93E091F504F091F60448
:101B9000238121FF1BC08C01D0E0C0E0F8018191BE
:101BA0008F016091F5047091F604DB011896ED91B8
:101BB000FC911997882331F01995892B79F3DFEF80
:101BC000CFEFECCF8AE01995892B19F08FEF9FEFBB
:101BD00002C08D2F9C2FDF91CF911F910F910895FF
:101BE0002F923F924F925F926F927F928F929F922D
:101BF000AF92BF92CF92DF92EF92FF920F931F931B
:101C0000CF93DF93CDB7DEB72C970FB6F894DEBF36
:101C10000FBECDBF7C016B018A01FC0117821682C9
:101C2000838181FFBDC1CE0101964C01F7019381F3
:101C3000F60193FD859193FF81916F01882309F44B
:101C4000ABC1853239F493FD859193FF81916F018A
:101C5000853229F4B70190E00E942410E7CF512C7F
:101C6000312C20E02032A0F48B3269F030F4803245
:101C700059F0833269F420612CC08D3239F0803301
:101C800039F4216026C02260246023C0286021C06E
:101C900027FD27C030ED380F3A3078F426FF06C014
:101CA000FAE05F9E300D1124532E13C08AE0389E57
:101CB000300D1124332E20620CC08E3221F426FD0B
:101CC0006BC1206406C08C3611F4206802C08836CF
:101CD00041F4F60193FD859193FF81916F0181118C
:101CE000C1CF982F9F7D9554933028F40C5F1F4FE0
:101CF000FFE3F9830DC0833631F0833771F083350C
:101D000009F05BC022C0F801808189830E5F1F4FFC
:101D100044244394512C540115C03801F2E06F0E55
:101D2000711CF801A080B18026FF03C0652D70E012
:101D300002C06FEF7FEFC5012C870E9419102C01A4
:101D400083012C852F77222E17C03801F2E06F0E09
:101D5000711CF801A080B18026FF03C0652D70E0E2
:101D600002C06FEF7FEFC5012C870E9407102C0186
:101D70002C852068222E830123FC1BC0832D90E03C
:101D800048165906B0F4B70180E290E00E94241092
:101D90003A94F4CFF50127FC859127FE81915F01EC
:101DA000B70190E00E94241031103A94F1E04F1AEC
:101DB00051084114510471F7E5C0843611F0893699
:101DC00039F5F80127FF07C0608171818281938115
:101DD0000C5F1F4F08C060817181072E000C880BBB
:101DE000990B0E5F1F4F2F76722E97FF09C09095AB
:101DF0008095709561957F4F8F4F9F4F2068722E11
:101E00002AE030E0A4010E945C10A82EA81844C06B
:101E1000853729F42F7EB22E2AE030E025C0F22F3C
:101E2000F97FBF2E8F36C1F018F4883579F0B4C031
:101E3000803719F0883721F0AFC02F2F2061B22EE4
:101E4000B4FE0DC08B2D8460B82E09C024FF0AC0DB
:101E50009F2F9660B92E06C028E030E005C020E133
:101E600030E002C020E132E0F801B7FE07C0608137
:101E70007181828193810C5F1F4F06C060817181E7
:101E800080E090E00E5F1F4FA4010E945C10A82E1E
:101E9000A818FB2DFF777F2E76FE0BC0372D3E7FD7
:101EA000A51450F474FE0AC072FC08C0372D3E7EA3
:101EB00005C0BA2C372D03C0BA2C01C0B52C34FF95
:101EC0000DC0FE01EA0DF11D8081803311F4397ED1
:101ED00009C032FF06C0B394B39404C0832F867840
:101EE00009F0B39433FD13C030FF06C05A2CB3146D
:101EF00018F4530C5B18B32CB31468F4B70180E2E8
:101F000090E03C870E942410B3943C85F5CFB31435
:101F100010F43B1801C0312C34FF12C0B70180E32C
:101F200090E03C870E9424103C8532FF17C031FDB1
:101F300003C088E790E002C088E590E0B7010CC0DC
:101F4000832F867859F031FF02C08BE201C080E216
:101F500037FD8DE2B70190E00E942410A51438F4FB
:101F6000B70180E390E00E9424105A94F7CFAA941E
:101F7000F401EA0DF11D8081B70190E00E94241068
:101F8000A110F5CF332009F451CEB70180E290E0E3
:101F90000E9424103A94F6CFF7018681978102C0FF
:101FA0008FEF9FEF2C960FB6F894DEBF0FBECDBF1C
:101FB000DF91CF911F910F91FF90EF90DF90CF9025
:101FC000BF90AF909F908F907F906F905F904F9059
:101FD0003F902F9008950F931F93CF93DF93869F89
:101FE0008001879F100D969F100D1124C8010E943B
:101FF0002E0CEC01009729F0A80160E070E00E942F
:102000001210CE01DF91CF911F910F910895FC0125
:102010000590615070400110D8F7809590958E0F13
:102020009F1F0895DC0101C06D9341505040E0F7BF
:102030000895FC016150704001900110D8F780951F
:1020400090958E0F9F1F08950F931F93CF93DF934B
:10205000FB01238121FD03C08FEF9FEF28C022FFEA
:1020600016C046815781248135814217530744F4B5
:10207000A081B1819D012F5F3F4F318320838C93DD
:10208000268137812F5F3F4F3783268310C0EB01B6
:10209000092F182F0084F185E02D1995892BE1F681
:1020A0008E819F8101969F838E83812F902FDF9158
:1020B000CF911F910F910895FA01AA27283051F16D
:1020C000203181F1E8946F936E7F6E5F7F4F8F4F69
:1020D0009F4FAF4FB1E03ED0B4E03CD0670F781FC8
:1020E000891F9A1FA11D680F791F8A1F911DA11DAD
:1020F0006A0F711D811D911DA11D20D009F46894E6
:102100003F912AE0269F11243019305D3193DEF68D
:10211000CF010895462F4770405D4193B3E00FD043
:10212000C9F7F6CF462F4F70405D4A3318F0495D2E
:1021300031FD4052419302D0A9F7EACFB4E0A69511
:102140009795879577956795BA95C9F70097610533
:10215000710508959B01AC010A2E06945795479589
:1021600037952795BA95C9F7620F731F841F951F7E
:08217000A01D0895F894FFCFB3
:102178008304F80C000600060006000300030006AE
:102188000006000B000100060006000C0006000611
:10219800000B000100060006000C000C000C000BF0
:1021A8000001000C000C0006000C0006000C0006E4
:1021B800000600120006000C00060006000B0001D5
:1021C80000060006000C000C000C000B0001000CBF
:1021D800000C009302EE010B024B0293024B020B20
:1021E80002EE01B8010000B8010B0293024B020B8A
:1021F80002EE010000EE010B024B0293020B02B843
:10220800010000B801000000004B02BA0270031080
:1022180003BA0293020B0293024B020B02EE010077
:1022280000EE010B024B0293020B02B8010000B84A
:102238000100000C000C000C000C000C000C000C41
:10224800000C000C000C000C000C000C000C000C26
:10225800000C000C000C000C000C000C000C000C16
:10226800000C000C000C000C000C000C000C000C06
:10227800000C001000100010000C000C000C000CEA
:10228800000C000C000C000C000C000C000C000CE6
:10229800000C000C000C000C000C000C000C000CD6
:1022A800000C000C000C000C000C000C000C000CC6
:1022B800001000100010000C000C000C000C000CAA
:1022C800000C000C000C000C000C000C000C004D65
:1022D8000A4D0A00004D0A00002D084D0A00004072
:1022E8000C00000000000020060000000000002D87
:1022F800080000000020060000000027050000007C
:1023080000E0060000B80700004907E006000020CA
:10231800064D0A400CC00D0000EA0A400C00004DB2
:102328000A00002D082D09B807000000002D08003C
:10233800000000200600000000270500000000E063
:10234800060000B80700004907E006000020064D17
:102358000A400CC00D0000EA0A400C00004D0A00BB
:10236800002D082D09B807000000000000F904201E
:102378000043414E20776F726B696E670A0D004308
:10238800414E206572726F720A0D00726573657432
:10239800730A0D006D646174612069643A202564D4
:1023A800202020206D6461746120646174613A208A
:1023B8002564200A0D005465737400474F414C2171
:1023C80021210D007265616C6C697665733A202570
:1023D800640D0A0072756E2067616D653A20256488
:1023E8000A0D0053484F4F540A0D00676F616C2067
:1023F8007369676E616C3A2025640A0D00436F6E3D
:1024080074726F6C6C657220696E697469616C694D
:102418007A65640D006D696E3A2025642C206D6123
:10242800783A2025642C20706F733A2025640D0AB1
:022438000000A2
:00000001FF
