:100000000C94D5000C94F6000C94F6000C947A0332
:100010000C94F6000C94F6000C94F6000C94F60088
:100020000C94F6000C94F6000C94F6000C94F60078
:100030000C94F6000C94F6000C94F6000C94F60068
:100040000C94F6000C94F6000C94F6000C94F60058
:100050000C94F6000C94F6000C94F6000C94F60048
:100060000C94F6000C94F6000C94F6000C94F60038
:100070000C94F6000C94F6000C94F6000C94F60028
:100080000C94F6000C94F6000C94F6000C94F60018
:100090000C94F6000C94F6000C94F6000C94AC044E
:1000A0000C94F6000C94F6000C94F6000C94F600F8
:1000B0000C94F6000C94F6000C94F6000C94A60731
:1000C0000C94F6000C94F6000C94F6000C94F600D8
:1000D0000C94F6000C94F6000C94F6000C94F600C8
:1000E0000C94F600CB041D051D051D051D051D0501
:1000F0001D051D05CB041D051D051D051D051D0543
:100100001D051D05CD041D051D051D051D051D0530
:100110001D051D051D051D051D051D051D051D05CF
:100120001D051D05CD041D051D051D051D051D0510
:100130001D051D051D051D051D051D051D051D05AF
:100140001D051D0519051D051D051D051D051D05A3
:100150001D051D05F6041D051D051D051D051D05B7
:100160001D051D051D051D051D051D051D051D057F
:100170001D051D05EA041D051D051D051D051D05A3
:100180001D051D0508050C9408050C94CD040C9460
:10019000F6040C94CB040C94EA040C941D050C9406
:1001A00019050C9492010C948A0111241FBECFEF03
:1001B000D1E2DEBFCDBF00E00CBF18E0A0E0B2E0AE
:1001C000EEEFFFE100E00BBF02C007900D92A236F8
:1001D000B107D9F728E0A2E6B8E001C01D92A13A24
:1001E000B207E1F70E94F8000C94FD0F0C94000098
:1001F000CF93DF93CDB7DEB768970FB6F894DEBF25
:100200000FBECDBFF89487E690E00E94A3010E9444
:100210008D022FEF89EF90E0215080409040E1F770
:1002200000C000000E948D02892B49F489E098E00B
:100230009F938F930E94E90C0F900F9008C087E165
:1002400098E09F938F930E94E90C0F900F900E946B
:10025000BE032FEF89EF90E0215080409040E1F7FE
:1002600000C000000E94B4012FEF89EF90E0215000
:1002700080409040E1F700C000000E9426042FEF6C
:1002800089EF90E0215080409040E1F700C00000ED
:100290000E9433052FEF89EF90E02150804090407D
:1002A000E1F700C000000E94E4050E94CF070E9411
:1002B000E2070E944D05789483E090E09C878B874D
:1002C00082E090E09A878987898384E08A830F2E71
:1002D000FCE5EF2EF8E0FF2EF02D03E218E0CE0152
:1002E00001960E94B702CE010D960E947103888D7F
:1002F0008F938F898F93FF92EF920E94E90C1F9347
:100300000F930E94E90C0F900F900F900F900F9099
:100310000F90E5CFE0ECF0E0908195FFFDCF80936A
:10032000C6000895CF93DF93E0ECF0E0808188234E
:10033000ECF7C6ECD0E0888190E00E94FD0C88814B
:10034000DF91CF9108959093C5008093C40088E118
:100350008093C1008EE08093C20062E971E08AE878
:1003600091E00E949E0C08958098ECE7F0E0808177
:100370008064808380818F778083EAE7F0E08081EA
:1003800080688083789480E090E00895EAE7F0E068
:1003900080818064808380916608882391F08081C9
:1003A000806480831092660888E298E09F938F9320
:1003B0000E94E90C80917800909179000F900F9045
:1003C0000895809178009091790008951F920F927E
:1003D0000FB60F9211248F9381E0809366088F915E
:1003E0000F900FBE0F901F90189584B1876884B945
:1003F000239881E58CBD80E090E008958EBD0DB41A
:1004000007FEFDCF80E090E0089580E00E94FE01AD
:100410008EB508952F9880E090E008952F9A80E09F
:1004200090E008950E940A0280EC0E94FE010E9462
:100430000E028FE493EC0197F1F700C0000080E01A
:1004400090E008950E94F5010E94120280E090E081
:100450000895CF93C82F0E940A0283E00E94FE01F4
:100460008C2F0E94FE010E940502C82F0E940E02DE
:100470008C2FCF910895CF93DF93D82FC62F0E9452
:100480000A0282E00E94FE018D2F0E94FE018C2F45
:100490000E94FE010E940E0280E090E0DF91CF9169
:1004A0000895CF93883018F4C82FC06801C0C0E801
:1004B0000E940A028C2F0E94FE010E940E0280E020
:1004C00090E0CF910895CF930E940A0280EA0E94A3
:1004D000FE010E940502C82F0E940E028C2FCF91B0
:1004E00008951F93CF93DF93182FD62FC42F0E9408
:1004F0000A0285E00E94FE01812F0E94FE018D2FDD
:100500000E94FE018C2F0E94FE010E940E0280E0DC
:1005100090E0DF91CF911F91089541E061E08BE27F
:100520000E9471020E9422024FEF60E680E60E9464
:10053000710240E460EE8FE00E94710260E680E6A6
:100540000E943B0241E061E08BE20E947102E9E718
:10055000F8E088E090E093878287808380E090E0F5
:10056000089580E30E9429028FEF9FEF08950F9373
:100570001F93CF938C01FC016285738575956795F8
:10058000759567957595679581E30E943B02F80123
:1005900062857385660F771F62957295707F7627E7
:1005A000607F762782E30E943B02F80160856F70CE
:1005B00085E30E943B02F801808591851816190693
:1005C000A4F420E030E0C0E0F801E20FF31F608106
:1005D00086E38C0F0E943B02CF5F2C2F30E0F801A6
:1005E00080859185281739077CF381E00E945102AC
:1005F00089EF90E00197F1F700C00000E7E8F3E130
:100600003197F1F700C0000080E090E0CF911F919A
:100610000F91089581E090E00895AF92BF92CF923C
:10062000DF92EF92FF921F93CF93DF937C01809133
:100630006708813099F581E60E942902A82E82E69A
:100640000E942902829586958770B12CAA0CBB1C4A
:10065000AA0CBB1CAA0CBB1CA82A85E60E94290276
:100660008F70C82ED12C1C141D0484F4C0E0D0E07F
:1006700010E086E6810F0E942902CE0DDF1D8883DF
:100680001F5FC12FD0E0CC15DD059CF340E063E097
:100690008CE20E9471021092670803C0AA24AA94F7
:1006A000BA2CF701D186C086B386A286C701DF9136
:1006B000CF911F91FF90EF90DF90CF90BF90AF90C0
:1006C000089540E060E08CE20E94710240E061E049
:1006D0008CE20E94710281E08093670880E090E0E4
:1006E00008952CE0E9E7F8E0DC0101900D922A95ED
:1006F000E1F708951F920F920FB60F9211240BB6D7
:100700000F922F933F934F935F936F937F938F93AA
:100710009F93AF93BF93EF93FF93CF93DF93CDB7A7
:10072000DEB72C97DEBFCDBF0E946103CE010196DC
:100730000E940D038CE0FE013196A9E7B8E001901C
:100740000D928A95E1F72C960FB6F894DEBF0FBE96
:10075000CDBFDF91CF91FF91EF91BF91AF919F916D
:100760008F917F916F915F914F913F912F910F905A
:100770000BBE0F900FBE0F901F901895E0E8F0E0B1
:100780008081826C8083E1E8F0E0808188618083F1
:10079000808184608083259A82EE94E09093870024
:1007A0008093860085E894E0909389008093880088
:1007B00080E090E00895CF92DF92EF92FF920F9346
:1007C0001F93CF93DF93CDB7DEB72C970FB6F89476
:1007D000DEBF0FBECDBF80EF8C0D853548F48BEAB0
:1007E000C89E812D1124869590E082589B4F12C09F
:1007F00089E68C0D8935A8F420EF30E0A9014C1969
:100800005109CA0163E070E00E94F00883E894E0B7
:10081000861B970B9C012F5534402334310538F447
:1008200002C083E894E090938900809388002C961E
:100830000FB6F894DEBF0FBECDBFDF91CF911F91F1
:100840000F91FF90EF90DF90CF9008950E944104A8
:100850008AB183608AB980E090E00895CF93C82F71
:1008600083E090E00E94710BFC0180E5808311829F
:10087000C28363E0CF010E94570480E090E0CF91F3
:1008800008958CE08093B8008FEF8093BB0084E0E4
:100890008093BC0008958091BC0081700895ECEBBA
:1008A000F0E0808180FDFDCF809100020895CF931C
:1008B000DF93EC01ECEBF0E0908190FDFDCF6093D5
:1008C0006A08988190936B0890FD13C0623088F09D
:1008D000FE013196ACE6B8E06250262F30E02E5F84
:1008E0003F4FCE01820F931F21912D93E817F907F7
:1008F000D9F71092680888EF8093000285EA809308
:10090000BC00DF91CF910895ECEBF0E0808180FD99
:10091000FDCF1092680888EF8093000285EA8093EB
:10092000BC000895ECEBF0E0208120FDFDCF20918C
:10093000680820FF0DC0662359F02BE638E0A82F89
:10094000B92FF90181918D938E2F821B8617D0F3D9
:1009500080916808817008951F920F920FB60F92D0
:1009600011240BB60F922F933F938F939F93AF93C6
:10097000BF93EF93FF93E091B9008E2F90E0FC01BD
:100980003897E135F10508F058C08827EE58FF4F39
:100990008F4F0C94230910926908E09169088091A7
:1009A0006A08E81770F481E08E0F80936908F0E020
:1009B000E559F74F80818093BB0085E88093BC00A8
:1009C00043C08091680881608093680884E98093BF
:1009D000BC003AC0E091690881E08E0F80936908FD
:1009E0008091BB00F0E0E559F74F808320916908C2
:1009F00030E080916A0890E001972817390724F4C5
:100A000085EC8093BC0020C085E88093BC001CC0AE
:100A10008091BB00E0916908F0E0E559F74F8083D1
:100A20008091680881608093680884E98093BC00A5
:100A30000BC085EA8093BC0007C08091B900809309
:100A4000000284E08093BC00FF91EF91BF91AF91D1
:100A50009F918F913F912F910F900BBE0F900FBEE2
:100A60000F901F901895E1E0F1E080818061808314
:100A70008FEE809300018081826080838081886610
:100A80008083E2E0F1E08081806180838DE298E004
:100A90000E94030D80E090E00895E1E2F1E08081A2
:100AA000886080838DE490E09093290180932801F1
:100AB000808185608083E3E7F0E0808182608083CD
:100AC000D19A0895882314F090E00895819590E0DC
:100AD00091958195910908950E9462058B30910549
:100AE00044F0E2E0F1E09081926090830E942E0455
:100AF0000895863F2FEF92074CF4E2E0F1E09081F9
:100B00009D7F908381950E942E04089580E00E942D
:100B10002E0408958F3F910519F014F08FEF90E0A7
:100B200081302FEF920714F481E09FEF1816190619
:100B300044F4E2E0F1E09081926090830E942E0400
:100B4000089599234CF4E2E0F1E090819D7F908339
:100B500081950E942E04089580E00E942E0408953D
:100B6000CF93DF93F89410920701E2E0F1E08081E7
:100B70008F7D80838081877F808387E893E10197E1
:100B8000F1F700C00000A6E0B1E08C9190E0982F52
:100B90008827208128602083C7E8D3E12197F1F7D7
:100BA00000C000003C91A7E8B3E11197F1F700C045
:100BB000000020812064208320812062208378949B
:100BC000832BDF91CF910895CF93DF93E2E0F1E0A3
:100BD00080818D7F8083C0E1D7E284E60E942E046D
:100BE0002197D9F70E94B00591958195910990932D
:100BF0008E0880938D08E2E0F1E08081826080833E
:100C0000C0E1D7E284E60E942E042197D9F70E9422
:100C1000B0059195819591099093880880938708F4
:100C20008091870890918808909386088093850822
:100C30004091850850918608209187083091880856
:100C400080918D0890918E085F934F933F932F93DF
:100C50009F938F9385E498E09F938F930E94E90C74
:100C600080E00E942E048DB79EB708960FB6F894C8
:100C70009EBF0FBE8DBFDF91CF9108958091730805
:100C800090917408089580918F089091900808952C
:100C9000809185089091860808958F929F92AF92D7
:100CA000BF92CF92DF92EF92FF920F931F93CF9359
:100CB000DF93CDB7DEB768970FB6F894DEBF0FBEEF
:100CC000CDBFCE010D960E9471038F89988D01973B
:100CD00009F023C16091850870918608A09087086B
:100CE000B090880800918D0810918E08072E000C96
:100CF000880B990B0E94780A6B017C01B501BB0C33
:100D0000880B990B0E94780A4B015C01B801110F06
:100D1000880B990B0E94780A9B01AC01C501B401B4
:100D20000E9461099B01AC01C701B6010E94CE0976
:100D300020E030E048EC52E40E94040B6093890804
:100D400070938A0880938B0890938C08CE0101964B
:100D50000E9471036091890870918A0880918B08C4
:100D600090918C080C8110E00E94400A061B170B22
:100D70001093900800938F0880918F0890919008AD
:100D8000992364F4809173089091740818161906D9
:100D90002CF4109274081092730811C080918F087F
:100DA000909190081816190654F480917308909148
:100DB0007408992324F41092740810927308809197
:100DC000730890917408893C91053CF088EC90E0A0
:100DD00090937408809373080DC08091730890916C
:100DE000740888339F4F34F488EC90E09093740833
:100DF0008093730820918F08309190088091730838
:100E000090917408820F931F9093740880937308D5
:100E100000918F0810919008C0907508D0907608C6
:100E200080918F0890919008909376088093750830
:100E300060918F0870919008E0907308F0907408AA
:100E4000072E000C880B990B0E94780A20E030E0F6
:100E500040ED50E40E94040B4B015C01B701FF0C14
:100E6000880B990B0E94780A2AE037ED43E25CE395
:100E70000E94040B9B01AC01C501B4010E946209F0
:100E80004B015C01C8018C199D09BC01990F880BAD
:100E9000990B0E94780A20E030E040E05FE30E9476
:100EA000040B9B01AC01C501B4010E9462090E94C0
:100EB000400A70939208609391080E94B005919542
:100EC00081959109909386088093850820918508E3
:100ED000309186088091870890918808821793073F
:100EE0004CF48091870890918808909386088093AD
:100EF000850813C0209185083091860880918D085F
:100F000090918E082817390744F480918D089091AC
:100F10008E0890938608809385088091910890911F
:100F200092080E948A0568960FB6F894DEBF0FBE3D
:100F3000CDBFDF91CF911F910F91FF90EF90DF9088
:100F4000CF90BF90AF909F908F9008951F920F9277
:100F50000FB60F9211240BB60F922F933F934F931E
:100F60005F936F937F938F939F93AF93BF93EF9311
:100F7000FF930E944D06D19AFF91EF91BF91AF91DF
:100F80009F918F917F916F915F914F913F912F91A1
:100F90000F900BBE0F900FBE0F901F901895269AC2
:100FA0002E9A80E090E008952E982FED82E292E054
:100FB000215080409040E1F700C000002E9A80E070
:100FC00090E008956B9AE0E9F0E08081806480838E
:100FD00080818C778083E1E9F0E080818860808384
:100FE00080818F7E80838081816080838081897F02
:100FF00080830895009731F4E1E9F0E080818E7FED
:10100000808308959C01220F331F40E050E060E090
:1010100074E284EF90E00E9404092150310930937A
:10102000990020939800E1E9F0E08081816080835D
:101030000895009731F4E1EBF0E080818D7F8083AB
:1010400008959C0122953295307F3227207F3227E8
:1010500040E050E060E074E284EF90E00E94040918
:1010600021502093B300E1EBF0E080818260808327
:1010700008959F92AF92BF92CF92DF92EF92FF922C
:101080000F931F93CF93DF938130910521F0029747
:1010900009F453C091C08EE490E09093940880933B
:1010A00093080F2EFBECEF2EF6E0FF2EF02D07E657
:1010B00017E0C12CD12C0F2EFAEF9F2EF02DA12C72
:1010C000B12CF701819191917F01989EE001999E49
:1010D000D00D1124F801819191918F010E94FA079E
:1010E0001C161D06FCF42A2D3B2D89EF90E001977C
:1010F000F1F700C000008091770890917808019680
:10110000803EEEE29E0729F090937808809377085E
:1011100004C0A0927708B09278082F5F3F4F2C1739
:101120003D0719F7FFEFCF1ADF0A809193089091DE
:101130009408C816D9062CF23FC080E390E0909343
:10114000960880939508C0E8D4E0AA24AA94BA2C03
:1011500000E010E00F2EFCE0CF2ED12CF02DEC2E75
:10116000FD2E0115110591F42FEFA21AB20A850187
:10117000000F111FF801E951FA4F808191810E94FF
:10118000FA07F801ED5FFA4F008111818E2D9F2D36
:10119000B6010E94F008892B11F40E94D407015077
:1011A00011094FE986E891E0415080409040E1F715
:1011B00000C00000219799F680E090E00E94FA07B5
:1011C00080E090E00E941908DF91CF911F910F916C
:1011D000FF90EF90DF90CF90BF90AF909F900895D9
:1011E00097FB072E16F4009407D077FD09D00E94D4
:1011F0002B0907FC05D03EF4909581959F4F0895EB
:10120000709561957F4F0895052E97FB1EF400940D
:101210000E941B0957FD07D00E943F0907FC03D01D
:101220004EF40C941B0950954095309521953F4FF5
:101230004F4F5F4F089590958095709561957F4FC2
:101240008F4F9F4F0895EE0FFF1F881F8BBF079092
:10125000F691E02D1994AA1BBB1B51E107C0AA1FF0
:10126000BB1FA617B70710F0A61BB70B881F991F47
:101270005A95A9F780959095BC01CD010895A1E2FA
:101280001A2EAA1BBB1BFD010DC0AA1FBB1FEE1F00
:10129000FF1FA217B307E407F50720F0A21BB30B4B
:1012A000E40BF50B661F771F881F991F1A9469F7C7
:1012B00060957095809590959B01AC01BD01CF0123
:1012C00008955058BB27AA270E9479090C94CA0A8E
:1012D0000E94BC0A38F00E94C30A20F039F49F3FF4
:1012E00019F426F40C94B90A0EF4E095E7FB0C947B
:1012F000B30AE92F0E94DB0A58F3BA176207730793
:101300008407950720F079F4A6F50C94FD0A0EF4F5
:10131000E0950B2EBA2FA02D0B01B90190010C0105
:10132000CA01A0011124FF27591B99F0593F50F41D
:10133000503E68F11A16F040A22F232F342F442775
:10134000585FF3CF469537952795A795F04053956D
:10135000C9F77EF41F16BA0B620B730B840BBAF03D
:101360009150A1F0FF0FBB1F661F771F881FC2F7A8
:101370000EC0BA0F621F731F841F48F487957795BC
:101380006795B795F7959E3F08F0B0CF9395880F76
:1013900008F09927EE0F9795879508950E94E20926
:1013A0000C94CA0A0E94C30A58F00E94BC0A40F07A
:1013B00029F45F3F29F00C94B30A51110C94FE0AF2
:1013C0000C94B90A0E94DB0A68F39923B1F3552300
:1013D00091F3951B550BBB27AA2762177307840748
:1013E00038F09F5F5F4F220F331F441FAA1FA9F3DE
:1013F00035D00E2E3AF0E0E832D091505040E695CC
:10140000001CCAF72BD0FE2F29D0660F771F881F2C
:10141000BB1F261737074807AB07B0E809F0BB0B1F
:10142000802DBF01FF2793585F4F3AF09E3F510533
:1014300078F00C94B30A0C94FE0A5F3FE4F3983EF4
:10144000D4F3869577956795B795F7959F5FC9F71C
:10145000880F911D9695879597F90895E1E0660F9D
:10146000771F881FBB1F621773078407BA0720F016
:10147000621B730B840BBA0BEE1F88F7E09508957F
:101480000E94470A6894B1110C94FE0A08950E94C4
:10149000E30A88F09F5798F0B92F9927B751B0F019
:1014A000E1F0660F771F881F991F1AF0BA95C9F7E8
:1014B00014C0B13091F00E94FD0AB1E008950C947F
:1014C000FD0A672F782F8827B85F39F0B93FCCF332
:1014D000869577956795B395D9F73EF49095809565
:1014E000709561957F4F8F4F9F4F0895E89409C085
:1014F00097FB3EF490958095709561957F4F8F4F47
:101500009F4F9923A9F0F92F96E9BB279395F6955C
:10151000879577956795B795F111F8CFFAF4BB0FDA
:1015200011F460FF1BC06F5F7F4F8F4F9F4F16C03E
:10153000882311F096E911C0772321F09EE8872FC8
:10154000762F05C0662371F096E8862F70E060E084
:101550002AF09A95660F771F881FDAF7880F9695FD
:10156000879597F9089597F99F6780E870E060E0A4
:1015700008959FEF80EC089500240A94161617062C
:1015800018060906089500240A9412161306140674
:1015900005060895092E0394000C11F4882352F0D7
:1015A000BB0F40F4BF2B11F460FF04C06F5F7F4F8F
:1015B0008F4F9F4F089557FD9058440F551F59F076
:1015C0005F3F71F04795880F97FB991F61F09F3F30
:1015D00079F087950895121613061406551FF2CF59
:1015E0004695F1DF08C0161617061806991FF1CFA9
:1015F00086957105610508940895E894BB276627D0
:101600007727CB0197F908950E94170B0C94CA0A0B
:101610000E94BC0A38F00E94C30A20F0952311F002
:101620000C94B30A0C94B90A11240C94FE0A0E947B
:10163000DB0A70F3959FC1F3950F50E0551F629F31
:10164000F001729FBB27F00DB11D639FAA27F00D1B
:10165000B11DAA1F649F6627B00DA11D661F829F42
:101660002227B00DA11D621F739FB00DA11D621F27
:10167000839FA00D611D221F749F3327A00D611D44
:10168000231F849F600D211D822F762F6A2F112426
:101690009F5750409AF0F1F088234AF0EE0FFF1F59
:1016A000BB1F661F771F881F91505040A9F79E3FB0
:1016B000510580F00C94B30A0C94FE0A5F3FE4F3EA
:1016C000983ED4F3869577956795B795F795E79506
:1016D0009F5FC1F7FE2B880F911D9695879597F90F
:1016E0000895CF93DF938230910510F482E090E06B
:1016F000E0919908F0919A0820E030E0C0E0D0E055
:10170000309711F14081518148175907C0F04817AF
:10171000590761F482819381209719F09B838A8312
:101720002BC090939A088093990826C02115310503
:1017300019F04217530718F49A01BE01DF01EF01B7
:101740000280F381E02DDCCF2115310509F1281B42
:10175000390B2430310590F412968D919C9113979A
:101760006115710521F0FB019383828304C090937E
:101770009A0880939908FD01329644C0FD01E20F5A
:10178000F31F81939193225031092D933C933AC0DA
:101790002091970830919808232B41F42091050857
:1017A00030910608309398082093970820910308F9
:1017B000309104082115310541F42DB73EB7409111
:1017C000070850910808241B350BE0919708F09109
:1017D0009808E217F307A0F42E1B3F0B28173907D0
:1017E00078F0AC014E5F5F4F2417350748F04E0F7D
:1017F0005F1F50939808409397088193919302C07C
:10180000E0E0F0E0CF01DF91CF9108950F931F93B7
:10181000CF93DF93009709F48CC0FC0132971382B9
:1018200012820091990810919A080115110581F40E
:1018300020813181820F931F209197083091980861
:101840002817390779F5F0939808E093970871C045
:10185000D80140E050E0AE17BF0750F412962D912A
:101860003C911397AD012115310509F1D901F3CF51
:101870009D01DA013383228360817181860F971F76
:101880008217930769F4EC0128813981260F371FED
:101890002E5F3F4F318320838A819B819383828394
:1018A000452B29F4F0939A08E093990842C01396C7
:1018B000FC93EE931297ED01499159919E01240FEB
:1018C000351FE217F30771F480819181840F951F12
:1018D000029611969C938E938281938113969C938A
:1018E0008E931297E0E0F0E0D80112968D919C91D2
:1018F0001397009719F0F8018C01F6CF8D919C9108
:1019000098012E5F3F4F820F931F209197083091CF
:1019100098082817390769F4309729F410929A0823
:101920001092990802C013821282109398080093B3
:101930009708DF91CF911F910F9108950F931F93F7
:10194000CF93DF93009731F46115710519F480E0AE
:1019500090E03AC08B01EC016EE070E081E090E035
:101960000E942E0FFC01892B91F380E883830115DF
:10197000110571F01387028781E8838380919B08AA
:1019800090919C08892B21F4F0939C08E0939B088C
:101990002097C9F0D187C08783818260838380913B
:1019A0009D0890919E08892B71F4F0939E08E09316
:1019B0009D0880919F089091A008892B21F4F093B5
:1019C000A008E0939F08CF01DF91CF911F910F9165
:1019D0000895CF93DF93CDB7DEB7AE014A5F5F4F77
:1019E000FA0161917191AF0180919D0890919E08DB
:1019F0000E94330DDF91CF91089560919D08709101
:101A00009E080C94670F0F931F93CF93DF93E09181
:101A10009D08F0919E08238121FF1BC08C01D0E01E
:101A2000C0E0F80181918F0160919D0870919E083E
:101A3000DB011896ED91FC911997882331F01995E7
:101A4000892B79F3DFEFCFEFECCF8AE01995892B63
:101A500019F08FEF9FEF02C08D2F9C2FDF91CF9158
:101A60001F910F9108952F923F924F925F926F9224
:101A70007F928F929F92AF92BF92CF92DF92EF921E
:101A8000FF920F931F93CF93DF93CDB7DEB72C97C1
:101A90000FB6F894DEBF0FBECDBF7C016B018A018B
:101AA000FC0117821682838181FFBDC1CE010196A0
:101AB0004C01F7019381F60193FD859193FF81918C
:101AC0006F01882309F4ABC1853239F493FD859108
:101AD00093FF81916F01853229F4B70190E00E9454
:101AE000670FE7CF512C312C20E02032A0F48B324D
:101AF00069F030F4803259F0833269F420612CC0EF
:101B00008D3239F0803339F4216026C022602460A0
:101B100023C0286021C027FD27C030ED380F3A30A0
:101B200078F426FF06C0FAE05F9E300D1124532E94
:101B300013C08AE0389E300D1124332E20620CC071
:101B40008E3221F426FD6BC1206406C08C3611F460
:101B5000206802C0883641F4F60193FD859193FF19
:101B600081916F018111C1CF982F9F7D9554933042
:101B700028F40C5F1F4FFFE3F9830DC0833631F06B
:101B8000833771F0833509F05BC022C0F801808192
:101B900089830E5F1F4F44244394512C540115C078
:101BA0003801F2E06F0E711CF801A080B18026FFB1
:101BB00003C0652D70E002C06FEF7FEFC5012C8779
:101BC0000E945C0F2C0183012C852F77222E17C0D9
:101BD0003801F2E06F0E711CF801A080B18026FF81
:101BE00003C0652D70E002C06FEF7FEFC5012C8749
:101BF0000E944A0F2C012C852068222E830123FC91
:101C00001BC0832D90E048165906B0F4B70180E25E
:101C100090E00E94670F3A94F4CFF50127FC85917C
:101C200027FE81915F01B70190E00E94670F31109C
:101C30003A94F1E04F1A51084114510471F7E5C08C
:101C4000843611F0893639F5F80127FF07C0608125
:101C50007181828193810C5F1F4F08C06081718107
:101C6000072E000C880B990B0E5F1F4F2F76722EDC
:101C700097FF09C090958095709561957F4F8F4F24
:101C80009F4F2068722E2AE030E0A4010E949F0F2F
:101C9000A82EA81844C0853729F42F7EB22E2AE03A
:101CA00030E025C0F22FF97FBF2E8F36C1F018F437
:101CB000883579F0B4C0803719F0883721F0AFC08B
:101CC0002F2F2061B22EB4FE0DC08B2D8460B82E54
:101CD00009C024FF0AC09F2F9660B92E06C028E0D5
:101CE00030E005C020E130E002C020E132E0F80140
:101CF000B7FE07C060817181828193810C5F1F4FA5
:101D000006C06081718180E090E00E5F1F4FA401EA
:101D10000E949F0FA82EA818FB2DFF777F2E76FE1E
:101D20000BC0372D3E7FA51450F474FE0AC072FC20
:101D300008C0372D3E7E05C0BA2C372D03C0BA2C03
:101D400001C0B52C34FF0DC0FE01EA0DF11D8081EC
:101D5000803311F4397E09C032FF06C0B394B394C6
:101D600004C0832F867809F0B39433FD13C030FF8D
:101D700006C05A2CB31418F4530C5B18B32CB314CC
:101D800068F4B70180E290E03C870E94670FB3944B
:101D90003C85F5CFB31410F43B1801C0312C34FF4F
:101DA00012C0B70180E390E03C870E94670F3C853A
:101DB00032FF17C031FD03C088E790E002C088E51C
:101DC00090E0B7010CC0832F867859F031FF02C034
:101DD0008BE201C080E237FD8DE2B70190E00E9406
:101DE000670FA51438F4B70180E390E00E94670FF5
:101DF0005A94F7CFAA94F401EA0DF11D8081B7013E
:101E000090E00E94670FA110F5CF332009F451CE66
:101E1000B70180E290E00E94670F3A94F6CFF70195
:101E20008681978102C08FEF9FEF2C960FB6F894B2
:101E3000DEBF0FBECDBFDF91CF911F910F91FF90FD
:101E4000EF90DF90CF90BF90AF909F908F907F905A
:101E50006F905F904F903F902F9008950F931F9336
:101E6000CF93DF93869F8001879F100D969F100D63
:101E70001124C8010E94710BEC01009729F0A80100
:101E800060E070E00E94550FCE01DF91CF911F916D
:101E90000F910895FC010590615070400110D8F732
:101EA000809590958E0F9F1F0895DC0101C06D9362
:101EB00041505040E0F70895FC016150704001909E
:101EC0000110D8F7809590958E0F9F1F08950F935E
:101ED0001F93CF93DF93FB01238121FD03C08FEF7D
:101EE0009FEF28C022FF16C046815781248135818B
:101EF0004217530744F4A081B1819D012F5F3F4FEA
:101F0000318320838C93268137812F5F3F4F378326
:101F1000268310C0EB01092F182F0084F185E02DD6
:101F20001995892BE1F68E819F8101969F838E837F
:101F3000812F902FDF91CF911F910F910895FA017A
:101F4000AA27283051F1203181F1E8946F936E7FF8
:101F50006E5F7F4F8F4F9F4FAF4FB1E03ED0B4E0E9
:101F60003CD0670F781F891F9A1FA11D680F791F2A
:101F70008A1F911DA11D6A0F711D811D911DA11D3B
:101F800020D009F468943F912AE0269F112430194B
:101F9000305D3193DEF6CF010895462F4770405DE6
:101FA0004193B3E00FD0C9F7F6CF462F4F70405D95
:101FB0004A3318F0495D31FD4052419302D0A9F7F0
:101FC000EACFB4E0A6959795879577956795BA95EA
:101FD000C9F700976105710508959B01AC010A2EB0
:101FE00006945795479537952795BA95C9F7620F87
:0E1FF000731F841F951FA01D0895F894FFCF46
:101FFE00F830000600060006000600060006000681
:10200E000006000600060006000600060006000692
:10201E000006000600060006000600060006000682
:10202E000006000600060006000600060006000672
:10203E000006000600060006000600060006000662
:10204E000006000600060006000600060006000652
:10205E000006000600060006000600060006000642
:10206E000006000600060006000600060006000632
:10207E000006000600060006000600060006000622
:10208E000006000600060006000600060006000612
:10209E000006000600060006000600060006000602
:1020AE0000060006000600060006000600060006F2
:1020BE0000060006000600060006000600060006E2
:1020CE0000060006000600060006000600060006D2
:1020DE0000060006000600060006000600060006C2
:1020EE0000060006000600060006000600060006B2
:1020FE0000060006000600060006000600060006A2
:10210E000006000600060006000600060006000691
:10211E000006000600060006000600060006000681
:10212E000006000600060006000600060006000671
:10213E000006000600060006000600060006000661
:10214E000006000600060006000600060006000651
:10215E000006000600060006000600060006000641
:10216E000006000600060006000600060006000631
:10217E000006005200A5005200A5005200A5005214
:10218E0000A50037006E0037006E0037006E003776
:10219E00006E0034006800340068003400680034BB
:1021AE0000680037006E0037006E0037006E007B4F
:1021BE0000830049009300490093004900930049B1
:1021CE0000930041008300410083004100830041E1
:1021DE000083003E007B003E007B003E007B003E05
:1021EE00007B0037006E0037006E0037006E003740
:1021FE00006E005200A5005200A5005200A500522C
:10220E0000A50037006E0037006E0037006E0037F5
:10221E00006E00340068003400680034006800343A
:10222E0000680037006E0037006E0037006E007BCE
:10223E000083004900930049009300490093004930
:10224E000093004100830041008300410083004160
:10225E000083003E007B003E007B003E007B003E84
:10226E00007B0037006E0037006E0037006E0037BF
:10227E00006E006E00A5006E00A5006E00A5006E3B
:10228E0000A5006800A5006800A5006800A500680C
:10229E0000A5006E00A5006E00A5006E00A5006EE4
:1022AE0000A5006800A5006800A5006800A50068EC
:1022BE0000A5006E00A5006E00A5006E00A5006EC4
:1022CE0000A5006800A5006800A5006800A50068CC
:1022DE0000A5006E00A5006E00DC006E00DC006E36
:1022EE0000DC005200A5005200A5005200A50052CD
:1022FE0000A5000C00060006000600030003000601
:10230E000006000B000100060006000C0006000689
:10231E00000B000100060006000C000C000C000B68
:10232E000001000C000C0006000C0006000C00065C
:10233E00000600120006000C00060006000B00014D
:10234E0000060006000C000C000C000B0001000C37
:10235E00000C000C00060006000600030003000639
:10236E000006000B000100060006000C0006000629
:10237E00000B000100060006000C000C000C000B08
:10238E000001000C000C0006000C0006000C0006FC
:10239E00000600120006000C00060006000B0001ED
:1023AE0000060006000C000C000C000B0001000CD7
:1023BE00000C00180018001800180018001800185B
:1023CE0000180018001800180018000C000C000B64
:1023DE000001000C0030009302EE010B024B029341
:1023EE00024B020B02EE01B8010000B8010B029382
:1023FE00024B020B02EE010000EE010B024B0293A8
:10240E00020B02B8010000B801000093004B02BAA3
:10241E000270031003BA0293020B0293024B020BDB
:10242E0002EE010000EE010B024B0293020B02B80A
:10243E00010000B80100009302EE010B024B029363
:10244E00024B020B02EE01B8010000B8010B029321
:10245E00024B020B02EE010000EE010B024B029347
:10246E00020B02B8010000B801000093004B02BA43
:10247E000270031003BA0293020B0293024B020B7B
:10248E0002EE010000EE010B024B0293020B02B8AA
:10249E00010000B80100004A0106012601F70006FE
:1024AE0001DC00D000F7004A0106012601F7000604
:1024BE00014A01B8010000B8019F010C000C000C8C
:1024CE00000C000C000C000C000C000C000C000C9E
:1024DE00000C000C000C000C000C000C000C000C8E
:1024EE00000C000C000C000C000C000C000C000C7E
:1024FE00000C000C000C000C000C00100010001062
:10250E00000C000C000C000C000C000C000C000C5D
:10251E00000C000C000C000C000C000C000C000C4D
:10252E00000C000C000C000C000C000C000C000C3D
:10253E00000C000C000C000C001000100010000C21
:10254E00000C000C000C000C000C000C000C000C1D
:10255E00000C000C000C004D0A4D0A00004D0A0044
:10256E00002D084D0A0000400C0000000000002065
:10257E00060000000000002D0800000000200600EC
:10258E00000000270500000000E0060000B807006C
:10259E00004907E006000020064D0A400CC00D0061
:1025AE0000EA0A400C00004D0A00002D082D09B863
:1025BE0007000000002D08000000002006000000AB
:1025CE0000270500000000E0060000B807000049E3
:1025DE0007E006000020064D0A400CC00D0000EA80
:1025EE000A400C00004D0A00002D082D09B8070006
:1025FE000000000000A108200043414E20776F72BA
:10260E006B696E670A0D0043414E206572726F72E0
:10261E000A0D00706C6973005465737400436F6E1D
:10262E0074726F6C6C657220696E697469616C6925
:10263E007A65640D006D696E3A2025642C206D61FB
:10264E00783A2025642C20706F733A2025640D0A89
:02265E0000007A
:00000001FF
