:100000000C94D5000C94F6000C94F6000C9430037C
:100010000C94F6000C94F6000C94F6000C94F60088
:100020000C94F6000C94F6000C94F6000C94F60078
:100030000C94F6000C94F6000C94F6000C94F60068
:100040000C94F6000C94F6000C94F6000C94F60058
:100050000C94F6000C94F6000C94F6000C94F60048
:100060000C94F6000C94F6000C94F6000C94F60038
:100070000C94F6000C94F6000C94F6000C94F60028
:100080000C94F6000C94F6000C94F6000C94F60018
:100090000C94F6000C94F6000C94F6000C945605A3
:1000A0000C94F6000C94F6000C94F6000C94F600F8
:1000B0000C94F6000C94F6000C94F6000C943E0898
:1000C0000C94F6000C94F6000C94F6000C94F600D8
:1000D0000C94F6000C94F6000C94F6000C94F600C8
:1000E0000C94F6007505C705C705C705C705C70504
:1000F000C705C7057505C705C705C705C705C705F2
:10010000C705C7057705C705C705C705C705C705DF
:10011000C705C705C705C705C705C705C705C7057F
:10012000C705C7057705C705C705C705C705C705BF
:10013000C705C705C705C705C705C705C705C7055F
:10014000C705C705C305C705C705C705C705C70553
:10015000C705C705A005C705C705C705C705C70566
:10016000C705C705C705C705C705C705C705C7052F
:10017000C705C7059405C705C705C705C705C70552
:10018000C705C705B2050C9477050C9494050C942B
:10019000B2050C946B010C9463010C94C7050C948C
:1001A000A0050C94C3050C94750511241FBECFEF58
:1001B000D1E2DEBFCDBF00E00CBF18E0A0E0B2E0AE
:1001C000EEE2F1E200E00BBF02C007900D92A23612
:1001D000B107D9F728E0A2E6B8E001C01D92A93A1C
:1001E000B207E1F70E94F8000C9495100C940000FF
:1001F000CF93DF93CDB7DEB7E0970FB6F894DEBFAD
:100200000FBECDBFF89487E690E00E947C01EA9A89
:10021000E9E6F0E080818062808380818F7E808348
:100220000E945E020E945E02892B49F48BE198E0F5
:100230009F938F930E94810D0F900F9008C089E2C9
:1002400098E09F938F930E94810D0F900F900E94D2
:1002500074030E948D010E94D0040E94DD050E945B
:100260007F060E9467080E947A080E946A067894B6
:10027000CE0185960E9417038FA598A9059741F492
:10028000CE0149960E941703898D90E00E94D10803
:10029000CE010D960E9417038F89988D019749F41E
:1002A000CE0101960E9417038D81813011F40E94C6
:1002B00015042FEF81EE94E0215080409040E1F74B
:1002C00000C00000D5CFE0ECF0E0908195FFFDCFBD
:1002D0008093C6000895CF93DF93E0ECF0E0808137
:1002E0008823ECF7C6ECD0E0888190E00E94950D61
:1002F0008881DF91CF9108959093C5008093C400C9
:1003000088E18093C1008EE08093C2006BE671E0CB
:1003100083E691E00E94360D08958098ECE7F0E0C6
:1003200080818064808380818F778083EAE7F0E03A
:10033000808180688083789480E090E00895EAE787
:10034000F0E080818064808380916608882351F08A
:1003500080818064808310926608809178009091FB
:1003600079000895809178009091790008951F9206
:100370000F920FB60F9211248F9381E0809366083D
:100380008F910F900FBE0F901F90189584B18768C2
:1003900084B9239881E58CBD80E090E008958EBDFE
:1003A0000DB407FEFDCF80E090E0089580E00E944C
:1003B000CF018EB508952F9880E090E008952F9A90
:1003C00080E090E008950E94DB0180EC0E94CF0164
:1003D0000E94DF018FE493EC0197F1F700C0000069
:1003E00080E090E008950E94C6010E94E30180E051
:1003F00090E00895CF93C82F0E94DB0183E00E9414
:10040000CF018C2F0E94CF010E94D601C82F0E94DD
:10041000DF018C2FCF910895CF93DF93D82FC62F74
:100420000E94DB0182E00E94CF018D2F0E94CF014C
:100430008C2F0E94CF010E94DF0180E090E0DF91CD
:10044000CF910895CF93883018F4C82FC06801C0A9
:10045000C0E80E94DB018C2F0E94CF010E94DF01C7
:1004600080E090E0CF910895CF930E94DB0180EA75
:100470000E94CF010E94D601C82F0E94DF018C2F5D
:10048000CF9108951F93CF93DF93182FD62FC42FAA
:100490000E94DB0185E00E94CF01812F0E94CF01E5
:1004A0008D2F0E94CF018C2F0E94CF010E94DF016F
:1004B00080E090E0DF91CF911F9108950E94F301B9
:1004C0004FEF60E680E60E94420240E060EE8FE07F
:1004D0000E94420241E061E08BE20E94420280E021
:1004E00090E0089580E30E94FA018FEF9FEF089556
:1004F0000F931F93CF938C01FC01628573857595D3
:100500006795759567957595679581E30E940C02CF
:10051000F80162857385660F771F62957295707F0B
:100520007627607F762782E30E940C02F8016085BF
:100530006F7085E30E940C02F80180859185181682
:100540001906A4F420E030E0C0E0F801E20FF31F48
:10055000608186E38C0F0E940C02CF5F2C2F30E06D
:10056000F80180859185281739077CF389EF90E0A1
:100570000197F1F700C0000081E00E94220280E0B4
:1005800090E0CF911F910F91089581E090E0089540
:10059000AF92BF92CF92DF92EF92FF921F93CF93D1
:1005A000DF937C0180916708813071F581E60E94BC
:1005B000FA01A82E82E60E94FA018295869587703C
:1005C000B12CAA0CBB1CAA0CBB1CAA0CBB1CA82AD5
:1005D00085E60E94FA018F70C82ED12C1C141D04D0
:1005E00084F4C0E0D0E010E086E6810F0E94FA01BA
:1005F000CE0DDF1D88831F5FC12FD0E0CC15DD0538
:100600009CF31092670803C0AA24AA94BA2CF7019D
:10061000D186C086B386A286C701DF91CF911F9194
:10062000FF90EF90DF90CF90BF90AF9008952CE0B7
:10063000EDE8F8E0DC0101900D922A95E1F70895CC
:1006400040E060E08CE20E94420240E061E08CE227
:100650000E94420281E08093670880E090E0089564
:100660001F920F920FB60F9211240BB60F922F9379
:100670003F934F935F936F937F938F939F93AF932A
:10068000BF93EF93FF93CF93DF93CDB7DEB72C9754
:10069000DEBFCDBF0E942003CE0101960E94C8029A
:1006A0008CE0FE013196ADE8B8E001900D928A959C
:1006B000E1F72C960FB6F894DEBF0FBECDBFDF91E9
:1006C000CF91FF91EF91BF91AF919F918F917F91CA
:1006D0006F915F914F913F912F910F900BBE0F90B3
:1006E0000FBE0F901F901895E0E8F0E08081826CBB
:1006F0008083E1E8F0E0808188618083808184608C
:100700008083259A82EE94E0909387008093860000
:1007100085E894E0909389008093880080E090E0E1
:100720000895CF92DF92EF92FF920F931F93CF9392
:10073000DF93CDB7DEB72C970FB6F894DEBF0FBEB0
:10074000CDBF80EF8C0D853548F48BEAC89E812D96
:100750001124869590E082589B4F12C089E68C0D3B
:100760008935A8F420EF30E0A9014C195109CA01DC
:1007700063E070E00E94880983E894E0861B970B91
:100780009C012F5534402334310538F402C083E8EE
:1007900094E090938900809388002C960FB6F8948B
:1007A000DEBF0FBECDBFDF91CF911F910F91FF90A4
:1007B000EF90DF90CF900895EF92FF920F931F93E9
:1007C000CF93DF938C01EA017901FB0131973E97CA
:1007D00018F588819981892BF9F47F936F9385E3CC
:1007E00098E09F938F930E94810DF8018081918101
:1007F00001969183808381E090E099838883F7015B
:10080000808191810F900F900F900F90181619060C
:100810001CF401979183808380E090E0DF91CF9179
:100820001F910F91FF90EF9008952F923F924F925A
:100830005F926F927F928F929F92AF92BF92CF9270
:10084000DF92EF92FF920F931F93CF93DF93CDB779
:10085000DEB7AA970FB6F894DEBF0FBECDBF1E86D7
:100860001D86188A1F8683E090E09A8B898B22E090
:1008700030E03AA729A798A78FA38F8FCE01439680
:100880000E94C802612C712C812C912C412C512C7E
:10089000212C312C5FC0CE0101960E94C8028B85AD
:1008A0009C850197E1F4CE0143960E94C802AD8C6D
:1008B000BE8CCB88DC88ED88FE880F89188D298D49
:1008C0003A8D4B8D5C8D6D8D7E8D80910002909167
:1008D00001020E94910390930102809300028FEF26
:1008E000881A980A8DE38816910414F0422C532C30
:1008F000AA94AB2881F48D89813069F441145104A4
:1009000051F40E946C088FEF681A780A822C932C9D
:1009100044244394512C0E949F015C019E012F5E50
:100920003F4FAE01415F5F4FBC01CE010D960E946B
:10093000DC0389898F8F68A28F859889019751F48C
:100940008CEDA816B10430F0CE014F960E947802CB
:100950002F86388A91E080E02F89213011F0922D86
:10096000832DA92EB82EA114B10409F094CFAA9614
:100970000FB6F894DEBF0FBECDBFDF91CF911F91B0
:100980000F91FF90EF90DF90CF90BF90AF909F902E
:100990008F907F906F905F904F903F902F90089531
:1009A0000E94EB048AB183608AB980E090E00895E8
:1009B000CF93C82F83E090E00E94090CFC0180E5F2
:1009C00080831182C28363E0CF010E94010580E031
:1009D00090E0CF9108958CE08093B8008FEF8093E2
:1009E000BB0084E08093BC0008958091BC008170BE
:1009F0000895ECEBF0E0808180FDFDCF8091020254
:100A00000895CF93DF93EC01ECEBF0E0908190FD43
:100A1000FDCF60936A08988190936B0890FD13C096
:100A2000623088F0FE013196ACE6B8E06250262FC5
:100A300030E02E5F3F4FCE01820F931F21912D9307
:100A4000E817F907D9F71092680888EF8093020237
:100A500085EA8093BC00DF91CF910895ECEBF0E044
:100A6000808180FDFDCF1092680888EF809302029C
:100A700085EA8093BC000895ECEBF0E0208120FD36
:100A8000FDCF2091680820FF0DC0662359F02BE6AA
:100A900038E0A82FB92FF90181918D938E2F821BF9
:100AA0008617D0F380916808817008951F920F9285
:100AB0000FB60F9211240BB60F922F933F938F9383
:100AC0009F93AF93BF93EF93FF93E091B9008E2F65
:100AD00090E0FC013897E135F10508F058C088270F
:100AE000EE58FF4F8F4F0C94BB0910926908E091AC
:100AF000690880916A08E81770F481E08E0F80938E
:100B00006908F0E0E559F74F80818093BB0085E8E4
:100B10008093BC0043C0809168088160809368081E
:100B200084E98093BC003AC0E091690881E08E0FAF
:100B3000809369088091BB00F0E0E559F74F80830E
:100B40002091690830E080916A0890E001972817A9
:100B5000390724F485EC8093BC0020C085E880939D
:100B6000BC001CC08091BB00E0916908F0E0E55931
:100B7000F74F80838091680881608093680884E9DA
:100B80008093BC000BC085EA8093BC0007C08091B5
:100B9000B9008093020284E08093BC00FF91EF9142
:100BA000BF91AF919F918F913F912F910F900BBE6D
:100BB0000F900FBE0F901F901895E1E0F1E080813B
:100BC0008061808380818260808380818866808369
:100BD000E2E0F1E08081806180838AE498E00E9415
:100BE0009B0D80E090E00895882314F090E0089534
:100BF000819590E091958195910908950E94F40561
:100C00008B30910544F0E2E0F1E0908192609083B6
:100C10000E94D8040895863F2FEF92074CF4E2E03B
:100C2000F1E090819D7F908381950E94D804089582
:100C300080E00E94D80408951816190644F4E2E0F2
:100C4000F1E09081926090830E94D80408959923E6
:100C50004CF4E2E0F1E090819D7F908381950E94C9
:100C6000D804089580E00E94D8040895CF93DF93BC
:100C7000F89410920701E2E0F1E080818F7D80839B
:100C80008081877F808387E893E10197F1F700C037
:100C90000000A6E0B1E08C9190E0982F8827208199
:100CA00028602083C7E8D3E12197F1F700C0000056
:100CB0003C91A7E8B3E11197F1F700C00000208153
:100CC000206420832081206220837894832BDF910D
:100CD000CF910895E1E2F1E08081886080838DE426
:100CE00090E0909329018093280180818560808322
:100CF000E3E7F0E0808182608083D19A0895CF930A
:100D0000DF93E2E0F1E080818D7F8083C0E1D7E274
:100D100084E60E94D8042197D9F70E94360691955F
:100D20008195910990937C0880937B08E2E0F1E043
:100D3000808182608083C0E1D7E284E60E94D8048B
:100D40002197D9F70E943606919581959109909344
:100D50007E0880937D0890937A0880937908DF91CC
:100D6000CF9108954F925F926F927F928F929F9250
:100D7000AF92BF92EF92FF920F931F93CF93DF93A7
:100D8000CDB7DEB7A8970FB6F894DEBF0FBECDBFC4
:100D9000CE0149960E9417038BA19CA1019709F0EF
:100DA00052C16091790870917A08072E000C880B67
:100DB000990B0E94100B4B015C0180917D08909172
:100DC0007E08BC01990F880B990B0E94100B2B0118
:100DD0003C0180917B0890917C08BC01990F880BA5
:100DE000990B0E94100B9B01AC01C301B2010E9440
:100DF000F9099B01AC01C501B4010E94660A20E01B
:100E000030E048EC52E40E949C0B4B015C01CE01A7
:100E10000D960E941703088910E0C501B4010E94D5
:100E2000D80A061B170BCE0101960E9417038E816C
:100E3000823049F580E090E0A0E9B0E480930F02B1
:100E400090931002A0931102B093120210920B0221
:100E500010920C0210920D0210920E028AE097ED91
:100E6000A3E2BCE38093070290930802A0930902D7
:100E7000B0930A021092030210920402109205022B
:100E80001092060230C080E090E0A0ECBFE38093B7
:100E90000F0290931002A0931102B093120280E00F
:100EA00090E0A0E6B0E480930B0290930C02A09334
:100EB0000D02B0930E028AE097EDA3E2BCE38093AB
:100EC000070290930802A0930902B0930A028FE6EA
:100ED00092E1A3E8BAE38093030290930402A09303
:100EE0000502B0930602112364F480917308909177
:100EF0007408181619062CF41092740810927308CE
:100F00000DC01016110654F4809173089091740866
:100F1000992324F41092740810927308E0907308D7
:100F2000F0907408E00EF11EF0927408E0927308DD
:100F30008090070290900802A0900902B0900A02E7
:100F4000A501940160910302709104028091050251
:100F5000909106020E94660A2B013C01809175085F
:100F600090917608B801681B790B072E000C880B4E
:100F7000990B0E94100B9B01AC01C301B2010E94AE
:100F80009C0B2B013C011093760800937508B80167
:100F9000110F880B990B0E94100B20910F023091BA
:100FA000100240911102509112020E949C0B6DA3FD
:100FB0007EA38FA398A7B701FF0C880B990B0E9403
:100FC000100B20910B0230910C0240910D025091B8
:100FD0000E020E949C0B9B01AC01C501B4010E9452
:100FE0009C0B9B01AC016DA17EA18FA198A50E94D5
:100FF000FA09A30192010E94FA090E94D80A70938B
:101000007808609377080E9436069195819591093A
:1010100090937A088093790820917D0830917E081A
:10102000281739072CF430937A08209379080BC0DD
:1010300020917B0830917C088217930724F4309329
:101040007A082093790880917708909178080E9417
:101050001C06A8960FB6F894DEBF0FBECDBFDF9179
:10106000CF911F910F91FF90EF90BF90AF909F9005
:101070008F907F906F905F904F9008951F920F9286
:101080000FB60F9211240BB60F922F933F934F93ED
:101090005F936F937F938F939F93AF93BF93EF93E0
:1010A000FF930E94B206D19AFF91EF91BF91AF9149
:1010B0009F918F917F916F915F914F913F912F9170
:1010C0000F900BBE0F900FBE0F901F901895269A91
:1010D0002E9A80E090E008952E982FED82E292E023
:1010E000215080409040E1F700C000002E9A80E03F
:1010F00090E008956B9AE0E9F0E08081806480835D
:1011000080818C778083E1E9F0E080818860808352
:1011100080818F7E80838081816080838081897FD0
:1011200080830895009731F4E1E9F0E080818E7FBB
:10113000808308959C01220F331F40E050E060E05F
:1011400074E284EF90E00E949C09215031093093B1
:10115000990020939800E1E9F0E08081816080832C
:101160000895009731F4E1EBF0E080818D7F80837A
:1011700008959C0122953295307F3227207F3227B7
:1011800040E050E060E074E284EF90E00E949C094F
:1011900021502093B300E1EBF0E0808182608083F6
:1011A00008959F92AF92BF92CF92DF92EF92FF92FB
:1011B0000F931F93CF93DF938130910521F0029716
:1011C00009F453C091C08EE490E090939C08809302
:1011D0009B080F2EFDEDEF2EF6E0FF2EF02D09E718
:1011E00017E0C12CD12C0F2EFAEF9F2EF02DA12C41
:1011F000B12CF701819191917F01989EE001999E18
:10120000D00D1124F801819191918F010E949208D3
:101210001C161D06FCF42A2D3B2D89EF90E001974A
:10122000F1F700C0000080917F089091800801963E
:10123000803EEEE29E0729F09093800880937F081D
:1012400004C0A0927F08B09280082F5F3F4F2C17F8
:101250003D0719F7FFEFCF1ADF0A80919B089091A5
:101260009C08C816D9062CF23FC080E390E090930A
:101270009E0880939D08C0E8D4E0AA24AA94BA2CC2
:1012800000E010E00F2EFCE0CF2ED12CF02DEC2E44
:10129000FD2E0115110591F42FEFA21AB20A850156
:1012A000000F111FF801E750FA4F808191810E94D1
:1012B0009208F801EB5EFA4F008111818E2D9F2D6F
:1012C000B6010E948809892B11F40E946C08015014
:1012D00011094FE986E891E0415080409040E1F7E4
:1012E00000C00000219799F680E090E00E949208EB
:1012F00080E090E00E94B108DF91CF911F910F91A3
:10130000FF90EF90DF90CF90BF90AF909F900895A7
:1013100097FB072E16F4009407D077FD09D00E94A2
:10132000C30907FC05D03EF4909581959F4F089521
:10133000709561957F4F0895052E97FB1EF40094DC
:101340000E94B30957FD07D00E94D70907FC03D0BC
:101350004EF40C94B30950954095309521953F4F2C
:101360004F4F5F4F089590958095709561957F4F91
:101370008F4F9F4F0895EE0FFF1F881F8BBF079061
:10138000F691E02D1994AA1BBB1B51E107C0AA1FBF
:10139000BB1FA617B70710F0A61BB70B881F991F16
:1013A0005A95A9F780959095BC01CD010895A1E2C9
:1013B0001A2EAA1BBB1BFD010DC0AA1FBB1FEE1FCF
:1013C000FF1FA217B307E407F50720F0A21BB30B1A
:1013D000E40BF50B661F771F881F991F1A9469F796
:1013E00060957095809590959B01AC01BD01CF01F2
:1013F00008955058BB27AA270E94110A0C94620B2B
:101400000E94540B38F00E945B0B20F039F49F3F90
:1014100019F426F40C94510B0EF4E095E7FB0C94B0
:101420004B0BE92F0E94730B58F3BA17620773072F
:101430008407950720F079F4A6F50C94950B0EF42B
:10144000E0950B2EBA2FA02D0B01B90190010C01D4
:10145000CA01A0011124FF27591B99F0593F50F4EC
:10146000503E68F11A16F040A22F232F342F442744
:10147000585FF3CF469537952795A795F04053953C
:10148000C9F77EF41F16BA0B620B730B840BBAF00C
:101490009150A1F0FF0FBB1F661F771F881FC2F777
:1014A0000EC0BA0F621F731F841F48F4879577958B
:1014B0006795B795F7959E3F08F0B0CF9395880F45
:1014C00008F09927EE0F9795879508950E947A0A5C
:1014D0000C94620B0E945B0B58F00E94540B40F07E
:1014E00029F45F3F29F00C944B0B51110C94960B8F
:1014F0000C94510B0E94730B68F39923B1F355239D
:1015000091F3951B550BBB27AA2762177307840716
:1015100038F09F5F5F4F220F331F441FAA1FA9F3AC
:1015200035D00E2E3AF0E0E832D091505040E6959A
:10153000001CCAF72BD0FE2F29D0660F771F881FFB
:10154000BB1F261737074807AB07B0E809F0BB0BEE
:10155000802DBF01FF2793585F4F3AF09E3F510502
:1015600078F00C944B0B0C94960B5F3FE4F3983E91
:10157000D4F3869577956795B795F7959F5FC9F7EB
:10158000880F911D9695879597F90895E1E0660F6C
:10159000771F881FBB1F621773078407BA0720F0E5
:1015A000621B730B840BBA0BEE1F88F7E09508954E
:1015B0000E94DF0A6894B1110C94960B08950E9462
:1015C0007B0B88F09F5798F0B92F9927B751B0F04F
:1015D000E1F0660F771F881F991F1AF0BA95C9F7B7
:1015E00014C0B13091F00E94950BB1E008950C94B5
:1015F000950B672F782F8827B85F39F0B93FCCF368
:10160000869577956795B395D9F73EF49095809533
:10161000709561957F4F8F4F9F4F0895E89409C053
:1016200097FB3EF490958095709561957F4F8F4F15
:101630009F4F9923A9F0F92F96E9BB279395F6952B
:10164000879577956795B795F111F8CFFAF4BB0FA9
:1016500011F460FF1BC06F5F7F4F8F4F9F4F16C00D
:10166000882311F096E911C0772321F09EE8872F97
:10167000762F05C0662371F096E8862F70E060E053
:101680002AF09A95660F771F881FDAF7880F9695CC
:10169000879597F9089597F99F6780E870E060E073
:1016A00008959FEF80EC089500240A9416161706FB
:1016B00018060906089500240A9412161306140643
:1016C00005060895092E0394000C11F4882352F0A6
:1016D000BB0F40F4BF2B11F460FF04C06F5F7F4F5E
:1016E0008F4F9F4F089557FD9058440F551F59F045
:1016F0005F3F71F04795880F97FB991F61F09F3FFF
:1017000079F087950895121613061406551FF2CF27
:101710004695F1DF08C0161617061806991FF1CF77
:1017200086957105610508940895E894BB2766279E
:101730007727CB0197F908950E94AF0B0C94620BA9
:101740000E94540B38F00E945B0B20F0952311F09F
:101750000C944B0B0C94510B11240C94960B0E947F
:10176000730B70F3959FC1F3950F50E0551F629F67
:10177000F001729FBB27F00DB11D639FAA27F00DEA
:10178000B11DAA1F649F6627B00DA11D661F829F11
:101790002227B00DA11D621F739FB00DA11D621FF6
:1017A000839FA00D611D221F749F3327A00D611D13
:1017B000231F849F600D211D822F762F6A2F1124F5
:1017C0009F5750409AF0F1F088234AF0EE0FFF1F28
:1017D000BB1F661F771F881F91505040A9F79E3F7F
:1017E000510580F00C944B0B0C94960B5F3FE4F387
:1017F000983ED4F3869577956795B795F795E795D5
:101800009F5FC1F7FE2B880F911D9695879597F9DD
:101810000895CF93DF938230910510F482E090E039
:10182000E091A108F091A20820E030E0C0E0D0E013
:10183000309711F14081518148175907C0F048177E
:10184000590761F482819381209719F09B838A83E1
:101850002BC09093A2088093A10826C021153105C2
:1018600019F04217530718F49A01BE01DF01EF0186
:101870000280F381E02DDCCF2115310509F1281B11
:10188000390B2430310590F412968D919C91139769
:101890006115710521F0FB019383828304C090934D
:1018A000A2088093A108FD01329644C0FD01E20F19
:1018B000F31F81939193225031092D933C933AC0A9
:1018C00020919F083091A008232B41F42091170804
:1018D000309118083093A00820939F082091150894
:1018E000309116082115310541F42DB73EB74091CE
:1018F000190850911A08241B350BE0919F08F091AC
:10190000A008E217F307A0F42E1B3F0B2817390796
:1019100078F0AC014E5F5F4F2417350748F04E0F4B
:101920005F1F5093A00840939F088193919302C03A
:10193000E0E0F0E0CF01DF91CF9108950F931F9386
:10194000CF93DF93009709F48CC0FC013297138288
:1019500012820091A1081091A2080115110581F4CD
:1019600020813181820F931F20919F083091A00820
:101970002817390779F5F093A008E0939F0871C004
:10198000D80140E050E0AE17BF0750F412962D91F9
:101990003C911397AD012115310509F1D901F3CF20
:1019A0009D01DA013383228360817181860F971F45
:1019B0008217930769F4EC0128813981260F371FBC
:1019C0002E5F3F4F318320838A819B819383828363
:1019D000452B29F4F093A208E093A10842C0139686
:1019E000FC93EE931297ED01499159919E01240FBA
:1019F000351FE217F30771F480819181840F951FE1
:101A0000029611969C938E938281938113969C9358
:101A10008E931297E0E0F0E0D80112968D919C91A0
:101A20001397009719F0F8018C01F6CF8D919C91D6
:101A300098012E5F3F4F820F931F20919F08309196
:101A4000A0082817390769F4309729F41092A208E2
:101A50001092A10802C0138212821093A008009372
:101A60009F08DF91CF911F910F9108950F931F93BE
:101A7000CF93DF93009731F46115710519F480E07D
:101A800090E03AC08B01EC016EE070E081E090E004
:101A90000E94C60FFC01892B91F380E88383011516
:101AA000110571F01387028781E883838091A30871
:101AB0009091A408892B21F4F093A408E093A30843
:101AC0002097C9F0D187C08783818260838380910A
:101AD000A5089091A608892B71F4F093A608E093CD
:101AE000A5088091A7089091A808892B21F4F0936C
:101AF000A808E093A708CF01DF91CF911F910F9124
:101B00000895CF93DF93CDB7DEB7AE014A5F5F4F45
:101B1000FA0161917191AF018091A5089091A60899
:101B20000E94CB0DDF91CF9108956091A50870912F
:101B3000A6080C94FF0F0F931F93CF93DF93E091B0
:101B4000A508F091A608238121FF1BC08C01D0E0DD
:101B5000C0E0F80181918F016091A5087091A608FD
:101B6000DB011896ED91FC911997882331F01995B6
:101B7000892B79F3DFEFCFEFECCF8AE01995892B32
:101B800019F08FEF9FEF02C08D2F9C2FDF91CF9127
:101B90001F910F9108952F923F924F925F926F92F3
:101BA0007F928F929F92AF92BF92CF92DF92EF92ED
:101BB000FF920F931F93CF93DF93CDB7DEB72C9790
:101BC0000FB6F894DEBF0FBECDBF7C016B018A015A
:101BD000FC0117821682838181FFBDC1CE0101966F
:101BE0004C01F7019381F60193FD859193FF81915B
:101BF0006F01882309F4ABC1853239F493FD8591D7
:101C000093FF81916F01853229F4B70190E00E9422
:101C1000FF0FE7CF512C312C20E02032A0F48B3283
:101C200069F030F4803259F0833269F420612CC0BD
:101C30008D3239F0803339F4216026C0226024606F
:101C400023C0286021C027FD27C030ED380F3A306F
:101C500078F426FF06C0FAE05F9E300D1124532E63
:101C600013C08AE0389E300D1124332E20620CC040
:101C70008E3221F426FD6BC1206406C08C3611F42F
:101C8000206802C0883641F4F60193FD859193FFE8
:101C900081916F018111C1CF982F9F7D9554933011
:101CA00028F40C5F1F4FFFE3F9830DC0833631F03A
:101CB000833771F0833509F05BC022C0F801808161
:101CC00089830E5F1F4F44244394512C540115C047
:101CD0003801F2E06F0E711CF801A080B18026FF80
:101CE00003C0652D70E002C06FEF7FEFC5012C8748
:101CF0000E94F40F2C0183012C852F77222E17C010
:101D00003801F2E06F0E711CF801A080B18026FF4F
:101D100003C0652D70E002C06FEF7FEFC5012C8717
:101D20000E94E20F2C012C852068222E830123FCC7
:101D30001BC0832D90E048165906B0F4B70180E22D
:101D400090E00E94FF0F3A94F4CFF50127FC8591B3
:101D500027FE81915F01B70190E00E94FF0F3110D3
:101D60003A94F1E04F1A51084114510471F7E5C05B
:101D7000843611F0893639F5F80127FF07C06081F4
:101D80007181828193810C5F1F4F08C060817181D6
:101D9000072E000C880B990B0E5F1F4F2F76722EAB
:101DA00097FF09C090958095709561957F4F8F4FF3
:101DB0009F4F2068722E2AE030E0A4010E94371065
:101DC000A82EA81844C0853729F42F7EB22E2AE009
:101DD00030E025C0F22FF97FBF2E8F36C1F018F406
:101DE000883579F0B4C0803719F0883721F0AFC05A
:101DF0002F2F2061B22EB4FE0DC08B2D8460B82E23
:101E000009C024FF0AC09F2F9660B92E06C028E0A3
:101E100030E005C020E130E002C020E132E0F8010E
:101E2000B7FE07C060817181828193810C5F1F4F73
:101E300006C06081718180E090E00E5F1F4FA401B9
:101E40000E943710A82EA818FB2DFF777F2E76FE54
:101E50000BC0372D3E7FA51450F474FE0AC072FCEF
:101E600008C0372D3E7E05C0BA2C372D03C0BA2CD2
:101E700001C0B52C34FF0DC0FE01EA0DF11D8081BB
:101E8000803311F4397E09C032FF06C0B394B39495
:101E900004C0832F867809F0B39433FD13C030FF5C
:101EA00006C05A2CB31418F4530C5B18B32CB3149B
:101EB00068F4B70180E290E03C870E94FF0FB39482
:101EC0003C85F5CFB31410F43B1801C0312C34FF1E
:101ED00012C0B70180E390E03C870E94FF0F3C8571
:101EE00032FF17C031FD03C088E790E002C088E5EB
:101EF00090E0B7010CC0832F867859F031FF02C003
:101F00008BE201C080E237FD8DE2B70190E00E94D4
:101F1000FF0FA51438F4B70180E390E00E94FF0F93
:101F20005A94F7CFAA94F401EA0DF11D8081B7010C
:101F300090E00E94FF0FA110F5CF332009F451CE9D
:101F4000B70180E290E00E94FF0F3A94F6CFF701CC
:101F50008681978102C08FEF9FEF2C960FB6F89481
:101F6000DEBF0FBECDBFDF91CF911F910F91FF90CC
:101F7000EF90DF90CF90BF90AF909F908F907F9029
:101F80006F905F904F903F902F9008950F931F9305
:101F9000CF93DF93869F8001879F100D969F100D32
:101FA0001124C8010E94090CEC01009729F0A80136
:101FB00060E070E00E94ED0FCE01DF91CF911F91A4
:101FC0000F910895FC010590615070400110D8F701
:101FD000809590958E0F9F1F0895DC0101C06D9331
:101FE00041505040E0F70895FC016150704001906D
:101FF0000110D8F7809590958E0F9F1F08950F932D
:102000001F93CF93DF93FB01238121FD03C08FEF4B
:102010009FEF28C022FF16C0468157812481358159
:102020004217530744F4A081B1819D012F5F3F4FB8
:10203000318320838C93268137812F5F3F4F3783F5
:10204000268310C0EB01092F182F0084F185E02DA5
:102050001995892BE1F68E819F8101969F838E834E
:10206000812F902FDF91CF911F910F910895FA0149
:10207000AA27283051F1203181F1E8946F936E7FC7
:102080006E5F7F4F8F4F9F4FAF4FB1E03ED0B4E0B8
:102090003CD0670F781F891F9A1FA11D680F791FF9
:1020A0008A1F911DA11D6A0F711D811D911DA11D0A
:1020B00020D009F468943F912AE0269F112430191A
:1020C000305D3193DEF6CF010895462F4770405DB5
:1020D0004193B3E00FD0C9F7F6CF462F4F70405D64
:1020E0004A3318F0495D31FD4052419302D0A9F7BF
:1020F000EACFB4E0A6959795879577956795BA95B9
:10210000C9F700976105710508959B01AC010A2E7E
:1021100006945795479537952795BA95C9F7620F55
:0E212000731F841F951FA01D0895F894FFCF14
:10212E008304F86F12833A0AD7233C000060400004
:10213E0000C03F300006000600060006000600063E
:10214E000006000600060006000600060006000651
:10215E000006000600060006000600060006000641
:10216E000006000600060006000600060006000631
:10217E000006000600060006000600060006000621
:10218E000006000600060006000600060006000611
:10219E000006000600060006000600060006000601
:1021AE0000060006000600060006000600060006F1
:1021BE0000060006000600060006000600060006E1
:1021CE0000060006000600060006000600060006D1
:1021DE0000060006000600060006000600060006C1
:1021EE0000060006000600060006000600060006B1
:1021FE0000060006000600060006000600060006A1
:10220E000006000600060006000600060006000690
:10221E000006000600060006000600060006000680
:10222E000006000600060006000600060006000670
:10223E000006000600060006000600060006000660
:10224E000006000600060006000600060006000650
:10225E000006000600060006000600060006000640
:10226E000006000600060006000600060006000630
:10227E000006000600060006000600060006000620
:10228E000006000600060006000600060006000610
:10229E000006000600060006000600060006000600
:1022AE0000060006000600060006000600060006F0
:1022BE0000060006005200A5005200A5005200A51F
:1022CE00005200A50037006E0037006E0037006E1A
:1022DE000037006E00340068003400680034006877
:1022EE00003400680037006E0037006E0037006E55
:1022FE00007B00830049009300490093004900933E
:10230E000049009300410083004100830041008397
:10231E0000410083003E007B003E007B003E007BC0
:10232E00003E007B0037006E0037006E0037006EF7
:10233E000037006E005200A5005200A5005200A505
:10234E00005200A50037006E0037006E0037006E99
:10235E000037006E003400680034006800340068F6
:10236E00003400680037006E0037006E0037006ED4
:10237E00007B0083004900930049009300490093BD
:10238E000049009300410083004100830041008317
:10239E0000410083003E007B003E007B003E007B40
:1023AE00003E007B0037006E0037006E0037006E77
:1023BE000037006E006E00A5006E00A5006E00A531
:1023CE00006E00A5006800A5006800A5006800A5C5
:1023DE00006800A5006E00A5006E00A5006E00A5A9
:1023EE00006E00A5006800A5006800A5006800A5A5
:1023FE00006800A5006E00A5006E00A5006E00A589
:10240E00006E00A5006800A5006800A5006800A584
:10241E00006800A5006E00A5006E00DC006E00DCFA
:10242E00006E00DC005200A5005200A5005200A56F
:10243E00005200A5000C0006000600060003000373
:10244E0000060006000B000100060006000C000648
:10245E000006000B000100060006000C000C000C2C
:10246E00000B0001000C000C0006000C0006000C16
:10247E000006000600120006000C00060006000B07
:10248E00000100060006000C000C000C000B000101
:10249E00000C000C000C00060006000600030003F2
:1024AE0000060006000B000100060006000C0006E8
:1024BE000006000B000100060006000C000C000CCC
:1024CE00000B0001000C000C0006000C0006000CB6
:1024DE000006000600120006000C00060006000BA7
:1024EE00000100060006000C000C000C000B0001A1
:1024FE00000C000C00180018001800180018001826
:10250E00001800180018001800180018000C000C15
:10251E00000B0001000C0030009302EE010B024B89
:10252E000293024B020B02EE01B8010000B8010B40
:10253E000293024B020B02EE010000EE010B024B66
:10254E000293020B02B8010000B801000093004B89
:10255E0002BA0270031003BA0293020B0293024BEB
:10256E00020B02EE010000EE010B024B0293020B76
:10257E0002B8010000B80100009302EE010B024BFD
:10258E000293024B020B02EE01B8010000B8010BE0
:10259E000293024B020B02EE010000EE010B024B06
:1025AE000293020B02B8010000B801000093004B29
:1025BE0002BA0270031003BA0293020B0293024B8B
:1025CE00020B02EE010000EE010B024B0293020B16
:1025DE0002B8010000B80100004A0106012601F709
:1025EE00000601DC00D000F7004A0106012601F7C3
:1025FE000006014A01B8010000B8019F010C000C51
:10260E00000C000C000C000C000C000C000C000C5C
:10261E00000C000C000C000C000C000C000C000C4C
:10262E00000C000C000C000C000C000C000C000C3C
:10263E00000C000C000C000C000C000C0010001024
:10264E000010000C000C000C000C000C000C000C18
:10265E00000C000C000C000C000C000C000C000C0C
:10266E00000C000C000C000C000C000C000C000CFC
:10267E00000C000C000C000C000C001000100010E0
:10268E00000C000C000C000C000C000C000C000CDC
:10269E00000C000C000C000C004D0A4D0A00004D01
:1026AE000A00002D084D0A0000400C00000000003A
:1026BE000020060000000000002D08000000002091
:1026CE000600000000270500000000E0060000B82C
:1026DE000700004907E006000020064D0A400CC026
:1026EE000D0000EA0A400C00004D0A00002D082DD6
:1026FE0009B807000000002D0800000000200600A9
:10270E00000000270500000000E0060000B80700EA
:10271E00004907E006000020064D0A400CC00D00DF
:10272E0000EA0A400C00004D0A00002D082D09B8E1
:10273E0007000000000000A908200043414E20774A
:10274E006F726B696E670A0D0043414E206572729F
:10275E006F720A0D007369676E616C3A20256420F2
:10276E00474F414C2121210D0A00436F6E74726F49
:10277E006C6C657220696E697469616C697A6564E6
:02278E000D003C
:00000001FF
