:100000000C9476000C94F0020C9497000C949700DA
:100010000C9497000C9497000C9497000C94970004
:100020000C9497000C9497000C9497000C949700F4
:100030000C9497000C9497000C9497000C949700E4
:100040000C9497000C9497000C9497000C949700D4
:100050000C9497000C9497000C9497000C949700C4
:100060000C9497000C9497000C9497000C949700B4
:100070000C9497000C9497000C9497000C949700A4
:100080000C9497000C9497000C9497000C94970094
:100090000C9497000C9497000C9497000C94970084
:1000A0000C9497000C9497000C9497000C94970074
:1000B0000C9497000C9497000C9497000C94970064
:1000C0000C9497000C9497000C9497000C94970054
:1000D0000C9497000C9497000C9497000C94970044
:1000E0000C9497000C9422010C941A0111241FBE49
:1000F000CFEFD1E2DEBFCDBF00E00CBF12E0A0E049
:10010000B2E0EEE8F0E100E00BBF02C007900D9214
:10011000A238B107D9F722E0A2E8B2E001C01D92EF
:10012000A239B207E1F70E9499000C9445080C949B
:100130000000CF93DF93CDB7DEB72C970FB6F894BE
:10014000DEBF0FBECDBF87E690E00E943301E89A84
:10015000E9E6F0E080818260808380818E7F808309
:100160000E941D0278940E941D02892B49F488E0A8
:1001700092E09F938F930E9404040F900F9008C009
:1001800086E192E09F938F930E9404040F900F905A
:100190000E9420030E9444010F2EF3E38F2EF2E011
:1001A0009F2EF02D0F2EF2E2AF2EF2E0BF2EF02D9B
:1001B000CE0101960E948902C980DA80EB80FC8022
:1001C0000D811E812F81388549855A856B857C85F7
:1001D00080910002909101020E943D0390930102E0
:1001E000809300020E945601082F192F9F938F932E
:1001F0009F928F920E94040442E852E0602F712F78
:1002000084E892E00E947E03809183028F93809124
:1002100082028F93809185028F93809184028F93C5
:10022000BF92AF920E9404040FB6F894DEBF0FBED7
:10023000CDBFBECFE0ECF0E0908195FFFDCF809385
:10024000C6000895CF93DF93E0ECF0E0808188232F
:10025000ECF7C6ECD0E0888190E00E941804888119
:10026000DF91CF9108959093C5008093C40088E1F9
:100270008093C1008EE08093C20062E271E08AE167
:1002800091E00E94B90308958098ECE7F0E0808146
:100290008064808380818F778083EAE7F0E08081CB
:1002A00080688083789480E090E00895EAE7F0E049
:1002B00080818064808380918602882391F0808190
:1002C000806480831092860288E392E09F938F93EC
:1002D0000E94040480917800909179000F900F9013
:1002E0000895809178009091790008951F920F925F
:1002F0000FB60F9211248F9381E0809386028F9125
:100300000F900FBE0F901F90189584B1876884B925
:10031000239881E58CBD80E090E008958EBD0DB4FA
:1003200007FEFDCF80E090E0089580E00E948E01FE
:100330008EB508952F9880E090E008952F9A80E080
:1003400090E008950E949A0180EC0E948E010E9424
:100350009E018FE493EC0197F1F700C0000080E06C
:1003600090E008950E9485010E94A20180E090E043
:100370000895CF93C82F0E949A0183E00E948E01B6
:100380008C2F0E948E010E949501C82F0E949E0111
:100390008C2FCF910895CF93DF93D82FC62F0E9433
:1003A0009A0182E00E948E018D2F0E948E018C2F77
:1003B0000E948E010E949E0180E090E0DF91CF912B
:1003C0000895CF93883018F4C82FC06801C0C0E8E2
:1003D0000E949A018C2F0E948E010E949E0180E053
:1003E00090E0CF910895CF930E949A0180EA0E94F5
:1003F0008E010E949501C82F0E949E018C2FCF91E3
:1004000008951F93CF93DF93182FD62FC42F0E94E8
:100410009A0185E00E948E01812F0E948E018D2F0E
:100420000E948E018C2F0E948E010E949E0180E00E
:1004300090E0DF91CF911F9108950E94B2014FEF9C
:1004400060E680E60E94010240E060EE8FE00E94DC
:10045000010241E061E08BE20E94010280E090E055
:10046000089580E30E94B9018FEF9FEF08950F93E5
:100470001F93CF938C018DE392E09F938F930E9403
:100480000404F80162857385759567957595679580
:100490007595679581E30E94CB01F80162857385AC
:1004A000660F771F62957295707F7627607F76273B
:1004B00082E30E94CB01F80160856F7085E30E94A2
:1004C000CB010F900F90F8018085918518161906C1
:1004D000A4F420E030E0C0E0F801E20FF31F6081F7
:1004E00086E38C0F0E94CB01CF5F2C2F30E0F80108
:1004F00080859185281739077CF381E00E94E1010E
:1005000080E090E0CF911F910F91089581E090E0FD
:100510000895AF92BF92CF92DF92EF92FF921F9316
:10052000CF93DF937C01809187028130B1F580E524
:1005300092E09F938F930E94040481E60E94B90188
:10054000A82E82E60E94B901829586958770B12C0B
:10055000AA0CBB1CAA0CBB1CAA0CBB1CA82A85E6B7
:100560000E94B9018F70C82ED12C0F900F901C14CF
:100570001D0484F4C0E0D0E010E086E6810F0E9404
:10058000B901CE0DDF1D88831F5FC12FD0E0CC15D0
:10059000DD059CF31092870203C0AA24AA94BA2C0A
:1005A000F701D186C086B386A286C701DF91CF91BD
:1005B0001F91FF90EF90DF90CF90BF90AF90089584
:1005C00040E060E08CE20E94010240E061E08CE2E9
:1005D0000E94010281E08093870280E090E008950C
:1005E0001F920F920FB60F9211240BB60F922F93FA
:1005F0003F934F935F936F937F938F939F93AF93AB
:10060000BF93EF93FF938AE692E09F938F930E94AC
:1006100004040E94E0020F900F90FF91EF91BF91B0
:10062000AF919F918F917F916F915F914F913F918A
:100630002F910F900BBE0F900FBE0F901F9018952B
:10064000E0E8F0E08081826C8083E1E8F0E0808186
:1006500088618083808184608083259A82EE94E023
:10066000909387008093860085E894E090938900BA
:100670008093880080E090E00895CF92DF92EF921F
:10068000FF920F931F93CF93DF93CDB7DEB72C97D5
:100690000FB6F894DEBF0FBECDBF9C019C2D8AEF34
:1006A0008C0D8F3540F4A90146565440483351050E
:1006B00010F42F5F3F4F9C599E3538F4C9018A567C
:1006C0009440C89710F421503109C90186569440CE
:1006D000CC9720F43093890020938800C9012C9690
:1006E0000FB6F894DEBF0FBECDBFDF91CF911F9143
:1006F0000F91FF90EF90DF90CF900895EF92FF92CF
:100700000F931F93CF93DF937C01EB018A019B0131
:100710002150310925393105C0F4FA0180819181D8
:10072000892B99F489E792E00E941E04F7018081E9
:10073000918101969183808381E090E0F80191831B
:100740008083CC3DD1054CF40BC0CC3DD10544F0A9
:10075000F80180819181019719F4F80111821082CA
:1007600080E090E0DF91CF911F910F91FF90EF908B
:1007700008950F931F93CF93DF93009731F4611582
:10078000710519F480E090E03AC08B01EC016EE055
:1007900070E081E090E00E944906FC01892B91F312
:1007A00080E883830115110571F01387028781E8C2
:1007B00083838091880290918902892B21F4F093A0
:1007C0008902E09388022097C9F0D187C08783818E
:1007D0008260838380918A0290918B02892B71F4CD
:1007E000F0938B02E0938A0280918C0290918D02AB
:1007F000892B21F4F0938D02E0938C02CF01DF91DD
:10080000CF911F910F910895CF93DF93CDB7DEB7AE
:10081000AE014A5F5F4FFA0161917191AF01809122
:100820008A0290918B020E944E04DF91CF9108952D
:1008300060918A0270918B020C94AF070F931F9303
:10084000CF93DF93E0918A02F0918B02238121FF05
:100850001BC08C01D0E0C0E0F80181918F01609154
:100860008A0270918B02DB011896ED91FC91199729
:10087000882331F01995892B79F3DFEFCFEFECCF97
:100880008AE01995892B19F08FEF9FEF02C08D2F09
:100890009C2FDF91CF911F910F9108952F923F923E
:1008A0004F925F926F927F928F929F92AF92BF9280
:1008B000CF92DF92EF92FF920F931F93CF93DF932C
:1008C000CDB7DEB72C970FB6F894DEBF0FBECDBF05
:1008D0007C016B018A01FC0117821682838181FFF2
:1008E000BDC1CE0101964C01F7019381F60193FD44
:1008F000859193FF81916F01882309F4ABC1853203
:1009000039F493FD859193FF81916F01853229F42C
:10091000B70190E00E94AF07E7CF512C312C20E0C7
:100920002032A0F48B3269F030F4803259F08332F7
:1009300069F420612CC08D3239F0803339F42160A4
:1009400026C02260246023C0286021C027FD27C064
:1009500030ED380F3A3078F426FF06C0FAE05F9E9B
:10096000300D1124532E13C08AE0389E300D11240F
:10097000332E20620CC08E3221F426FD6BC1206420
:1009800006C08C3611F4206802C0883641F4F601A6
:1009900093FD859193FF81916F018111C1CF982FB4
:1009A0009F7D9554933028F40C5F1F4FFFE3F9832C
:1009B0000DC0833631F0833771F0833509F05BC0A9
:1009C00022C0F801808189830E5F1F4F4424439425
:1009D000512C540115C03801F2E06F0E711CF80162
:1009E000A080B18026FF03C0652D70E002C06FEFCC
:1009F0007FEFC5012C870E94A4072C0183012C8561
:100A00002F77222E17C03801F2E06F0E711CF8010B
:100A1000A080B18026FF03C0652D70E002C06FEF9B
:100A20007FEFC5012C870E9492072C012C8520683E
:100A3000222E830123FC1BC0832D90E0481659060B
:100A4000B0F4B70180E290E00E94AF073A94F4CF8F
:100A5000F50127FC859127FE81915F01B70190E0A8
:100A60000E94AF0731103A94F1E04F1A5108411437
:100A7000510471F7E5C0843611F0893639F5F80173
:100A800027FF07C060817181828193810C5F1F4FB6
:100A900008C060817181072E000C880B990B0E5FD6
:100AA0001F4F2F76722E97FF09C0909580957095F5
:100AB00061957F4F8F4F9F4F2068722E2AE030E064
:100AC000A4010E94E707A82EA81844C0853729F47E
:100AD0002F7EB22E2AE030E025C0F22FF97FBF2E04
:100AE0008F36C1F018F4883579F0B4C0803719F02A
:100AF000883721F0AFC02F2F2061B22EB4FE0DC079
:100B00008B2D8460B82E09C024FF0AC09F2F9660E9
:100B1000B92E06C028E030E005C020E130E002C078
:100B200020E132E0F801B7FE07C060817181828167
:100B300093810C5F1F4F06C06081718180E090E05F
:100B40000E5F1F4FA4010E94E707A82EA818FB2DD7
:100B5000FF777F2E76FE0BC0372D3E7FA51450F415
:100B600074FE0AC072FC08C0372D3E7E05C0BA2C48
:100B7000372D03C0BA2C01C0B52C34FF0DC0FE01C7
:100B8000EA0DF11D8081803311F4397E09C032FFF6
:100B900006C0B394B39404C0832F867809F0B3944D
:100BA00033FD13C030FF06C05A2CB31418F4530C95
:100BB0005B18B32CB31468F4B70180E290E03C8773
:100BC0000E94AF07B3943C85F5CFB31410F43B18E3
:100BD00001C0312C34FF12C0B70180E390E03C87A4
:100BE0000E94AF073C8532FF17C031FD03C088E784
:100BF00090E002C088E590E0B7010CC0832F8678B2
:100C000059F031FF02C08BE201C080E237FD8DE276
:100C1000B70190E00E94AF07A51438F4B70180E354
:100C200090E00E94AF075A94F7CFAA94F401EA0D1E
:100C3000F11D8081B70190E00E94AF07A110F5CFB0
:100C4000332009F451CEB70180E290E00E94AF0753
:100C50003A94F6CFF7018681978102C08FEF9FEF1C
:100C60002C960FB6F894DEBF0FBECDBFDF91CF91AB
:100C70001F910F91FF90EF90DF90CF90BF90AF90BA
:100C80009F908F907F906F905F904F903F902F90AC
:100C900008950F931F93CF93DF93869F8001879FC3
:100CA000100D969F100D1124C8010E946506EC01DD
:100CB000009729F0A80160E070E00E949D07CE0136
:100CC000DF91CF911F910F910895CF93DF938230E1
:100CD000910510F482E090E0E0919002F091910291
:100CE00020E030E0C0E0D0E0309711F14081518148
:100CF00048175907C0F04817590761F4828193815A
:100D0000209719F09B838A832BC090939102809344
:100D1000900226C02115310519F04217530718F427
:100D20009A01BE01DF01EF010280F381E02DDCCFEB
:100D30002115310509F1281B390B2430310590F4B8
:100D400012968D919C9113976115710521F0FB010D
:100D50009383828304C09093910280939002FD015B
:100D6000329644C0FD01E20FF31F8193919322500C
:100D700031092D933C933AC020918E0230918F021D
:100D8000232B41F4209104023091050230938F020D
:100D900020938E0220910202309103022115310529
:100DA00041F42DB73EB74091060250910702241B33
:100DB000350BE0918E02F0918F02E217F307A0F459
:100DC0002E1B3F0B2817390778F0AC014E5F5F4FA1
:100DD0002417350748F04E0F5F1F50938F02409342
:100DE0008E028193919302C0E0E0F0E0CF01DF91A9
:100DF000CF9108950F931F93CF93DF93009709F43A
:100E00008CC0FC01329713821282009190021091E3
:100E100091020115110581F420813181820F931F08
:100E200020918E0230918F022817390779F5F093BF
:100E30008F02E0938E0271C0D80140E050E0AE17FF
:100E4000BF0750F412962D913C911397AD012115D7
:100E5000310509F1D901F3CF9D01DA0133832283F2
:100E600060817181860F971F8217930769F4EC01E7
:100E700028813981260F371F2E5F3F4F3183208312
:100E80008A819B8193838283452B29F4F09391027D
:100E9000E093900242C01396FC93EE931297ED01FB
:100EA000499159919E01240F351FE217F30771F400
:100EB00080819181840F951F029611969C938E9349
:100EC0008281938113969C938E931297E0E0F0E0D9
:100ED000D80112968D919C911397009719F0F80103
:100EE0008C01F6CF8D919C9198012E5F3F4F820F20
:100EF000931F20918E0230918F022817390769F4D1
:100F0000309729F4109291021092900202C013823D
:100F1000128210938F0200938E02DF91CF911F9166
:100F20000F910895FC010590615070400110D8F7B1
:100F3000809590958E0F9F1F0895DC0101C06D93E1
:100F400041505040E0F70895FC016150704001901D
:100F50000110D8F7809590958E0F9F1F08950F93DD
:100F60001F93CF93DF93FB01238121FD03C08FEFFC
:100F70009FEF28C022FF16C046815781248135810A
:100F80004217530744F4A081B1819D012F5F3F4F69
:100F9000318320838C93268137812F5F3F4F3783A6
:100FA000268310C0EB01092F182F0084F185E02D56
:100FB0001995892BE1F68E819F8101969F838E83FF
:100FC000812F902FDF91CF911F910F910895FA01FA
:100FD000AA27283051F1203181F1E8946F936E7F78
:100FE0006E5F7F4F8F4F9F4FAF4FB1E03ED0B4E069
:100FF0003CD0670F781F891F9A1FA11D680F791FAA
:101000008A1F911DA11D6A0F711D811D911DA11DBA
:1010100020D009F468943F912AE0269F11243019CA
:10102000305D3193DEF6CF010895462F4770405D65
:101030004193B3E00FD0C9F7F6CF462F4F70405D14
:101040004A3318F0495D31FD4052419302D0A9F76F
:10105000EACFB4E0A6959795879577956795BA9569
:10106000C9F700976105710508959B01AC010A2E2F
:1010700006945795479537952795BA95C9F7620F06
:0E108000731F841F951FA01D0895F894FFCFC5
:10108E00850400009202200043414E20776F726B60
:10109E00696E670A0D0043414E206572726F720AC7
:1010AE000D0053636F72653A2025640920466C610A
:1010BE00673A2025640D0A00546573740053656EFB
:1010CE0064696E67206D657373616765200A0D0034
:1010DE0056616C6964206D65737361676520726516
:1010EE00636569766564200A0D00496E74657272D7
:1010FE007570742121210A0D00474F414C21212189
:02110E000D00D2
:00000001FF
