:100000000C9476000C941F030C9497000C949700AA
:100010000C9497000C9497000C9497000C94970004
:100020000C9497000C9497000C9497000C949700F4
:100030000C9497000C9497000C9497000C949700E4
:100040000C9497000C9497000C9497000C949700D4
:100050000C9497000C9497000C9497000C949700C4
:100060000C9497000C9497000C9497000C949700B4
:100070000C9497000C9497000C9497000C949700A4
:100080000C9497000C9497000C9497000C94970094
:100090000C9497000C9497000C9497000C94970084
:1000A0000C9497000C9497000C9497000C94970074
:1000B0000C9497000C9497000C9497000C94970064
:1000C0000C9497000C9497000C9497000C94970054
:1000D0000C9497000C9497000C9497000C94970044
:1000E0000C9497000C940E010C94060111241FBE71
:1000F000CFEFD1E2DEBFCDBF00E00CBF13E0A0E048
:10010000B2E0EEEAFFE000E00BBF02C007900D9204
:10011000A832B107D9F723E0A8E2B3E001C01D92ED
:10012000A333B207E1F70E9499000C94D5070C9411
:100130000000CF93DF93CDB7DEB768970FB6F89482
:10014000DEBF0FBECDBF87E690E00E941F01E89A98
:10015000E9E6F0E080818260808380818E7F808309
:100160000E94DA01789483E690E09C878B8784E094
:1001700090E09A87898781E0898382E08A8383E09F
:100180008B8384E08C830E94DA01892B49F486E01A
:1001900092E09F938F930E94C4030F900F9008C02A
:1001A00084E192E09F938F930E94C4030F900F907D
:1001B0000E944F0300E212E00E944F032FEF87EAF4
:1001C00091E6215080409040E1F700C00000CE0150
:1001D00001960E94F401CE010D960E9484028F8543
:1001E0001F928F938E851F928F938D851F928F9371
:1001F000888D8F938F898F931F930F930E94C403D1
:100200000FB6F894DEBF0FBECDBFD6CFE0ECF0E066
:10021000908195FFFDCF8093C6000895CF93DF9323
:10022000E0ECF0E080818823ECF7C6ECD0E0888138
:1002300090E00E94D8038881DF91CF910895909338
:10024000C5008093C40088E18093C1008EE0809354
:10025000C2006EE071E086E091E00E9479030895AB
:10026000229880E090E00895843050F48460E0E0CB
:10027000F4E1808382E68A95F1F700008081089599
:1002800080E0089584B1876884B9239881E58CBDA6
:1002900080E090E008958EBD0DB407FEFDCF80E0B4
:1002A00090E0089580E00E944B018EB508952F984C
:1002B00080E090E008952F9A80E090E008950E94F9
:1002C000570180EC0E944B010E945B018FE493EC8C
:1002D0000197F1F700C0000080E090E008950E94CF
:1002E00042010E945F0180E090E00895CF93C82F03
:1002F0000E94570183E00E944B018C2F0E944B010A
:100300000E945201C82F0E945B018C2FCF9108954B
:10031000CF93DF93D82FC62F0E94570182E00E940F
:100320004B018D2F0E944B018C2F0E944B010E948C
:100330005B0180E090E0DF91CF910895CF9388300A
:1003400018F4C82FC06801C0C0E80E9457018C2F64
:100350000E944B010E945B0180E090E0CF910895E4
:10036000CF930E94570180EA0E944B010E945201E4
:10037000C82F0E945B018C2FCF9108951F93CF93BC
:10038000DF93182FD62FC42F0E94570185E00E94BB
:100390004B01812F0E944B018D2F0E944B018C2F0E
:1003A0000E944B010E945B0180E090E0DF91CF91C1
:1003B0001F9108950E946F014FEF60E680E60E9452
:1003C000BE0140E060EE8FE00E94BE0141E061E0CE
:1003D0008BE20E94BE0180E090E0089580E30E94DD
:1003E00076018FEF9FEF08950F931F93CF938C01AA
:1003F00087E392E09F938F930E94C403F801628584
:10040000738575956795759567957595679581E37E
:100410000E948801F80162857385660F771F6295D7
:100420007295707F7627607F762782E30E9488012D
:10043000F80160856F7085E30E9488010F900F902E
:10044000F8018085918518161906A4F420E030E0A3
:10045000C0E0F801E20FF31F608186E38C0F0E9479
:100460008801CF5F2C2F30E0F80180859185281717
:1004700039077CF381E00E949E0181E30E947601AE
:100480001F928F938AE492E09F938F930E94C403FC
:1004900082E30E9476011F928F9380E692E09F9301
:1004A0008F930E94C40385E30E9476011F928F936D
:1004B00086E792E09F938F930E94C40386E30E9495
:1004C00076011F928F938BE892E09F938F930E9407
:1004D000C403809128031F928F9382EA92E09F9336
:1004E0008F930E94C4038DB79EB744960FB6F894BD
:1004F0009EBF0FBE8DBF80E090E0CF911F910F9106
:10050000089581E090E00895AF92BF92CF92DF927C
:10051000EF92FF921F93CF93DF937C0181E60E94BD
:1005200076011F928F9387EB92E09F938F930E94A7
:10053000C40382E60E9476011F928F9389EC92E0B9
:100540009F938F930E94C40385E60E9476011F92B9
:100550008F938BED92E09F938F930E94C40386E666
:100560000E9476011F928F938CEE92E09F938F935F
:100570000E94C4038DB79EB740960FB6F8949EBFF5
:100580000FBE8DBF809128038130B1F58FEF92E0CF
:100590009F938F930E94C40381E60E947601A82E48
:1005A00082E60E947601829586958770B12CAA0C0E
:1005B000BB1CAA0CBB1CAA0CBB1CA82A85E60E946B
:1005C00076018F70C82ED12C0F900F901C141D0433
:1005D00084F4C0E0D0E010E086E6810F0E9476014E
:1005E000CE0DDF1D88831F5FC12FD0E0CC15DD0548
:1005F0009CF31092280303C0AA24AA94BA2CF701F2
:10060000D186C086B386A286C701DF91CF911F91A4
:10061000FF90EF90DF90CF90BF90AF90089540E0B3
:1006200060E08CE20E94BE0140E061E08CE20E944A
:10063000BE0181E08093280380E090E008951F923E
:100640000F920FB60F9211240BB60F922F933F9378
:100650004F935F936F937F938F939F93AF93BF93CA
:10066000EF93FF9389E193E09F938F930E94C403DC
:100670000E940F030F900F90FF91EF91BF91AF91E8
:100680009F918F917F916F915F914F913F912F91AA
:100690000F900BBE0F900FBE0F901F901895E0E8C3
:1006A000F0E08081826C8083E1E8F0E08081886105
:1006B0008083808184608083259A82EE94E0909389
:1006C00087008093860085E894E09093890080936A
:1006D000880080E090E008959C01265634402C3339
:1006E000310520F4909389008093880080E090E0A9
:1006F00008950F931F93CF93DF93009731F4611503
:10070000710519F480E090E03AC08B01EC016EE0D5
:1007100070E081E090E00E94D905FC01892B91F303
:1007200080E883830115110571F01387028781E842
:1007300083838091290390912A03892B21F4F093DC
:100740002A03E09329032097C9F0D187C0878381CA
:100750008260838380912B0390912C03892B71F409
:10076000F0932C03E0932B0380912D0390912E03A3
:10077000892B21F4F0932E03E0932D03CF01DF9119
:10078000CF911F910F910895CF93DF93CDB7DEB72F
:10079000AE014A5F5F4FFA0161917191AF018091A3
:1007A0002B0390912C030E94DE03DF91CF910895DB
:1007B00060912B0370912C030C943F072F923F9272
:1007C0004F925F926F927F928F929F92AF92BF9261
:1007D000CF92DF92EF92FF920F931F93CF93DF930D
:1007E000CDB7DEB72C970FB6F894DEBF0FBECDBFE6
:1007F0007C016B018A01FC0117821682838181FFD3
:10080000BDC1CE0101964C01F7019381F60193FD24
:10081000859193FF81916F01882309F4ABC18532E3
:1008200039F493FD859193FF81916F01853229F40D
:10083000B70190E00E943F07E7CF512C312C20E018
:100840002032A0F48B3269F030F4803259F08332D8
:1008500069F420612CC08D3239F0803339F4216085
:1008600026C02260246023C0286021C027FD27C045
:1008700030ED380F3A3078F426FF06C0FAE05F9E7C
:10088000300D1124532E13C08AE0389E300D1124F0
:10089000332E20620CC08E3221F426FD6BC1206401
:1008A00006C08C3611F4206802C0883641F4F60187
:1008B00093FD859193FF81916F018111C1CF982F95
:1008C0009F7D9554933028F40C5F1F4FFFE3F9830D
:1008D0000DC0833631F0833771F0833509F05BC08A
:1008E00022C0F801808189830E5F1F4F4424439406
:1008F000512C540115C03801F2E06F0E711CF80143
:10090000A080B18026FF03C0652D70E002C06FEFAC
:100910007FEFC5012C870E9434072C0183012C85B1
:100920002F77222E17C03801F2E06F0E711CF801EC
:10093000A080B18026FF03C0652D70E002C06FEF7C
:100940007FEFC5012C870E9422072C012C8520688F
:10095000222E830123FC1BC0832D90E048165906EC
:10096000B0F4B70180E290E00E943F073A94F4CFE0
:10097000F50127FC859127FE81915F01B70190E089
:100980000E943F0731103A94F1E04F1A5108411488
:10099000510471F7E5C0843611F0893639F5F80154
:1009A00027FF07C060817181828193810C5F1F4F97
:1009B00008C060817181072E000C880B990B0E5FB7
:1009C0001F4F2F76722E97FF09C0909580957095D6
:1009D00061957F4F8F4F9F4F2068722E2AE030E045
:1009E000A4010E947707A82EA81844C0853729F4CF
:1009F0002F7EB22E2AE030E025C0F22FF97FBF2EE5
:100A00008F36C1F018F4883579F0B4C0803719F00A
:100A1000883721F0AFC02F2F2061B22EB4FE0DC059
:100A20008B2D8460B82E09C024FF0AC09F2F9660CA
:100A3000B92E06C028E030E005C020E130E002C059
:100A400020E132E0F801B7FE07C060817181828148
:100A500093810C5F1F4F06C06081718180E090E040
:100A60000E5F1F4FA4010E947707A82EA818FB2D28
:100A7000FF777F2E76FE0BC0372D3E7FA51450F4F6
:100A800074FE0AC072FC08C0372D3E7E05C0BA2C29
:100A9000372D03C0BA2C01C0B52C34FF0DC0FE01A8
:100AA000EA0DF11D8081803311F4397E09C032FFD7
:100AB00006C0B394B39404C0832F867809F0B3942E
:100AC00033FD13C030FF06C05A2CB31418F4530C76
:100AD0005B18B32CB31468F4B70180E290E03C8754
:100AE0000E943F07B3943C85F5CFB31410F43B1834
:100AF00001C0312C34FF12C0B70180E390E03C8785
:100B00000E943F073C8532FF17C031FD03C088E7D4
:100B100090E002C088E590E0B7010CC0832F867892
:100B200059F031FF02C08BE201C080E237FD8DE257
:100B3000B70190E00E943F07A51438F4B70180E3A5
:100B400090E00E943F075A94F7CFAA94F401EA0D6F
:100B5000F11D8081B70190E00E943F07A110F5CF01
:100B6000332009F451CEB70180E290E00E943F07A4
:100B70003A94F6CFF7018681978102C08FEF9FEFFD
:100B80002C960FB6F894DEBF0FBECDBFDF91CF918C
:100B90001F910F91FF90EF90DF90CF90BF90AF909B
:100BA0009F908F907F906F905F904F903F902F908D
:100BB00008950F931F93CF93DF93869F8001879FA4
:100BC000100D969F100D1124C8010E94F505EC012F
:100BD000009729F0A80160E070E00E942D07CE0187
:100BE000DF91CF911F910F910895CF93DF938230C2
:100BF000910510F482E090E0E0913103F09132032E
:100C000020E030E0C0E0D0E0309711F14081518128
:100C100048175907C0F04817590761F4828193813A
:100C2000209719F09B838A832BC090933203809383
:100C3000310326C02115310519F04217530718F466
:100C40009A01BE01DF01EF010280F381E02DDCCFCC
:100C50002115310509F1281B390B2430310590F499
:100C600012968D919C9113976115710521F0FB01EE
:100C70009383828304C09093320380933103FD01F8
:100C8000329644C0FD01E20FF31F819391932250ED
:100C900031092D933C933AC020912F0330913003BA
:100CA000232B41F420910202309103023093300350
:100CB00020932F032091000230910102211531056C
:100CC00041F42DB73EB74091040250910502241B18
:100CD000350BE0912F03F0913003E217F307A0F4F6
:100CE0002E1B3F0B2817390778F0AC014E5F5F4F82
:100CF0002417350748F04E0F5F1F50933003409381
:100D00002F038193919302C0E0E0F0E0CF01DF91E7
:100D1000CF9108950F931F93CF93DF93009709F41A
:100D20008CC0FC0132971382128200913103109122
:100D300032030115110581F420813181820F931F47
:100D400020912F03309130032817390779F5F0935C
:100D50003003E0932F0371C0D80140E050E0AE179C
:100D6000BF0750F412962D913C911397AD012115B8
:100D7000310509F1D901F3CF9D01DA0133832283D3
:100D800060817181860F971F8217930769F4EC01C8
:100D900028813981260F371F2E5F3F4F31832083F3
:100DA0008A819B8193838283452B29F4F0933203BC
:100DB000E093310342C01396FC93EE931297ED013A
:100DC000499159919E01240F351FE217F30771F4E1
:100DD00080819181840F951F029611969C938E932A
:100DE0008281938113969C938E931297E0E0F0E0BA
:100DF000D80112968D919C911397009719F0F801E4
:100E00008C01F6CF8D919C9198012E5F3F4F820F00
:100E1000931F20912F03309130032817390769F46D
:100E2000309729F4109232031092310302C01382DA
:100E300012821093300300932F03DF91CF911F9103
:100E40000F910895FC010590615070400110D8F792
:100E5000809590958E0F9F1F0895DC0101C06D93C2
:100E600041505040E0F70895FC01615070400190FE
:100E70000110D8F7809590958E0F9F1F08950F93BE
:100E80001F93CF93DF93FB01238121FD03C08FEFDD
:100E90009FEF28C022FF16C04681578124813581EB
:100EA0004217530744F4A081B1819D012F5F3F4F4A
:100EB000318320838C93268137812F5F3F4F378387
:100EC000268310C0EB01092F182F0084F185E02D37
:100ED0001995892BE1F68E819F8101969F838E83E0
:100EE000812F902FDF91CF911F910F910895FA01DB
:100EF000AA27283051F1203181F1E8946F936E7F59
:100F00006E5F7F4F8F4F9F4FAF4FB1E03ED0B4E049
:100F10003CD0670F781F891F9A1FA11D680F791F8A
:100F20008A1F911DA11D6A0F711D811D911DA11D9B
:100F300020D009F468943F912AE0269F11243019AB
:100F4000305D3193DEF6CF010895462F4770405D46
:100F50004193B3E00FD0C9F7F6CF462F4F70405DF5
:100F60004A3318F0495D31FD4052419302D0A9F750
:100F7000EACFB4E0A6959795879577956795BA954A
:100F8000C9F700976105710508959B01AC010A2E10
:100F900006945795479537952795BA95C9F7620FE7
:0E0FA000731F841F951FA01D0895F894FFCFA6
:100FAE0000003303200043414E20776F726B696E51
:100FBE00670A0D0043414E206572726F720A0D0072
:100FCE0049443A20256409444154413A256409258F
:100FDE00640925640A0D0053656E64696E67206DA1
:100FEE00657373616765200A0D00436F6E74656EDD
:100FFE0074206F66204944483A202564200A0D006B
:10100E00436F6E74656E74206F662049444C3A20AF
:10101E002564200A0D00436F6E74656E74206F6632
:10102E0020444C3A202564200A0D00436F6E7465EF
:10103E006E74206F6620445B305D3A202564200A72
:10104E000D007278462061667465722073656E6459
:10105E003A2025640A0D00524543206F662049440C
:10106E00483A202564200A0D00524543206F662021
:10107E0049444C3A202564200A0D00524543206F06
:10108E006620444C3A202564200A0D005245432028
:10109E006F6620445B305D3A202564200A0D0056B1
:1010AE00616C6964206D6573736167652072656339
:1010BE006569766564200A0D00496E7465727275F5
:0810CE0070742121210A0D00BC
:00000001FF
